{
	"contracts/Caculator.sol": {
		"Calculator": {
			"abi": [
				{
					"inputs": [],
					"stateMutability": "nonpayable",
					"type": "constructor"
				},
				{
					"inputs": [
						{
							"internalType": "int16",
							"name": "value",
							"type": "int16"
						}
					],
					"name": "add",
					"outputs": [],
					"stateMutability": "nonpayable",
					"type": "function"
				},
				{
					"inputs": [],
					"name": "getCurrentValue",
					"outputs": [
						{
							"internalType": "int16",
							"name": "",
							"type": "int16"
						}
					],
					"stateMutability": "view",
					"type": "function"
				},
				{
					"inputs": [
						{
							"internalType": "int16",
							"name": "value",
							"type": "int16"
						}
					],
					"name": "subtract",
					"outputs": [],
					"stateMutability": "nonpayable",
					"type": "function"
				}
			],
			"devdoc": {
				"custom:dev-run-script": "./scripts/deploy_caculator_with_ethers.ts",
				"details": "A simple smart contract that stores and emits a greeting message.",
				"kind": "dev",
				"methods": {
					"add(int16)": {
						"details": "Function to perform addition",
						"params": {
							"value": "The addition value"
						}
					},
					"constructor": {
						"details": "Constructor function to initialize the contract with a default greeting message."
					},
					"getCurrentValue()": {
						"details": "Function to get the current result",
						"returns": {
							"_0": "The current greeting message."
						}
					},
					"subtract(int16)": {
						"details": "Function to perform subtraction",
						"params": {
							"value": "The subtraction value"
						}
					}
				},
				"title": "Helloworld",
				"version": 1
			},
			"evm": {
				"assembly": "    /* \"contracts/Caculator.sol\":228:1013  contract Calculator {... */\n  mstore(0x40, 0x80)\n    /* \"contracts/Caculator.sol\":396:443  constructor() {... */\n  callvalue\n  dup1\n  iszero\n  tag_1\n  jumpi\n  0x00\n  dup1\n  revert\ntag_1:\n  pop\n    /* \"contracts/Caculator.sol\":435:436  0 */\n  0x00\n    /* \"contracts/Caculator.sol\":420:432  currentValue */\n  dup1\n  0x00\n    /* \"contracts/Caculator.sol\":420:436  currentValue = 0 */\n  0x0100\n  exp\n  dup2\n  sload\n  dup2\n  0xffff\n  mul\n  not\n  and\n  swap1\n  dup4\n  0x01\n  signextend\n  0xffff\n  and\n  mul\n  or\n  swap1\n  sstore\n  pop\n    /* \"contracts/Caculator.sol\":228:1013  contract Calculator {... */\n  dataSize(sub_0)\n  dup1\n  dataOffset(sub_0)\n  0x00\n  codecopy\n  0x00\n  return\nstop\n\nsub_0: assembly {\n        /* \"contracts/Caculator.sol\":228:1013  contract Calculator {... */\n      mstore(0x40, 0x80)\n      callvalue\n      dup1\n      iszero\n      tag_1\n      jumpi\n      0x00\n      dup1\n      revert\n    tag_1:\n      pop\n      jumpi(tag_2, lt(calldatasize, 0x04))\n      shr(0xe0, calldataload(0x00))\n      dup1\n      0x0f76c114\n      eq\n      tag_3\n      jumpi\n      dup1\n      0x56dd9b2d\n      eq\n      tag_4\n      jumpi\n      dup1\n      0xf7804114\n      eq\n      tag_5\n      jumpi\n    tag_2:\n      0x00\n      dup1\n      revert\n        /* \"contracts/Caculator.sol\":918:1011  function getCurrentValue() external view returns (int16) {... */\n    tag_3:\n      tag_6\n      tag_7\n      jump\t// in\n    tag_6:\n      mload(0x40)\n      tag_8\n      swap2\n      swap1\n      tag_9\n      jump\t// in\n    tag_8:\n      mload(0x40)\n      dup1\n      swap2\n      sub\n      swap1\n      return\n        /* \"contracts/Caculator.sol\":726:804  function subtract(int16 value) external {... */\n    tag_4:\n      tag_10\n      0x04\n      dup1\n      calldatasize\n      sub\n      dup2\n      add\n      swap1\n      tag_11\n      swap2\n      swap1\n      tag_12\n      jump\t// in\n    tag_11:\n      tag_13\n      jump\t// in\n    tag_10:\n      stop\n        /* \"contracts/Caculator.sol\":545:618  function add(int16 value) external {... */\n    tag_5:\n      tag_14\n      0x04\n      dup1\n      calldatasize\n      sub\n      dup2\n      add\n      swap1\n      tag_15\n      swap2\n      swap1\n      tag_12\n      jump\t// in\n    tag_15:\n      tag_16\n      jump\t// in\n    tag_14:\n      stop\n        /* \"contracts/Caculator.sol\":918:1011  function getCurrentValue() external view returns (int16) {... */\n    tag_7:\n        /* \"contracts/Caculator.sol\":968:973  int16 */\n      0x00\n        /* \"contracts/Caculator.sol\":992:1004  currentValue */\n      dup1\n      0x00\n      swap1\n      sload\n      swap1\n      0x0100\n      exp\n      swap1\n      div\n      0x01\n      signextend\n        /* \"contracts/Caculator.sol\":985:1004  return currentValue */\n      swap1\n      pop\n        /* \"contracts/Caculator.sol\":918:1011  function getCurrentValue() external view returns (int16) {... */\n      swap1\n      jump\t// out\n        /* \"contracts/Caculator.sol\":726:804  function subtract(int16 value) external {... */\n    tag_13:\n        /* \"contracts/Caculator.sol\":792:797  value */\n      dup1\n        /* \"contracts/Caculator.sol\":776:788  currentValue */\n      0x00\n      dup1\n        /* \"contracts/Caculator.sol\":776:797  currentValue -= value */\n      dup3\n      dup3\n      dup3\n      swap1\n      sload\n      swap1\n      0x0100\n      exp\n      swap1\n      div\n      0x01\n      signextend\n      tag_19\n      swap2\n      swap1\n      tag_20\n      jump\t// in\n    tag_19:\n      swap3\n      pop\n      0x0100\n      exp\n      dup2\n      sload\n      dup2\n      0xffff\n      mul\n      not\n      and\n      swap1\n      dup4\n      0x01\n      signextend\n      0xffff\n      and\n      mul\n      or\n      swap1\n      sstore\n      pop\n        /* \"contracts/Caculator.sol\":726:804  function subtract(int16 value) external {... */\n      pop\n      jump\t// out\n        /* \"contracts/Caculator.sol\":545:618  function add(int16 value) external {... */\n    tag_16:\n        /* \"contracts/Caculator.sol\":606:611  value */\n      dup1\n        /* \"contracts/Caculator.sol\":590:602  currentValue */\n      0x00\n      dup1\n        /* \"contracts/Caculator.sol\":590:611  currentValue += value */\n      dup3\n      dup3\n      dup3\n      swap1\n      sload\n      swap1\n      0x0100\n      exp\n      swap1\n      div\n      0x01\n      signextend\n      tag_22\n      swap2\n      swap1\n      tag_23\n      jump\t// in\n    tag_22:\n      swap3\n      pop\n      0x0100\n      exp\n      dup2\n      sload\n      dup2\n      0xffff\n      mul\n      not\n      and\n      swap1\n      dup4\n      0x01\n      signextend\n      0xffff\n      and\n      mul\n      or\n      swap1\n      sstore\n      pop\n        /* \"contracts/Caculator.sol\":545:618  function add(int16 value) external {... */\n      pop\n      jump\t// out\n        /* \"#utility.yul\":7:97   */\n    tag_24:\n        /* \"#utility.yul\":42:49   */\n      0x00\n        /* \"#utility.yul\":85:90   */\n      dup2\n        /* \"#utility.yul\":82:83   */\n      0x01\n        /* \"#utility.yul\":71:91   */\n      signextend\n        /* \"#utility.yul\":60:91   */\n      swap1\n      pop\n        /* \"#utility.yul\":7:97   */\n      swap2\n      swap1\n      pop\n      jump\t// out\n        /* \"#utility.yul\":103:215   */\n    tag_25:\n        /* \"#utility.yul\":186:208   */\n      tag_35\n        /* \"#utility.yul\":202:207   */\n      dup2\n        /* \"#utility.yul\":186:208   */\n      tag_24\n      jump\t// in\n    tag_35:\n        /* \"#utility.yul\":181:184   */\n      dup3\n        /* \"#utility.yul\":174:209   */\n      mstore\n        /* \"#utility.yul\":103:215   */\n      pop\n      pop\n      jump\t// out\n        /* \"#utility.yul\":221:435   */\n    tag_9:\n        /* \"#utility.yul\":310:314   */\n      0x00\n        /* \"#utility.yul\":348:350   */\n      0x20\n        /* \"#utility.yul\":337:346   */\n      dup3\n        /* \"#utility.yul\":333:351   */\n      add\n        /* \"#utility.yul\":325:351   */\n      swap1\n      pop\n        /* \"#utility.yul\":361:428   */\n      tag_37\n        /* \"#utility.yul\":425:426   */\n      0x00\n        /* \"#utility.yul\":414:423   */\n      dup4\n        /* \"#utility.yul\":410:427   */\n      add\n        /* \"#utility.yul\":401:407   */\n      dup5\n        /* \"#utility.yul\":361:428   */\n      tag_25\n      jump\t// in\n    tag_37:\n        /* \"#utility.yul\":221:435   */\n      swap3\n      swap2\n      pop\n      pop\n      jump\t// out\n        /* \"#utility.yul\":522:639   */\n    tag_27:\n        /* \"#utility.yul\":631:632   */\n      0x00\n        /* \"#utility.yul\":628:629   */\n      dup1\n        /* \"#utility.yul\":621:633   */\n      revert\n        /* \"#utility.yul\":768:886   */\n    tag_29:\n        /* \"#utility.yul\":839:861   */\n      tag_42\n        /* \"#utility.yul\":855:860   */\n      dup2\n        /* \"#utility.yul\":839:861   */\n      tag_24\n      jump\t// in\n    tag_42:\n        /* \"#utility.yul\":832:837   */\n      dup2\n        /* \"#utility.yul\":829:862   */\n      eq\n        /* \"#utility.yul\":819:880   */\n      tag_43\n      jumpi\n        /* \"#utility.yul\":876:877   */\n      0x00\n        /* \"#utility.yul\":873:874   */\n      dup1\n        /* \"#utility.yul\":866:878   */\n      revert\n        /* \"#utility.yul\":819:880   */\n    tag_43:\n        /* \"#utility.yul\":768:886   */\n      pop\n      jump\t// out\n        /* \"#utility.yul\":892:1027   */\n    tag_30:\n        /* \"#utility.yul\":936:941   */\n      0x00\n        /* \"#utility.yul\":974:980   */\n      dup2\n        /* \"#utility.yul\":961:981   */\n      calldataload\n        /* \"#utility.yul\":952:981   */\n      swap1\n      pop\n        /* \"#utility.yul\":990:1021   */\n      tag_45\n        /* \"#utility.yul\":1015:1020   */\n      dup2\n        /* \"#utility.yul\":990:1021   */\n      tag_29\n      jump\t// in\n    tag_45:\n        /* \"#utility.yul\":892:1027   */\n      swap3\n      swap2\n      pop\n      pop\n      jump\t// out\n        /* \"#utility.yul\":1033:1358   */\n    tag_12:\n        /* \"#utility.yul\":1090:1096   */\n      0x00\n        /* \"#utility.yul\":1139:1141   */\n      0x20\n        /* \"#utility.yul\":1127:1136   */\n      dup3\n        /* \"#utility.yul\":1118:1125   */\n      dup5\n        /* \"#utility.yul\":1114:1137   */\n      sub\n        /* \"#utility.yul\":1110:1142   */\n      slt\n        /* \"#utility.yul\":1107:1226   */\n      iszero\n      tag_47\n      jumpi\n        /* \"#utility.yul\":1145:1224   */\n      tag_48\n      tag_27\n      jump\t// in\n    tag_48:\n        /* \"#utility.yul\":1107:1226   */\n    tag_47:\n        /* \"#utility.yul\":1265:1266   */\n      0x00\n        /* \"#utility.yul\":1290:1341   */\n      tag_49\n        /* \"#utility.yul\":1333:1340   */\n      dup5\n        /* \"#utility.yul\":1324:1330   */\n      dup3\n        /* \"#utility.yul\":1313:1322   */\n      dup6\n        /* \"#utility.yul\":1309:1331   */\n      add\n        /* \"#utility.yul\":1290:1341   */\n      tag_30\n      jump\t// in\n    tag_49:\n        /* \"#utility.yul\":1280:1341   */\n      swap2\n      pop\n        /* \"#utility.yul\":1236:1351   */\n      pop\n        /* \"#utility.yul\":1033:1358   */\n      swap3\n      swap2\n      pop\n      pop\n      jump\t// out\n        /* \"#utility.yul\":1364:1544   */\n    tag_31:\n        /* \"#utility.yul\":1412:1489   */\n      0x4e487b7100000000000000000000000000000000000000000000000000000000\n        /* \"#utility.yul\":1409:1410   */\n      0x00\n        /* \"#utility.yul\":1402:1490   */\n      mstore\n        /* \"#utility.yul\":1509:1513   */\n      0x11\n        /* \"#utility.yul\":1506:1507   */\n      0x04\n        /* \"#utility.yul\":1499:1514   */\n      mstore\n        /* \"#utility.yul\":1533:1537   */\n      0x24\n        /* \"#utility.yul\":1530:1531   */\n      0x00\n        /* \"#utility.yul\":1523:1538   */\n      revert\n        /* \"#utility.yul\":1550:1861   */\n    tag_20:\n        /* \"#utility.yul\":1588:1592   */\n      0x00\n        /* \"#utility.yul\":1608:1626   */\n      tag_52\n        /* \"#utility.yul\":1624:1625   */\n      dup3\n        /* \"#utility.yul\":1608:1626   */\n      tag_24\n      jump\t// in\n    tag_52:\n        /* \"#utility.yul\":1603:1626   */\n      swap2\n      pop\n        /* \"#utility.yul\":1640:1658   */\n      tag_53\n        /* \"#utility.yul\":1656:1657   */\n      dup4\n        /* \"#utility.yul\":1640:1658   */\n      tag_24\n      jump\t// in\n    tag_53:\n        /* \"#utility.yul\":1635:1658   */\n      swap3\n      pop\n        /* \"#utility.yul\":1682:1683   */\n      dup3\n        /* \"#utility.yul\":1679:1680   */\n      dup3\n        /* \"#utility.yul\":1675:1684   */\n      sub\n        /* \"#utility.yul\":1667:1684   */\n      swap1\n      pop\n        /* \"#utility.yul\":1814:1820   */\n      0x7fff\n        /* \"#utility.yul\":1808:1812   */\n      dup2\n        /* \"#utility.yul\":1804:1821   */\n      sgt\n        /* \"#utility.yul\":1723:1789   */\n      0xffffffffffffffffffffffffffffffffffffffffffffffffffffffffffff8000\n        /* \"#utility.yul\":1717:1721   */\n      dup3\n        /* \"#utility.yul\":1713:1790   */\n      slt\n        /* \"#utility.yul\":1697:1831   */\n      or\n        /* \"#utility.yul\":1694:1854   */\n      iszero\n      tag_54\n      jumpi\n        /* \"#utility.yul\":1834:1852   */\n      tag_55\n      tag_31\n      jump\t// in\n    tag_55:\n        /* \"#utility.yul\":1694:1854   */\n    tag_54:\n        /* \"#utility.yul\":1550:1861   */\n      swap3\n      swap2\n      pop\n      pop\n      jump\t// out\n        /* \"#utility.yul\":1867:2174   */\n    tag_23:\n        /* \"#utility.yul\":1905:1908   */\n      0x00\n        /* \"#utility.yul\":1924:1942   */\n      tag_57\n        /* \"#utility.yul\":1940:1941   */\n      dup3\n        /* \"#utility.yul\":1924:1942   */\n      tag_24\n      jump\t// in\n    tag_57:\n        /* \"#utility.yul\":1919:1942   */\n      swap2\n      pop\n        /* \"#utility.yul\":1956:1974   */\n      tag_58\n        /* \"#utility.yul\":1972:1973   */\n      dup4\n        /* \"#utility.yul\":1956:1974   */\n      tag_24\n      jump\t// in\n    tag_58:\n        /* \"#utility.yul\":1951:1974   */\n      swap3\n      pop\n        /* \"#utility.yul\":1997:1998   */\n      dup3\n        /* \"#utility.yul\":1994:1995   */\n      dup3\n        /* \"#utility.yul\":1990:1999   */\n      add\n        /* \"#utility.yul\":1983:1999   */\n      swap1\n      pop\n        /* \"#utility.yul\":2067:2133   */\n      0xffffffffffffffffffffffffffffffffffffffffffffffffffffffffffff8000\n        /* \"#utility.yul\":2062:2065   */\n      dup2\n        /* \"#utility.yul\":2058:2134   */\n      slt\n        /* \"#utility.yul\":2037:2043   */\n      0x7fff\n        /* \"#utility.yul\":2032:2035   */\n      dup3\n        /* \"#utility.yul\":2028:2044   */\n      sgt\n        /* \"#utility.yul\":2012:2144   */\n      or\n        /* \"#utility.yul\":2009:2167   */\n      iszero\n      tag_59\n      jumpi\n        /* \"#utility.yul\":2147:2165   */\n      tag_60\n      tag_31\n      jump\t// in\n    tag_60:\n        /* \"#utility.yul\":2009:2167   */\n    tag_59:\n        /* \"#utility.yul\":1867:2174   */\n      swap3\n      swap2\n      pop\n      pop\n      jump\t// out\n\n    auxdata: 0xa2646970667358221220dde14c60ed6803fba8b052e4a162977e01235a94b8676123a9b0bba0f4480d9964736f6c63430008160033\n}\n",
				"bytecode": {
					"linkReferences": {},
					"object": "608060405234801561000f575f80fd5b505f805f6101000a81548161ffff021916908360010b61ffff1602179055506102c78061003b5f395ff3fe608060405234801561000f575f80fd5b506004361061003f575f3560e01c80630f76c1141461004357806356dd9b2d14610061578063f78041141461007d575b5f80fd5b61004b610099565b6040516100589190610140565b60405180910390f35b61007b60048036038101906100769190610187565b6100ad565b005b61009760048036038101906100929190610187565b6100e9565b005b5f805f9054906101000a900460010b905090565b805f808282829054906101000a900460010b6100c991906101df565b92506101000a81548161ffff021916908360010b61ffff16021790555050565b805f808282829054906101000a900460010b6101059190610238565b92506101000a81548161ffff021916908360010b61ffff16021790555050565b5f8160010b9050919050565b61013a81610125565b82525050565b5f6020820190506101535f830184610131565b92915050565b5f80fd5b61016681610125565b8114610170575f80fd5b50565b5f813590506101818161015d565b92915050565b5f6020828403121561019c5761019b610159565b5b5f6101a984828501610173565b91505092915050565b7f4e487b71000000000000000000000000000000000000000000000000000000005f52601160045260245ffd5b5f6101e982610125565b91506101f483610125565b92508282039050617fff81137fffffffffffffffffffffffffffffffffffffffffffffffffffffffffffff800082121715610232576102316101b2565b5b92915050565b5f61024282610125565b915061024d83610125565b925082820190507fffffffffffffffffffffffffffffffffffffffffffffffffffffffffffff80008112617fff8213171561028b5761028a6101b2565b5b9291505056fea2646970667358221220dde14c60ed6803fba8b052e4a162977e01235a94b8676123a9b0bba0f4480d9964736f6c63430008160033",
					"opcodes": "PUSH1 0x80 PUSH1 0x40 MSTORE CALLVALUE DUP1 ISZERO PUSH2 0xF JUMPI PUSH0 DUP1 REVERT JUMPDEST POP PUSH0 DUP1 PUSH0 PUSH2 0x100 EXP DUP2 SLOAD DUP2 PUSH2 0xFFFF MUL NOT AND SWAP1 DUP4 PUSH1 0x1 SIGNEXTEND PUSH2 0xFFFF AND MUL OR SWAP1 SSTORE POP PUSH2 0x2C7 DUP1 PUSH2 0x3B PUSH0 CODECOPY PUSH0 RETURN INVALID PUSH1 0x80 PUSH1 0x40 MSTORE CALLVALUE DUP1 ISZERO PUSH2 0xF JUMPI PUSH0 DUP1 REVERT JUMPDEST POP PUSH1 0x4 CALLDATASIZE LT PUSH2 0x3F JUMPI PUSH0 CALLDATALOAD PUSH1 0xE0 SHR DUP1 PUSH4 0xF76C114 EQ PUSH2 0x43 JUMPI DUP1 PUSH4 0x56DD9B2D EQ PUSH2 0x61 JUMPI DUP1 PUSH4 0xF7804114 EQ PUSH2 0x7D JUMPI JUMPDEST PUSH0 DUP1 REVERT JUMPDEST PUSH2 0x4B PUSH2 0x99 JUMP JUMPDEST PUSH1 0x40 MLOAD PUSH2 0x58 SWAP2 SWAP1 PUSH2 0x140 JUMP JUMPDEST PUSH1 0x40 MLOAD DUP1 SWAP2 SUB SWAP1 RETURN JUMPDEST PUSH2 0x7B PUSH1 0x4 DUP1 CALLDATASIZE SUB DUP2 ADD SWAP1 PUSH2 0x76 SWAP2 SWAP1 PUSH2 0x187 JUMP JUMPDEST PUSH2 0xAD JUMP JUMPDEST STOP JUMPDEST PUSH2 0x97 PUSH1 0x4 DUP1 CALLDATASIZE SUB DUP2 ADD SWAP1 PUSH2 0x92 SWAP2 SWAP1 PUSH2 0x187 JUMP JUMPDEST PUSH2 0xE9 JUMP JUMPDEST STOP JUMPDEST PUSH0 DUP1 PUSH0 SWAP1 SLOAD SWAP1 PUSH2 0x100 EXP SWAP1 DIV PUSH1 0x1 SIGNEXTEND SWAP1 POP SWAP1 JUMP JUMPDEST DUP1 PUSH0 DUP1 DUP3 DUP3 DUP3 SWAP1 SLOAD SWAP1 PUSH2 0x100 EXP SWAP1 DIV PUSH1 0x1 SIGNEXTEND PUSH2 0xC9 SWAP2 SWAP1 PUSH2 0x1DF JUMP JUMPDEST SWAP3 POP PUSH2 0x100 EXP DUP2 SLOAD DUP2 PUSH2 0xFFFF MUL NOT AND SWAP1 DUP4 PUSH1 0x1 SIGNEXTEND PUSH2 0xFFFF AND MUL OR SWAP1 SSTORE POP POP JUMP JUMPDEST DUP1 PUSH0 DUP1 DUP3 DUP3 DUP3 SWAP1 SLOAD SWAP1 PUSH2 0x100 EXP SWAP1 DIV PUSH1 0x1 SIGNEXTEND PUSH2 0x105 SWAP2 SWAP1 PUSH2 0x238 JUMP JUMPDEST SWAP3 POP PUSH2 0x100 EXP DUP2 SLOAD DUP2 PUSH2 0xFFFF MUL NOT AND SWAP1 DUP4 PUSH1 0x1 SIGNEXTEND PUSH2 0xFFFF AND MUL OR SWAP1 SSTORE POP POP JUMP JUMPDEST PUSH0 DUP2 PUSH1 0x1 SIGNEXTEND SWAP1 POP SWAP2 SWAP1 POP JUMP JUMPDEST PUSH2 0x13A DUP2 PUSH2 0x125 JUMP JUMPDEST DUP3 MSTORE POP POP JUMP JUMPDEST PUSH0 PUSH1 0x20 DUP3 ADD SWAP1 POP PUSH2 0x153 PUSH0 DUP4 ADD DUP5 PUSH2 0x131 JUMP JUMPDEST SWAP3 SWAP2 POP POP JUMP JUMPDEST PUSH0 DUP1 REVERT JUMPDEST PUSH2 0x166 DUP2 PUSH2 0x125 JUMP JUMPDEST DUP2 EQ PUSH2 0x170 JUMPI PUSH0 DUP1 REVERT JUMPDEST POP JUMP JUMPDEST PUSH0 DUP2 CALLDATALOAD SWAP1 POP PUSH2 0x181 DUP2 PUSH2 0x15D JUMP JUMPDEST SWAP3 SWAP2 POP POP JUMP JUMPDEST PUSH0 PUSH1 0x20 DUP3 DUP5 SUB SLT ISZERO PUSH2 0x19C JUMPI PUSH2 0x19B PUSH2 0x159 JUMP JUMPDEST JUMPDEST PUSH0 PUSH2 0x1A9 DUP5 DUP3 DUP6 ADD PUSH2 0x173 JUMP JUMPDEST SWAP2 POP POP SWAP3 SWAP2 POP POP JUMP JUMPDEST PUSH32 0x4E487B7100000000000000000000000000000000000000000000000000000000 PUSH0 MSTORE PUSH1 0x11 PUSH1 0x4 MSTORE PUSH1 0x24 PUSH0 REVERT JUMPDEST PUSH0 PUSH2 0x1E9 DUP3 PUSH2 0x125 JUMP JUMPDEST SWAP2 POP PUSH2 0x1F4 DUP4 PUSH2 0x125 JUMP JUMPDEST SWAP3 POP DUP3 DUP3 SUB SWAP1 POP PUSH2 0x7FFF DUP2 SGT PUSH32 0xFFFFFFFFFFFFFFFFFFFFFFFFFFFFFFFFFFFFFFFFFFFFFFFFFFFFFFFFFFFF8000 DUP3 SLT OR ISZERO PUSH2 0x232 JUMPI PUSH2 0x231 PUSH2 0x1B2 JUMP JUMPDEST JUMPDEST SWAP3 SWAP2 POP POP JUMP JUMPDEST PUSH0 PUSH2 0x242 DUP3 PUSH2 0x125 JUMP JUMPDEST SWAP2 POP PUSH2 0x24D DUP4 PUSH2 0x125 JUMP JUMPDEST SWAP3 POP DUP3 DUP3 ADD SWAP1 POP PUSH32 0xFFFFFFFFFFFFFFFFFFFFFFFFFFFFFFFFFFFFFFFFFFFFFFFFFFFFFFFFFFFF8000 DUP2 SLT PUSH2 0x7FFF DUP3 SGT OR ISZERO PUSH2 0x28B JUMPI PUSH2 0x28A PUSH2 0x1B2 JUMP JUMPDEST JUMPDEST SWAP3 SWAP2 POP POP JUMP INVALID LOG2 PUSH5 0x6970667358 0x22 SLT KECCAK256 0xDD 0xE1 0x4C PUSH1 0xED PUSH9 0x3FBA8B052E4A16297 PUSH31 0x1235A94B8676123A9B0BBA0F4480D9964736F6C6343000816003300000000 "
				},
				"gasEstimates": {
					"creation": {
						"codeDepositCost": "142200",
						"executionCost": "24461",
						"totalCost": "166661"
					},
					"external": {
						"add(int16)": "infinite",
						"getCurrentValue()": "2455",
						"subtract(int16)": "infinite"
					}
				},
				"methodIdentifiers": {
					"add(int16)": "f7804114",
					"getCurrentValue()": "0f76c114",
					"subtract(int16)": "56dd9b2d"
				}
			},
			"storageLayout": {
				"storage": [
					{
						"astId": 4,
						"contract": "contracts/Caculator.sol:Calculator",
						"label": "currentValue",
						"offset": 0,
						"slot": "0",
						"type": "t_int16"
					}
				],
				"types": {
					"t_int16": {
						"encoding": "inplace",
						"label": "int16",
						"numberOfBytes": "2"
					}
				}
			},
			"userdoc": {
				"kind": "user",
				"methods": {},
				"version": 1
			}
		}
	}
}