{
	"contracts/Calculator.sol": {
		"Calculator": {
			"abi": [
				{
					"inputs": [],
					"stateMutability": "nonpayable",
					"type": "constructor"
				},
				{
					"anonymous": false,
					"inputs": [
						{
							"indexed": true,
							"internalType": "int256",
							"name": "num1",
							"type": "int256"
						},
						{
							"indexed": true,
							"internalType": "int256",
							"name": "num2",
							"type": "int256"
						},
						{
							"indexed": false,
							"internalType": "int256",
							"name": "result",
							"type": "int256"
						}
					],
					"name": "Addition",
					"type": "event"
				},
				{
					"anonymous": false,
					"inputs": [
						{
							"indexed": true,
							"internalType": "int256",
							"name": "num1",
							"type": "int256"
						},
						{
							"indexed": true,
							"internalType": "int256",
							"name": "num2",
							"type": "int256"
						},
						{
							"indexed": false,
							"internalType": "int256",
							"name": "result",
							"type": "int256"
						}
					],
					"name": "Subtraction",
					"type": "event"
				},
				{
					"inputs": [
						{
							"internalType": "int16",
							"name": "value",
							"type": "int16"
						}
					],
					"name": "add",
					"outputs": [],
					"stateMutability": "nonpayable",
					"type": "function"
				},
				{
					"inputs": [],
					"name": "getCurrentValue",
					"outputs": [
						{
							"internalType": "int16",
							"name": "",
							"type": "int16"
						}
					],
					"stateMutability": "view",
					"type": "function"
				},
				{
					"inputs": [
						{
							"internalType": "int16",
							"name": "value",
							"type": "int16"
						}
					],
					"name": "subtract",
					"outputs": [],
					"stateMutability": "nonpayable",
					"type": "function"
				}
			],
			"devdoc": {
				"custom:dev-run-script": "./scripts/deploy_caculator_with_ethers.ts",
				"details": "A simple smart contract that stores and emits a greeting message.",
				"kind": "dev",
				"methods": {
					"add(int16)": {
						"details": "Function to perform addition",
						"params": {
							"value": "The addition value"
						}
					},
					"constructor": {
						"details": "Constructor function to initialize the contract with a default greeting message."
					},
					"getCurrentValue()": {
						"details": "Function to get the current result",
						"returns": {
							"_0": "The current greeting message."
						}
					},
					"subtract(int16)": {
						"details": "Function to perform subtraction",
						"params": {
							"value": "The subtraction value"
						}
					}
				},
				"title": "Helloworld",
				"version": 1
			},
			"evm": {
				"assembly": "    /* \"contracts/Calculator.sol\":228:1430  contract Calculator {... */\n  mstore(0x40, 0x80)\n    /* \"contracts/Calculator.sol\":678:725  constructor() {... */\n  callvalue\n  dup1\n  iszero\n  tag_1\n  jumpi\n  0x00\n  dup1\n  revert\ntag_1:\n  pop\n    /* \"contracts/Calculator.sol\":717:718  0 */\n  0x00\n    /* \"contracts/Calculator.sol\":702:714  currentValue */\n  dup1\n  0x00\n    /* \"contracts/Calculator.sol\":702:718  currentValue = 0 */\n  0x0100\n  exp\n  dup2\n  sload\n  dup2\n  0xffff\n  mul\n  not\n  and\n  swap1\n  dup4\n  0x01\n  signextend\n  0xffff\n  and\n  mul\n  or\n  swap1\n  sstore\n  pop\n    /* \"contracts/Calculator.sol\":228:1430  contract Calculator {... */\n  dataSize(sub_0)\n  dup1\n  dataOffset(sub_0)\n  0x00\n  codecopy\n  0x00\n  return\nstop\n\nsub_0: assembly {\n        /* \"contracts/Calculator.sol\":228:1430  contract Calculator {... */\n      mstore(0x40, 0x80)\n      callvalue\n      dup1\n      iszero\n      tag_1\n      jumpi\n      0x00\n      dup1\n      revert\n    tag_1:\n      pop\n      jumpi(tag_2, lt(calldatasize, 0x04))\n      shr(0xe0, calldataload(0x00))\n      dup1\n      0x0f76c114\n      eq\n      tag_3\n      jumpi\n      dup1\n      0x56dd9b2d\n      eq\n      tag_4\n      jumpi\n      dup1\n      0xf7804114\n      eq\n      tag_5\n      jumpi\n    tag_2:\n      0x00\n      dup1\n      revert\n        /* \"contracts/Calculator.sol\":1335:1428  function getCurrentValue() external view returns (int16) {... */\n    tag_3:\n      tag_6\n      tag_7\n      jump\t// in\n    tag_6:\n      mload(0x40)\n      tag_8\n      swap2\n      swap1\n      tag_9\n      jump\t// in\n    tag_8:\n      mload(0x40)\n      dup1\n      swap2\n      sub\n      swap1\n      return\n        /* \"contracts/Calculator.sol\":1074:1221  function subtract(int16 value) external {... */\n    tag_4:\n      tag_10\n      0x04\n      dup1\n      calldatasize\n      sub\n      dup2\n      add\n      swap1\n      tag_11\n      swap2\n      swap1\n      tag_12\n      jump\t// in\n    tag_11:\n      tag_13\n      jump\t// in\n    tag_10:\n      stop\n        /* \"contracts/Calculator.sol\":827:966  function add(int16 value) external {... */\n    tag_5:\n      tag_14\n      0x04\n      dup1\n      calldatasize\n      sub\n      dup2\n      add\n      swap1\n      tag_15\n      swap2\n      swap1\n      tag_12\n      jump\t// in\n    tag_15:\n      tag_16\n      jump\t// in\n    tag_14:\n      stop\n        /* \"contracts/Calculator.sol\":1335:1428  function getCurrentValue() external view returns (int16) {... */\n    tag_7:\n        /* \"contracts/Calculator.sol\":1385:1390  int16 */\n      0x00\n        /* \"contracts/Calculator.sol\":1409:1421  currentValue */\n      dup1\n      0x00\n      swap1\n      sload\n      swap1\n      0x0100\n      exp\n      swap1\n      div\n      0x01\n      signextend\n        /* \"contracts/Calculator.sol\":1402:1421  return currentValue */\n      swap1\n      pop\n        /* \"contracts/Calculator.sol\":1335:1428  function getCurrentValue() external view returns (int16) {... */\n      swap1\n      jump\t// out\n        /* \"contracts/Calculator.sol\":1074:1221  function subtract(int16 value) external {... */\n    tag_13:\n        /* \"contracts/Calculator.sol\":1140:1145  value */\n      dup1\n        /* \"contracts/Calculator.sol\":1124:1136  currentValue */\n      0x00\n      dup1\n        /* \"contracts/Calculator.sol\":1124:1145  currentValue -= value */\n      dup3\n      dup3\n      dup3\n      swap1\n      sload\n      swap1\n      0x0100\n      exp\n      swap1\n      div\n      0x01\n      signextend\n      tag_19\n      swap2\n      swap1\n      tag_20\n      jump\t// in\n    tag_19:\n      swap3\n      pop\n      0x0100\n      exp\n      dup2\n      sload\n      dup2\n      0xffff\n      mul\n      not\n      and\n      swap1\n      dup4\n      0x01\n      signextend\n      0xffff\n      and\n      mul\n      or\n      swap1\n      sstore\n      pop\n        /* \"contracts/Calculator.sol\":1194:1199  value */\n      dup1\n        /* \"contracts/Calculator.sol\":1160:1214  Subtraction(currentValue + value, value, currentValue) */\n      0x01\n      signextend\n        /* \"contracts/Calculator.sol\":1187:1192  value */\n      dup2\n        /* \"contracts/Calculator.sol\":1172:1184  currentValue */\n      0x00\n      dup1\n      sload\n      swap1\n      0x0100\n      exp\n      swap1\n      div\n      0x01\n      signextend\n        /* \"contracts/Calculator.sol\":1172:1192  currentValue + value */\n      tag_21\n      swap2\n      swap1\n      tag_22\n      jump\t// in\n    tag_21:\n        /* \"contracts/Calculator.sol\":1160:1214  Subtraction(currentValue + value, value, currentValue) */\n      0x01\n      signextend\n      0xd897d548d80194b8226579c303f7f2d2225ccff91c49cd446b756ba321a82cb7\n        /* \"contracts/Calculator.sol\":1201:1213  currentValue */\n      0x00\n      dup1\n      sload\n      swap1\n      0x0100\n      exp\n      swap1\n      div\n      0x01\n      signextend\n        /* \"contracts/Calculator.sol\":1160:1214  Subtraction(currentValue + value, value, currentValue) */\n      mload(0x40)\n      tag_23\n      swap2\n      swap1\n      tag_24\n      jump\t// in\n    tag_23:\n      mload(0x40)\n      dup1\n      swap2\n      sub\n      swap1\n      log3\n        /* \"contracts/Calculator.sol\":1074:1221  function subtract(int16 value) external {... */\n      pop\n      jump\t// out\n        /* \"contracts/Calculator.sol\":827:966  function add(int16 value) external {... */\n    tag_16:\n        /* \"contracts/Calculator.sol\":888:893  value */\n      dup1\n        /* \"contracts/Calculator.sol\":872:884  currentValue */\n      0x00\n      dup1\n        /* \"contracts/Calculator.sol\":872:893  currentValue += value */\n      dup3\n      dup3\n      dup3\n      swap1\n      sload\n      swap1\n      0x0100\n      exp\n      swap1\n      div\n      0x01\n      signextend\n      tag_26\n      swap2\n      swap1\n      tag_22\n      jump\t// in\n    tag_26:\n      swap3\n      pop\n      0x0100\n      exp\n      dup2\n      sload\n      dup2\n      0xffff\n      mul\n      not\n      and\n      swap1\n      dup4\n      0x01\n      signextend\n      0xffff\n      and\n      mul\n      or\n      swap1\n      sstore\n      pop\n        /* \"contracts/Calculator.sol\":939:944  value */\n      dup1\n        /* \"contracts/Calculator.sol\":908:959  Addition(currentValue - value, value, currentValue) */\n      0x01\n      signextend\n        /* \"contracts/Calculator.sol\":932:937  value */\n      dup2\n        /* \"contracts/Calculator.sol\":917:929  currentValue */\n      0x00\n      dup1\n      sload\n      swap1\n      0x0100\n      exp\n      swap1\n      div\n      0x01\n      signextend\n        /* \"contracts/Calculator.sol\":917:937  currentValue - value */\n      tag_27\n      swap2\n      swap1\n      tag_20\n      jump\t// in\n    tag_27:\n        /* \"contracts/Calculator.sol\":908:959  Addition(currentValue - value, value, currentValue) */\n      0x01\n      signextend\n      0x4b7f160e6c35d5003fec87ccf7c325b03b1ba82d70044115c9c04d3383ff56c4\n        /* \"contracts/Calculator.sol\":946:958  currentValue */\n      0x00\n      dup1\n      sload\n      swap1\n      0x0100\n      exp\n      swap1\n      div\n      0x01\n      signextend\n        /* \"contracts/Calculator.sol\":908:959  Addition(currentValue - value, value, currentValue) */\n      mload(0x40)\n      tag_28\n      swap2\n      swap1\n      tag_24\n      jump\t// in\n    tag_28:\n      mload(0x40)\n      dup1\n      swap2\n      sub\n      swap1\n      log3\n        /* \"contracts/Calculator.sol\":827:966  function add(int16 value) external {... */\n      pop\n      jump\t// out\n        /* \"#utility.yul\":7:97   */\n    tag_29:\n        /* \"#utility.yul\":42:49   */\n      0x00\n        /* \"#utility.yul\":85:90   */\n      dup2\n        /* \"#utility.yul\":82:83   */\n      0x01\n        /* \"#utility.yul\":71:91   */\n      signextend\n        /* \"#utility.yul\":60:91   */\n      swap1\n      pop\n        /* \"#utility.yul\":7:97   */\n      swap2\n      swap1\n      pop\n      jump\t// out\n        /* \"#utility.yul\":103:215   */\n    tag_30:\n        /* \"#utility.yul\":186:208   */\n      tag_44\n        /* \"#utility.yul\":202:207   */\n      dup2\n        /* \"#utility.yul\":186:208   */\n      tag_29\n      jump\t// in\n    tag_44:\n        /* \"#utility.yul\":181:184   */\n      dup3\n        /* \"#utility.yul\":174:209   */\n      mstore\n        /* \"#utility.yul\":103:215   */\n      pop\n      pop\n      jump\t// out\n        /* \"#utility.yul\":221:435   */\n    tag_9:\n        /* \"#utility.yul\":310:314   */\n      0x00\n        /* \"#utility.yul\":348:350   */\n      0x20\n        /* \"#utility.yul\":337:346   */\n      dup3\n        /* \"#utility.yul\":333:351   */\n      add\n        /* \"#utility.yul\":325:351   */\n      swap1\n      pop\n        /* \"#utility.yul\":361:428   */\n      tag_46\n        /* \"#utility.yul\":425:426   */\n      0x00\n        /* \"#utility.yul\":414:423   */\n      dup4\n        /* \"#utility.yul\":410:427   */\n      add\n        /* \"#utility.yul\":401:407   */\n      dup5\n        /* \"#utility.yul\":361:428   */\n      tag_30\n      jump\t// in\n    tag_46:\n        /* \"#utility.yul\":221:435   */\n      swap3\n      swap2\n      pop\n      pop\n      jump\t// out\n        /* \"#utility.yul\":522:639   */\n    tag_32:\n        /* \"#utility.yul\":631:632   */\n      0x00\n        /* \"#utility.yul\":628:629   */\n      dup1\n        /* \"#utility.yul\":621:633   */\n      revert\n        /* \"#utility.yul\":768:886   */\n    tag_34:\n        /* \"#utility.yul\":839:861   */\n      tag_51\n        /* \"#utility.yul\":855:860   */\n      dup2\n        /* \"#utility.yul\":839:861   */\n      tag_29\n      jump\t// in\n    tag_51:\n        /* \"#utility.yul\":832:837   */\n      dup2\n        /* \"#utility.yul\":829:862   */\n      eq\n        /* \"#utility.yul\":819:880   */\n      tag_52\n      jumpi\n        /* \"#utility.yul\":876:877   */\n      0x00\n        /* \"#utility.yul\":873:874   */\n      dup1\n        /* \"#utility.yul\":866:878   */\n      revert\n        /* \"#utility.yul\":819:880   */\n    tag_52:\n        /* \"#utility.yul\":768:886   */\n      pop\n      jump\t// out\n        /* \"#utility.yul\":892:1027   */\n    tag_35:\n        /* \"#utility.yul\":936:941   */\n      0x00\n        /* \"#utility.yul\":974:980   */\n      dup2\n        /* \"#utility.yul\":961:981   */\n      calldataload\n        /* \"#utility.yul\":952:981   */\n      swap1\n      pop\n        /* \"#utility.yul\":990:1021   */\n      tag_54\n        /* \"#utility.yul\":1015:1020   */\n      dup2\n        /* \"#utility.yul\":990:1021   */\n      tag_34\n      jump\t// in\n    tag_54:\n        /* \"#utility.yul\":892:1027   */\n      swap3\n      swap2\n      pop\n      pop\n      jump\t// out\n        /* \"#utility.yul\":1033:1358   */\n    tag_12:\n        /* \"#utility.yul\":1090:1096   */\n      0x00\n        /* \"#utility.yul\":1139:1141   */\n      0x20\n        /* \"#utility.yul\":1127:1136   */\n      dup3\n        /* \"#utility.yul\":1118:1125   */\n      dup5\n        /* \"#utility.yul\":1114:1137   */\n      sub\n        /* \"#utility.yul\":1110:1142   */\n      slt\n        /* \"#utility.yul\":1107:1226   */\n      iszero\n      tag_56\n      jumpi\n        /* \"#utility.yul\":1145:1224   */\n      tag_57\n      tag_32\n      jump\t// in\n    tag_57:\n        /* \"#utility.yul\":1107:1226   */\n    tag_56:\n        /* \"#utility.yul\":1265:1266   */\n      0x00\n        /* \"#utility.yul\":1290:1341   */\n      tag_58\n        /* \"#utility.yul\":1333:1340   */\n      dup5\n        /* \"#utility.yul\":1324:1330   */\n      dup3\n        /* \"#utility.yul\":1313:1322   */\n      dup6\n        /* \"#utility.yul\":1309:1331   */\n      add\n        /* \"#utility.yul\":1290:1341   */\n      tag_35\n      jump\t// in\n    tag_58:\n        /* \"#utility.yul\":1280:1341   */\n      swap2\n      pop\n        /* \"#utility.yul\":1236:1351   */\n      pop\n        /* \"#utility.yul\":1033:1358   */\n      swap3\n      swap2\n      pop\n      pop\n      jump\t// out\n        /* \"#utility.yul\":1364:1544   */\n    tag_36:\n        /* \"#utility.yul\":1412:1489   */\n      0x4e487b7100000000000000000000000000000000000000000000000000000000\n        /* \"#utility.yul\":1409:1410   */\n      0x00\n        /* \"#utility.yul\":1402:1490   */\n      mstore\n        /* \"#utility.yul\":1509:1513   */\n      0x11\n        /* \"#utility.yul\":1506:1507   */\n      0x04\n        /* \"#utility.yul\":1499:1514   */\n      mstore\n        /* \"#utility.yul\":1533:1537   */\n      0x24\n        /* \"#utility.yul\":1530:1531   */\n      0x00\n        /* \"#utility.yul\":1523:1538   */\n      revert\n        /* \"#utility.yul\":1550:1861   */\n    tag_20:\n        /* \"#utility.yul\":1588:1592   */\n      0x00\n        /* \"#utility.yul\":1608:1626   */\n      tag_61\n        /* \"#utility.yul\":1624:1625   */\n      dup3\n        /* \"#utility.yul\":1608:1626   */\n      tag_29\n      jump\t// in\n    tag_61:\n        /* \"#utility.yul\":1603:1626   */\n      swap2\n      pop\n        /* \"#utility.yul\":1640:1658   */\n      tag_62\n        /* \"#utility.yul\":1656:1657   */\n      dup4\n        /* \"#utility.yul\":1640:1658   */\n      tag_29\n      jump\t// in\n    tag_62:\n        /* \"#utility.yul\":1635:1658   */\n      swap3\n      pop\n        /* \"#utility.yul\":1682:1683   */\n      dup3\n        /* \"#utility.yul\":1679:1680   */\n      dup3\n        /* \"#utility.yul\":1675:1684   */\n      sub\n        /* \"#utility.yul\":1667:1684   */\n      swap1\n      pop\n        /* \"#utility.yul\":1814:1820   */\n      0x7fff\n        /* \"#utility.yul\":1808:1812   */\n      dup2\n        /* \"#utility.yul\":1804:1821   */\n      sgt\n        /* \"#utility.yul\":1723:1789   */\n      0xffffffffffffffffffffffffffffffffffffffffffffffffffffffffffff8000\n        /* \"#utility.yul\":1717:1721   */\n      dup3\n        /* \"#utility.yul\":1713:1790   */\n      slt\n        /* \"#utility.yul\":1697:1831   */\n      or\n        /* \"#utility.yul\":1694:1854   */\n      iszero\n      tag_63\n      jumpi\n        /* \"#utility.yul\":1834:1852   */\n      tag_64\n      tag_36\n      jump\t// in\n    tag_64:\n        /* \"#utility.yul\":1694:1854   */\n    tag_63:\n        /* \"#utility.yul\":1550:1861   */\n      swap3\n      swap2\n      pop\n      pop\n      jump\t// out\n        /* \"#utility.yul\":1867:2174   */\n    tag_22:\n        /* \"#utility.yul\":1905:1908   */\n      0x00\n        /* \"#utility.yul\":1924:1942   */\n      tag_66\n        /* \"#utility.yul\":1940:1941   */\n      dup3\n        /* \"#utility.yul\":1924:1942   */\n      tag_29\n      jump\t// in\n    tag_66:\n        /* \"#utility.yul\":1919:1942   */\n      swap2\n      pop\n        /* \"#utility.yul\":1956:1974   */\n      tag_67\n        /* \"#utility.yul\":1972:1973   */\n      dup4\n        /* \"#utility.yul\":1956:1974   */\n      tag_29\n      jump\t// in\n    tag_67:\n        /* \"#utility.yul\":1951:1974   */\n      swap3\n      pop\n        /* \"#utility.yul\":1997:1998   */\n      dup3\n        /* \"#utility.yul\":1994:1995   */\n      dup3\n        /* \"#utility.yul\":1990:1999   */\n      add\n        /* \"#utility.yul\":1983:1999   */\n      swap1\n      pop\n        /* \"#utility.yul\":2067:2133   */\n      0xffffffffffffffffffffffffffffffffffffffffffffffffffffffffffff8000\n        /* \"#utility.yul\":2062:2065   */\n      dup2\n        /* \"#utility.yul\":2058:2134   */\n      slt\n        /* \"#utility.yul\":2037:2043   */\n      0x7fff\n        /* \"#utility.yul\":2032:2035   */\n      dup3\n        /* \"#utility.yul\":2028:2044   */\n      sgt\n        /* \"#utility.yul\":2012:2144   */\n      or\n        /* \"#utility.yul\":2009:2167   */\n      iszero\n      tag_68\n      jumpi\n        /* \"#utility.yul\":2147:2165   */\n      tag_69\n      tag_36\n      jump\t// in\n    tag_69:\n        /* \"#utility.yul\":2009:2167   */\n    tag_68:\n        /* \"#utility.yul\":1867:2174   */\n      swap3\n      swap2\n      pop\n      pop\n      jump\t// out\n        /* \"#utility.yul\":2180:2256   */\n    tag_37:\n        /* \"#utility.yul\":2216:2223   */\n      0x00\n        /* \"#utility.yul\":2245:2250   */\n      dup2\n        /* \"#utility.yul\":2234:2250   */\n      swap1\n      pop\n        /* \"#utility.yul\":2180:2256   */\n      swap2\n      swap1\n      pop\n      jump\t// out\n        /* \"#utility.yul\":2262:2322   */\n    tag_38:\n        /* \"#utility.yul\":2290:2293   */\n      0x00\n        /* \"#utility.yul\":2311:2316   */\n      dup2\n        /* \"#utility.yul\":2304:2316   */\n      swap1\n      pop\n        /* \"#utility.yul\":2262:2322   */\n      swap2\n      swap1\n      pop\n      jump\t// out\n        /* \"#utility.yul\":2328:2464   */\n    tag_39:\n        /* \"#utility.yul\":2375:2384   */\n      0x00\n        /* \"#utility.yul\":2408:2458   */\n      tag_73\n        /* \"#utility.yul\":2425:2457   */\n      tag_74\n        /* \"#utility.yul\":2434:2456   */\n      tag_75\n        /* \"#utility.yul\":2450:2455   */\n      dup5\n        /* \"#utility.yul\":2434:2456   */\n      tag_29\n      jump\t// in\n    tag_75:\n        /* \"#utility.yul\":2425:2457   */\n      tag_38\n      jump\t// in\n    tag_74:\n        /* \"#utility.yul\":2408:2458   */\n      tag_37\n      jump\t// in\n    tag_73:\n        /* \"#utility.yul\":2395:2458   */\n      swap1\n      pop\n        /* \"#utility.yul\":2328:2464   */\n      swap2\n      swap1\n      pop\n      jump\t// out\n        /* \"#utility.yul\":2470:2595   */\n    tag_40:\n        /* \"#utility.yul\":2554:2588   */\n      tag_77\n        /* \"#utility.yul\":2582:2587   */\n      dup2\n        /* \"#utility.yul\":2554:2588   */\n      tag_39\n      jump\t// in\n    tag_77:\n        /* \"#utility.yul\":2549:2552   */\n      dup3\n        /* \"#utility.yul\":2542:2589   */\n      mstore\n        /* \"#utility.yul\":2470:2595   */\n      pop\n      pop\n      jump\t// out\n        /* \"#utility.yul\":2601:2817   */\n    tag_24:\n        /* \"#utility.yul\":2691:2695   */\n      0x00\n        /* \"#utility.yul\":2729:2731   */\n      0x20\n        /* \"#utility.yul\":2718:2727   */\n      dup3\n        /* \"#utility.yul\":2714:2732   */\n      add\n        /* \"#utility.yul\":2706:2732   */\n      swap1\n      pop\n        /* \"#utility.yul\":2742:2810   */\n      tag_79\n        /* \"#utility.yul\":2807:2808   */\n      0x00\n        /* \"#utility.yul\":2796:2805   */\n      dup4\n        /* \"#utility.yul\":2792:2809   */\n      add\n        /* \"#utility.yul\":2783:2789   */\n      dup5\n        /* \"#utility.yul\":2742:2810   */\n      tag_40\n      jump\t// in\n    tag_79:\n        /* \"#utility.yul\":2601:2817   */\n      swap3\n      swap2\n      pop\n      pop\n      jump\t// out\n\n    auxdata: 0xa2646970667358221220526aadc24304ff7f57c6f9731f3d0f07b02310c2230ed9dd17cb23481c34924e64736f6c63430008160033\n}\n",
				"bytecode": {
					"linkReferences": {},
					"object": "608060405234801561000f575f80fd5b505f805f6101000a81548161ffff021916908360010b61ffff1602179055506103e68061003b5f395ff3fe608060405234801561000f575f80fd5b506004361061003f575f3560e01c80630f76c1141461004357806356dd9b2d14610061578063f78041141461007d575b5f80fd5b61004b610099565b6040516100589190610204565b60405180910390f35b61007b6004803603810190610076919061024b565b6100ad565b005b6100976004803603810190610092919061024b565b61014b565b005b5f805f9054906101000a900460010b905090565b805f808282829054906101000a900460010b6100c991906102a3565b92506101000a81548161ffff021916908360010b61ffff1602179055508060010b815f8054906101000a900460010b61010291906102fc565b60010b7fd897d548d80194b8226579c303f7f2d2225ccff91c49cd446b756ba321a82cb75f8054906101000a900460010b6040516101409190610397565b60405180910390a350565b805f808282829054906101000a900460010b61016791906102fc565b92506101000a81548161ffff021916908360010b61ffff1602179055508060010b815f8054906101000a900460010b6101a091906102a3565b60010b7f4b7f160e6c35d5003fec87ccf7c325b03b1ba82d70044115c9c04d3383ff56c45f8054906101000a900460010b6040516101de9190610397565b60405180910390a350565b5f8160010b9050919050565b6101fe816101e9565b82525050565b5f6020820190506102175f8301846101f5565b92915050565b5f80fd5b61022a816101e9565b8114610234575f80fd5b50565b5f8135905061024581610221565b92915050565b5f602082840312156102605761025f61021d565b5b5f61026d84828501610237565b91505092915050565b7f4e487b71000000000000000000000000000000000000000000000000000000005f52601160045260245ffd5b5f6102ad826101e9565b91506102b8836101e9565b92508282039050617fff81137fffffffffffffffffffffffffffffffffffffffffffffffffffffffffffff8000821217156102f6576102f5610276565b5b92915050565b5f610306826101e9565b9150610311836101e9565b925082820190507fffffffffffffffffffffffffffffffffffffffffffffffffffffffffffff80008112617fff8213171561034f5761034e610276565b5b92915050565b5f819050919050565b5f819050919050565b5f61038161037c610377846101e9565b61035e565b610355565b9050919050565b61039181610367565b82525050565b5f6020820190506103aa5f830184610388565b9291505056fea2646970667358221220526aadc24304ff7f57c6f9731f3d0f07b02310c2230ed9dd17cb23481c34924e64736f6c63430008160033",
					"opcodes": "PUSH1 0x80 PUSH1 0x40 MSTORE CALLVALUE DUP1 ISZERO PUSH2 0xF JUMPI PUSH0 DUP1 REVERT JUMPDEST POP PUSH0 DUP1 PUSH0 PUSH2 0x100 EXP DUP2 SLOAD DUP2 PUSH2 0xFFFF MUL NOT AND SWAP1 DUP4 PUSH1 0x1 SIGNEXTEND PUSH2 0xFFFF AND MUL OR SWAP1 SSTORE POP PUSH2 0x3E6 DUP1 PUSH2 0x3B PUSH0 CODECOPY PUSH0 RETURN INVALID PUSH1 0x80 PUSH1 0x40 MSTORE CALLVALUE DUP1 ISZERO PUSH2 0xF JUMPI PUSH0 DUP1 REVERT JUMPDEST POP PUSH1 0x4 CALLDATASIZE LT PUSH2 0x3F JUMPI PUSH0 CALLDATALOAD PUSH1 0xE0 SHR DUP1 PUSH4 0xF76C114 EQ PUSH2 0x43 JUMPI DUP1 PUSH4 0x56DD9B2D EQ PUSH2 0x61 JUMPI DUP1 PUSH4 0xF7804114 EQ PUSH2 0x7D JUMPI JUMPDEST PUSH0 DUP1 REVERT JUMPDEST PUSH2 0x4B PUSH2 0x99 JUMP JUMPDEST PUSH1 0x40 MLOAD PUSH2 0x58 SWAP2 SWAP1 PUSH2 0x204 JUMP JUMPDEST PUSH1 0x40 MLOAD DUP1 SWAP2 SUB SWAP1 RETURN JUMPDEST PUSH2 0x7B PUSH1 0x4 DUP1 CALLDATASIZE SUB DUP2 ADD SWAP1 PUSH2 0x76 SWAP2 SWAP1 PUSH2 0x24B JUMP JUMPDEST PUSH2 0xAD JUMP JUMPDEST STOP JUMPDEST PUSH2 0x97 PUSH1 0x4 DUP1 CALLDATASIZE SUB DUP2 ADD SWAP1 PUSH2 0x92 SWAP2 SWAP1 PUSH2 0x24B JUMP JUMPDEST PUSH2 0x14B JUMP JUMPDEST STOP JUMPDEST PUSH0 DUP1 PUSH0 SWAP1 SLOAD SWAP1 PUSH2 0x100 EXP SWAP1 DIV PUSH1 0x1 SIGNEXTEND SWAP1 POP SWAP1 JUMP JUMPDEST DUP1 PUSH0 DUP1 DUP3 DUP3 DUP3 SWAP1 SLOAD SWAP1 PUSH2 0x100 EXP SWAP1 DIV PUSH1 0x1 SIGNEXTEND PUSH2 0xC9 SWAP2 SWAP1 PUSH2 0x2A3 JUMP JUMPDEST SWAP3 POP PUSH2 0x100 EXP DUP2 SLOAD DUP2 PUSH2 0xFFFF MUL NOT AND SWAP1 DUP4 PUSH1 0x1 SIGNEXTEND PUSH2 0xFFFF AND MUL OR SWAP1 SSTORE POP DUP1 PUSH1 0x1 SIGNEXTEND DUP2 PUSH0 DUP1 SLOAD SWAP1 PUSH2 0x100 EXP SWAP1 DIV PUSH1 0x1 SIGNEXTEND PUSH2 0x102 SWAP2 SWAP1 PUSH2 0x2FC JUMP JUMPDEST PUSH1 0x1 SIGNEXTEND PUSH32 0xD897D548D80194B8226579C303F7F2D2225CCFF91C49CD446B756BA321A82CB7 PUSH0 DUP1 SLOAD SWAP1 PUSH2 0x100 EXP SWAP1 DIV PUSH1 0x1 SIGNEXTEND PUSH1 0x40 MLOAD PUSH2 0x140 SWAP2 SWAP1 PUSH2 0x397 JUMP JUMPDEST PUSH1 0x40 MLOAD DUP1 SWAP2 SUB SWAP1 LOG3 POP JUMP JUMPDEST DUP1 PUSH0 DUP1 DUP3 DUP3 DUP3 SWAP1 SLOAD SWAP1 PUSH2 0x100 EXP SWAP1 DIV PUSH1 0x1 SIGNEXTEND PUSH2 0x167 SWAP2 SWAP1 PUSH2 0x2FC JUMP JUMPDEST SWAP3 POP PUSH2 0x100 EXP DUP2 SLOAD DUP2 PUSH2 0xFFFF MUL NOT AND SWAP1 DUP4 PUSH1 0x1 SIGNEXTEND PUSH2 0xFFFF AND MUL OR SWAP1 SSTORE POP DUP1 PUSH1 0x1 SIGNEXTEND DUP2 PUSH0 DUP1 SLOAD SWAP1 PUSH2 0x100 EXP SWAP1 DIV PUSH1 0x1 SIGNEXTEND PUSH2 0x1A0 SWAP2 SWAP1 PUSH2 0x2A3 JUMP JUMPDEST PUSH1 0x1 SIGNEXTEND PUSH32 0x4B7F160E6C35D5003FEC87CCF7C325B03B1BA82D70044115C9C04D3383FF56C4 PUSH0 DUP1 SLOAD SWAP1 PUSH2 0x100 EXP SWAP1 DIV PUSH1 0x1 SIGNEXTEND PUSH1 0x40 MLOAD PUSH2 0x1DE SWAP2 SWAP1 PUSH2 0x397 JUMP JUMPDEST PUSH1 0x40 MLOAD DUP1 SWAP2 SUB SWAP1 LOG3 POP JUMP JUMPDEST PUSH0 DUP2 PUSH1 0x1 SIGNEXTEND SWAP1 POP SWAP2 SWAP1 POP JUMP JUMPDEST PUSH2 0x1FE DUP2 PUSH2 0x1E9 JUMP JUMPDEST DUP3 MSTORE POP POP JUMP JUMPDEST PUSH0 PUSH1 0x20 DUP3 ADD SWAP1 POP PUSH2 0x217 PUSH0 DUP4 ADD DUP5 PUSH2 0x1F5 JUMP JUMPDEST SWAP3 SWAP2 POP POP JUMP JUMPDEST PUSH0 DUP1 REVERT JUMPDEST PUSH2 0x22A DUP2 PUSH2 0x1E9 JUMP JUMPDEST DUP2 EQ PUSH2 0x234 JUMPI PUSH0 DUP1 REVERT JUMPDEST POP JUMP JUMPDEST PUSH0 DUP2 CALLDATALOAD SWAP1 POP PUSH2 0x245 DUP2 PUSH2 0x221 JUMP JUMPDEST SWAP3 SWAP2 POP POP JUMP JUMPDEST PUSH0 PUSH1 0x20 DUP3 DUP5 SUB SLT ISZERO PUSH2 0x260 JUMPI PUSH2 0x25F PUSH2 0x21D JUMP JUMPDEST JUMPDEST PUSH0 PUSH2 0x26D DUP5 DUP3 DUP6 ADD PUSH2 0x237 JUMP JUMPDEST SWAP2 POP POP SWAP3 SWAP2 POP POP JUMP JUMPDEST PUSH32 0x4E487B7100000000000000000000000000000000000000000000000000000000 PUSH0 MSTORE PUSH1 0x11 PUSH1 0x4 MSTORE PUSH1 0x24 PUSH0 REVERT JUMPDEST PUSH0 PUSH2 0x2AD DUP3 PUSH2 0x1E9 JUMP JUMPDEST SWAP2 POP PUSH2 0x2B8 DUP4 PUSH2 0x1E9 JUMP JUMPDEST SWAP3 POP DUP3 DUP3 SUB SWAP1 POP PUSH2 0x7FFF DUP2 SGT PUSH32 0xFFFFFFFFFFFFFFFFFFFFFFFFFFFFFFFFFFFFFFFFFFFFFFFFFFFFFFFFFFFF8000 DUP3 SLT OR ISZERO PUSH2 0x2F6 JUMPI PUSH2 0x2F5 PUSH2 0x276 JUMP JUMPDEST JUMPDEST SWAP3 SWAP2 POP POP JUMP JUMPDEST PUSH0 PUSH2 0x306 DUP3 PUSH2 0x1E9 JUMP JUMPDEST SWAP2 POP PUSH2 0x311 DUP4 PUSH2 0x1E9 JUMP JUMPDEST SWAP3 POP DUP3 DUP3 ADD SWAP1 POP PUSH32 0xFFFFFFFFFFFFFFFFFFFFFFFFFFFFFFFFFFFFFFFFFFFFFFFFFFFFFFFFFFFF8000 DUP2 SLT PUSH2 0x7FFF DUP3 SGT OR ISZERO PUSH2 0x34F JUMPI PUSH2 0x34E PUSH2 0x276 JUMP JUMPDEST JUMPDEST SWAP3 SWAP2 POP POP JUMP JUMPDEST PUSH0 DUP2 SWAP1 POP SWAP2 SWAP1 POP JUMP JUMPDEST PUSH0 DUP2 SWAP1 POP SWAP2 SWAP1 POP JUMP JUMPDEST PUSH0 PUSH2 0x381 PUSH2 0x37C PUSH2 0x377 DUP5 PUSH2 0x1E9 JUMP JUMPDEST PUSH2 0x35E JUMP JUMPDEST PUSH2 0x355 JUMP JUMPDEST SWAP1 POP SWAP2 SWAP1 POP JUMP JUMPDEST PUSH2 0x391 DUP2 PUSH2 0x367 JUMP JUMPDEST DUP3 MSTORE POP POP JUMP JUMPDEST PUSH0 PUSH1 0x20 DUP3 ADD SWAP1 POP PUSH2 0x3AA PUSH0 DUP4 ADD DUP5 PUSH2 0x388 JUMP JUMPDEST SWAP3 SWAP2 POP POP JUMP INVALID LOG2 PUSH5 0x6970667358 0x22 SLT KECCAK256 MSTORE PUSH11 0xADC24304FF7F57C6F9731F RETURNDATASIZE 0xF SMOD 0xB0 0x23 LT 0xC2 0x23 0xE 0xD9 0xDD OR 0xCB 0x23 BASEFEE SHR CALLVALUE SWAP3 0x4E PUSH5 0x736F6C6343 STOP ADDMOD AND STOP CALLER "
				},
				"gasEstimates": {
					"creation": {
						"codeDepositCost": "199600",
						"executionCost": "24516",
						"totalCost": "224116"
					},
					"external": {
						"add(int16)": "infinite",
						"getCurrentValue()": "2455",
						"subtract(int16)": "infinite"
					}
				},
				"methodIdentifiers": {
					"add(int16)": "f7804114",
					"getCurrentValue()": "0f76c114",
					"subtract(int16)": "56dd9b2d"
				}
			},
			"storageLayout": {
				"storage": [
					{
						"astId": 4,
						"contract": "contracts/Calculator.sol:Calculator",
						"label": "currentValue",
						"offset": 0,
						"slot": "0",
						"type": "t_int16"
					}
				],
				"types": {
					"t_int16": {
						"encoding": "inplace",
						"label": "int16",
						"numberOfBytes": "2"
					}
				}
			},
			"userdoc": {
				"kind": "user",
				"methods": {},
				"version": 1
			}
		}
	}
}