{
	"contracts/Helloworld.sol": {
		"Helloworld": {
			"abi": [
				{
					"inputs": [],
					"stateMutability": "nonpayable",
					"type": "constructor"
				},
				{
					"anonymous": false,
					"inputs": [
						{
							"indexed": false,
							"internalType": "string",
							"name": "message",
							"type": "string"
						}
					],
					"name": "Print",
					"type": "event"
				},
				{
					"inputs": [],
					"name": "SayHello",
					"outputs": [
						{
							"internalType": "string",
							"name": "",
							"type": "string"
						}
					],
					"stateMutability": "view",
					"type": "function"
				},
				{
					"inputs": [],
					"name": "getGreeting",
					"outputs": [
						{
							"internalType": "string",
							"name": "",
							"type": "string"
						}
					],
					"stateMutability": "view",
					"type": "function"
				},
				{
					"inputs": [
						{
							"internalType": "string",
							"name": "newGreeting",
							"type": "string"
						}
					],
					"name": "setGreeting",
					"outputs": [],
					"stateMutability": "nonpayable",
					"type": "function"
				}
			],
			"devdoc": {
				"custom:dev-run-script": "./scripts/deploy_with_ethers.ts",
				"details": "A simple smart contract that stores and emits a greeting message.",
				"kind": "dev",
				"methods": {
					"constructor": {
						"details": "Constructor function to initialize the contract with a default greeting message."
					},
					"getGreeting()": {
						"details": "Function to get the current greeting message.",
						"returns": {
							"_0": "The current greeting message."
						}
					},
					"setGreeting(string)": {
						"details": "Function to set a new greeting message.",
						"params": {
							"newGreeting": "The new greeting message."
						}
					}
				},
				"title": "Helloworld",
				"version": 1
			},
			"evm": {
				"assembly": "    /* \"contracts/Helloworld.sol\":218:1068  contract Helloworld {... */\n  mstore(0x40, 0x80)\n    /* \"contracts/Helloworld.sol\":296:335  string public SayHello = \"Hello World!\" */\n  mload(0x40)\n  dup1\n  0x40\n  add\n  0x40\n  mstore\n  dup1\n  0x0c\n  dup2\n  mstore\n  0x20\n  add\n  0x48656c6c6f20576f726c64210000000000000000000000000000000000000000\n  dup2\n  mstore\n  pop\n  0x00\n  swap1\n  dup2\n  tag_1\n  swap2\n  swap1\n  tag_2\n  jump\t// in\ntag_1:\n  pop\n    /* \"contracts/Helloworld.sol\":543:594  constructor() {... */\n  callvalue\n  dup1\n  iszero\n  tag_3\n  jumpi\n  0x00\n  dup1\n  revert\ntag_3:\n  pop\n    /* \"contracts/Helloworld.sol\":572:587  Print(SayHello) */\n  0x241ba3bafc919fb4308284ce03a8f4867a8ec2f0401445d3cf41a468e7db4ae0\n    /* \"contracts/Helloworld.sol\":578:586  SayHello */\n  0x00\n    /* \"contracts/Helloworld.sol\":572:587  Print(SayHello) */\n  mload(0x40)\n  tag_6\n  swap2\n  swap1\n  tag_7\n  jump\t// in\ntag_6:\n  mload(0x40)\n  dup1\n  swap2\n  sub\n  swap1\n  log1\n    /* \"contracts/Helloworld.sol\":218:1068  contract Helloworld {... */\n  jump(tag_8)\n    /* \"#utility.yul\":7:106   */\ntag_9:\n    /* \"#utility.yul\":59:65   */\n  0x00\n    /* \"#utility.yul\":93:98   */\n  dup2\n    /* \"#utility.yul\":87:99   */\n  mload\n    /* \"#utility.yul\":77:99   */\n  swap1\n  pop\n    /* \"#utility.yul\":7:106   */\n  swap2\n  swap1\n  pop\n  jump\t// out\n    /* \"#utility.yul\":112:292   */\ntag_10:\n    /* \"#utility.yul\":160:237   */\n  0x4e487b7100000000000000000000000000000000000000000000000000000000\n    /* \"#utility.yul\":157:158   */\n  0x00\n    /* \"#utility.yul\":150:238   */\n  mstore\n    /* \"#utility.yul\":257:261   */\n  0x41\n    /* \"#utility.yul\":254:255   */\n  0x04\n    /* \"#utility.yul\":247:262   */\n  mstore\n    /* \"#utility.yul\":281:285   */\n  0x24\n    /* \"#utility.yul\":278:279   */\n  0x00\n    /* \"#utility.yul\":271:286   */\n  revert\n    /* \"#utility.yul\":298:478   */\ntag_11:\n    /* \"#utility.yul\":346:423   */\n  0x4e487b7100000000000000000000000000000000000000000000000000000000\n    /* \"#utility.yul\":343:344   */\n  0x00\n    /* \"#utility.yul\":336:424   */\n  mstore\n    /* \"#utility.yul\":443:447   */\n  0x22\n    /* \"#utility.yul\":440:441   */\n  0x04\n    /* \"#utility.yul\":433:448   */\n  mstore\n    /* \"#utility.yul\":467:471   */\n  0x24\n    /* \"#utility.yul\":464:465   */\n  0x00\n    /* \"#utility.yul\":457:472   */\n  revert\n    /* \"#utility.yul\":484:804   */\ntag_12:\n    /* \"#utility.yul\":528:534   */\n  0x00\n    /* \"#utility.yul\":565:566   */\n  0x02\n    /* \"#utility.yul\":559:563   */\n  dup3\n    /* \"#utility.yul\":555:567   */\n  div\n    /* \"#utility.yul\":545:567   */\n  swap1\n  pop\n    /* \"#utility.yul\":612:613   */\n  0x01\n    /* \"#utility.yul\":606:610   */\n  dup3\n    /* \"#utility.yul\":602:614   */\n  and\n    /* \"#utility.yul\":633:651   */\n  dup1\n    /* \"#utility.yul\":623:704   */\n  tag_36\n  jumpi\n    /* \"#utility.yul\":689:693   */\n  0x7f\n    /* \"#utility.yul\":681:687   */\n  dup3\n    /* \"#utility.yul\":677:694   */\n  and\n    /* \"#utility.yul\":667:694   */\n  swap2\n  pop\n    /* \"#utility.yul\":623:704   */\ntag_36:\n    /* \"#utility.yul\":751:753   */\n  0x20\n    /* \"#utility.yul\":743:749   */\n  dup3\n    /* \"#utility.yul\":740:754   */\n  lt\n    /* \"#utility.yul\":720:738   */\n  dup2\n    /* \"#utility.yul\":717:755   */\n  sub\n    /* \"#utility.yul\":714:798   */\n  tag_37\n  jumpi\n    /* \"#utility.yul\":770:788   */\n  tag_38\n  tag_11\n  jump\t// in\ntag_38:\n    /* \"#utility.yul\":714:798   */\ntag_37:\n    /* \"#utility.yul\":535:804   */\n  pop\n    /* \"#utility.yul\":484:804   */\n  swap2\n  swap1\n  pop\n  jump\t// out\n    /* \"#utility.yul\":810:951   */\ntag_13:\n    /* \"#utility.yul\":859:863   */\n  0x00\n    /* \"#utility.yul\":882:885   */\n  dup2\n    /* \"#utility.yul\":874:885   */\n  swap1\n  pop\n    /* \"#utility.yul\":905:908   */\n  dup2\n    /* \"#utility.yul\":902:903   */\n  0x00\n    /* \"#utility.yul\":895:909   */\n  mstore\n    /* \"#utility.yul\":939:943   */\n  0x20\n    /* \"#utility.yul\":936:937   */\n  0x00\n    /* \"#utility.yul\":926:944   */\n  keccak256\n    /* \"#utility.yul\":918:944   */\n  swap1\n  pop\n    /* \"#utility.yul\":810:951   */\n  swap2\n  swap1\n  pop\n  jump\t// out\n    /* \"#utility.yul\":957:1050   */\ntag_14:\n    /* \"#utility.yul\":994:1000   */\n  0x00\n    /* \"#utility.yul\":1041:1043   */\n  0x20\n    /* \"#utility.yul\":1036:1038   */\n  0x1f\n    /* \"#utility.yul\":1029:1034   */\n  dup4\n    /* \"#utility.yul\":1025:1039   */\n  add\n    /* \"#utility.yul\":1021:1044   */\n  div\n    /* \"#utility.yul\":1011:1044   */\n  swap1\n  pop\n    /* \"#utility.yul\":957:1050   */\n  swap2\n  swap1\n  pop\n  jump\t// out\n    /* \"#utility.yul\":1056:1163   */\ntag_15:\n    /* \"#utility.yul\":1100:1108   */\n  0x00\n    /* \"#utility.yul\":1150:1155   */\n  dup3\n    /* \"#utility.yul\":1144:1148   */\n  dup3\n    /* \"#utility.yul\":1140:1156   */\n  shl\n    /* \"#utility.yul\":1119:1156   */\n  swap1\n  pop\n    /* \"#utility.yul\":1056:1163   */\n  swap3\n  swap2\n  pop\n  pop\n  jump\t// out\n    /* \"#utility.yul\":1169:1562   */\ntag_16:\n    /* \"#utility.yul\":1238:1244   */\n  0x00\n    /* \"#utility.yul\":1288:1289   */\n  0x08\n    /* \"#utility.yul\":1276:1286   */\n  dup4\n    /* \"#utility.yul\":1272:1290   */\n  mul\n    /* \"#utility.yul\":1311:1408   */\n  tag_43\n    /* \"#utility.yul\":1341:1407   */\n  0xffffffffffffffffffffffffffffffffffffffffffffffffffffffffffffffff\n    /* \"#utility.yul\":1330:1339   */\n  dup3\n    /* \"#utility.yul\":1311:1408   */\n  tag_15\n  jump\t// in\ntag_43:\n    /* \"#utility.yul\":1429:1468   */\n  tag_44\n    /* \"#utility.yul\":1459:1467   */\n  dup7\n    /* \"#utility.yul\":1448:1457   */\n  dup4\n    /* \"#utility.yul\":1429:1468   */\n  tag_15\n  jump\t// in\ntag_44:\n    /* \"#utility.yul\":1417:1468   */\n  swap6\n  pop\n    /* \"#utility.yul\":1501:1505   */\n  dup1\n    /* \"#utility.yul\":1497:1506   */\n  not\n    /* \"#utility.yul\":1490:1495   */\n  dup5\n    /* \"#utility.yul\":1486:1507   */\n  and\n    /* \"#utility.yul\":1477:1507   */\n  swap4\n  pop\n    /* \"#utility.yul\":1550:1554   */\n  dup1\n    /* \"#utility.yul\":1540:1548   */\n  dup7\n    /* \"#utility.yul\":1536:1555   */\n  and\n    /* \"#utility.yul\":1529:1534   */\n  dup5\n    /* \"#utility.yul\":1526:1556   */\n  or\n    /* \"#utility.yul\":1516:1556   */\n  swap3\n  pop\n    /* \"#utility.yul\":1245:1562   */\n  pop\n  pop\n    /* \"#utility.yul\":1169:1562   */\n  swap4\n  swap3\n  pop\n  pop\n  pop\n  jump\t// out\n    /* \"#utility.yul\":1568:1645   */\ntag_17:\n    /* \"#utility.yul\":1605:1612   */\n  0x00\n    /* \"#utility.yul\":1634:1639   */\n  dup2\n    /* \"#utility.yul\":1623:1639   */\n  swap1\n  pop\n    /* \"#utility.yul\":1568:1645   */\n  swap2\n  swap1\n  pop\n  jump\t// out\n    /* \"#utility.yul\":1651:1711   */\ntag_18:\n    /* \"#utility.yul\":1679:1682   */\n  0x00\n    /* \"#utility.yul\":1700:1705   */\n  dup2\n    /* \"#utility.yul\":1693:1705   */\n  swap1\n  pop\n    /* \"#utility.yul\":1651:1711   */\n  swap2\n  swap1\n  pop\n  jump\t// out\n    /* \"#utility.yul\":1717:1859   */\ntag_19:\n    /* \"#utility.yul\":1767:1776   */\n  0x00\n    /* \"#utility.yul\":1800:1853   */\n  tag_48\n    /* \"#utility.yul\":1818:1852   */\n  tag_49\n    /* \"#utility.yul\":1827:1851   */\n  tag_50\n    /* \"#utility.yul\":1845:1850   */\n  dup5\n    /* \"#utility.yul\":1827:1851   */\n  tag_17\n  jump\t// in\ntag_50:\n    /* \"#utility.yul\":1818:1852   */\n  tag_18\n  jump\t// in\ntag_49:\n    /* \"#utility.yul\":1800:1853   */\n  tag_17\n  jump\t// in\ntag_48:\n    /* \"#utility.yul\":1787:1853   */\n  swap1\n  pop\n    /* \"#utility.yul\":1717:1859   */\n  swap2\n  swap1\n  pop\n  jump\t// out\n    /* \"#utility.yul\":1865:1940   */\ntag_20:\n    /* \"#utility.yul\":1908:1911   */\n  0x00\n    /* \"#utility.yul\":1929:1934   */\n  dup2\n    /* \"#utility.yul\":1922:1934   */\n  swap1\n  pop\n    /* \"#utility.yul\":1865:1940   */\n  swap2\n  swap1\n  pop\n  jump\t// out\n    /* \"#utility.yul\":1946:2215   */\ntag_21:\n    /* \"#utility.yul\":2056:2095   */\n  tag_53\n    /* \"#utility.yul\":2087:2094   */\n  dup4\n    /* \"#utility.yul\":2056:2095   */\n  tag_19\n  jump\t// in\ntag_53:\n    /* \"#utility.yul\":2117:2208   */\n  tag_54\n    /* \"#utility.yul\":2166:2207   */\n  tag_55\n    /* \"#utility.yul\":2190:2206   */\n  dup3\n    /* \"#utility.yul\":2166:2207   */\n  tag_20\n  jump\t// in\ntag_55:\n    /* \"#utility.yul\":2158:2164   */\n  dup5\n    /* \"#utility.yul\":2151:2155   */\n  dup5\n    /* \"#utility.yul\":2145:2156   */\n  sload\n    /* \"#utility.yul\":2117:2208   */\n  tag_16\n  jump\t// in\ntag_54:\n    /* \"#utility.yul\":2111:2115   */\n  dup3\n    /* \"#utility.yul\":2104:2209   */\n  sstore\n    /* \"#utility.yul\":2022:2215   */\n  pop\n    /* \"#utility.yul\":1946:2215   */\n  pop\n  pop\n  pop\n  jump\t// out\n    /* \"#utility.yul\":2221:2294   */\ntag_22:\n    /* \"#utility.yul\":2266:2269   */\n  0x00\n    /* \"#utility.yul\":2221:2294   */\n  swap1\n  jump\t// out\n    /* \"#utility.yul\":2300:2489   */\ntag_23:\n    /* \"#utility.yul\":2377:2409   */\n  tag_58\n  tag_22\n  jump\t// in\ntag_58:\n    /* \"#utility.yul\":2418:2483   */\n  tag_59\n    /* \"#utility.yul\":2476:2482   */\n  dup2\n    /* \"#utility.yul\":2468:2474   */\n  dup5\n    /* \"#utility.yul\":2462:2466   */\n  dup5\n    /* \"#utility.yul\":2418:2483   */\n  tag_21\n  jump\t// in\ntag_59:\n    /* \"#utility.yul\":2353:2489   */\n  pop\n    /* \"#utility.yul\":2300:2489   */\n  pop\n  pop\n  jump\t// out\n    /* \"#utility.yul\":2495:2681   */\ntag_24:\n    /* \"#utility.yul\":2555:2675   */\ntag_61:\n    /* \"#utility.yul\":2572:2575   */\n  dup2\n    /* \"#utility.yul\":2565:2570   */\n  dup2\n    /* \"#utility.yul\":2562:2576   */\n  lt\n    /* \"#utility.yul\":2555:2675   */\n  iszero\n  tag_63\n  jumpi\n    /* \"#utility.yul\":2626:2665   */\n  tag_64\n    /* \"#utility.yul\":2663:2664   */\n  0x00\n    /* \"#utility.yul\":2656:2661   */\n  dup3\n    /* \"#utility.yul\":2626:2665   */\n  tag_23\n  jump\t// in\ntag_64:\n    /* \"#utility.yul\":2599:2600   */\n  0x01\n    /* \"#utility.yul\":2592:2597   */\n  dup2\n    /* \"#utility.yul\":2588:2601   */\n  add\n    /* \"#utility.yul\":2579:2601   */\n  swap1\n  pop\n    /* \"#utility.yul\":2555:2675   */\n  jump(tag_61)\ntag_63:\n    /* \"#utility.yul\":2495:2681   */\n  pop\n  pop\n  jump\t// out\n    /* \"#utility.yul\":2687:3230   */\ntag_25:\n    /* \"#utility.yul\":2788:2790   */\n  0x1f\n    /* \"#utility.yul\":2783:2786   */\n  dup3\n    /* \"#utility.yul\":2780:2791   */\n  gt\n    /* \"#utility.yul\":2777:3223   */\n  iszero\n  tag_66\n  jumpi\n    /* \"#utility.yul\":2822:2860   */\n  tag_67\n    /* \"#utility.yul\":2854:2859   */\n  dup2\n    /* \"#utility.yul\":2822:2860   */\n  tag_13\n  jump\t// in\ntag_67:\n    /* \"#utility.yul\":2906:2935   */\n  tag_68\n    /* \"#utility.yul\":2924:2934   */\n  dup5\n    /* \"#utility.yul\":2906:2935   */\n  tag_14\n  jump\t// in\ntag_68:\n    /* \"#utility.yul\":2896:2904   */\n  dup2\n    /* \"#utility.yul\":2892:2936   */\n  add\n    /* \"#utility.yul\":3089:3091   */\n  0x20\n    /* \"#utility.yul\":3077:3087   */\n  dup6\n    /* \"#utility.yul\":3074:3092   */\n  lt\n    /* \"#utility.yul\":3071:3120   */\n  iszero\n  tag_69\n  jumpi\n    /* \"#utility.yul\":3110:3118   */\n  dup2\n    /* \"#utility.yul\":3095:3118   */\n  swap1\n  pop\n    /* \"#utility.yul\":3071:3120   */\ntag_69:\n    /* \"#utility.yul\":3133:3213   */\n  tag_70\n    /* \"#utility.yul\":3189:3211   */\n  tag_71\n    /* \"#utility.yul\":3207:3210   */\n  dup6\n    /* \"#utility.yul\":3189:3211   */\n  tag_14\n  jump\t// in\ntag_71:\n    /* \"#utility.yul\":3179:3187   */\n  dup4\n    /* \"#utility.yul\":3175:3212   */\n  add\n    /* \"#utility.yul\":3162:3173   */\n  dup3\n    /* \"#utility.yul\":3133:3213   */\n  tag_24\n  jump\t// in\ntag_70:\n    /* \"#utility.yul\":2792:3223   */\n  pop\n  pop\n    /* \"#utility.yul\":2777:3223   */\ntag_66:\n    /* \"#utility.yul\":2687:3230   */\n  pop\n  pop\n  pop\n  jump\t// out\n    /* \"#utility.yul\":3236:3353   */\ntag_26:\n    /* \"#utility.yul\":3290:3298   */\n  0x00\n    /* \"#utility.yul\":3340:3345   */\n  dup3\n    /* \"#utility.yul\":3334:3338   */\n  dup3\n    /* \"#utility.yul\":3330:3346   */\n  shr\n    /* \"#utility.yul\":3309:3346   */\n  swap1\n  pop\n    /* \"#utility.yul\":3236:3353   */\n  swap3\n  swap2\n  pop\n  pop\n  jump\t// out\n    /* \"#utility.yul\":3359:3528   */\ntag_27:\n    /* \"#utility.yul\":3403:3409   */\n  0x00\n    /* \"#utility.yul\":3436:3487   */\n  tag_74\n    /* \"#utility.yul\":3484:3485   */\n  0x00\n    /* \"#utility.yul\":3480:3486   */\n  not\n    /* \"#utility.yul\":3472:3477   */\n  dup5\n    /* \"#utility.yul\":3469:3470   */\n  0x08\n    /* \"#utility.yul\":3465:3478   */\n  mul\n    /* \"#utility.yul\":3436:3487   */\n  tag_26\n  jump\t// in\ntag_74:\n    /* \"#utility.yul\":3432:3488   */\n  not\n    /* \"#utility.yul\":3517:3521   */\n  dup1\n    /* \"#utility.yul\":3511:3515   */\n  dup4\n    /* \"#utility.yul\":3507:3522   */\n  and\n    /* \"#utility.yul\":3497:3522   */\n  swap2\n  pop\n    /* \"#utility.yul\":3410:3528   */\n  pop\n    /* \"#utility.yul\":3359:3528   */\n  swap3\n  swap2\n  pop\n  pop\n  jump\t// out\n    /* \"#utility.yul\":3533:3828   */\ntag_28:\n    /* \"#utility.yul\":3609:3613   */\n  0x00\n    /* \"#utility.yul\":3755:3784   */\n  tag_76\n    /* \"#utility.yul\":3780:3783   */\n  dup4\n    /* \"#utility.yul\":3774:3778   */\n  dup4\n    /* \"#utility.yul\":3755:3784   */\n  tag_27\n  jump\t// in\ntag_76:\n    /* \"#utility.yul\":3747:3784   */\n  swap2\n  pop\n    /* \"#utility.yul\":3817:3820   */\n  dup3\n    /* \"#utility.yul\":3814:3815   */\n  0x02\n    /* \"#utility.yul\":3810:3821   */\n  mul\n    /* \"#utility.yul\":3804:3808   */\n  dup3\n    /* \"#utility.yul\":3801:3822   */\n  or\n    /* \"#utility.yul\":3793:3822   */\n  swap1\n  pop\n    /* \"#utility.yul\":3533:3828   */\n  swap3\n  swap2\n  pop\n  pop\n  jump\t// out\n    /* \"#utility.yul\":3833:5228   */\ntag_2:\n    /* \"#utility.yul\":3950:3987   */\n  tag_78\n    /* \"#utility.yul\":3983:3986   */\n  dup3\n    /* \"#utility.yul\":3950:3987   */\n  tag_9\n  jump\t// in\ntag_78:\n    /* \"#utility.yul\":4052:4070   */\n  0xffffffffffffffff\n    /* \"#utility.yul\":4044:4050   */\n  dup2\n    /* \"#utility.yul\":4041:4071   */\n  gt\n    /* \"#utility.yul\":4038:4094   */\n  iszero\n  tag_79\n  jumpi\n    /* \"#utility.yul\":4074:4092   */\n  tag_80\n  tag_10\n  jump\t// in\ntag_80:\n    /* \"#utility.yul\":4038:4094   */\ntag_79:\n    /* \"#utility.yul\":4118:4156   */\n  tag_81\n    /* \"#utility.yul\":4150:4154   */\n  dup3\n    /* \"#utility.yul\":4144:4155   */\n  sload\n    /* \"#utility.yul\":4118:4156   */\n  tag_12\n  jump\t// in\ntag_81:\n    /* \"#utility.yul\":4203:4270   */\n  tag_82\n    /* \"#utility.yul\":4263:4269   */\n  dup3\n    /* \"#utility.yul\":4255:4261   */\n  dup3\n    /* \"#utility.yul\":4249:4253   */\n  dup6\n    /* \"#utility.yul\":4203:4270   */\n  tag_25\n  jump\t// in\ntag_82:\n    /* \"#utility.yul\":4297:4298   */\n  0x00\n    /* \"#utility.yul\":4321:4325   */\n  0x20\n    /* \"#utility.yul\":4308:4325   */\n  swap1\n  pop\n    /* \"#utility.yul\":4353:4355   */\n  0x1f\n    /* \"#utility.yul\":4345:4351   */\n  dup4\n    /* \"#utility.yul\":4342:4356   */\n  gt\n    /* \"#utility.yul\":4370:4371   */\n  0x01\n    /* \"#utility.yul\":4365:4983   */\n  dup2\n  eq\n  tag_84\n  jumpi\n    /* \"#utility.yul\":5027:5028   */\n  0x00\n    /* \"#utility.yul\":5044:5050   */\n  dup5\n    /* \"#utility.yul\":5041:5118   */\n  iszero\n  tag_85\n  jumpi\n    /* \"#utility.yul\":5093:5102   */\n  dup3\n    /* \"#utility.yul\":5088:5091   */\n  dup8\n    /* \"#utility.yul\":5084:5103   */\n  add\n    /* \"#utility.yul\":5078:5104   */\n  mload\n    /* \"#utility.yul\":5069:5104   */\n  swap1\n  pop\n    /* \"#utility.yul\":5041:5118   */\ntag_85:\n    /* \"#utility.yul\":5144:5211   */\n  tag_86\n    /* \"#utility.yul\":5204:5210   */\n  dup6\n    /* \"#utility.yul\":5197:5202   */\n  dup3\n    /* \"#utility.yul\":5144:5211   */\n  tag_28\n  jump\t// in\ntag_86:\n    /* \"#utility.yul\":5138:5142   */\n  dup7\n    /* \"#utility.yul\":5131:5212   */\n  sstore\n    /* \"#utility.yul\":5000:5222   */\n  pop\n    /* \"#utility.yul\":4335:5222   */\n  jump(tag_83)\n    /* \"#utility.yul\":4365:4983   */\ntag_84:\n    /* \"#utility.yul\":4417:4421   */\n  0x1f\n    /* \"#utility.yul\":4413:4422   */\n  not\n    /* \"#utility.yul\":4405:4411   */\n  dup5\n    /* \"#utility.yul\":4401:4423   */\n  and\n    /* \"#utility.yul\":4451:4488   */\n  tag_87\n    /* \"#utility.yul\":4483:4487   */\n  dup7\n    /* \"#utility.yul\":4451:4488   */\n  tag_13\n  jump\t// in\ntag_87:\n    /* \"#utility.yul\":4510:4511   */\n  0x00\n    /* \"#utility.yul\":4524:4732   */\ntag_88:\n    /* \"#utility.yul\":4538:4545   */\n  dup3\n    /* \"#utility.yul\":4535:4536   */\n  dup2\n    /* \"#utility.yul\":4532:4546   */\n  lt\n    /* \"#utility.yul\":4524:4732   */\n  iszero\n  tag_90\n  jumpi\n    /* \"#utility.yul\":4617:4626   */\n  dup5\n    /* \"#utility.yul\":4612:4615   */\n  dup10\n    /* \"#utility.yul\":4608:4627   */\n  add\n    /* \"#utility.yul\":4602:4628   */\n  mload\n    /* \"#utility.yul\":4594:4600   */\n  dup3\n    /* \"#utility.yul\":4587:4629   */\n  sstore\n    /* \"#utility.yul\":4668:4669   */\n  0x01\n    /* \"#utility.yul\":4660:4666   */\n  dup3\n    /* \"#utility.yul\":4656:4670   */\n  add\n    /* \"#utility.yul\":4646:4670   */\n  swap2\n  pop\n    /* \"#utility.yul\":4715:4717   */\n  0x20\n    /* \"#utility.yul\":4704:4713   */\n  dup6\n    /* \"#utility.yul\":4700:4718   */\n  add\n    /* \"#utility.yul\":4687:4718   */\n  swap5\n  pop\n    /* \"#utility.yul\":4561:4565   */\n  0x20\n    /* \"#utility.yul\":4558:4559   */\n  dup2\n    /* \"#utility.yul\":4554:4566   */\n  add\n    /* \"#utility.yul\":4549:4566   */\n  swap1\n  pop\n    /* \"#utility.yul\":4524:4732   */\n  jump(tag_88)\ntag_90:\n    /* \"#utility.yul\":4760:4766   */\n  dup7\n    /* \"#utility.yul\":4751:4758   */\n  dup4\n    /* \"#utility.yul\":4748:4767   */\n  lt\n    /* \"#utility.yul\":4745:4924   */\n  iszero\n  tag_91\n  jumpi\n    /* \"#utility.yul\":4818:4827   */\n  dup5\n    /* \"#utility.yul\":4813:4816   */\n  dup10\n    /* \"#utility.yul\":4809:4828   */\n  add\n    /* \"#utility.yul\":4803:4829   */\n  mload\n    /* \"#utility.yul\":4861:4909   */\n  tag_92\n    /* \"#utility.yul\":4903:4907   */\n  0x1f\n    /* \"#utility.yul\":4895:4901   */\n  dup10\n    /* \"#utility.yul\":4891:4908   */\n  and\n    /* \"#utility.yul\":4880:4889   */\n  dup3\n    /* \"#utility.yul\":4861:4909   */\n  tag_27\n  jump\t// in\ntag_92:\n    /* \"#utility.yul\":4853:4859   */\n  dup4\n    /* \"#utility.yul\":4846:4910   */\n  sstore\n    /* \"#utility.yul\":4768:4924   */\n  pop\n    /* \"#utility.yul\":4745:4924   */\ntag_91:\n    /* \"#utility.yul\":4970:4971   */\n  0x01\n    /* \"#utility.yul\":4966:4967   */\n  0x02\n    /* \"#utility.yul\":4958:4964   */\n  dup9\n    /* \"#utility.yul\":4954:4968   */\n  mul\n    /* \"#utility.yul\":4950:4972   */\n  add\n    /* \"#utility.yul\":4944:4948   */\n  dup9\n    /* \"#utility.yul\":4937:4973   */\n  sstore\n    /* \"#utility.yul\":4372:4983   */\n  pop\n  pop\n  pop\n    /* \"#utility.yul\":4335:5222   */\ntag_83:\n  pop\n    /* \"#utility.yul\":3925:5228   */\n  pop\n  pop\n  pop\n    /* \"#utility.yul\":3833:5228   */\n  pop\n  pop\n  jump\t// out\n    /* \"#utility.yul\":5234:5403   */\ntag_29:\n    /* \"#utility.yul\":5318:5329   */\n  0x00\n    /* \"#utility.yul\":5352:5358   */\n  dup3\n    /* \"#utility.yul\":5347:5350   */\n  dup3\n    /* \"#utility.yul\":5340:5359   */\n  mstore\n    /* \"#utility.yul\":5392:5396   */\n  0x20\n    /* \"#utility.yul\":5387:5390   */\n  dup3\n    /* \"#utility.yul\":5383:5397   */\n  add\n    /* \"#utility.yul\":5368:5397   */\n  swap1\n  pop\n    /* \"#utility.yul\":5234:5403   */\n  swap3\n  swap2\n  pop\n  pop\n  jump\t// out\n    /* \"#utility.yul\":5433:6264   */\ntag_30:\n    /* \"#utility.yul\":5518:5521   */\n  0x00\n    /* \"#utility.yul\":5555:5560   */\n  dup2\n    /* \"#utility.yul\":5549:5561   */\n  sload\n    /* \"#utility.yul\":5584:5620   */\n  tag_95\n    /* \"#utility.yul\":5610:5619   */\n  dup2\n    /* \"#utility.yul\":5584:5620   */\n  tag_12\n  jump\t// in\ntag_95:\n    /* \"#utility.yul\":5636:5707   */\n  tag_96\n    /* \"#utility.yul\":5700:5706   */\n  dup2\n    /* \"#utility.yul\":5695:5698   */\n  dup7\n    /* \"#utility.yul\":5636:5707   */\n  tag_29\n  jump\t// in\ntag_96:\n    /* \"#utility.yul\":5629:5707   */\n  swap5\n  pop\n    /* \"#utility.yul\":5738:5739   */\n  0x01\n    /* \"#utility.yul\":5727:5736   */\n  dup3\n    /* \"#utility.yul\":5723:5740   */\n  and\n    /* \"#utility.yul\":5754:5755   */\n  0x00\n    /* \"#utility.yul\":5749:5913   */\n  dup2\n  eq\n  tag_98\n  jumpi\n    /* \"#utility.yul\":5927:5928   */\n  0x01\n    /* \"#utility.yul\":5922:6258   */\n  dup2\n  eq\n  tag_99\n  jumpi\n    /* \"#utility.yul\":5716:6258   */\n  jump(tag_97)\n    /* \"#utility.yul\":5749:5913   */\ntag_98:\n    /* \"#utility.yul\":5833:5837   */\n  0xff\n    /* \"#utility.yul\":5829:5838   */\n  not\n    /* \"#utility.yul\":5818:5827   */\n  dup4\n    /* \"#utility.yul\":5814:5839   */\n  and\n    /* \"#utility.yul\":5809:5812   */\n  dup7\n    /* \"#utility.yul\":5802:5840   */\n  mstore\n    /* \"#utility.yul\":5893:5899   */\n  dup2\n    /* \"#utility.yul\":5886:5900   */\n  iszero\n    /* \"#utility.yul\":5879:5901   */\n  iszero\n    /* \"#utility.yul\":5873:5877   */\n  0x20\n    /* \"#utility.yul\":5869:5902   */\n  mul\n    /* \"#utility.yul\":5864:5867   */\n  dup7\n    /* \"#utility.yul\":5860:5903   */\n  add\n    /* \"#utility.yul\":5853:5903   */\n  swap4\n  pop\n    /* \"#utility.yul\":5749:5913   */\n  jump(tag_97)\n    /* \"#utility.yul\":5922:6258   */\ntag_99:\n    /* \"#utility.yul\":5989:6027   */\n  tag_100\n    /* \"#utility.yul\":6021:6026   */\n  dup6\n    /* \"#utility.yul\":5989:6027   */\n  tag_13\n  jump\t// in\ntag_100:\n    /* \"#utility.yul\":6049:6050   */\n  0x00\n    /* \"#utility.yul\":6063:6217   */\ntag_101:\n    /* \"#utility.yul\":6077:6083   */\n  dup4\n    /* \"#utility.yul\":6074:6075   */\n  dup2\n    /* \"#utility.yul\":6071:6084   */\n  lt\n    /* \"#utility.yul\":6063:6217   */\n  iszero\n  tag_103\n  jumpi\n    /* \"#utility.yul\":6151:6158   */\n  dup2\n    /* \"#utility.yul\":6145:6159   */\n  sload\n    /* \"#utility.yul\":6141:6142   */\n  dup2\n    /* \"#utility.yul\":6136:6139   */\n  dup10\n    /* \"#utility.yul\":6132:6143   */\n  add\n    /* \"#utility.yul\":6125:6160   */\n  mstore\n    /* \"#utility.yul\":6201:6202   */\n  0x01\n    /* \"#utility.yul\":6192:6199   */\n  dup3\n    /* \"#utility.yul\":6188:6203   */\n  add\n    /* \"#utility.yul\":6177:6203   */\n  swap2\n  pop\n    /* \"#utility.yul\":6099:6103   */\n  0x20\n    /* \"#utility.yul\":6096:6097   */\n  dup2\n    /* \"#utility.yul\":6092:6104   */\n  add\n    /* \"#utility.yul\":6087:6104   */\n  swap1\n  pop\n    /* \"#utility.yul\":6063:6217   */\n  jump(tag_101)\ntag_103:\n    /* \"#utility.yul\":6246:6247   */\n  dup1\n    /* \"#utility.yul\":6241:6244   */\n  dup9\n    /* \"#utility.yul\":6237:6248   */\n  add\n    /* \"#utility.yul\":6230:6248   */\n  swap6\n  pop\n    /* \"#utility.yul\":5929:6258   */\n  pop\n  pop\n    /* \"#utility.yul\":5716:6258   */\ntag_97:\n  pop\n    /* \"#utility.yul\":5522:6264   */\n  pop\n  pop\n    /* \"#utility.yul\":5433:6264   */\n  swap3\n  swap2\n  pop\n  pop\n  jump\t// out\n    /* \"#utility.yul\":6270:6577   */\ntag_7:\n    /* \"#utility.yul\":6380:6384   */\n  0x00\n    /* \"#utility.yul\":6418:6420   */\n  0x20\n    /* \"#utility.yul\":6407:6416   */\n  dup3\n    /* \"#utility.yul\":6403:6421   */\n  add\n    /* \"#utility.yul\":6395:6421   */\n  swap1\n  pop\n    /* \"#utility.yul\":6467:6476   */\n  dup2\n    /* \"#utility.yul\":6461:6465   */\n  dup2\n    /* \"#utility.yul\":6457:6477   */\n  sub\n    /* \"#utility.yul\":6453:6454   */\n  0x00\n    /* \"#utility.yul\":6442:6451   */\n  dup4\n    /* \"#utility.yul\":6438:6455   */\n  add\n    /* \"#utility.yul\":6431:6478   */\n  mstore\n    /* \"#utility.yul\":6495:6570   */\n  tag_105\n    /* \"#utility.yul\":6565:6569   */\n  dup2\n    /* \"#utility.yul\":6556:6562   */\n  dup5\n    /* \"#utility.yul\":6495:6570   */\n  tag_30\n  jump\t// in\ntag_105:\n    /* \"#utility.yul\":6487:6570   */\n  swap1\n  pop\n    /* \"#utility.yul\":6270:6577   */\n  swap3\n  swap2\n  pop\n  pop\n  jump\t// out\n    /* \"contracts/Helloworld.sol\":218:1068  contract Helloworld {... */\ntag_8:\n  dataSize(sub_0)\n  dup1\n  dataOffset(sub_0)\n  0x00\n  codecopy\n  0x00\n  return\nstop\n\nsub_0: assembly {\n        /* \"contracts/Helloworld.sol\":218:1068  contract Helloworld {... */\n      mstore(0x40, 0x80)\n      callvalue\n      dup1\n      iszero\n      tag_1\n      jumpi\n      0x00\n      dup1\n      revert\n    tag_1:\n      pop\n      jumpi(tag_2, lt(calldatasize, 0x04))\n      shr(0xe0, calldataload(0x00))\n      dup1\n      0x3acb3150\n      eq\n      tag_3\n      jumpi\n      dup1\n      0xa4136862\n      eq\n      tag_4\n      jumpi\n      dup1\n      0xfe50cc72\n      eq\n      tag_5\n      jumpi\n    tag_2:\n      0x00\n      dup1\n      revert\n        /* \"contracts/Helloworld.sol\":296:335  string public SayHello = \"Hello World!\" */\n    tag_3:\n      tag_6\n      tag_7\n      jump\t// in\n    tag_6:\n      mload(0x40)\n      tag_8\n      swap2\n      swap1\n      tag_9\n      jump\t// in\n    tag_8:\n      mload(0x40)\n      dup1\n      swap2\n      sub\n      swap1\n      return\n        /* \"contracts/Helloworld.sol\":938:1066  function setGreeting(string calldata newGreeting) external {... */\n    tag_4:\n      tag_10\n      0x04\n      dup1\n      calldatasize\n      sub\n      dup2\n      add\n      swap1\n      tag_11\n      swap2\n      swap1\n      tag_12\n      jump\t// in\n    tag_11:\n      tag_13\n      jump\t// in\n    tag_10:\n      stop\n        /* \"contracts/Helloworld.sol\":719:812  function getGreeting() external view returns (string memory) {... */\n    tag_5:\n      tag_14\n      tag_15\n      jump\t// in\n    tag_14:\n      mload(0x40)\n      tag_16\n      swap2\n      swap1\n      tag_9\n      jump\t// in\n    tag_16:\n      mload(0x40)\n      dup1\n      swap2\n      sub\n      swap1\n      return\n        /* \"contracts/Helloworld.sol\":296:335  string public SayHello = \"Hello World!\" */\n    tag_7:\n      0x00\n      dup1\n      sload\n      tag_17\n      swap1\n      tag_18\n      jump\t// in\n    tag_17:\n      dup1\n      0x1f\n      add\n      0x20\n      dup1\n      swap2\n      div\n      mul\n      0x20\n      add\n      mload(0x40)\n      swap1\n      dup2\n      add\n      0x40\n      mstore\n      dup1\n      swap3\n      swap2\n      swap1\n      dup2\n      dup2\n      mstore\n      0x20\n      add\n      dup3\n      dup1\n      sload\n      tag_19\n      swap1\n      tag_18\n      jump\t// in\n    tag_19:\n      dup1\n      iszero\n      tag_20\n      jumpi\n      dup1\n      0x1f\n      lt\n      tag_21\n      jumpi\n      0x0100\n      dup1\n      dup4\n      sload\n      div\n      mul\n      dup4\n      mstore\n      swap2\n      0x20\n      add\n      swap2\n      jump(tag_20)\n    tag_21:\n      dup3\n      add\n      swap2\n      swap1\n      0x00\n      mstore\n      keccak256(0x00, 0x20)\n      swap1\n    tag_22:\n      dup2\n      sload\n      dup2\n      mstore\n      swap1\n      0x01\n      add\n      swap1\n      0x20\n      add\n      dup1\n      dup4\n      gt\n      tag_22\n      jumpi\n      dup3\n      swap1\n      sub\n      0x1f\n      and\n      dup3\n      add\n      swap2\n    tag_20:\n      pop\n      pop\n      pop\n      pop\n      pop\n      dup2\n      jump\t// out\n        /* \"contracts/Helloworld.sol\":938:1066  function setGreeting(string calldata newGreeting) external {... */\n    tag_13:\n        /* \"contracts/Helloworld.sol\":1018:1029  newGreeting */\n      dup2\n      dup2\n        /* \"contracts/Helloworld.sol\":1007:1015  SayHello */\n      0x00\n        /* \"contracts/Helloworld.sol\":1007:1029  SayHello = newGreeting */\n      swap2\n      dup3\n      tag_24\n      swap3\n      swap2\n      swap1\n      tag_25\n      jump\t// in\n    tag_24:\n      pop\n        /* \"contracts/Helloworld.sol\":1044:1059  Print(SayHello) */\n      0x241ba3bafc919fb4308284ce03a8f4867a8ec2f0401445d3cf41a468e7db4ae0\n        /* \"contracts/Helloworld.sol\":1050:1058  SayHello */\n      0x00\n        /* \"contracts/Helloworld.sol\":1044:1059  Print(SayHello) */\n      mload(0x40)\n      tag_26\n      swap2\n      swap1\n      tag_27\n      jump\t// in\n    tag_26:\n      mload(0x40)\n      dup1\n      swap2\n      sub\n      swap1\n      log1\n        /* \"contracts/Helloworld.sol\":938:1066  function setGreeting(string calldata newGreeting) external {... */\n      pop\n      pop\n      jump\t// out\n        /* \"contracts/Helloworld.sol\":719:812  function getGreeting() external view returns (string memory) {... */\n    tag_15:\n        /* \"contracts/Helloworld.sol\":765:778  string memory */\n      0x60\n        /* \"contracts/Helloworld.sol\":797:805  SayHello */\n      0x00\n        /* \"contracts/Helloworld.sol\":790:805  return SayHello */\n      dup1\n      sload\n      tag_29\n      swap1\n      tag_18\n      jump\t// in\n    tag_29:\n      dup1\n      0x1f\n      add\n      0x20\n      dup1\n      swap2\n      div\n      mul\n      0x20\n      add\n      mload(0x40)\n      swap1\n      dup2\n      add\n      0x40\n      mstore\n      dup1\n      swap3\n      swap2\n      swap1\n      dup2\n      dup2\n      mstore\n      0x20\n      add\n      dup3\n      dup1\n      sload\n      tag_30\n      swap1\n      tag_18\n      jump\t// in\n    tag_30:\n      dup1\n      iszero\n      tag_31\n      jumpi\n      dup1\n      0x1f\n      lt\n      tag_32\n      jumpi\n      0x0100\n      dup1\n      dup4\n      sload\n      div\n      mul\n      dup4\n      mstore\n      swap2\n      0x20\n      add\n      swap2\n      jump(tag_31)\n    tag_32:\n      dup3\n      add\n      swap2\n      swap1\n      0x00\n      mstore\n      keccak256(0x00, 0x20)\n      swap1\n    tag_33:\n      dup2\n      sload\n      dup2\n      mstore\n      swap1\n      0x01\n      add\n      swap1\n      0x20\n      add\n      dup1\n      dup4\n      gt\n      tag_33\n      jumpi\n      dup3\n      swap1\n      sub\n      0x1f\n      and\n      dup3\n      add\n      swap2\n    tag_31:\n      pop\n      pop\n      pop\n      pop\n      pop\n      swap1\n      pop\n        /* \"contracts/Helloworld.sol\":719:812  function getGreeting() external view returns (string memory) {... */\n      swap1\n      jump\t// out\n        /* \"#utility.yul\":7:106   */\n    tag_34:\n        /* \"#utility.yul\":59:65   */\n      0x00\n        /* \"#utility.yul\":93:98   */\n      dup2\n        /* \"#utility.yul\":87:99   */\n      mload\n        /* \"#utility.yul\":77:99   */\n      swap1\n      pop\n        /* \"#utility.yul\":7:106   */\n      swap2\n      swap1\n      pop\n      jump\t// out\n        /* \"#utility.yul\":112:281   */\n    tag_35:\n        /* \"#utility.yul\":196:207   */\n      0x00\n        /* \"#utility.yul\":230:236   */\n      dup3\n        /* \"#utility.yul\":225:228   */\n      dup3\n        /* \"#utility.yul\":218:237   */\n      mstore\n        /* \"#utility.yul\":270:274   */\n      0x20\n        /* \"#utility.yul\":265:268   */\n      dup3\n        /* \"#utility.yul\":261:275   */\n      add\n        /* \"#utility.yul\":246:275   */\n      swap1\n      pop\n        /* \"#utility.yul\":112:281   */\n      swap3\n      swap2\n      pop\n      pop\n      jump\t// out\n        /* \"#utility.yul\":287:533   */\n    tag_36:\n        /* \"#utility.yul\":368:369   */\n      0x00\n        /* \"#utility.yul\":378:491   */\n    tag_70:\n        /* \"#utility.yul\":392:398   */\n      dup4\n        /* \"#utility.yul\":389:390   */\n      dup2\n        /* \"#utility.yul\":386:399   */\n      lt\n        /* \"#utility.yul\":378:491   */\n      iszero\n      tag_72\n      jumpi\n        /* \"#utility.yul\":477:478   */\n      dup1\n        /* \"#utility.yul\":472:475   */\n      dup3\n        /* \"#utility.yul\":468:479   */\n      add\n        /* \"#utility.yul\":462:480   */\n      mload\n        /* \"#utility.yul\":458:459   */\n      dup2\n        /* \"#utility.yul\":453:456   */\n      dup5\n        /* \"#utility.yul\":449:460   */\n      add\n        /* \"#utility.yul\":442:481   */\n      mstore\n        /* \"#utility.yul\":414:416   */\n      0x20\n        /* \"#utility.yul\":411:412   */\n      dup2\n        /* \"#utility.yul\":407:417   */\n      add\n        /* \"#utility.yul\":402:417   */\n      swap1\n      pop\n        /* \"#utility.yul\":378:491   */\n      jump(tag_70)\n    tag_72:\n        /* \"#utility.yul\":525:526   */\n      0x00\n        /* \"#utility.yul\":516:522   */\n      dup5\n        /* \"#utility.yul\":511:514   */\n      dup5\n        /* \"#utility.yul\":507:523   */\n      add\n        /* \"#utility.yul\":500:527   */\n      mstore\n        /* \"#utility.yul\":349:533   */\n      pop\n        /* \"#utility.yul\":287:533   */\n      pop\n      pop\n      pop\n      jump\t// out\n        /* \"#utility.yul\":539:641   */\n    tag_37:\n        /* \"#utility.yul\":580:586   */\n      0x00\n        /* \"#utility.yul\":631:633   */\n      0x1f\n        /* \"#utility.yul\":627:634   */\n      not\n        /* \"#utility.yul\":622:624   */\n      0x1f\n        /* \"#utility.yul\":615:620   */\n      dup4\n        /* \"#utility.yul\":611:625   */\n      add\n        /* \"#utility.yul\":607:635   */\n      and\n        /* \"#utility.yul\":597:635   */\n      swap1\n      pop\n        /* \"#utility.yul\":539:641   */\n      swap2\n      swap1\n      pop\n      jump\t// out\n        /* \"#utility.yul\":647:1024   */\n    tag_38:\n        /* \"#utility.yul\":735:738   */\n      0x00\n        /* \"#utility.yul\":763:802   */\n      tag_75\n        /* \"#utility.yul\":796:801   */\n      dup3\n        /* \"#utility.yul\":763:802   */\n      tag_34\n      jump\t// in\n    tag_75:\n        /* \"#utility.yul\":818:889   */\n      tag_76\n        /* \"#utility.yul\":882:888   */\n      dup2\n        /* \"#utility.yul\":877:880   */\n      dup6\n        /* \"#utility.yul\":818:889   */\n      tag_35\n      jump\t// in\n    tag_76:\n        /* \"#utility.yul\":811:889   */\n      swap4\n      pop\n        /* \"#utility.yul\":898:963   */\n      tag_77\n        /* \"#utility.yul\":956:962   */\n      dup2\n        /* \"#utility.yul\":951:954   */\n      dup6\n        /* \"#utility.yul\":944:948   */\n      0x20\n        /* \"#utility.yul\":937:942   */\n      dup7\n        /* \"#utility.yul\":933:949   */\n      add\n        /* \"#utility.yul\":898:963   */\n      tag_36\n      jump\t// in\n    tag_77:\n        /* \"#utility.yul\":988:1017   */\n      tag_78\n        /* \"#utility.yul\":1010:1016   */\n      dup2\n        /* \"#utility.yul\":988:1017   */\n      tag_37\n      jump\t// in\n    tag_78:\n        /* \"#utility.yul\":983:986   */\n      dup5\n        /* \"#utility.yul\":979:1018   */\n      add\n        /* \"#utility.yul\":972:1018   */\n      swap2\n      pop\n        /* \"#utility.yul\":739:1024   */\n      pop\n        /* \"#utility.yul\":647:1024   */\n      swap3\n      swap2\n      pop\n      pop\n      jump\t// out\n        /* \"#utility.yul\":1030:1343   */\n    tag_9:\n        /* \"#utility.yul\":1143:1147   */\n      0x00\n        /* \"#utility.yul\":1181:1183   */\n      0x20\n        /* \"#utility.yul\":1170:1179   */\n      dup3\n        /* \"#utility.yul\":1166:1184   */\n      add\n        /* \"#utility.yul\":1158:1184   */\n      swap1\n      pop\n        /* \"#utility.yul\":1230:1239   */\n      dup2\n        /* \"#utility.yul\":1224:1228   */\n      dup2\n        /* \"#utility.yul\":1220:1240   */\n      sub\n        /* \"#utility.yul\":1216:1217   */\n      0x00\n        /* \"#utility.yul\":1205:1214   */\n      dup4\n        /* \"#utility.yul\":1201:1218   */\n      add\n        /* \"#utility.yul\":1194:1241   */\n      mstore\n        /* \"#utility.yul\":1258:1336   */\n      tag_80\n        /* \"#utility.yul\":1331:1335   */\n      dup2\n        /* \"#utility.yul\":1322:1328   */\n      dup5\n        /* \"#utility.yul\":1258:1336   */\n      tag_38\n      jump\t// in\n    tag_80:\n        /* \"#utility.yul\":1250:1336   */\n      swap1\n      pop\n        /* \"#utility.yul\":1030:1343   */\n      swap3\n      swap2\n      pop\n      pop\n      jump\t// out\n        /* \"#utility.yul\":1430:1547   */\n    tag_40:\n        /* \"#utility.yul\":1539:1540   */\n      0x00\n        /* \"#utility.yul\":1536:1537   */\n      dup1\n        /* \"#utility.yul\":1529:1541   */\n      revert\n        /* \"#utility.yul\":1553:1670   */\n    tag_41:\n        /* \"#utility.yul\":1662:1663   */\n      0x00\n        /* \"#utility.yul\":1659:1660   */\n      dup1\n        /* \"#utility.yul\":1652:1664   */\n      revert\n        /* \"#utility.yul\":1676:1793   */\n    tag_42:\n        /* \"#utility.yul\":1785:1786   */\n      0x00\n        /* \"#utility.yul\":1782:1783   */\n      dup1\n        /* \"#utility.yul\":1775:1787   */\n      revert\n        /* \"#utility.yul\":1799:1916   */\n    tag_43:\n        /* \"#utility.yul\":1908:1909   */\n      0x00\n        /* \"#utility.yul\":1905:1906   */\n      dup1\n        /* \"#utility.yul\":1898:1910   */\n      revert\n        /* \"#utility.yul\":1922:2039   */\n    tag_44:\n        /* \"#utility.yul\":2031:2032   */\n      0x00\n        /* \"#utility.yul\":2028:2029   */\n      dup1\n        /* \"#utility.yul\":2021:2033   */\n      revert\n        /* \"#utility.yul\":2059:2612   */\n    tag_45:\n        /* \"#utility.yul\":2117:2125   */\n      0x00\n        /* \"#utility.yul\":2127:2133   */\n      dup1\n        /* \"#utility.yul\":2177:2180   */\n      dup4\n        /* \"#utility.yul\":2170:2174   */\n      0x1f\n        /* \"#utility.yul\":2162:2168   */\n      dup5\n        /* \"#utility.yul\":2158:2175   */\n      add\n        /* \"#utility.yul\":2154:2181   */\n      slt\n        /* \"#utility.yul\":2144:2266   */\n      tag_88\n      jumpi\n        /* \"#utility.yul\":2185:2264   */\n      tag_89\n      tag_42\n      jump\t// in\n    tag_89:\n        /* \"#utility.yul\":2144:2266   */\n    tag_88:\n        /* \"#utility.yul\":2298:2304   */\n      dup3\n        /* \"#utility.yul\":2285:2305   */\n      calldataload\n        /* \"#utility.yul\":2275:2305   */\n      swap1\n      pop\n        /* \"#utility.yul\":2328:2346   */\n      0xffffffffffffffff\n        /* \"#utility.yul\":2320:2326   */\n      dup2\n        /* \"#utility.yul\":2317:2347   */\n      gt\n        /* \"#utility.yul\":2314:2431   */\n      iszero\n      tag_90\n      jumpi\n        /* \"#utility.yul\":2350:2429   */\n      tag_91\n      tag_43\n      jump\t// in\n    tag_91:\n        /* \"#utility.yul\":2314:2431   */\n    tag_90:\n        /* \"#utility.yul\":2464:2468   */\n      0x20\n        /* \"#utility.yul\":2456:2462   */\n      dup4\n        /* \"#utility.yul\":2452:2469   */\n      add\n        /* \"#utility.yul\":2440:2469   */\n      swap2\n      pop\n        /* \"#utility.yul\":2518:2521   */\n      dup4\n        /* \"#utility.yul\":2510:2514   */\n      0x01\n        /* \"#utility.yul\":2502:2508   */\n      dup3\n        /* \"#utility.yul\":2498:2515   */\n      mul\n        /* \"#utility.yul\":2488:2496   */\n      dup4\n        /* \"#utility.yul\":2484:2516   */\n      add\n        /* \"#utility.yul\":2481:2522   */\n      gt\n        /* \"#utility.yul\":2478:2606   */\n      iszero\n      tag_92\n      jumpi\n        /* \"#utility.yul\":2525:2604   */\n      tag_93\n      tag_44\n      jump\t// in\n    tag_93:\n        /* \"#utility.yul\":2478:2606   */\n    tag_92:\n        /* \"#utility.yul\":2059:2612   */\n      swap3\n      pop\n      swap3\n      swap1\n      pop\n      jump\t// out\n        /* \"#utility.yul\":2618:3147   */\n    tag_12:\n        /* \"#utility.yul\":2689:2695   */\n      0x00\n        /* \"#utility.yul\":2697:2703   */\n      dup1\n        /* \"#utility.yul\":2746:2748   */\n      0x20\n        /* \"#utility.yul\":2734:2743   */\n      dup4\n        /* \"#utility.yul\":2725:2732   */\n      dup6\n        /* \"#utility.yul\":2721:2744   */\n      sub\n        /* \"#utility.yul\":2717:2749   */\n      slt\n        /* \"#utility.yul\":2714:2833   */\n      iszero\n      tag_95\n      jumpi\n        /* \"#utility.yul\":2752:2831   */\n      tag_96\n      tag_40\n      jump\t// in\n    tag_96:\n        /* \"#utility.yul\":2714:2833   */\n    tag_95:\n        /* \"#utility.yul\":2900:2901   */\n      0x00\n        /* \"#utility.yul\":2889:2898   */\n      dup4\n        /* \"#utility.yul\":2885:2902   */\n      add\n        /* \"#utility.yul\":2872:2903   */\n      calldataload\n        /* \"#utility.yul\":2930:2948   */\n      0xffffffffffffffff\n        /* \"#utility.yul\":2922:2928   */\n      dup2\n        /* \"#utility.yul\":2919:2949   */\n      gt\n        /* \"#utility.yul\":2916:3033   */\n      iszero\n      tag_97\n      jumpi\n        /* \"#utility.yul\":2952:3031   */\n      tag_98\n      tag_41\n      jump\t// in\n    tag_98:\n        /* \"#utility.yul\":2916:3033   */\n    tag_97:\n        /* \"#utility.yul\":3065:3130   */\n      tag_99\n        /* \"#utility.yul\":3122:3129   */\n      dup6\n        /* \"#utility.yul\":3113:3119   */\n      dup3\n        /* \"#utility.yul\":3102:3111   */\n      dup7\n        /* \"#utility.yul\":3098:3120   */\n      add\n        /* \"#utility.yul\":3065:3130   */\n      tag_45\n      jump\t// in\n    tag_99:\n        /* \"#utility.yul\":3047:3130   */\n      swap3\n      pop\n      swap3\n      pop\n        /* \"#utility.yul\":2843:3140   */\n      pop\n        /* \"#utility.yul\":2618:3147   */\n      swap3\n      pop\n      swap3\n      swap1\n      pop\n      jump\t// out\n        /* \"#utility.yul\":3153:3333   */\n    tag_46:\n        /* \"#utility.yul\":3201:3278   */\n      0x4e487b7100000000000000000000000000000000000000000000000000000000\n        /* \"#utility.yul\":3198:3199   */\n      0x00\n        /* \"#utility.yul\":3191:3279   */\n      mstore\n        /* \"#utility.yul\":3298:3302   */\n      0x22\n        /* \"#utility.yul\":3295:3296   */\n      0x04\n        /* \"#utility.yul\":3288:3303   */\n      mstore\n        /* \"#utility.yul\":3322:3326   */\n      0x24\n        /* \"#utility.yul\":3319:3320   */\n      0x00\n        /* \"#utility.yul\":3312:3327   */\n      revert\n        /* \"#utility.yul\":3339:3659   */\n    tag_18:\n        /* \"#utility.yul\":3383:3389   */\n      0x00\n        /* \"#utility.yul\":3420:3421   */\n      0x02\n        /* \"#utility.yul\":3414:3418   */\n      dup3\n        /* \"#utility.yul\":3410:3422   */\n      div\n        /* \"#utility.yul\":3400:3422   */\n      swap1\n      pop\n        /* \"#utility.yul\":3467:3468   */\n      0x01\n        /* \"#utility.yul\":3461:3465   */\n      dup3\n        /* \"#utility.yul\":3457:3469   */\n      and\n        /* \"#utility.yul\":3488:3506   */\n      dup1\n        /* \"#utility.yul\":3478:3559   */\n      tag_102\n      jumpi\n        /* \"#utility.yul\":3544:3548   */\n      0x7f\n        /* \"#utility.yul\":3536:3542   */\n      dup3\n        /* \"#utility.yul\":3532:3549   */\n      and\n        /* \"#utility.yul\":3522:3549   */\n      swap2\n      pop\n        /* \"#utility.yul\":3478:3559   */\n    tag_102:\n        /* \"#utility.yul\":3606:3608   */\n      0x20\n        /* \"#utility.yul\":3598:3604   */\n      dup3\n        /* \"#utility.yul\":3595:3609   */\n      lt\n        /* \"#utility.yul\":3575:3593   */\n      dup2\n        /* \"#utility.yul\":3572:3610   */\n      sub\n        /* \"#utility.yul\":3569:3653   */\n      tag_103\n      jumpi\n        /* \"#utility.yul\":3625:3643   */\n      tag_104\n      tag_46\n      jump\t// in\n    tag_104:\n        /* \"#utility.yul\":3569:3653   */\n    tag_103:\n        /* \"#utility.yul\":3390:3659   */\n      pop\n        /* \"#utility.yul\":3339:3659   */\n      swap2\n      swap1\n      pop\n      jump\t// out\n        /* \"#utility.yul\":3665:3762   */\n    tag_47:\n        /* \"#utility.yul\":3724:3730   */\n      0x00\n        /* \"#utility.yul\":3752:3755   */\n      dup3\n        /* \"#utility.yul\":3742:3755   */\n      swap1\n      pop\n        /* \"#utility.yul\":3665:3762   */\n      swap3\n      swap2\n      pop\n      pop\n      jump\t// out\n        /* \"#utility.yul\":3768:3948   */\n    tag_48:\n        /* \"#utility.yul\":3816:3893   */\n      0x4e487b7100000000000000000000000000000000000000000000000000000000\n        /* \"#utility.yul\":3813:3814   */\n      0x00\n        /* \"#utility.yul\":3806:3894   */\n      mstore\n        /* \"#utility.yul\":3913:3917   */\n      0x41\n        /* \"#utility.yul\":3910:3911   */\n      0x04\n        /* \"#utility.yul\":3903:3918   */\n      mstore\n        /* \"#utility.yul\":3937:3941   */\n      0x24\n        /* \"#utility.yul\":3934:3935   */\n      0x00\n        /* \"#utility.yul\":3927:3942   */\n      revert\n        /* \"#utility.yul\":3954:4095   */\n    tag_49:\n        /* \"#utility.yul\":4003:4007   */\n      0x00\n        /* \"#utility.yul\":4026:4029   */\n      dup2\n        /* \"#utility.yul\":4018:4029   */\n      swap1\n      pop\n        /* \"#utility.yul\":4049:4052   */\n      dup2\n        /* \"#utility.yul\":4046:4047   */\n      0x00\n        /* \"#utility.yul\":4039:4053   */\n      mstore\n        /* \"#utility.yul\":4083:4087   */\n      0x20\n        /* \"#utility.yul\":4080:4081   */\n      0x00\n        /* \"#utility.yul\":4070:4088   */\n      keccak256\n        /* \"#utility.yul\":4062:4088   */\n      swap1\n      pop\n        /* \"#utility.yul\":3954:4095   */\n      swap2\n      swap1\n      pop\n      jump\t// out\n        /* \"#utility.yul\":4101:4194   */\n    tag_50:\n        /* \"#utility.yul\":4138:4144   */\n      0x00\n        /* \"#utility.yul\":4185:4187   */\n      0x20\n        /* \"#utility.yul\":4180:4182   */\n      0x1f\n        /* \"#utility.yul\":4173:4178   */\n      dup4\n        /* \"#utility.yul\":4169:4183   */\n      add\n        /* \"#utility.yul\":4165:4188   */\n      div\n        /* \"#utility.yul\":4155:4188   */\n      swap1\n      pop\n        /* \"#utility.yul\":4101:4194   */\n      swap2\n      swap1\n      pop\n      jump\t// out\n        /* \"#utility.yul\":4200:4307   */\n    tag_51:\n        /* \"#utility.yul\":4244:4252   */\n      0x00\n        /* \"#utility.yul\":4294:4299   */\n      dup3\n        /* \"#utility.yul\":4288:4292   */\n      dup3\n        /* \"#utility.yul\":4284:4300   */\n      shl\n        /* \"#utility.yul\":4263:4300   */\n      swap1\n      pop\n        /* \"#utility.yul\":4200:4307   */\n      swap3\n      swap2\n      pop\n      pop\n      jump\t// out\n        /* \"#utility.yul\":4313:4706   */\n    tag_52:\n        /* \"#utility.yul\":4382:4388   */\n      0x00\n        /* \"#utility.yul\":4432:4433   */\n      0x08\n        /* \"#utility.yul\":4420:4430   */\n      dup4\n        /* \"#utility.yul\":4416:4434   */\n      mul\n        /* \"#utility.yul\":4455:4552   */\n      tag_111\n        /* \"#utility.yul\":4485:4551   */\n      0xffffffffffffffffffffffffffffffffffffffffffffffffffffffffffffffff\n        /* \"#utility.yul\":4474:4483   */\n      dup3\n        /* \"#utility.yul\":4455:4552   */\n      tag_51\n      jump\t// in\n    tag_111:\n        /* \"#utility.yul\":4573:4612   */\n      tag_112\n        /* \"#utility.yul\":4603:4611   */\n      dup7\n        /* \"#utility.yul\":4592:4601   */\n      dup4\n        /* \"#utility.yul\":4573:4612   */\n      tag_51\n      jump\t// in\n    tag_112:\n        /* \"#utility.yul\":4561:4612   */\n      swap6\n      pop\n        /* \"#utility.yul\":4645:4649   */\n      dup1\n        /* \"#utility.yul\":4641:4650   */\n      not\n        /* \"#utility.yul\":4634:4639   */\n      dup5\n        /* \"#utility.yul\":4630:4651   */\n      and\n        /* \"#utility.yul\":4621:4651   */\n      swap4\n      pop\n        /* \"#utility.yul\":4694:4698   */\n      dup1\n        /* \"#utility.yul\":4684:4692   */\n      dup7\n        /* \"#utility.yul\":4680:4699   */\n      and\n        /* \"#utility.yul\":4673:4678   */\n      dup5\n        /* \"#utility.yul\":4670:4700   */\n      or\n        /* \"#utility.yul\":4660:4700   */\n      swap3\n      pop\n        /* \"#utility.yul\":4389:4706   */\n      pop\n      pop\n        /* \"#utility.yul\":4313:4706   */\n      swap4\n      swap3\n      pop\n      pop\n      pop\n      jump\t// out\n        /* \"#utility.yul\":4712:4789   */\n    tag_53:\n        /* \"#utility.yul\":4749:4756   */\n      0x00\n        /* \"#utility.yul\":4778:4783   */\n      dup2\n        /* \"#utility.yul\":4767:4783   */\n      swap1\n      pop\n        /* \"#utility.yul\":4712:4789   */\n      swap2\n      swap1\n      pop\n      jump\t// out\n        /* \"#utility.yul\":4795:4855   */\n    tag_54:\n        /* \"#utility.yul\":4823:4826   */\n      0x00\n        /* \"#utility.yul\":4844:4849   */\n      dup2\n        /* \"#utility.yul\":4837:4849   */\n      swap1\n      pop\n        /* \"#utility.yul\":4795:4855   */\n      swap2\n      swap1\n      pop\n      jump\t// out\n        /* \"#utility.yul\":4861:5003   */\n    tag_55:\n        /* \"#utility.yul\":4911:4920   */\n      0x00\n        /* \"#utility.yul\":4944:4997   */\n      tag_116\n        /* \"#utility.yul\":4962:4996   */\n      tag_117\n        /* \"#utility.yul\":4971:4995   */\n      tag_118\n        /* \"#utility.yul\":4989:4994   */\n      dup5\n        /* \"#utility.yul\":4971:4995   */\n      tag_53\n      jump\t// in\n    tag_118:\n        /* \"#utility.yul\":4962:4996   */\n      tag_54\n      jump\t// in\n    tag_117:\n        /* \"#utility.yul\":4944:4997   */\n      tag_53\n      jump\t// in\n    tag_116:\n        /* \"#utility.yul\":4931:4997   */\n      swap1\n      pop\n        /* \"#utility.yul\":4861:5003   */\n      swap2\n      swap1\n      pop\n      jump\t// out\n        /* \"#utility.yul\":5009:5084   */\n    tag_56:\n        /* \"#utility.yul\":5052:5055   */\n      0x00\n        /* \"#utility.yul\":5073:5078   */\n      dup2\n        /* \"#utility.yul\":5066:5078   */\n      swap1\n      pop\n        /* \"#utility.yul\":5009:5084   */\n      swap2\n      swap1\n      pop\n      jump\t// out\n        /* \"#utility.yul\":5090:5359   */\n    tag_57:\n        /* \"#utility.yul\":5200:5239   */\n      tag_121\n        /* \"#utility.yul\":5231:5238   */\n      dup4\n        /* \"#utility.yul\":5200:5239   */\n      tag_55\n      jump\t// in\n    tag_121:\n        /* \"#utility.yul\":5261:5352   */\n      tag_122\n        /* \"#utility.yul\":5310:5351   */\n      tag_123\n        /* \"#utility.yul\":5334:5350   */\n      dup3\n        /* \"#utility.yul\":5310:5351   */\n      tag_56\n      jump\t// in\n    tag_123:\n        /* \"#utility.yul\":5302:5308   */\n      dup5\n        /* \"#utility.yul\":5295:5299   */\n      dup5\n        /* \"#utility.yul\":5289:5300   */\n      sload\n        /* \"#utility.yul\":5261:5352   */\n      tag_52\n      jump\t// in\n    tag_122:\n        /* \"#utility.yul\":5255:5259   */\n      dup3\n        /* \"#utility.yul\":5248:5353   */\n      sstore\n        /* \"#utility.yul\":5166:5359   */\n      pop\n        /* \"#utility.yul\":5090:5359   */\n      pop\n      pop\n      pop\n      jump\t// out\n        /* \"#utility.yul\":5365:5438   */\n    tag_58:\n        /* \"#utility.yul\":5410:5413   */\n      0x00\n        /* \"#utility.yul\":5365:5438   */\n      swap1\n      jump\t// out\n        /* \"#utility.yul\":5444:5633   */\n    tag_59:\n        /* \"#utility.yul\":5521:5553   */\n      tag_126\n      tag_58\n      jump\t// in\n    tag_126:\n        /* \"#utility.yul\":5562:5627   */\n      tag_127\n        /* \"#utility.yul\":5620:5626   */\n      dup2\n        /* \"#utility.yul\":5612:5618   */\n      dup5\n        /* \"#utility.yul\":5606:5610   */\n      dup5\n        /* \"#utility.yul\":5562:5627   */\n      tag_57\n      jump\t// in\n    tag_127:\n        /* \"#utility.yul\":5497:5633   */\n      pop\n        /* \"#utility.yul\":5444:5633   */\n      pop\n      pop\n      jump\t// out\n        /* \"#utility.yul\":5639:5825   */\n    tag_60:\n        /* \"#utility.yul\":5699:5819   */\n    tag_129:\n        /* \"#utility.yul\":5716:5719   */\n      dup2\n        /* \"#utility.yul\":5709:5714   */\n      dup2\n        /* \"#utility.yul\":5706:5720   */\n      lt\n        /* \"#utility.yul\":5699:5819   */\n      iszero\n      tag_131\n      jumpi\n        /* \"#utility.yul\":5770:5809   */\n      tag_132\n        /* \"#utility.yul\":5807:5808   */\n      0x00\n        /* \"#utility.yul\":5800:5805   */\n      dup3\n        /* \"#utility.yul\":5770:5809   */\n      tag_59\n      jump\t// in\n    tag_132:\n        /* \"#utility.yul\":5743:5744   */\n      0x01\n        /* \"#utility.yul\":5736:5741   */\n      dup2\n        /* \"#utility.yul\":5732:5745   */\n      add\n        /* \"#utility.yul\":5723:5745   */\n      swap1\n      pop\n        /* \"#utility.yul\":5699:5819   */\n      jump(tag_129)\n    tag_131:\n        /* \"#utility.yul\":5639:5825   */\n      pop\n      pop\n      jump\t// out\n        /* \"#utility.yul\":5831:6374   */\n    tag_61:\n        /* \"#utility.yul\":5932:5934   */\n      0x1f\n        /* \"#utility.yul\":5927:5930   */\n      dup3\n        /* \"#utility.yul\":5924:5935   */\n      gt\n        /* \"#utility.yul\":5921:6367   */\n      iszero\n      tag_134\n      jumpi\n        /* \"#utility.yul\":5966:6004   */\n      tag_135\n        /* \"#utility.yul\":5998:6003   */\n      dup2\n        /* \"#utility.yul\":5966:6004   */\n      tag_49\n      jump\t// in\n    tag_135:\n        /* \"#utility.yul\":6050:6079   */\n      tag_136\n        /* \"#utility.yul\":6068:6078   */\n      dup5\n        /* \"#utility.yul\":6050:6079   */\n      tag_50\n      jump\t// in\n    tag_136:\n        /* \"#utility.yul\":6040:6048   */\n      dup2\n        /* \"#utility.yul\":6036:6080   */\n      add\n        /* \"#utility.yul\":6233:6235   */\n      0x20\n        /* \"#utility.yul\":6221:6231   */\n      dup6\n        /* \"#utility.yul\":6218:6236   */\n      lt\n        /* \"#utility.yul\":6215:6264   */\n      iszero\n      tag_137\n      jumpi\n        /* \"#utility.yul\":6254:6262   */\n      dup2\n        /* \"#utility.yul\":6239:6262   */\n      swap1\n      pop\n        /* \"#utility.yul\":6215:6264   */\n    tag_137:\n        /* \"#utility.yul\":6277:6357   */\n      tag_138\n        /* \"#utility.yul\":6333:6355   */\n      tag_139\n        /* \"#utility.yul\":6351:6354   */\n      dup6\n        /* \"#utility.yul\":6333:6355   */\n      tag_50\n      jump\t// in\n    tag_139:\n        /* \"#utility.yul\":6323:6331   */\n      dup4\n        /* \"#utility.yul\":6319:6356   */\n      add\n        /* \"#utility.yul\":6306:6317   */\n      dup3\n        /* \"#utility.yul\":6277:6357   */\n      tag_60\n      jump\t// in\n    tag_138:\n        /* \"#utility.yul\":5936:6367   */\n      pop\n      pop\n        /* \"#utility.yul\":5921:6367   */\n    tag_134:\n        /* \"#utility.yul\":5831:6374   */\n      pop\n      pop\n      pop\n      jump\t// out\n        /* \"#utility.yul\":6380:6497   */\n    tag_62:\n        /* \"#utility.yul\":6434:6442   */\n      0x00\n        /* \"#utility.yul\":6484:6489   */\n      dup3\n        /* \"#utility.yul\":6478:6482   */\n      dup3\n        /* \"#utility.yul\":6474:6490   */\n      shr\n        /* \"#utility.yul\":6453:6490   */\n      swap1\n      pop\n        /* \"#utility.yul\":6380:6497   */\n      swap3\n      swap2\n      pop\n      pop\n      jump\t// out\n        /* \"#utility.yul\":6503:6672   */\n    tag_63:\n        /* \"#utility.yul\":6547:6553   */\n      0x00\n        /* \"#utility.yul\":6580:6631   */\n      tag_142\n        /* \"#utility.yul\":6628:6629   */\n      0x00\n        /* \"#utility.yul\":6624:6630   */\n      not\n        /* \"#utility.yul\":6616:6621   */\n      dup5\n        /* \"#utility.yul\":6613:6614   */\n      0x08\n        /* \"#utility.yul\":6609:6622   */\n      mul\n        /* \"#utility.yul\":6580:6631   */\n      tag_62\n      jump\t// in\n    tag_142:\n        /* \"#utility.yul\":6576:6632   */\n      not\n        /* \"#utility.yul\":6661:6665   */\n      dup1\n        /* \"#utility.yul\":6655:6659   */\n      dup4\n        /* \"#utility.yul\":6651:6666   */\n      and\n        /* \"#utility.yul\":6641:6666   */\n      swap2\n      pop\n        /* \"#utility.yul\":6554:6672   */\n      pop\n        /* \"#utility.yul\":6503:6672   */\n      swap3\n      swap2\n      pop\n      pop\n      jump\t// out\n        /* \"#utility.yul\":6677:6972   */\n    tag_64:\n        /* \"#utility.yul\":6753:6757   */\n      0x00\n        /* \"#utility.yul\":6899:6928   */\n      tag_144\n        /* \"#utility.yul\":6924:6927   */\n      dup4\n        /* \"#utility.yul\":6918:6922   */\n      dup4\n        /* \"#utility.yul\":6899:6928   */\n      tag_63\n      jump\t// in\n    tag_144:\n        /* \"#utility.yul\":6891:6928   */\n      swap2\n      pop\n        /* \"#utility.yul\":6961:6964   */\n      dup3\n        /* \"#utility.yul\":6958:6959   */\n      0x02\n        /* \"#utility.yul\":6954:6965   */\n      mul\n        /* \"#utility.yul\":6948:6952   */\n      dup3\n        /* \"#utility.yul\":6945:6966   */\n      or\n        /* \"#utility.yul\":6937:6966   */\n      swap1\n      pop\n        /* \"#utility.yul\":6677:6972   */\n      swap3\n      swap2\n      pop\n      pop\n      jump\t// out\n        /* \"#utility.yul\":6977:8380   */\n    tag_25:\n        /* \"#utility.yul\":7101:7145   */\n      tag_146\n        /* \"#utility.yul\":7141:7144   */\n      dup4\n        /* \"#utility.yul\":7136:7139   */\n      dup4\n        /* \"#utility.yul\":7101:7145   */\n      tag_47\n      jump\t// in\n    tag_146:\n        /* \"#utility.yul\":7210:7228   */\n      0xffffffffffffffff\n        /* \"#utility.yul\":7202:7208   */\n      dup2\n        /* \"#utility.yul\":7199:7229   */\n      gt\n        /* \"#utility.yul\":7196:7252   */\n      iszero\n      tag_147\n      jumpi\n        /* \"#utility.yul\":7232:7250   */\n      tag_148\n      tag_48\n      jump\t// in\n    tag_148:\n        /* \"#utility.yul\":7196:7252   */\n    tag_147:\n        /* \"#utility.yul\":7276:7314   */\n      tag_149\n        /* \"#utility.yul\":7308:7312   */\n      dup3\n        /* \"#utility.yul\":7302:7313   */\n      sload\n        /* \"#utility.yul\":7276:7314   */\n      tag_18\n      jump\t// in\n    tag_149:\n        /* \"#utility.yul\":7361:7428   */\n      tag_150\n        /* \"#utility.yul\":7421:7427   */\n      dup3\n        /* \"#utility.yul\":7413:7419   */\n      dup3\n        /* \"#utility.yul\":7407:7411   */\n      dup6\n        /* \"#utility.yul\":7361:7428   */\n      tag_61\n      jump\t// in\n    tag_150:\n        /* \"#utility.yul\":7455:7456   */\n      0x00\n        /* \"#utility.yul\":7484:7486   */\n      0x1f\n        /* \"#utility.yul\":7476:7482   */\n      dup4\n        /* \"#utility.yul\":7473:7487   */\n      gt\n        /* \"#utility.yul\":7501:7502   */\n      0x01\n        /* \"#utility.yul\":7496:8128   */\n      dup2\n      eq\n      tag_152\n      jumpi\n        /* \"#utility.yul\":8172:8173   */\n      0x00\n        /* \"#utility.yul\":8189:8195   */\n      dup5\n        /* \"#utility.yul\":8186:8270   */\n      iszero\n      tag_153\n      jumpi\n        /* \"#utility.yul\":8245:8254   */\n      dup3\n        /* \"#utility.yul\":8240:8243   */\n      dup8\n        /* \"#utility.yul\":8236:8255   */\n      add\n        /* \"#utility.yul\":8223:8256   */\n      calldataload\n        /* \"#utility.yul\":8214:8256   */\n      swap1\n      pop\n        /* \"#utility.yul\":8186:8270   */\n    tag_153:\n        /* \"#utility.yul\":8296:8363   */\n      tag_154\n        /* \"#utility.yul\":8356:8362   */\n      dup6\n        /* \"#utility.yul\":8349:8354   */\n      dup3\n        /* \"#utility.yul\":8296:8363   */\n      tag_64\n      jump\t// in\n    tag_154:\n        /* \"#utility.yul\":8290:8294   */\n      dup7\n        /* \"#utility.yul\":8283:8364   */\n      sstore\n        /* \"#utility.yul\":8145:8374   */\n      pop\n        /* \"#utility.yul\":7466:8374   */\n      jump(tag_151)\n        /* \"#utility.yul\":7496:8128   */\n    tag_152:\n        /* \"#utility.yul\":7548:7552   */\n      0x1f\n        /* \"#utility.yul\":7544:7553   */\n      not\n        /* \"#utility.yul\":7536:7542   */\n      dup5\n        /* \"#utility.yul\":7532:7554   */\n      and\n        /* \"#utility.yul\":7582:7619   */\n      tag_155\n        /* \"#utility.yul\":7614:7618   */\n      dup7\n        /* \"#utility.yul\":7582:7619   */\n      tag_49\n      jump\t// in\n    tag_155:\n        /* \"#utility.yul\":7641:7642   */\n      0x00\n        /* \"#utility.yul\":7655:7870   */\n    tag_156:\n        /* \"#utility.yul\":7669:7676   */\n      dup3\n        /* \"#utility.yul\":7666:7667   */\n      dup2\n        /* \"#utility.yul\":7663:7677   */\n      lt\n        /* \"#utility.yul\":7655:7870   */\n      iszero\n      tag_158\n      jumpi\n        /* \"#utility.yul\":7755:7764   */\n      dup5\n        /* \"#utility.yul\":7750:7753   */\n      dup10\n        /* \"#utility.yul\":7746:7765   */\n      add\n        /* \"#utility.yul\":7733:7766   */\n      calldataload\n        /* \"#utility.yul\":7725:7731   */\n      dup3\n        /* \"#utility.yul\":7718:7767   */\n      sstore\n        /* \"#utility.yul\":7806:7807   */\n      0x01\n        /* \"#utility.yul\":7798:7804   */\n      dup3\n        /* \"#utility.yul\":7794:7808   */\n      add\n        /* \"#utility.yul\":7784:7808   */\n      swap2\n      pop\n        /* \"#utility.yul\":7853:7855   */\n      0x20\n        /* \"#utility.yul\":7842:7851   */\n      dup6\n        /* \"#utility.yul\":7838:7856   */\n      add\n        /* \"#utility.yul\":7825:7856   */\n      swap5\n      pop\n        /* \"#utility.yul\":7692:7696   */\n      0x20\n        /* \"#utility.yul\":7689:7690   */\n      dup2\n        /* \"#utility.yul\":7685:7697   */\n      add\n        /* \"#utility.yul\":7680:7697   */\n      swap1\n      pop\n        /* \"#utility.yul\":7655:7870   */\n      jump(tag_156)\n    tag_158:\n        /* \"#utility.yul\":7898:7904   */\n      dup7\n        /* \"#utility.yul\":7889:7896   */\n      dup4\n        /* \"#utility.yul\":7886:7905   */\n      lt\n        /* \"#utility.yul\":7883:8069   */\n      iszero\n      tag_159\n      jumpi\n        /* \"#utility.yul\":7963:7972   */\n      dup5\n        /* \"#utility.yul\":7958:7961   */\n      dup10\n        /* \"#utility.yul\":7954:7973   */\n      add\n        /* \"#utility.yul\":7941:7974   */\n      calldataload\n        /* \"#utility.yul\":8006:8054   */\n      tag_160\n        /* \"#utility.yul\":8048:8052   */\n      0x1f\n        /* \"#utility.yul\":8040:8046   */\n      dup10\n        /* \"#utility.yul\":8036:8053   */\n      and\n        /* \"#utility.yul\":8025:8034   */\n      dup3\n        /* \"#utility.yul\":8006:8054   */\n      tag_63\n      jump\t// in\n    tag_160:\n        /* \"#utility.yul\":7998:8004   */\n      dup4\n        /* \"#utility.yul\":7991:8055   */\n      sstore\n        /* \"#utility.yul\":7906:8069   */\n      pop\n        /* \"#utility.yul\":7883:8069   */\n    tag_159:\n        /* \"#utility.yul\":8115:8116   */\n      0x01\n        /* \"#utility.yul\":8111:8112   */\n      0x02\n        /* \"#utility.yul\":8103:8109   */\n      dup9\n        /* \"#utility.yul\":8099:8113   */\n      mul\n        /* \"#utility.yul\":8095:8117   */\n      add\n        /* \"#utility.yul\":8089:8093   */\n      dup9\n        /* \"#utility.yul\":8082:8118   */\n      sstore\n        /* \"#utility.yul\":7503:8128   */\n      pop\n      pop\n      pop\n        /* \"#utility.yul\":7466:8374   */\n    tag_151:\n      pop\n        /* \"#utility.yul\":7076:8380   */\n      pop\n      pop\n      pop\n        /* \"#utility.yul\":6977:8380   */\n      pop\n      pop\n      pop\n      jump\t// out\n        /* \"#utility.yul\":8410:9241   */\n    tag_65:\n        /* \"#utility.yul\":8495:8498   */\n      0x00\n        /* \"#utility.yul\":8532:8537   */\n      dup2\n        /* \"#utility.yul\":8526:8538   */\n      sload\n        /* \"#utility.yul\":8561:8597   */\n      tag_162\n        /* \"#utility.yul\":8587:8596   */\n      dup2\n        /* \"#utility.yul\":8561:8597   */\n      tag_18\n      jump\t// in\n    tag_162:\n        /* \"#utility.yul\":8613:8684   */\n      tag_163\n        /* \"#utility.yul\":8677:8683   */\n      dup2\n        /* \"#utility.yul\":8672:8675   */\n      dup7\n        /* \"#utility.yul\":8613:8684   */\n      tag_35\n      jump\t// in\n    tag_163:\n        /* \"#utility.yul\":8606:8684   */\n      swap5\n      pop\n        /* \"#utility.yul\":8715:8716   */\n      0x01\n        /* \"#utility.yul\":8704:8713   */\n      dup3\n        /* \"#utility.yul\":8700:8717   */\n      and\n        /* \"#utility.yul\":8731:8732   */\n      0x00\n        /* \"#utility.yul\":8726:8890   */\n      dup2\n      eq\n      tag_165\n      jumpi\n        /* \"#utility.yul\":8904:8905   */\n      0x01\n        /* \"#utility.yul\":8899:9235   */\n      dup2\n      eq\n      tag_166\n      jumpi\n        /* \"#utility.yul\":8693:9235   */\n      jump(tag_164)\n        /* \"#utility.yul\":8726:8890   */\n    tag_165:\n        /* \"#utility.yul\":8810:8814   */\n      0xff\n        /* \"#utility.yul\":8806:8815   */\n      not\n        /* \"#utility.yul\":8795:8804   */\n      dup4\n        /* \"#utility.yul\":8791:8816   */\n      and\n        /* \"#utility.yul\":8786:8789   */\n      dup7\n        /* \"#utility.yul\":8779:8817   */\n      mstore\n        /* \"#utility.yul\":8870:8876   */\n      dup2\n        /* \"#utility.yul\":8863:8877   */\n      iszero\n        /* \"#utility.yul\":8856:8878   */\n      iszero\n        /* \"#utility.yul\":8850:8854   */\n      0x20\n        /* \"#utility.yul\":8846:8879   */\n      mul\n        /* \"#utility.yul\":8841:8844   */\n      dup7\n        /* \"#utility.yul\":8837:8880   */\n      add\n        /* \"#utility.yul\":8830:8880   */\n      swap4\n      pop\n        /* \"#utility.yul\":8726:8890   */\n      jump(tag_164)\n        /* \"#utility.yul\":8899:9235   */\n    tag_166:\n        /* \"#utility.yul\":8966:9004   */\n      tag_167\n        /* \"#utility.yul\":8998:9003   */\n      dup6\n        /* \"#utility.yul\":8966:9004   */\n      tag_49\n      jump\t// in\n    tag_167:\n        /* \"#utility.yul\":9026:9027   */\n      0x00\n        /* \"#utility.yul\":9040:9194   */\n    tag_168:\n        /* \"#utility.yul\":9054:9060   */\n      dup4\n        /* \"#utility.yul\":9051:9052   */\n      dup2\n        /* \"#utility.yul\":9048:9061   */\n      lt\n        /* \"#utility.yul\":9040:9194   */\n      iszero\n      tag_170\n      jumpi\n        /* \"#utility.yul\":9128:9135   */\n      dup2\n        /* \"#utility.yul\":9122:9136   */\n      sload\n        /* \"#utility.yul\":9118:9119   */\n      dup2\n        /* \"#utility.yul\":9113:9116   */\n      dup10\n        /* \"#utility.yul\":9109:9120   */\n      add\n        /* \"#utility.yul\":9102:9137   */\n      mstore\n        /* \"#utility.yul\":9178:9179   */\n      0x01\n        /* \"#utility.yul\":9169:9176   */\n      dup3\n        /* \"#utility.yul\":9165:9180   */\n      add\n        /* \"#utility.yul\":9154:9180   */\n      swap2\n      pop\n        /* \"#utility.yul\":9076:9080   */\n      0x20\n        /* \"#utility.yul\":9073:9074   */\n      dup2\n        /* \"#utility.yul\":9069:9081   */\n      add\n        /* \"#utility.yul\":9064:9081   */\n      swap1\n      pop\n        /* \"#utility.yul\":9040:9194   */\n      jump(tag_168)\n    tag_170:\n        /* \"#utility.yul\":9223:9224   */\n      dup1\n        /* \"#utility.yul\":9218:9221   */\n      dup9\n        /* \"#utility.yul\":9214:9225   */\n      add\n        /* \"#utility.yul\":9207:9225   */\n      swap6\n      pop\n        /* \"#utility.yul\":8906:9235   */\n      pop\n      pop\n        /* \"#utility.yul\":8693:9235   */\n    tag_164:\n      pop\n        /* \"#utility.yul\":8499:9241   */\n      pop\n      pop\n        /* \"#utility.yul\":8410:9241   */\n      swap3\n      swap2\n      pop\n      pop\n      jump\t// out\n        /* \"#utility.yul\":9247:9554   */\n    tag_27:\n        /* \"#utility.yul\":9357:9361   */\n      0x00\n        /* \"#utility.yul\":9395:9397   */\n      0x20\n        /* \"#utility.yul\":9384:9393   */\n      dup3\n        /* \"#utility.yul\":9380:9398   */\n      add\n        /* \"#utility.yul\":9372:9398   */\n      swap1\n      pop\n        /* \"#utility.yul\":9444:9453   */\n      dup2\n        /* \"#utility.yul\":9438:9442   */\n      dup2\n        /* \"#utility.yul\":9434:9454   */\n      sub\n        /* \"#utility.yul\":9430:9431   */\n      0x00\n        /* \"#utility.yul\":9419:9428   */\n      dup4\n        /* \"#utility.yul\":9415:9432   */\n      add\n        /* \"#utility.yul\":9408:9455   */\n      mstore\n        /* \"#utility.yul\":9472:9547   */\n      tag_172\n        /* \"#utility.yul\":9542:9546   */\n      dup2\n        /* \"#utility.yul\":9533:9539   */\n      dup5\n        /* \"#utility.yul\":9472:9547   */\n      tag_65\n      jump\t// in\n    tag_172:\n        /* \"#utility.yul\":9464:9547   */\n      swap1\n      pop\n        /* \"#utility.yul\":9247:9554   */\n      swap3\n      swap2\n      pop\n      pop\n      jump\t// out\n\n    auxdata: 0xa26469706673582212205e49bf28df1f3e65475939592cd8d971ffccbf3adf67c418f518b941a0f02a6764736f6c63430008160033\n}\n",
				"bytecode": {
					"linkReferences": {},
					"object": "60806040526040518060400160405280600c81526020017f48656c6c6f20576f726c642100000000000000000000000000000000000000008152505f9081620000499190620002fa565b5034801562000056575f80fd5b507f241ba3bafc919fb4308284ce03a8f4867a8ec2f0401445d3cf41a468e7db4ae05f6040516200008891906200047b565b60405180910390a16200049d565b5f81519050919050565b7f4e487b71000000000000000000000000000000000000000000000000000000005f52604160045260245ffd5b7f4e487b71000000000000000000000000000000000000000000000000000000005f52602260045260245ffd5b5f60028204905060018216806200011257607f821691505b602082108103620001285762000127620000cd565b5b50919050565b5f819050815f5260205f209050919050565b5f6020601f8301049050919050565b5f82821b905092915050565b5f600883026200018c7fffffffffffffffffffffffffffffffffffffffffffffffffffffffffffffffff826200014f565b6200019886836200014f565b95508019841693508086168417925050509392505050565b5f819050919050565b5f819050919050565b5f620001e2620001dc620001d684620001b0565b620001b9565b620001b0565b9050919050565b5f819050919050565b620001fd83620001c2565b620002156200020c82620001e9565b8484546200015b565b825550505050565b5f90565b6200022b6200021d565b62000238818484620001f2565b505050565b5b818110156200025f57620002535f8262000221565b6001810190506200023e565b5050565b601f821115620002ae5762000278816200012e565b620002838462000140565b8101602085101562000293578190505b620002ab620002a28562000140565b8301826200023d565b50505b505050565b5f82821c905092915050565b5f620002d05f1984600802620002b3565b1980831691505092915050565b5f620002ea8383620002bf565b9150826002028217905092915050565b620003058262000096565b67ffffffffffffffff811115620003215762000320620000a0565b5b6200032d8254620000fa565b6200033a82828562000263565b5f60209050601f83116001811462000370575f84156200035b578287015190505b620003678582620002dd565b865550620003d6565b601f19841662000380866200012e565b5f5b82811015620003a95784890151825560018201915060208501945060208101905062000382565b86831015620003c95784890151620003c5601f891682620002bf565b8355505b6001600288020188555050505b505050505050565b5f82825260208201905092915050565b5f8154620003fc81620000fa565b620004088186620003de565b9450600182165f81146200042557600181146200043c5762000472565b60ff19831686528115156020028601935062000472565b62000447856200012e565b5f5b838110156200046a5781548189015260018201915060208101905062000449565b808801955050505b50505092915050565b5f6020820190508181035f830152620004958184620003ee565b905092915050565b61073d80620004ab5f395ff3fe608060405234801561000f575f80fd5b506004361061003f575f3560e01c80633acb315014610043578063a413686214610061578063fe50cc721461007d575b5f80fd5b61004b61009b565b604051610058919061028b565b60405180910390f35b61007b60048036038101906100769190610314565b610126565b005b610085610172565b604051610092919061028b565b60405180910390f35b5f80546100a79061038c565b80601f01602080910402602001604051908101604052809291908181526020018280546100d39061038c565b801561011e5780601f106100f55761010080835404028352916020019161011e565b820191905f5260205f20905b81548152906001019060200180831161010157829003601f168201915b505050505081565b81815f9182610136929190610599565b507f241ba3bafc919fb4308284ce03a8f4867a8ec2f0401445d3cf41a468e7db4ae05f60405161016691906106e7565b60405180910390a15050565b60605f80546101809061038c565b80601f01602080910402602001604051908101604052809291908181526020018280546101ac9061038c565b80156101f75780601f106101ce576101008083540402835291602001916101f7565b820191905f5260205f20905b8154815290600101906020018083116101da57829003601f168201915b5050505050905090565b5f81519050919050565b5f82825260208201905092915050565b5f5b8381101561023857808201518184015260208101905061021d565b5f8484015250505050565b5f601f19601f8301169050919050565b5f61025d82610201565b610267818561020b565b935061027781856020860161021b565b61028081610243565b840191505092915050565b5f6020820190508181035f8301526102a38184610253565b905092915050565b5f80fd5b5f80fd5b5f80fd5b5f80fd5b5f80fd5b5f8083601f8401126102d4576102d36102b3565b5b8235905067ffffffffffffffff8111156102f1576102f06102b7565b5b60208301915083600182028301111561030d5761030c6102bb565b5b9250929050565b5f806020838503121561032a576103296102ab565b5b5f83013567ffffffffffffffff811115610347576103466102af565b5b610353858286016102bf565b92509250509250929050565b7f4e487b71000000000000000000000000000000000000000000000000000000005f52602260045260245ffd5b5f60028204905060018216806103a357607f821691505b6020821081036103b6576103b561035f565b5b50919050565b5f82905092915050565b7f4e487b71000000000000000000000000000000000000000000000000000000005f52604160045260245ffd5b5f819050815f5260205f209050919050565b5f6020601f8301049050919050565b5f82821b905092915050565b5f6008830261044f7fffffffffffffffffffffffffffffffffffffffffffffffffffffffffffffffff82610414565b6104598683610414565b95508019841693508086168417925050509392505050565b5f819050919050565b5f819050919050565b5f61049d61049861049384610471565b61047a565b610471565b9050919050565b5f819050919050565b6104b683610483565b6104ca6104c2826104a4565b848454610420565b825550505050565b5f90565b6104de6104d2565b6104e98184846104ad565b505050565b5b8181101561050c576105015f826104d6565b6001810190506104ef565b5050565b601f82111561055157610522816103f3565b61052b84610405565b8101602085101561053a578190505b61054e61054685610405565b8301826104ee565b50505b505050565b5f82821c905092915050565b5f6105715f1984600802610556565b1980831691505092915050565b5f6105898383610562565b9150826002028217905092915050565b6105a383836103bc565b67ffffffffffffffff8111156105bc576105bb6103c6565b5b6105c6825461038c565b6105d1828285610510565b5f601f8311600181146105fe575f84156105ec578287013590505b6105f6858261057e565b86555061065d565b601f19841661060c866103f3565b5f5b828110156106335784890135825560018201915060208501945060208101905061060e565b86831015610650578489013561064c601f891682610562565b8355505b6001600288020188555050505b50505050505050565b5f81546106728161038c565b61067c818661020b565b9450600182165f811461069657600181146106ac576106de565b60ff1983168652811515602002860193506106de565b6106b5856103f3565b5f5b838110156106d6578154818901526001820191506020810190506106b7565b808801955050505b50505092915050565b5f6020820190508181035f8301526106ff8184610666565b90509291505056fea26469706673582212205e49bf28df1f3e65475939592cd8d971ffccbf3adf67c418f518b941a0f02a6764736f6c63430008160033",
					"opcodes": "PUSH1 0x80 PUSH1 0x40 MSTORE PUSH1 0x40 MLOAD DUP1 PUSH1 0x40 ADD PUSH1 0x40 MSTORE DUP1 PUSH1 0xC DUP2 MSTORE PUSH1 0x20 ADD PUSH32 0x48656C6C6F20576F726C64210000000000000000000000000000000000000000 DUP2 MSTORE POP PUSH0 SWAP1 DUP2 PUSH3 0x49 SWAP2 SWAP1 PUSH3 0x2FA JUMP JUMPDEST POP CALLVALUE DUP1 ISZERO PUSH3 0x56 JUMPI PUSH0 DUP1 REVERT JUMPDEST POP PUSH32 0x241BA3BAFC919FB4308284CE03A8F4867A8EC2F0401445D3CF41A468E7DB4AE0 PUSH0 PUSH1 0x40 MLOAD PUSH3 0x88 SWAP2 SWAP1 PUSH3 0x47B JUMP JUMPDEST PUSH1 0x40 MLOAD DUP1 SWAP2 SUB SWAP1 LOG1 PUSH3 0x49D JUMP JUMPDEST PUSH0 DUP2 MLOAD SWAP1 POP SWAP2 SWAP1 POP JUMP JUMPDEST PUSH32 0x4E487B7100000000000000000000000000000000000000000000000000000000 PUSH0 MSTORE PUSH1 0x41 PUSH1 0x4 MSTORE PUSH1 0x24 PUSH0 REVERT JUMPDEST PUSH32 0x4E487B7100000000000000000000000000000000000000000000000000000000 PUSH0 MSTORE PUSH1 0x22 PUSH1 0x4 MSTORE PUSH1 0x24 PUSH0 REVERT JUMPDEST PUSH0 PUSH1 0x2 DUP3 DIV SWAP1 POP PUSH1 0x1 DUP3 AND DUP1 PUSH3 0x112 JUMPI PUSH1 0x7F DUP3 AND SWAP2 POP JUMPDEST PUSH1 0x20 DUP3 LT DUP2 SUB PUSH3 0x128 JUMPI PUSH3 0x127 PUSH3 0xCD JUMP JUMPDEST JUMPDEST POP SWAP2 SWAP1 POP JUMP JUMPDEST PUSH0 DUP2 SWAP1 POP DUP2 PUSH0 MSTORE PUSH1 0x20 PUSH0 KECCAK256 SWAP1 POP SWAP2 SWAP1 POP JUMP JUMPDEST PUSH0 PUSH1 0x20 PUSH1 0x1F DUP4 ADD DIV SWAP1 POP SWAP2 SWAP1 POP JUMP JUMPDEST PUSH0 DUP3 DUP3 SHL SWAP1 POP SWAP3 SWAP2 POP POP JUMP JUMPDEST PUSH0 PUSH1 0x8 DUP4 MUL PUSH3 0x18C PUSH32 0xFFFFFFFFFFFFFFFFFFFFFFFFFFFFFFFFFFFFFFFFFFFFFFFFFFFFFFFFFFFFFFFF DUP3 PUSH3 0x14F JUMP JUMPDEST PUSH3 0x198 DUP7 DUP4 PUSH3 0x14F JUMP JUMPDEST SWAP6 POP DUP1 NOT DUP5 AND SWAP4 POP DUP1 DUP7 AND DUP5 OR SWAP3 POP POP POP SWAP4 SWAP3 POP POP POP JUMP JUMPDEST PUSH0 DUP2 SWAP1 POP SWAP2 SWAP1 POP JUMP JUMPDEST PUSH0 DUP2 SWAP1 POP SWAP2 SWAP1 POP JUMP JUMPDEST PUSH0 PUSH3 0x1E2 PUSH3 0x1DC PUSH3 0x1D6 DUP5 PUSH3 0x1B0 JUMP JUMPDEST PUSH3 0x1B9 JUMP JUMPDEST PUSH3 0x1B0 JUMP JUMPDEST SWAP1 POP SWAP2 SWAP1 POP JUMP JUMPDEST PUSH0 DUP2 SWAP1 POP SWAP2 SWAP1 POP JUMP JUMPDEST PUSH3 0x1FD DUP4 PUSH3 0x1C2 JUMP JUMPDEST PUSH3 0x215 PUSH3 0x20C DUP3 PUSH3 0x1E9 JUMP JUMPDEST DUP5 DUP5 SLOAD PUSH3 0x15B JUMP JUMPDEST DUP3 SSTORE POP POP POP POP JUMP JUMPDEST PUSH0 SWAP1 JUMP JUMPDEST PUSH3 0x22B PUSH3 0x21D JUMP JUMPDEST PUSH3 0x238 DUP2 DUP5 DUP5 PUSH3 0x1F2 JUMP JUMPDEST POP POP POP JUMP JUMPDEST JUMPDEST DUP2 DUP2 LT ISZERO PUSH3 0x25F JUMPI PUSH3 0x253 PUSH0 DUP3 PUSH3 0x221 JUMP JUMPDEST PUSH1 0x1 DUP2 ADD SWAP1 POP PUSH3 0x23E JUMP JUMPDEST POP POP JUMP JUMPDEST PUSH1 0x1F DUP3 GT ISZERO PUSH3 0x2AE JUMPI PUSH3 0x278 DUP2 PUSH3 0x12E JUMP JUMPDEST PUSH3 0x283 DUP5 PUSH3 0x140 JUMP JUMPDEST DUP2 ADD PUSH1 0x20 DUP6 LT ISZERO PUSH3 0x293 JUMPI DUP2 SWAP1 POP JUMPDEST PUSH3 0x2AB PUSH3 0x2A2 DUP6 PUSH3 0x140 JUMP JUMPDEST DUP4 ADD DUP3 PUSH3 0x23D JUMP JUMPDEST POP POP JUMPDEST POP POP POP JUMP JUMPDEST PUSH0 DUP3 DUP3 SHR SWAP1 POP SWAP3 SWAP2 POP POP JUMP JUMPDEST PUSH0 PUSH3 0x2D0 PUSH0 NOT DUP5 PUSH1 0x8 MUL PUSH3 0x2B3 JUMP JUMPDEST NOT DUP1 DUP4 AND SWAP2 POP POP SWAP3 SWAP2 POP POP JUMP JUMPDEST PUSH0 PUSH3 0x2EA DUP4 DUP4 PUSH3 0x2BF JUMP JUMPDEST SWAP2 POP DUP3 PUSH1 0x2 MUL DUP3 OR SWAP1 POP SWAP3 SWAP2 POP POP JUMP JUMPDEST PUSH3 0x305 DUP3 PUSH3 0x96 JUMP JUMPDEST PUSH8 0xFFFFFFFFFFFFFFFF DUP2 GT ISZERO PUSH3 0x321 JUMPI PUSH3 0x320 PUSH3 0xA0 JUMP JUMPDEST JUMPDEST PUSH3 0x32D DUP3 SLOAD PUSH3 0xFA JUMP JUMPDEST PUSH3 0x33A DUP3 DUP3 DUP6 PUSH3 0x263 JUMP JUMPDEST PUSH0 PUSH1 0x20 SWAP1 POP PUSH1 0x1F DUP4 GT PUSH1 0x1 DUP2 EQ PUSH3 0x370 JUMPI PUSH0 DUP5 ISZERO PUSH3 0x35B JUMPI DUP3 DUP8 ADD MLOAD SWAP1 POP JUMPDEST PUSH3 0x367 DUP6 DUP3 PUSH3 0x2DD JUMP JUMPDEST DUP7 SSTORE POP PUSH3 0x3D6 JUMP JUMPDEST PUSH1 0x1F NOT DUP5 AND PUSH3 0x380 DUP7 PUSH3 0x12E JUMP JUMPDEST PUSH0 JUMPDEST DUP3 DUP2 LT ISZERO PUSH3 0x3A9 JUMPI DUP5 DUP10 ADD MLOAD DUP3 SSTORE PUSH1 0x1 DUP3 ADD SWAP2 POP PUSH1 0x20 DUP6 ADD SWAP5 POP PUSH1 0x20 DUP2 ADD SWAP1 POP PUSH3 0x382 JUMP JUMPDEST DUP7 DUP4 LT ISZERO PUSH3 0x3C9 JUMPI DUP5 DUP10 ADD MLOAD PUSH3 0x3C5 PUSH1 0x1F DUP10 AND DUP3 PUSH3 0x2BF JUMP JUMPDEST DUP4 SSTORE POP JUMPDEST PUSH1 0x1 PUSH1 0x2 DUP9 MUL ADD DUP9 SSTORE POP POP POP JUMPDEST POP POP POP POP POP POP JUMP JUMPDEST PUSH0 DUP3 DUP3 MSTORE PUSH1 0x20 DUP3 ADD SWAP1 POP SWAP3 SWAP2 POP POP JUMP JUMPDEST PUSH0 DUP2 SLOAD PUSH3 0x3FC DUP2 PUSH3 0xFA JUMP JUMPDEST PUSH3 0x408 DUP2 DUP7 PUSH3 0x3DE JUMP JUMPDEST SWAP5 POP PUSH1 0x1 DUP3 AND PUSH0 DUP2 EQ PUSH3 0x425 JUMPI PUSH1 0x1 DUP2 EQ PUSH3 0x43C JUMPI PUSH3 0x472 JUMP JUMPDEST PUSH1 0xFF NOT DUP4 AND DUP7 MSTORE DUP2 ISZERO ISZERO PUSH1 0x20 MUL DUP7 ADD SWAP4 POP PUSH3 0x472 JUMP JUMPDEST PUSH3 0x447 DUP6 PUSH3 0x12E JUMP JUMPDEST PUSH0 JUMPDEST DUP4 DUP2 LT ISZERO PUSH3 0x46A JUMPI DUP2 SLOAD DUP2 DUP10 ADD MSTORE PUSH1 0x1 DUP3 ADD SWAP2 POP PUSH1 0x20 DUP2 ADD SWAP1 POP PUSH3 0x449 JUMP JUMPDEST DUP1 DUP9 ADD SWAP6 POP POP POP JUMPDEST POP POP POP SWAP3 SWAP2 POP POP JUMP JUMPDEST PUSH0 PUSH1 0x20 DUP3 ADD SWAP1 POP DUP2 DUP2 SUB PUSH0 DUP4 ADD MSTORE PUSH3 0x495 DUP2 DUP5 PUSH3 0x3EE JUMP JUMPDEST SWAP1 POP SWAP3 SWAP2 POP POP JUMP JUMPDEST PUSH2 0x73D DUP1 PUSH3 0x4AB PUSH0 CODECOPY PUSH0 RETURN INVALID PUSH1 0x80 PUSH1 0x40 MSTORE CALLVALUE DUP1 ISZERO PUSH2 0xF JUMPI PUSH0 DUP1 REVERT JUMPDEST POP PUSH1 0x4 CALLDATASIZE LT PUSH2 0x3F JUMPI PUSH0 CALLDATALOAD PUSH1 0xE0 SHR DUP1 PUSH4 0x3ACB3150 EQ PUSH2 0x43 JUMPI DUP1 PUSH4 0xA4136862 EQ PUSH2 0x61 JUMPI DUP1 PUSH4 0xFE50CC72 EQ PUSH2 0x7D JUMPI JUMPDEST PUSH0 DUP1 REVERT JUMPDEST PUSH2 0x4B PUSH2 0x9B JUMP JUMPDEST PUSH1 0x40 MLOAD PUSH2 0x58 SWAP2 SWAP1 PUSH2 0x28B JUMP JUMPDEST PUSH1 0x40 MLOAD DUP1 SWAP2 SUB SWAP1 RETURN JUMPDEST PUSH2 0x7B PUSH1 0x4 DUP1 CALLDATASIZE SUB DUP2 ADD SWAP1 PUSH2 0x76 SWAP2 SWAP1 PUSH2 0x314 JUMP JUMPDEST PUSH2 0x126 JUMP JUMPDEST STOP JUMPDEST PUSH2 0x85 PUSH2 0x172 JUMP JUMPDEST PUSH1 0x40 MLOAD PUSH2 0x92 SWAP2 SWAP1 PUSH2 0x28B JUMP JUMPDEST PUSH1 0x40 MLOAD DUP1 SWAP2 SUB SWAP1 RETURN JUMPDEST PUSH0 DUP1 SLOAD PUSH2 0xA7 SWAP1 PUSH2 0x38C JUMP JUMPDEST DUP1 PUSH1 0x1F ADD PUSH1 0x20 DUP1 SWAP2 DIV MUL PUSH1 0x20 ADD PUSH1 0x40 MLOAD SWAP1 DUP2 ADD PUSH1 0x40 MSTORE DUP1 SWAP3 SWAP2 SWAP1 DUP2 DUP2 MSTORE PUSH1 0x20 ADD DUP3 DUP1 SLOAD PUSH2 0xD3 SWAP1 PUSH2 0x38C JUMP JUMPDEST DUP1 ISZERO PUSH2 0x11E JUMPI DUP1 PUSH1 0x1F LT PUSH2 0xF5 JUMPI PUSH2 0x100 DUP1 DUP4 SLOAD DIV MUL DUP4 MSTORE SWAP2 PUSH1 0x20 ADD SWAP2 PUSH2 0x11E JUMP JUMPDEST DUP3 ADD SWAP2 SWAP1 PUSH0 MSTORE PUSH1 0x20 PUSH0 KECCAK256 SWAP1 JUMPDEST DUP2 SLOAD DUP2 MSTORE SWAP1 PUSH1 0x1 ADD SWAP1 PUSH1 0x20 ADD DUP1 DUP4 GT PUSH2 0x101 JUMPI DUP3 SWAP1 SUB PUSH1 0x1F AND DUP3 ADD SWAP2 JUMPDEST POP POP POP POP POP DUP2 JUMP JUMPDEST DUP2 DUP2 PUSH0 SWAP2 DUP3 PUSH2 0x136 SWAP3 SWAP2 SWAP1 PUSH2 0x599 JUMP JUMPDEST POP PUSH32 0x241BA3BAFC919FB4308284CE03A8F4867A8EC2F0401445D3CF41A468E7DB4AE0 PUSH0 PUSH1 0x40 MLOAD PUSH2 0x166 SWAP2 SWAP1 PUSH2 0x6E7 JUMP JUMPDEST PUSH1 0x40 MLOAD DUP1 SWAP2 SUB SWAP1 LOG1 POP POP JUMP JUMPDEST PUSH1 0x60 PUSH0 DUP1 SLOAD PUSH2 0x180 SWAP1 PUSH2 0x38C JUMP JUMPDEST DUP1 PUSH1 0x1F ADD PUSH1 0x20 DUP1 SWAP2 DIV MUL PUSH1 0x20 ADD PUSH1 0x40 MLOAD SWAP1 DUP2 ADD PUSH1 0x40 MSTORE DUP1 SWAP3 SWAP2 SWAP1 DUP2 DUP2 MSTORE PUSH1 0x20 ADD DUP3 DUP1 SLOAD PUSH2 0x1AC SWAP1 PUSH2 0x38C JUMP JUMPDEST DUP1 ISZERO PUSH2 0x1F7 JUMPI DUP1 PUSH1 0x1F LT PUSH2 0x1CE JUMPI PUSH2 0x100 DUP1 DUP4 SLOAD DIV MUL DUP4 MSTORE SWAP2 PUSH1 0x20 ADD SWAP2 PUSH2 0x1F7 JUMP JUMPDEST DUP3 ADD SWAP2 SWAP1 PUSH0 MSTORE PUSH1 0x20 PUSH0 KECCAK256 SWAP1 JUMPDEST DUP2 SLOAD DUP2 MSTORE SWAP1 PUSH1 0x1 ADD SWAP1 PUSH1 0x20 ADD DUP1 DUP4 GT PUSH2 0x1DA JUMPI DUP3 SWAP1 SUB PUSH1 0x1F AND DUP3 ADD SWAP2 JUMPDEST POP POP POP POP POP SWAP1 POP SWAP1 JUMP JUMPDEST PUSH0 DUP2 MLOAD SWAP1 POP SWAP2 SWAP1 POP JUMP JUMPDEST PUSH0 DUP3 DUP3 MSTORE PUSH1 0x20 DUP3 ADD SWAP1 POP SWAP3 SWAP2 POP POP JUMP JUMPDEST PUSH0 JUMPDEST DUP4 DUP2 LT ISZERO PUSH2 0x238 JUMPI DUP1 DUP3 ADD MLOAD DUP2 DUP5 ADD MSTORE PUSH1 0x20 DUP2 ADD SWAP1 POP PUSH2 0x21D JUMP JUMPDEST PUSH0 DUP5 DUP5 ADD MSTORE POP POP POP POP JUMP JUMPDEST PUSH0 PUSH1 0x1F NOT PUSH1 0x1F DUP4 ADD AND SWAP1 POP SWAP2 SWAP1 POP JUMP JUMPDEST PUSH0 PUSH2 0x25D DUP3 PUSH2 0x201 JUMP JUMPDEST PUSH2 0x267 DUP2 DUP6 PUSH2 0x20B JUMP JUMPDEST SWAP4 POP PUSH2 0x277 DUP2 DUP6 PUSH1 0x20 DUP7 ADD PUSH2 0x21B JUMP JUMPDEST PUSH2 0x280 DUP2 PUSH2 0x243 JUMP JUMPDEST DUP5 ADD SWAP2 POP POP SWAP3 SWAP2 POP POP JUMP JUMPDEST PUSH0 PUSH1 0x20 DUP3 ADD SWAP1 POP DUP2 DUP2 SUB PUSH0 DUP4 ADD MSTORE PUSH2 0x2A3 DUP2 DUP5 PUSH2 0x253 JUMP JUMPDEST SWAP1 POP SWAP3 SWAP2 POP POP JUMP JUMPDEST PUSH0 DUP1 REVERT JUMPDEST PUSH0 DUP1 REVERT JUMPDEST PUSH0 DUP1 REVERT JUMPDEST PUSH0 DUP1 REVERT JUMPDEST PUSH0 DUP1 REVERT JUMPDEST PUSH0 DUP1 DUP4 PUSH1 0x1F DUP5 ADD SLT PUSH2 0x2D4 JUMPI PUSH2 0x2D3 PUSH2 0x2B3 JUMP JUMPDEST JUMPDEST DUP3 CALLDATALOAD SWAP1 POP PUSH8 0xFFFFFFFFFFFFFFFF DUP2 GT ISZERO PUSH2 0x2F1 JUMPI PUSH2 0x2F0 PUSH2 0x2B7 JUMP JUMPDEST JUMPDEST PUSH1 0x20 DUP4 ADD SWAP2 POP DUP4 PUSH1 0x1 DUP3 MUL DUP4 ADD GT ISZERO PUSH2 0x30D JUMPI PUSH2 0x30C PUSH2 0x2BB JUMP JUMPDEST JUMPDEST SWAP3 POP SWAP3 SWAP1 POP JUMP JUMPDEST PUSH0 DUP1 PUSH1 0x20 DUP4 DUP6 SUB SLT ISZERO PUSH2 0x32A JUMPI PUSH2 0x329 PUSH2 0x2AB JUMP JUMPDEST JUMPDEST PUSH0 DUP4 ADD CALLDATALOAD PUSH8 0xFFFFFFFFFFFFFFFF DUP2 GT ISZERO PUSH2 0x347 JUMPI PUSH2 0x346 PUSH2 0x2AF JUMP JUMPDEST JUMPDEST PUSH2 0x353 DUP6 DUP3 DUP7 ADD PUSH2 0x2BF JUMP JUMPDEST SWAP3 POP SWAP3 POP POP SWAP3 POP SWAP3 SWAP1 POP JUMP JUMPDEST PUSH32 0x4E487B7100000000000000000000000000000000000000000000000000000000 PUSH0 MSTORE PUSH1 0x22 PUSH1 0x4 MSTORE PUSH1 0x24 PUSH0 REVERT JUMPDEST PUSH0 PUSH1 0x2 DUP3 DIV SWAP1 POP PUSH1 0x1 DUP3 AND DUP1 PUSH2 0x3A3 JUMPI PUSH1 0x7F DUP3 AND SWAP2 POP JUMPDEST PUSH1 0x20 DUP3 LT DUP2 SUB PUSH2 0x3B6 JUMPI PUSH2 0x3B5 PUSH2 0x35F JUMP JUMPDEST JUMPDEST POP SWAP2 SWAP1 POP JUMP JUMPDEST PUSH0 DUP3 SWAP1 POP SWAP3 SWAP2 POP POP JUMP JUMPDEST PUSH32 0x4E487B7100000000000000000000000000000000000000000000000000000000 PUSH0 MSTORE PUSH1 0x41 PUSH1 0x4 MSTORE PUSH1 0x24 PUSH0 REVERT JUMPDEST PUSH0 DUP2 SWAP1 POP DUP2 PUSH0 MSTORE PUSH1 0x20 PUSH0 KECCAK256 SWAP1 POP SWAP2 SWAP1 POP JUMP JUMPDEST PUSH0 PUSH1 0x20 PUSH1 0x1F DUP4 ADD DIV SWAP1 POP SWAP2 SWAP1 POP JUMP JUMPDEST PUSH0 DUP3 DUP3 SHL SWAP1 POP SWAP3 SWAP2 POP POP JUMP JUMPDEST PUSH0 PUSH1 0x8 DUP4 MUL PUSH2 0x44F PUSH32 0xFFFFFFFFFFFFFFFFFFFFFFFFFFFFFFFFFFFFFFFFFFFFFFFFFFFFFFFFFFFFFFFF DUP3 PUSH2 0x414 JUMP JUMPDEST PUSH2 0x459 DUP7 DUP4 PUSH2 0x414 JUMP JUMPDEST SWAP6 POP DUP1 NOT DUP5 AND SWAP4 POP DUP1 DUP7 AND DUP5 OR SWAP3 POP POP POP SWAP4 SWAP3 POP POP POP JUMP JUMPDEST PUSH0 DUP2 SWAP1 POP SWAP2 SWAP1 POP JUMP JUMPDEST PUSH0 DUP2 SWAP1 POP SWAP2 SWAP1 POP JUMP JUMPDEST PUSH0 PUSH2 0x49D PUSH2 0x498 PUSH2 0x493 DUP5 PUSH2 0x471 JUMP JUMPDEST PUSH2 0x47A JUMP JUMPDEST PUSH2 0x471 JUMP JUMPDEST SWAP1 POP SWAP2 SWAP1 POP JUMP JUMPDEST PUSH0 DUP2 SWAP1 POP SWAP2 SWAP1 POP JUMP JUMPDEST PUSH2 0x4B6 DUP4 PUSH2 0x483 JUMP JUMPDEST PUSH2 0x4CA PUSH2 0x4C2 DUP3 PUSH2 0x4A4 JUMP JUMPDEST DUP5 DUP5 SLOAD PUSH2 0x420 JUMP JUMPDEST DUP3 SSTORE POP POP POP POP JUMP JUMPDEST PUSH0 SWAP1 JUMP JUMPDEST PUSH2 0x4DE PUSH2 0x4D2 JUMP JUMPDEST PUSH2 0x4E9 DUP2 DUP5 DUP5 PUSH2 0x4AD JUMP JUMPDEST POP POP POP JUMP JUMPDEST JUMPDEST DUP2 DUP2 LT ISZERO PUSH2 0x50C JUMPI PUSH2 0x501 PUSH0 DUP3 PUSH2 0x4D6 JUMP JUMPDEST PUSH1 0x1 DUP2 ADD SWAP1 POP PUSH2 0x4EF JUMP JUMPDEST POP POP JUMP JUMPDEST PUSH1 0x1F DUP3 GT ISZERO PUSH2 0x551 JUMPI PUSH2 0x522 DUP2 PUSH2 0x3F3 JUMP JUMPDEST PUSH2 0x52B DUP5 PUSH2 0x405 JUMP JUMPDEST DUP2 ADD PUSH1 0x20 DUP6 LT ISZERO PUSH2 0x53A JUMPI DUP2 SWAP1 POP JUMPDEST PUSH2 0x54E PUSH2 0x546 DUP6 PUSH2 0x405 JUMP JUMPDEST DUP4 ADD DUP3 PUSH2 0x4EE JUMP JUMPDEST POP POP JUMPDEST POP POP POP JUMP JUMPDEST PUSH0 DUP3 DUP3 SHR SWAP1 POP SWAP3 SWAP2 POP POP JUMP JUMPDEST PUSH0 PUSH2 0x571 PUSH0 NOT DUP5 PUSH1 0x8 MUL PUSH2 0x556 JUMP JUMPDEST NOT DUP1 DUP4 AND SWAP2 POP POP SWAP3 SWAP2 POP POP JUMP JUMPDEST PUSH0 PUSH2 0x589 DUP4 DUP4 PUSH2 0x562 JUMP JUMPDEST SWAP2 POP DUP3 PUSH1 0x2 MUL DUP3 OR SWAP1 POP SWAP3 SWAP2 POP POP JUMP JUMPDEST PUSH2 0x5A3 DUP4 DUP4 PUSH2 0x3BC JUMP JUMPDEST PUSH8 0xFFFFFFFFFFFFFFFF DUP2 GT ISZERO PUSH2 0x5BC JUMPI PUSH2 0x5BB PUSH2 0x3C6 JUMP JUMPDEST JUMPDEST PUSH2 0x5C6 DUP3 SLOAD PUSH2 0x38C JUMP JUMPDEST PUSH2 0x5D1 DUP3 DUP3 DUP6 PUSH2 0x510 JUMP JUMPDEST PUSH0 PUSH1 0x1F DUP4 GT PUSH1 0x1 DUP2 EQ PUSH2 0x5FE JUMPI PUSH0 DUP5 ISZERO PUSH2 0x5EC JUMPI DUP3 DUP8 ADD CALLDATALOAD SWAP1 POP JUMPDEST PUSH2 0x5F6 DUP6 DUP3 PUSH2 0x57E JUMP JUMPDEST DUP7 SSTORE POP PUSH2 0x65D JUMP JUMPDEST PUSH1 0x1F NOT DUP5 AND PUSH2 0x60C DUP7 PUSH2 0x3F3 JUMP JUMPDEST PUSH0 JUMPDEST DUP3 DUP2 LT ISZERO PUSH2 0x633 JUMPI DUP5 DUP10 ADD CALLDATALOAD DUP3 SSTORE PUSH1 0x1 DUP3 ADD SWAP2 POP PUSH1 0x20 DUP6 ADD SWAP5 POP PUSH1 0x20 DUP2 ADD SWAP1 POP PUSH2 0x60E JUMP JUMPDEST DUP7 DUP4 LT ISZERO PUSH2 0x650 JUMPI DUP5 DUP10 ADD CALLDATALOAD PUSH2 0x64C PUSH1 0x1F DUP10 AND DUP3 PUSH2 0x562 JUMP JUMPDEST DUP4 SSTORE POP JUMPDEST PUSH1 0x1 PUSH1 0x2 DUP9 MUL ADD DUP9 SSTORE POP POP POP JUMPDEST POP POP POP POP POP POP POP JUMP JUMPDEST PUSH0 DUP2 SLOAD PUSH2 0x672 DUP2 PUSH2 0x38C JUMP JUMPDEST PUSH2 0x67C DUP2 DUP7 PUSH2 0x20B JUMP JUMPDEST SWAP5 POP PUSH1 0x1 DUP3 AND PUSH0 DUP2 EQ PUSH2 0x696 JUMPI PUSH1 0x1 DUP2 EQ PUSH2 0x6AC JUMPI PUSH2 0x6DE JUMP JUMPDEST PUSH1 0xFF NOT DUP4 AND DUP7 MSTORE DUP2 ISZERO ISZERO PUSH1 0x20 MUL DUP7 ADD SWAP4 POP PUSH2 0x6DE JUMP JUMPDEST PUSH2 0x6B5 DUP6 PUSH2 0x3F3 JUMP JUMPDEST PUSH0 JUMPDEST DUP4 DUP2 LT ISZERO PUSH2 0x6D6 JUMPI DUP2 SLOAD DUP2 DUP10 ADD MSTORE PUSH1 0x1 DUP3 ADD SWAP2 POP PUSH1 0x20 DUP2 ADD SWAP1 POP PUSH2 0x6B7 JUMP JUMPDEST DUP1 DUP9 ADD SWAP6 POP POP POP JUMPDEST POP POP POP SWAP3 SWAP2 POP POP JUMP JUMPDEST PUSH0 PUSH1 0x20 DUP3 ADD SWAP1 POP DUP2 DUP2 SUB PUSH0 DUP4 ADD MSTORE PUSH2 0x6FF DUP2 DUP5 PUSH2 0x666 JUMP JUMPDEST SWAP1 POP SWAP3 SWAP2 POP POP JUMP INVALID LOG2 PUSH5 0x6970667358 0x22 SLT KECCAK256 0x5E 0x49 0xBF 0x28 0xDF 0x1F RETURNDATACOPY PUSH6 0x475939592CD8 0xD9 PUSH18 0xFFCCBF3ADF67C418F518B941A0F02A676473 PUSH16 0x6C634300081600330000000000000000 "
				},
				"gasEstimates": {
					"creation": {
						"codeDepositCost": "370600",
						"executionCost": "infinite",
						"totalCost": "infinite"
					},
					"external": {
						"SayHello()": "infinite",
						"getGreeting()": "infinite",
						"setGreeting(string)": "infinite"
					}
				},
				"methodIdentifiers": {
					"SayHello()": "3acb3150",
					"getGreeting()": "fe50cc72",
					"setGreeting(string)": "a4136862"
				}
			},
			"storageLayout": {
				"storage": [
					{
						"astId": 5,
						"contract": "contracts/Helloworld.sol:Helloworld",
						"label": "SayHello",
						"offset": 0,
						"slot": "0",
						"type": "t_string_storage"
					}
				],
				"types": {
					"t_string_storage": {
						"encoding": "bytes",
						"label": "string",
						"numberOfBytes": "32"
					}
				}
			},
			"userdoc": {
				"kind": "user",
				"methods": {},
				"version": 1
			}
		}
	}
}