{
	"contracts/BasicTwitter.sol": {
		"BasicTwitter": {
			"abi": [
				{
					"inputs": [],
					"stateMutability": "nonpayable",
					"type": "constructor"
				},
				{
					"anonymous": false,
					"inputs": [
						{
							"indexed": false,
							"internalType": "uint256",
							"name": "id",
							"type": "uint256"
						},
						{
							"indexed": false,
							"internalType": "address",
							"name": "author",
							"type": "address"
						},
						{
							"indexed": false,
							"internalType": "string",
							"name": "content",
							"type": "string"
						},
						{
							"indexed": false,
							"internalType": "uint256",
							"name": "timestamp",
							"type": "uint256"
						}
					],
					"name": "TweetCreated",
					"type": "event"
				},
				{
					"inputs": [],
					"name": "MAX_TWEET_LENGTH",
					"outputs": [
						{
							"internalType": "uint16",
							"name": "",
							"type": "uint16"
						}
					],
					"stateMutability": "view",
					"type": "function"
				},
				{
					"inputs": [],
					"name": "MIN_TWEET_LENGTH",
					"outputs": [
						{
							"internalType": "uint16",
							"name": "",
							"type": "uint16"
						}
					],
					"stateMutability": "view",
					"type": "function"
				},
				{
					"inputs": [
						{
							"internalType": "uint16",
							"name": "newMaxLength",
							"type": "uint16"
						}
					],
					"name": "changeMaxTweetLenth",
					"outputs": [],
					"stateMutability": "nonpayable",
					"type": "function"
				},
				{
					"inputs": [
						{
							"internalType": "string",
							"name": "_tweet",
							"type": "string"
						}
					],
					"name": "createTweet",
					"outputs": [],
					"stateMutability": "nonpayable",
					"type": "function"
				},
				{
					"inputs": [
						{
							"internalType": "uint256",
							"name": "index",
							"type": "uint256"
						}
					],
					"name": "getMyTweet",
					"outputs": [
						{
							"components": [
								{
									"internalType": "uint256",
									"name": "id",
									"type": "uint256"
								},
								{
									"internalType": "address",
									"name": "author",
									"type": "address"
								},
								{
									"internalType": "string",
									"name": "content",
									"type": "string"
								},
								{
									"internalType": "uint256",
									"name": "timestamp",
									"type": "uint256"
								},
								{
									"internalType": "uint256",
									"name": "amountViews",
									"type": "uint256"
								}
							],
							"internalType": "struct BasicTwitter.Tweet",
							"name": "",
							"type": "tuple"
						}
					],
					"stateMutability": "nonpayable",
					"type": "function"
				},
				{
					"inputs": [],
					"name": "getMyTweets",
					"outputs": [
						{
							"components": [
								{
									"internalType": "uint256",
									"name": "id",
									"type": "uint256"
								},
								{
									"internalType": "address",
									"name": "author",
									"type": "address"
								},
								{
									"internalType": "string",
									"name": "content",
									"type": "string"
								},
								{
									"internalType": "uint256",
									"name": "timestamp",
									"type": "uint256"
								},
								{
									"internalType": "uint256",
									"name": "amountViews",
									"type": "uint256"
								}
							],
							"internalType": "struct BasicTwitter.Tweet[]",
							"name": "",
							"type": "tuple[]"
						}
					],
					"stateMutability": "view",
					"type": "function"
				},
				{
					"inputs": [
						{
							"internalType": "address",
							"name": "_owner",
							"type": "address"
						},
						{
							"internalType": "uint256",
							"name": "_index",
							"type": "uint256"
						}
					],
					"name": "getTweet",
					"outputs": [
						{
							"components": [
								{
									"internalType": "uint256",
									"name": "id",
									"type": "uint256"
								},
								{
									"internalType": "address",
									"name": "author",
									"type": "address"
								},
								{
									"internalType": "string",
									"name": "content",
									"type": "string"
								},
								{
									"internalType": "uint256",
									"name": "timestamp",
									"type": "uint256"
								},
								{
									"internalType": "uint256",
									"name": "amountViews",
									"type": "uint256"
								}
							],
							"internalType": "struct BasicTwitter.Tweet",
							"name": "",
							"type": "tuple"
						}
					],
					"stateMutability": "nonpayable",
					"type": "function"
				},
				{
					"inputs": [
						{
							"internalType": "address",
							"name": "_ownerAddress",
							"type": "address"
						}
					],
					"name": "getTweetsByAddress",
					"outputs": [
						{
							"components": [
								{
									"internalType": "uint256",
									"name": "id",
									"type": "uint256"
								},
								{
									"internalType": "address",
									"name": "author",
									"type": "address"
								},
								{
									"internalType": "string",
									"name": "content",
									"type": "string"
								},
								{
									"internalType": "uint256",
									"name": "timestamp",
									"type": "uint256"
								},
								{
									"internalType": "uint256",
									"name": "amountViews",
									"type": "uint256"
								}
							],
							"internalType": "struct BasicTwitter.Tweet[]",
							"name": "",
							"type": "tuple[]"
						}
					],
					"stateMutability": "view",
					"type": "function"
				},
				{
					"inputs": [],
					"name": "owner",
					"outputs": [
						{
							"internalType": "address",
							"name": "",
							"type": "address"
						}
					],
					"stateMutability": "view",
					"type": "function"
				},
				{
					"inputs": [
						{
							"internalType": "address",
							"name": "",
							"type": "address"
						},
						{
							"internalType": "uint256",
							"name": "",
							"type": "uint256"
						}
					],
					"name": "tweets",
					"outputs": [
						{
							"internalType": "uint256",
							"name": "id",
							"type": "uint256"
						},
						{
							"internalType": "address",
							"name": "author",
							"type": "address"
						},
						{
							"internalType": "string",
							"name": "content",
							"type": "string"
						},
						{
							"internalType": "uint256",
							"name": "timestamp",
							"type": "uint256"
						},
						{
							"internalType": "uint256",
							"name": "amountViews",
							"type": "uint256"
						}
					],
					"stateMutability": "view",
					"type": "function"
				}
			],
			"devdoc": {
				"custom:dev-run-script": "./scripts/deploy_basic_twitter_with_ethers.ts",
				"details": "A simple smart contract that basic twitter",
				"kind": "dev",
				"methods": {},
				"title": "BasicTwiiter",
				"version": 1
			},
			"evm": {
				"assembly": "    /* \"contracts/BasicTwitter.sol\":212:2949  contract BasicTwitter {... */\n  mstore(0x40, 0x80)\n    /* \"contracts/BasicTwitter.sol\":422:424  10 */\n  0x0a\n    /* \"contracts/BasicTwitter.sol\":389:424  uint16 public MIN_TWEET_LENGTH = 10 */\n  0x00\n  dup1\n  0x0100\n  exp\n  dup2\n  sload\n  dup2\n  0xffff\n  mul\n  not\n  and\n  swap1\n  dup4\n  0xffff\n  and\n  mul\n  or\n  swap1\n  sstore\n  pop\n    /* \"contracts/BasicTwitter.sol\":463:466  256 */\n  0x0100\n    /* \"contracts/BasicTwitter.sol\":430:466  uint16 public MAX_TWEET_LENGTH = 256 */\n  0x00\n  exp(0x0100, 0x02)\n  dup2\n  sload\n  dup2\n  0xffff\n  mul\n  not\n  and\n  swap1\n  dup4\n  0xffff\n  and\n  mul\n  or\n  swap1\n  sstore\n  pop\n    /* \"contracts/BasicTwitter.sol\":546:595  constructor() {... */\n  callvalue\n  dup1\n  iszero\n  tag_1\n  jumpi\n  0x00\n  dup1\n  revert\ntag_1:\n  pop\n    /* \"contracts/BasicTwitter.sol\":578:588  msg.sender */\n  caller\n    /* \"contracts/BasicTwitter.sol\":570:575  owner */\n  0x00\n  0x04\n    /* \"contracts/BasicTwitter.sol\":570:588  owner = msg.sender */\n  0x0100\n  exp\n  dup2\n  sload\n  dup2\n  0xffffffffffffffffffffffffffffffffffffffff\n  mul\n  not\n  and\n  swap1\n  dup4\n  0xffffffffffffffffffffffffffffffffffffffff\n  and\n  mul\n  or\n  swap1\n  sstore\n  pop\n    /* \"contracts/BasicTwitter.sol\":212:2949  contract BasicTwitter {... */\n  dataSize(sub_0)\n  dup1\n  dataOffset(sub_0)\n  0x00\n  codecopy\n  0x00\n  return\nstop\n\nsub_0: assembly {\n        /* \"contracts/BasicTwitter.sol\":212:2949  contract BasicTwitter {... */\n      mstore(0x40, 0x80)\n      callvalue\n      dup1\n      iszero\n      tag_1\n      jumpi\n      0x00\n      dup1\n      revert\n    tag_1:\n      pop\n      jumpi(tag_2, lt(calldatasize, 0x04))\n      shr(0xe0, calldataload(0x00))\n      dup1\n      0x6eb10797\n      gt\n      tag_13\n      jumpi\n      dup1\n      0x6eb10797\n      eq\n      tag_8\n      jumpi\n      dup1\n      0x7c9cd2bc\n      eq\n      tag_9\n      jumpi\n      dup1\n      0x8da5cb5b\n      eq\n      tag_10\n      jumpi\n      dup1\n      0xaefedbc2\n      eq\n      tag_11\n      jumpi\n      dup1\n      0xfbc6fcc1\n      eq\n      tag_12\n      jumpi\n      jump(tag_2)\n    tag_13:\n      dup1\n      0x05a1b4a9\n      eq\n      tag_3\n      jumpi\n      dup1\n      0x07cd5a62\n      eq\n      tag_4\n      jumpi\n      dup1\n      0x112f54e3\n      eq\n      tag_5\n      jumpi\n      dup1\n      0x4545c7be\n      eq\n      tag_6\n      jumpi\n      dup1\n      0x472a9844\n      eq\n      tag_7\n      jumpi\n    tag_2:\n      0x00\n      dup1\n      revert\n        /* \"contracts/BasicTwitter.sol\":498:539  mapping(address => Tweet[]) public tweets */\n    tag_3:\n      tag_14\n      0x04\n      dup1\n      calldatasize\n      sub\n      dup2\n      add\n      swap1\n      tag_15\n      swap2\n      swap1\n      tag_16\n      jump\t// in\n    tag_15:\n      tag_17\n      jump\t// in\n    tag_14:\n      mload(0x40)\n      tag_18\n      swap6\n      swap5\n      swap4\n      swap3\n      swap2\n      swap1\n      tag_19\n      jump\t// in\n    tag_18:\n      mload(0x40)\n      dup1\n      swap2\n      sub\n      swap1\n      return\n        /* \"contracts/BasicTwitter.sol\":1896:2057  function getTweetsByAddress(address _ownerAddress)... */\n    tag_4:\n      tag_20\n      0x04\n      dup1\n      calldatasize\n      sub\n      dup2\n      add\n      swap1\n      tag_21\n      swap2\n      swap1\n      tag_22\n      jump\t// in\n    tag_21:\n      tag_23\n      jump\t// in\n    tag_20:\n      mload(0x40)\n      tag_24\n      swap2\n      swap1\n      tag_25\n      jump\t// in\n    tag_24:\n      mload(0x40)\n      dup1\n      swap2\n      sub\n      swap1\n      return\n        /* \"contracts/BasicTwitter.sol\":1347:1688  function getTweet(address _owner, uint256 _index)... */\n    tag_5:\n      tag_26\n      0x04\n      dup1\n      calldatasize\n      sub\n      dup2\n      add\n      swap1\n      tag_27\n      swap2\n      swap1\n      tag_16\n      jump\t// in\n    tag_27:\n      tag_28\n      jump\t// in\n    tag_26:\n      mload(0x40)\n      tag_29\n      swap2\n      swap1\n      tag_30\n      jump\t// in\n    tag_29:\n      mload(0x40)\n      dup1\n      swap2\n      sub\n      swap1\n      return\n        /* \"contracts/BasicTwitter.sol\":1694:1890  function changeMaxTweetLenth(uint16 newMaxLength)... */\n    tag_6:\n      tag_31\n      0x04\n      dup1\n      calldatasize\n      sub\n      dup2\n      add\n      swap1\n      tag_32\n      swap2\n      swap1\n      tag_33\n      jump\t// in\n    tag_32:\n      tag_34\n      jump\t// in\n    tag_31:\n      stop\n        /* \"contracts/BasicTwitter.sol\":389:424  uint16 public MIN_TWEET_LENGTH = 10 */\n    tag_7:\n      tag_35\n      tag_36\n      jump\t// in\n    tag_35:\n      mload(0x40)\n      tag_37\n      swap2\n      swap1\n      tag_38\n      jump\t// in\n    tag_37:\n      mload(0x40)\n      dup1\n      swap2\n      sub\n      swap1\n      return\n        /* \"contracts/BasicTwitter.sol\":430:466  uint16 public MAX_TWEET_LENGTH = 256 */\n    tag_8:\n      tag_39\n      tag_40\n      jump\t// in\n    tag_39:\n      mload(0x40)\n      tag_41\n      swap2\n      swap1\n      tag_38\n      jump\t// in\n    tag_41:\n      mload(0x40)\n      dup1\n      swap2\n      sub\n      swap1\n      return\n        /* \"contracts/BasicTwitter.sol\":2309:2947  function createTweet(string memory _tweet) external {... */\n    tag_9:\n      tag_42\n      0x04\n      dup1\n      calldatasize\n      sub\n      dup2\n      add\n      swap1\n      tag_43\n      swap2\n      swap1\n      tag_44\n      jump\t// in\n    tag_43:\n      tag_45\n      jump\t// in\n    tag_42:\n      stop\n        /* \"contracts/BasicTwitter.sol\":472:492  address public owner */\n    tag_10:\n      tag_46\n      tag_47\n      jump\t// in\n    tag_46:\n      mload(0x40)\n      tag_48\n      swap2\n      swap1\n      tag_49\n      jump\t// in\n    tag_48:\n      mload(0x40)\n      dup1\n      swap2\n      sub\n      swap1\n      return\n        /* \"contracts/BasicTwitter.sol\":2063:2179  function getMyTweets() external view returns (Tweet[] memory) {... */\n    tag_11:\n      tag_50\n      tag_51\n      jump\t// in\n    tag_50:\n      mload(0x40)\n      tag_52\n      swap2\n      swap1\n      tag_25\n      jump\t// in\n    tag_52:\n      mload(0x40)\n      dup1\n      swap2\n      sub\n      swap1\n      return\n        /* \"contracts/BasicTwitter.sol\":2185:2303  function getMyTweet(uint256 index) external returns (Tweet memory) {... */\n    tag_12:\n      tag_53\n      0x04\n      dup1\n      calldatasize\n      sub\n      dup2\n      add\n      swap1\n      tag_54\n      swap2\n      swap1\n      tag_55\n      jump\t// in\n    tag_54:\n      tag_56\n      jump\t// in\n    tag_53:\n      mload(0x40)\n      tag_57\n      swap2\n      swap1\n      tag_30\n      jump\t// in\n    tag_57:\n      mload(0x40)\n      dup1\n      swap2\n      sub\n      swap1\n      return\n        /* \"contracts/BasicTwitter.sol\":498:539  mapping(address => Tweet[]) public tweets */\n    tag_17:\n      mstore(0x20, 0x01)\n      dup2\n      0x00\n      mstore\n      keccak256(0x00, 0x40)\n      dup2\n      dup2\n      sload\n      dup2\n      lt\n      tag_58\n      jumpi\n      0x00\n      dup1\n      revert\n    tag_58:\n      swap1\n      0x00\n      mstore\n      keccak256(0x00, 0x20)\n      swap1\n      0x05\n      mul\n      add\n      0x00\n      swap2\n      pop\n      swap2\n      pop\n      pop\n      dup1\n      0x00\n      add\n      sload\n      swap1\n      dup1\n      0x01\n      add\n      0x00\n      swap1\n      sload\n      swap1\n      0x0100\n      exp\n      swap1\n      div\n      0xffffffffffffffffffffffffffffffffffffffff\n      and\n      swap1\n      dup1\n      0x02\n      add\n      dup1\n      sload\n      tag_60\n      swap1\n      tag_61\n      jump\t// in\n    tag_60:\n      dup1\n      0x1f\n      add\n      0x20\n      dup1\n      swap2\n      div\n      mul\n      0x20\n      add\n      mload(0x40)\n      swap1\n      dup2\n      add\n      0x40\n      mstore\n      dup1\n      swap3\n      swap2\n      swap1\n      dup2\n      dup2\n      mstore\n      0x20\n      add\n      dup3\n      dup1\n      sload\n      tag_62\n      swap1\n      tag_61\n      jump\t// in\n    tag_62:\n      dup1\n      iszero\n      tag_63\n      jumpi\n      dup1\n      0x1f\n      lt\n      tag_64\n      jumpi\n      0x0100\n      dup1\n      dup4\n      sload\n      div\n      mul\n      dup4\n      mstore\n      swap2\n      0x20\n      add\n      swap2\n      jump(tag_63)\n    tag_64:\n      dup3\n      add\n      swap2\n      swap1\n      0x00\n      mstore\n      keccak256(0x00, 0x20)\n      swap1\n    tag_65:\n      dup2\n      sload\n      dup2\n      mstore\n      swap1\n      0x01\n      add\n      swap1\n      0x20\n      add\n      dup1\n      dup4\n      gt\n      tag_65\n      jumpi\n      dup3\n      swap1\n      sub\n      0x1f\n      and\n      dup3\n      add\n      swap2\n    tag_63:\n      pop\n      pop\n      pop\n      pop\n      pop\n      swap1\n      dup1\n      0x03\n      add\n      sload\n      swap1\n      dup1\n      0x04\n      add\n      sload\n      swap1\n      pop\n      dup6\n      jump\t// out\n        /* \"contracts/BasicTwitter.sol\":1896:2057  function getTweetsByAddress(address _ownerAddress)... */\n    tag_23:\n        /* \"contracts/BasicTwitter.sol\":1992:2006  Tweet[] memory */\n      0x60\n        /* \"contracts/BasicTwitter.sol\":2029:2035  tweets */\n      0x01\n        /* \"contracts/BasicTwitter.sol\":2029:2050  tweets[_ownerAddress] */\n      0x00\n        /* \"contracts/BasicTwitter.sol\":2036:2049  _ownerAddress */\n      dup4\n        /* \"contracts/BasicTwitter.sol\":2029:2050  tweets[_ownerAddress] */\n      0xffffffffffffffffffffffffffffffffffffffff\n      and\n      0xffffffffffffffffffffffffffffffffffffffff\n      and\n      dup2\n      mstore\n      0x20\n      add\n      swap1\n      dup2\n      mstore\n      0x20\n      add\n      0x00\n      keccak256\n        /* \"contracts/BasicTwitter.sol\":2022:2050  return tweets[_ownerAddress] */\n      dup1\n      sload\n      dup1\n      0x20\n      mul\n      0x20\n      add\n      mload(0x40)\n      swap1\n      dup2\n      add\n      0x40\n      mstore\n      dup1\n      swap3\n      swap2\n      swap1\n      dup2\n      dup2\n      mstore\n      0x20\n      add\n      0x00\n      swap1\n    tag_67:\n      dup3\n      dup3\n      lt\n      iszero\n      tag_68\n      jumpi\n      dup4\n      dup3\n      swap1\n      0x00\n      mstore\n      keccak256(0x00, 0x20)\n      swap1\n      0x05\n      mul\n      add\n      mload(0x40)\n      dup1\n      0xa0\n      add\n      0x40\n      mstore\n      swap1\n      dup2\n      0x00\n      dup3\n      add\n      sload\n      dup2\n      mstore\n      0x20\n      add\n      0x01\n      dup3\n      add\n      0x00\n      swap1\n      sload\n      swap1\n      0x0100\n      exp\n      swap1\n      div\n      0xffffffffffffffffffffffffffffffffffffffff\n      and\n      0xffffffffffffffffffffffffffffffffffffffff\n      and\n      0xffffffffffffffffffffffffffffffffffffffff\n      and\n      dup2\n      mstore\n      0x20\n      add\n      0x02\n      dup3\n      add\n      dup1\n      sload\n      tag_70\n      swap1\n      tag_61\n      jump\t// in\n    tag_70:\n      dup1\n      0x1f\n      add\n      0x20\n      dup1\n      swap2\n      div\n      mul\n      0x20\n      add\n      mload(0x40)\n      swap1\n      dup2\n      add\n      0x40\n      mstore\n      dup1\n      swap3\n      swap2\n      swap1\n      dup2\n      dup2\n      mstore\n      0x20\n      add\n      dup3\n      dup1\n      sload\n      tag_71\n      swap1\n      tag_61\n      jump\t// in\n    tag_71:\n      dup1\n      iszero\n      tag_72\n      jumpi\n      dup1\n      0x1f\n      lt\n      tag_73\n      jumpi\n      0x0100\n      dup1\n      dup4\n      sload\n      div\n      mul\n      dup4\n      mstore\n      swap2\n      0x20\n      add\n      swap2\n      jump(tag_72)\n    tag_73:\n      dup3\n      add\n      swap2\n      swap1\n      0x00\n      mstore\n      keccak256(0x00, 0x20)\n      swap1\n    tag_74:\n      dup2\n      sload\n      dup2\n      mstore\n      swap1\n      0x01\n      add\n      swap1\n      0x20\n      add\n      dup1\n      dup4\n      gt\n      tag_74\n      jumpi\n      dup3\n      swap1\n      sub\n      0x1f\n      and\n      dup3\n      add\n      swap2\n    tag_72:\n      pop\n      pop\n      pop\n      pop\n      pop\n      dup2\n      mstore\n      0x20\n      add\n      0x03\n      dup3\n      add\n      sload\n      dup2\n      mstore\n      0x20\n      add\n      0x04\n      dup3\n      add\n      sload\n      dup2\n      mstore\n      pop\n      pop\n      dup2\n      mstore\n      0x20\n      add\n      swap1\n      0x01\n      add\n      swap1\n      jump(tag_67)\n    tag_68:\n      pop\n      pop\n      pop\n      pop\n      swap1\n      pop\n        /* \"contracts/BasicTwitter.sol\":1896:2057  function getTweetsByAddress(address _ownerAddress)... */\n      swap2\n      swap1\n      pop\n      jump\t// out\n        /* \"contracts/BasicTwitter.sol\":1347:1688  function getTweet(address _owner, uint256 _index)... */\n    tag_28:\n        /* \"contracts/BasicTwitter.sol\":1429:1441  Tweet memory */\n      tag_75\n      tag_76\n      jump\t// in\n    tag_75:\n        /* \"contracts/BasicTwitter.sol\":1457:1483  Tweet[] memory ownerTweets */\n      0x00\n        /* \"contracts/BasicTwitter.sol\":1486:1512  getTweetsByAddress(_owner) */\n      tag_78\n        /* \"contracts/BasicTwitter.sol\":1505:1511  _owner */\n      dup5\n        /* \"contracts/BasicTwitter.sol\":1486:1504  getTweetsByAddress */\n      tag_23\n        /* \"contracts/BasicTwitter.sol\":1486:1512  getTweetsByAddress(_owner) */\n      jump\t// in\n    tag_78:\n        /* \"contracts/BasicTwitter.sol\":1457:1512  Tweet[] memory ownerTweets = getTweetsByAddress(_owner) */\n      swap1\n      pop\n        /* \"contracts/BasicTwitter.sol\":1522:1540  Tweet memory tweet */\n      0x00\n        /* \"contracts/BasicTwitter.sol\":1543:1554  ownerTweets */\n      dup2\n        /* \"contracts/BasicTwitter.sol\":1555:1561  _index */\n      dup5\n        /* \"contracts/BasicTwitter.sol\":1543:1562  ownerTweets[_index] */\n      dup2\n      mload\n      dup2\n      lt\n      tag_79\n      jumpi\n      tag_80\n      tag_81\n      jump\t// in\n    tag_80:\n    tag_79:\n      0x20\n      mul\n      0x20\n      add\n      add\n      mload\n        /* \"contracts/BasicTwitter.sol\":1522:1562  Tweet memory tweet = ownerTweets[_index] */\n      swap1\n      pop\n        /* \"contracts/BasicTwitter.sol\":1590:1595  tweet */\n      dup1\n        /* \"contracts/BasicTwitter.sol\":1590:1602  tweet.author */\n      0x20\n      add\n      mload\n        /* \"contracts/BasicTwitter.sol\":1576:1602  msg.sender != tweet.author */\n      0xffffffffffffffffffffffffffffffffffffffff\n      and\n        /* \"contracts/BasicTwitter.sol\":1576:1586  msg.sender */\n      caller\n        /* \"contracts/BasicTwitter.sol\":1576:1602  msg.sender != tweet.author */\n      0xffffffffffffffffffffffffffffffffffffffff\n      and\n      eq\n        /* \"contracts/BasicTwitter.sol\":1572:1659  if (msg.sender != tweet.author)... */\n      tag_82\n      jumpi\n        /* \"contracts/BasicTwitter.sol\":1623:1659  incrementAmountViews(_owner, _index) */\n      tag_83\n        /* \"contracts/BasicTwitter.sol\":1644:1650  _owner */\n      dup6\n        /* \"contracts/BasicTwitter.sol\":1652:1658  _index */\n      dup6\n        /* \"contracts/BasicTwitter.sol\":1623:1643  incrementAmountViews */\n      tag_84\n        /* \"contracts/BasicTwitter.sol\":1623:1659  incrementAmountViews(_owner, _index) */\n      jump\t// in\n    tag_83:\n        /* \"contracts/BasicTwitter.sol\":1616:1659  return incrementAmountViews(_owner, _index) */\n      swap3\n      pop\n      pop\n      pop\n      jump(tag_77)\n        /* \"contracts/BasicTwitter.sol\":1572:1659  if (msg.sender != tweet.author)... */\n    tag_82:\n        /* \"contracts/BasicTwitter.sol\":1676:1681  tweet */\n      dup1\n        /* \"contracts/BasicTwitter.sol\":1669:1681  return tweet */\n      swap3\n      pop\n      pop\n      pop\n        /* \"contracts/BasicTwitter.sol\":1347:1688  function getTweet(address _owner, uint256 _index)... */\n    tag_77:\n      swap3\n      swap2\n      pop\n      pop\n      jump\t// out\n        /* \"contracts/BasicTwitter.sol\":1694:1890  function changeMaxTweetLenth(uint16 newMaxLength)... */\n    tag_34:\n        /* \"contracts/BasicTwitter.sol\":1788:1793  owner */\n      0x00\n      0x04\n      swap1\n      sload\n      swap1\n      0x0100\n      exp\n      swap1\n      div\n      0xffffffffffffffffffffffffffffffffffffffff\n      and\n        /* \"contracts/BasicTwitter.sol\":825:840  _allowedAddress */\n      dup1\n        /* \"contracts/BasicTwitter.sol\":811:840  msg.sender == _allowedAddress */\n      0xffffffffffffffffffffffffffffffffffffffff\n      and\n        /* \"contracts/BasicTwitter.sol\":811:821  msg.sender */\n      caller\n        /* \"contracts/BasicTwitter.sol\":811:840  msg.sender == _allowedAddress */\n      0xffffffffffffffffffffffffffffffffffffffff\n      and\n      eq\n        /* \"contracts/BasicTwitter.sol\":790:902  require(... */\n      tag_86\n      jumpi\n      mload(0x40)\n      0x08c379a000000000000000000000000000000000000000000000000000000000\n      dup2\n      mstore\n      0x04\n      add\n      tag_87\n      swap1\n      tag_88\n      jump\t// in\n    tag_87:\n      mload(0x40)\n      dup1\n      swap2\n      sub\n      swap1\n      revert\n    tag_86:\n        /* \"contracts/BasicTwitter.sol\":1824:1836  newMaxLength */\n      dup2\n        /* \"contracts/BasicTwitter.sol\":1022:1038  MIN_TWEET_LENGTH */\n      0x00\n      dup1\n      sload\n      swap1\n      0x0100\n      exp\n      swap1\n      div\n      0xffff\n      and\n        /* \"contracts/BasicTwitter.sol\":1007:1038  newMaxLength > MIN_TWEET_LENGTH */\n      0xffff\n      and\n        /* \"contracts/BasicTwitter.sol\":1007:1019  newMaxLength */\n      dup2\n        /* \"contracts/BasicTwitter.sol\":1007:1038  newMaxLength > MIN_TWEET_LENGTH */\n      0xffff\n      and\n      gt\n        /* \"contracts/BasicTwitter.sol\":986:1111  require(... */\n      tag_90\n      jumpi\n      mload(0x40)\n      0x08c379a000000000000000000000000000000000000000000000000000000000\n      dup2\n      mstore\n      0x04\n      add\n      tag_91\n      swap1\n      tag_92\n      jump\t// in\n    tag_91:\n      mload(0x40)\n      dup1\n      swap2\n      sub\n      swap1\n      revert\n    tag_90:\n        /* \"contracts/BasicTwitter.sol\":1871:1883  newMaxLength */\n      dup3\n        /* \"contracts/BasicTwitter.sol\":1852:1868  MAX_TWEET_LENGTH */\n      0x00\n      0x02\n        /* \"contracts/BasicTwitter.sol\":1852:1883  MAX_TWEET_LENGTH = newMaxLength */\n      0x0100\n      exp\n      dup2\n      sload\n      dup2\n      0xffff\n      mul\n      not\n      and\n      swap1\n      dup4\n      0xffff\n      and\n      mul\n      or\n      swap1\n      sstore\n      pop\n        /* \"contracts/BasicTwitter.sol\":912:913  _ */\n      pop\n        /* \"contracts/BasicTwitter.sol\":1694:1890  function changeMaxTweetLenth(uint16 newMaxLength)... */\n      pop\n      pop\n      jump\t// out\n        /* \"contracts/BasicTwitter.sol\":389:424  uint16 public MIN_TWEET_LENGTH = 10 */\n    tag_36:\n      0x00\n      dup1\n      sload\n      swap1\n      0x0100\n      exp\n      swap1\n      div\n      0xffff\n      and\n      dup2\n      jump\t// out\n        /* \"contracts/BasicTwitter.sol\":430:466  uint16 public MAX_TWEET_LENGTH = 256 */\n    tag_40:\n      0x00\n      0x02\n      swap1\n      sload\n      swap1\n      0x0100\n      exp\n      swap1\n      div\n      0xffff\n      and\n      dup2\n      jump\t// out\n        /* \"contracts/BasicTwitter.sol\":2309:2947  function createTweet(string memory _tweet) external {... */\n    tag_45:\n        /* \"contracts/BasicTwitter.sol\":2403:2419  MIN_TWEET_LENGTH */\n      0x00\n      dup1\n      sload\n      swap1\n      0x0100\n      exp\n      swap1\n      div\n      0xffff\n      and\n        /* \"contracts/BasicTwitter.sol\":2379:2419  bytes(_tweet).length >= MIN_TWEET_LENGTH */\n      0xffff\n      and\n        /* \"contracts/BasicTwitter.sol\":2385:2391  _tweet */\n      dup2\n        /* \"contracts/BasicTwitter.sol\":2379:2399  bytes(_tweet).length */\n      mload\n        /* \"contracts/BasicTwitter.sol\":2379:2419  bytes(_tweet).length >= MIN_TWEET_LENGTH */\n      lt\n      iszero\n        /* \"contracts/BasicTwitter.sol\":2371:2441  require(bytes(_tweet).length >= MIN_TWEET_LENGTH, \"Tweet is to short\") */\n      tag_95\n      jumpi\n      mload(0x40)\n      0x08c379a000000000000000000000000000000000000000000000000000000000\n      dup2\n      mstore\n      0x04\n      add\n      tag_96\n      swap1\n      tag_97\n      jump\t// in\n    tag_96:\n      mload(0x40)\n      dup1\n      swap2\n      sub\n      swap1\n      revert\n    tag_95:\n        /* \"contracts/BasicTwitter.sol\":2483:2499  MAX_TWEET_LENGTH */\n      0x00\n      0x02\n      swap1\n      sload\n      swap1\n      0x0100\n      exp\n      swap1\n      div\n      0xffff\n      and\n        /* \"contracts/BasicTwitter.sol\":2459:2499  bytes(_tweet).length <= MAX_TWEET_LENGTH */\n      0xffff\n      and\n        /* \"contracts/BasicTwitter.sol\":2465:2471  _tweet */\n      dup2\n        /* \"contracts/BasicTwitter.sol\":2459:2479  bytes(_tweet).length */\n      mload\n        /* \"contracts/BasicTwitter.sol\":2459:2499  bytes(_tweet).length <= MAX_TWEET_LENGTH */\n      gt\n      iszero\n        /* \"contracts/BasicTwitter.sol\":2451:2520  require(bytes(_tweet).length <= MAX_TWEET_LENGTH, \"Tweet is to long\") */\n      tag_98\n      jumpi\n      mload(0x40)\n      0x08c379a000000000000000000000000000000000000000000000000000000000\n      dup2\n      mstore\n      0x04\n      add\n      tag_99\n      swap1\n      tag_100\n      jump\t// in\n    tag_99:\n      mload(0x40)\n      dup1\n      swap2\n      sub\n      swap1\n      revert\n    tag_98:\n        /* \"contracts/BasicTwitter.sol\":2530:2551  Tweet memory newTweet */\n      0x00\n        /* \"contracts/BasicTwitter.sol\":2554:2743  Tweet({... */\n      mload(0x40)\n      dup1\n      0xa0\n      add\n      0x40\n      mstore\n      dup1\n        /* \"contracts/BasicTwitter.sol\":2578:2584  tweets */\n      0x01\n        /* \"contracts/BasicTwitter.sol\":2578:2596  tweets[msg.sender] */\n      0x00\n        /* \"contracts/BasicTwitter.sol\":2585:2595  msg.sender */\n      caller\n        /* \"contracts/BasicTwitter.sol\":2578:2596  tweets[msg.sender] */\n      0xffffffffffffffffffffffffffffffffffffffff\n      and\n      0xffffffffffffffffffffffffffffffffffffffff\n      and\n      dup2\n      mstore\n      0x20\n      add\n      swap1\n      dup2\n      mstore\n      0x20\n      add\n      0x00\n      keccak256\n        /* \"contracts/BasicTwitter.sol\":2578:2603  tweets[msg.sender].length */\n      dup1\n      sload\n      swap1\n      pop\n        /* \"contracts/BasicTwitter.sol\":2554:2743  Tweet({... */\n      dup2\n      mstore\n      0x20\n      add\n        /* \"contracts/BasicTwitter.sol\":2625:2635  msg.sender */\n      caller\n        /* \"contracts/BasicTwitter.sol\":2554:2743  Tweet({... */\n      0xffffffffffffffffffffffffffffffffffffffff\n      and\n      dup2\n      mstore\n      0x20\n      add\n        /* \"contracts/BasicTwitter.sol\":2658:2664  _tweet */\n      dup4\n        /* \"contracts/BasicTwitter.sol\":2554:2743  Tweet({... */\n      dup2\n      mstore\n      0x20\n      add\n        /* \"contracts/BasicTwitter.sol\":2689:2704  block.timestamp */\n      timestamp\n        /* \"contracts/BasicTwitter.sol\":2554:2743  Tweet({... */\n      dup2\n      mstore\n      0x20\n      add\n        /* \"contracts/BasicTwitter.sol\":2731:2732  0 */\n      0x00\n        /* \"contracts/BasicTwitter.sol\":2554:2743  Tweet({... */\n      dup2\n      mstore\n      pop\n        /* \"contracts/BasicTwitter.sol\":2530:2743  Tweet memory newTweet = Tweet({... */\n      swap1\n      pop\n        /* \"contracts/BasicTwitter.sol\":2754:2760  tweets */\n      0x01\n        /* \"contracts/BasicTwitter.sol\":2754:2772  tweets[msg.sender] */\n      0x00\n        /* \"contracts/BasicTwitter.sol\":2761:2771  msg.sender */\n      caller\n        /* \"contracts/BasicTwitter.sol\":2754:2772  tweets[msg.sender] */\n      0xffffffffffffffffffffffffffffffffffffffff\n      and\n      0xffffffffffffffffffffffffffffffffffffffff\n      and\n      dup2\n      mstore\n      0x20\n      add\n      swap1\n      dup2\n      mstore\n      0x20\n      add\n      0x00\n      keccak256\n        /* \"contracts/BasicTwitter.sol\":2778:2786  newTweet */\n      dup2\n        /* \"contracts/BasicTwitter.sol\":2754:2787  tweets[msg.sender].push(newTweet) */\n      swap1\n      dup1\n      0x01\n      dup2\n      sload\n      add\n      dup1\n      dup3\n      sstore\n      dup1\n      swap2\n      pop\n      pop\n      0x01\n      swap1\n      sub\n      swap1\n      0x00\n      mstore\n      keccak256(0x00, 0x20)\n      swap1\n      0x05\n      mul\n      add\n      0x00\n      swap1\n      swap2\n      swap1\n      swap2\n      swap1\n      swap2\n      pop\n      0x00\n      dup3\n      add\n      mload\n      dup2\n      0x00\n      add\n      sstore\n      0x20\n      dup3\n      add\n      mload\n      dup2\n      0x01\n      add\n      exp(0x0100, 0x00)\n      dup2\n      sload\n      dup2\n      0xffffffffffffffffffffffffffffffffffffffff\n      mul\n      not\n      and\n      swap1\n      dup4\n      0xffffffffffffffffffffffffffffffffffffffff\n      and\n      mul\n      or\n      swap1\n      sstore\n      pop\n      0x40\n      dup3\n      add\n      mload\n      dup2\n      0x02\n      add\n      swap1\n      dup2\n      tag_102\n      swap2\n      swap1\n      tag_103\n      jump\t// in\n    tag_102:\n      pop\n      0x60\n      dup3\n      add\n      mload\n      dup2\n      0x03\n      add\n      sstore\n      0x80\n      dup3\n      add\n      mload\n      dup2\n      0x04\n      add\n      sstore\n      pop\n      pop\n        /* \"contracts/BasicTwitter.sol\":2802:2940  TweetCreated(... */\n      0x16fd3c13e9d46923e0a8bce11c7b473ec508a72e6c96cd2404b29ce972afc29e\n        /* \"contracts/BasicTwitter.sol\":2828:2836  newTweet */\n      dup2\n        /* \"contracts/BasicTwitter.sol\":2828:2839  newTweet.id */\n      0x00\n      add\n      mload\n        /* \"contracts/BasicTwitter.sol\":2853:2861  newTweet */\n      dup3\n        /* \"contracts/BasicTwitter.sol\":2853:2868  newTweet.author */\n      0x20\n      add\n      mload\n        /* \"contracts/BasicTwitter.sol\":2882:2890  newTweet */\n      dup4\n        /* \"contracts/BasicTwitter.sol\":2882:2898  newTweet.content */\n      0x40\n      add\n      mload\n        /* \"contracts/BasicTwitter.sol\":2912:2920  newTweet */\n      dup5\n        /* \"contracts/BasicTwitter.sol\":2912:2930  newTweet.timestamp */\n      0x60\n      add\n      mload\n        /* \"contracts/BasicTwitter.sol\":2802:2940  TweetCreated(... */\n      mload(0x40)\n      tag_104\n      swap5\n      swap4\n      swap3\n      swap2\n      swap1\n      tag_105\n      jump\t// in\n    tag_104:\n      mload(0x40)\n      dup1\n      swap2\n      sub\n      swap1\n      log1\n        /* \"contracts/BasicTwitter.sol\":2361:2947  {... */\n      pop\n        /* \"contracts/BasicTwitter.sol\":2309:2947  function createTweet(string memory _tweet) external {... */\n      pop\n      jump\t// out\n        /* \"contracts/BasicTwitter.sol\":472:492  address public owner */\n    tag_47:\n      0x00\n      0x04\n      swap1\n      sload\n      swap1\n      0x0100\n      exp\n      swap1\n      div\n      0xffffffffffffffffffffffffffffffffffffffff\n      and\n      dup2\n      jump\t// out\n        /* \"contracts/BasicTwitter.sol\":2063:2179  function getMyTweets() external view returns (Tweet[] memory) {... */\n    tag_51:\n        /* \"contracts/BasicTwitter.sol\":2109:2123  Tweet[] memory */\n      0x60\n        /* \"contracts/BasicTwitter.sol\":2142:2172  getTweetsByAddress(msg.sender) */\n      tag_107\n        /* \"contracts/BasicTwitter.sol\":2161:2171  msg.sender */\n      caller\n        /* \"contracts/BasicTwitter.sol\":2142:2160  getTweetsByAddress */\n      tag_23\n        /* \"contracts/BasicTwitter.sol\":2142:2172  getTweetsByAddress(msg.sender) */\n      jump\t// in\n    tag_107:\n        /* \"contracts/BasicTwitter.sol\":2135:2172  return getTweetsByAddress(msg.sender) */\n      swap1\n      pop\n        /* \"contracts/BasicTwitter.sol\":2063:2179  function getMyTweets() external view returns (Tweet[] memory) {... */\n      swap1\n      jump\t// out\n        /* \"contracts/BasicTwitter.sol\":2185:2303  function getMyTweet(uint256 index) external returns (Tweet memory) {... */\n    tag_56:\n        /* \"contracts/BasicTwitter.sol\":2238:2250  Tweet memory */\n      tag_108\n      tag_76\n      jump\t// in\n    tag_108:\n        /* \"contracts/BasicTwitter.sol\":2269:2296  getTweet(msg.sender, index) */\n      tag_110\n        /* \"contracts/BasicTwitter.sol\":2278:2288  msg.sender */\n      caller\n        /* \"contracts/BasicTwitter.sol\":2290:2295  index */\n      dup4\n        /* \"contracts/BasicTwitter.sol\":2269:2277  getTweet */\n      tag_28\n        /* \"contracts/BasicTwitter.sol\":2269:2296  getTweet(msg.sender, index) */\n      jump\t// in\n    tag_110:\n        /* \"contracts/BasicTwitter.sol\":2262:2296  return getTweet(msg.sender, index) */\n      swap1\n      pop\n        /* \"contracts/BasicTwitter.sol\":2185:2303  function getMyTweet(uint256 index) external returns (Tweet memory) {... */\n      swap2\n      swap1\n      pop\n      jump\t// out\n        /* \"contracts/BasicTwitter.sol\":1135:1341  function incrementAmountViews(address _owner, uint256 _index)... */\n    tag_84:\n        /* \"contracts/BasicTwitter.sol\":1231:1243  Tweet memory */\n      tag_111\n      tag_76\n      jump\t// in\n    tag_111:\n        /* \"contracts/BasicTwitter.sol\":1259:1265  tweets */\n      0x01\n        /* \"contracts/BasicTwitter.sol\":1259:1273  tweets[_owner] */\n      0x00\n        /* \"contracts/BasicTwitter.sol\":1266:1272  _owner */\n      dup5\n        /* \"contracts/BasicTwitter.sol\":1259:1273  tweets[_owner] */\n      0xffffffffffffffffffffffffffffffffffffffff\n      and\n      0xffffffffffffffffffffffffffffffffffffffff\n      and\n      dup2\n      mstore\n      0x20\n      add\n      swap1\n      dup2\n      mstore\n      0x20\n      add\n      0x00\n      keccak256\n        /* \"contracts/BasicTwitter.sol\":1274:1280  _index */\n      dup3\n        /* \"contracts/BasicTwitter.sol\":1259:1281  tweets[_owner][_index] */\n      dup2\n      sload\n      dup2\n      lt\n      tag_113\n      jumpi\n      tag_114\n      tag_81\n      jump\t// in\n    tag_114:\n    tag_113:\n      swap1\n      0x00\n      mstore\n      keccak256(0x00, 0x20)\n      swap1\n      0x05\n      mul\n      add\n        /* \"contracts/BasicTwitter.sol\":1259:1293  tweets[_owner][_index].amountViews */\n      0x04\n      add\n      0x00\n        /* \"contracts/BasicTwitter.sol\":1259:1295  tweets[_owner][_index].amountViews++ */\n      dup2\n      sload\n      dup1\n      swap3\n      swap2\n      swap1\n      tag_116\n      swap1\n      tag_117\n      jump\t// in\n    tag_116:\n      swap2\n      swap1\n      pop\n      sstore\n      pop\n        /* \"contracts/BasicTwitter.sol\":1312:1318  tweets */\n      0x01\n        /* \"contracts/BasicTwitter.sol\":1312:1326  tweets[_owner] */\n      0x00\n        /* \"contracts/BasicTwitter.sol\":1319:1325  _owner */\n      dup5\n        /* \"contracts/BasicTwitter.sol\":1312:1326  tweets[_owner] */\n      0xffffffffffffffffffffffffffffffffffffffff\n      and\n      0xffffffffffffffffffffffffffffffffffffffff\n      and\n      dup2\n      mstore\n      0x20\n      add\n      swap1\n      dup2\n      mstore\n      0x20\n      add\n      0x00\n      keccak256\n        /* \"contracts/BasicTwitter.sol\":1327:1333  _index */\n      dup3\n        /* \"contracts/BasicTwitter.sol\":1312:1334  tweets[_owner][_index] */\n      dup2\n      sload\n      dup2\n      lt\n      tag_118\n      jumpi\n      tag_119\n      tag_81\n      jump\t// in\n    tag_119:\n    tag_118:\n      swap1\n      0x00\n      mstore\n      keccak256(0x00, 0x20)\n      swap1\n      0x05\n      mul\n      add\n        /* \"contracts/BasicTwitter.sol\":1305:1334  return tweets[_owner][_index] */\n      mload(0x40)\n      dup1\n      0xa0\n      add\n      0x40\n      mstore\n      swap1\n      dup2\n      0x00\n      dup3\n      add\n      sload\n      dup2\n      mstore\n      0x20\n      add\n      0x01\n      dup3\n      add\n      0x00\n      swap1\n      sload\n      swap1\n      0x0100\n      exp\n      swap1\n      div\n      0xffffffffffffffffffffffffffffffffffffffff\n      and\n      0xffffffffffffffffffffffffffffffffffffffff\n      and\n      0xffffffffffffffffffffffffffffffffffffffff\n      and\n      dup2\n      mstore\n      0x20\n      add\n      0x02\n      dup3\n      add\n      dup1\n      sload\n      tag_121\n      swap1\n      tag_61\n      jump\t// in\n    tag_121:\n      dup1\n      0x1f\n      add\n      0x20\n      dup1\n      swap2\n      div\n      mul\n      0x20\n      add\n      mload(0x40)\n      swap1\n      dup2\n      add\n      0x40\n      mstore\n      dup1\n      swap3\n      swap2\n      swap1\n      dup2\n      dup2\n      mstore\n      0x20\n      add\n      dup3\n      dup1\n      sload\n      tag_122\n      swap1\n      tag_61\n      jump\t// in\n    tag_122:\n      dup1\n      iszero\n      tag_123\n      jumpi\n      dup1\n      0x1f\n      lt\n      tag_124\n      jumpi\n      0x0100\n      dup1\n      dup4\n      sload\n      div\n      mul\n      dup4\n      mstore\n      swap2\n      0x20\n      add\n      swap2\n      jump(tag_123)\n    tag_124:\n      dup3\n      add\n      swap2\n      swap1\n      0x00\n      mstore\n      keccak256(0x00, 0x20)\n      swap1\n    tag_125:\n      dup2\n      sload\n      dup2\n      mstore\n      swap1\n      0x01\n      add\n      swap1\n      0x20\n      add\n      dup1\n      dup4\n      gt\n      tag_125\n      jumpi\n      dup3\n      swap1\n      sub\n      0x1f\n      and\n      dup3\n      add\n      swap2\n    tag_123:\n      pop\n      pop\n      pop\n      pop\n      pop\n      dup2\n      mstore\n      0x20\n      add\n      0x03\n      dup3\n      add\n      sload\n      dup2\n      mstore\n      0x20\n      add\n      0x04\n      dup3\n      add\n      sload\n      dup2\n      mstore\n      pop\n      pop\n      swap1\n      pop\n        /* \"contracts/BasicTwitter.sol\":1135:1341  function incrementAmountViews(address _owner, uint256 _index)... */\n      swap3\n      swap2\n      pop\n      pop\n      jump\t// out\n    tag_76:\n      mload(0x40)\n      dup1\n      0xa0\n      add\n      0x40\n      mstore\n      dup1\n      0x00\n      dup2\n      mstore\n      0x20\n      add\n      and(0xffffffffffffffffffffffffffffffffffffffff, 0x00)\n      dup2\n      mstore\n      0x20\n      add\n      0x60\n      dup2\n      mstore\n      0x20\n      add\n      0x00\n      dup2\n      mstore\n      0x20\n      add\n      0x00\n      dup2\n      mstore\n      pop\n      swap1\n      jump\t// out\n        /* \"#utility.yul\":7:82   */\n    tag_126:\n        /* \"#utility.yul\":40:46   */\n      0x00\n        /* \"#utility.yul\":73:75   */\n      0x40\n        /* \"#utility.yul\":67:76   */\n      mload\n        /* \"#utility.yul\":57:76   */\n      swap1\n      pop\n        /* \"#utility.yul\":7:82   */\n      swap1\n      jump\t// out\n        /* \"#utility.yul\":88:205   */\n    tag_127:\n        /* \"#utility.yul\":197:198   */\n      0x00\n        /* \"#utility.yul\":194:195   */\n      dup1\n        /* \"#utility.yul\":187:199   */\n      revert\n        /* \"#utility.yul\":211:328   */\n    tag_128:\n        /* \"#utility.yul\":320:321   */\n      0x00\n        /* \"#utility.yul\":317:318   */\n      dup1\n        /* \"#utility.yul\":310:322   */\n      revert\n        /* \"#utility.yul\":334:460   */\n    tag_129:\n        /* \"#utility.yul\":371:378   */\n      0x00\n        /* \"#utility.yul\":411:453   */\n      0xffffffffffffffffffffffffffffffffffffffff\n        /* \"#utility.yul\":404:409   */\n      dup3\n        /* \"#utility.yul\":400:454   */\n      and\n        /* \"#utility.yul\":389:454   */\n      swap1\n      pop\n        /* \"#utility.yul\":334:460   */\n      swap2\n      swap1\n      pop\n      jump\t// out\n        /* \"#utility.yul\":466:562   */\n    tag_130:\n        /* \"#utility.yul\":503:510   */\n      0x00\n        /* \"#utility.yul\":532:556   */\n      tag_199\n        /* \"#utility.yul\":550:555   */\n      dup3\n        /* \"#utility.yul\":532:556   */\n      tag_129\n      jump\t// in\n    tag_199:\n        /* \"#utility.yul\":521:556   */\n      swap1\n      pop\n        /* \"#utility.yul\":466:562   */\n      swap2\n      swap1\n      pop\n      jump\t// out\n        /* \"#utility.yul\":568:690   */\n    tag_131:\n        /* \"#utility.yul\":641:665   */\n      tag_201\n        /* \"#utility.yul\":659:664   */\n      dup2\n        /* \"#utility.yul\":641:665   */\n      tag_130\n      jump\t// in\n    tag_201:\n        /* \"#utility.yul\":634:639   */\n      dup2\n        /* \"#utility.yul\":631:666   */\n      eq\n        /* \"#utility.yul\":621:684   */\n      tag_202\n      jumpi\n        /* \"#utility.yul\":680:681   */\n      0x00\n        /* \"#utility.yul\":677:678   */\n      dup1\n        /* \"#utility.yul\":670:682   */\n      revert\n        /* \"#utility.yul\":621:684   */\n    tag_202:\n        /* \"#utility.yul\":568:690   */\n      pop\n      jump\t// out\n        /* \"#utility.yul\":696:835   */\n    tag_132:\n        /* \"#utility.yul\":742:747   */\n      0x00\n        /* \"#utility.yul\":780:786   */\n      dup2\n        /* \"#utility.yul\":767:787   */\n      calldataload\n        /* \"#utility.yul\":758:787   */\n      swap1\n      pop\n        /* \"#utility.yul\":796:829   */\n      tag_204\n        /* \"#utility.yul\":823:828   */\n      dup2\n        /* \"#utility.yul\":796:829   */\n      tag_131\n      jump\t// in\n    tag_204:\n        /* \"#utility.yul\":696:835   */\n      swap3\n      swap2\n      pop\n      pop\n      jump\t// out\n        /* \"#utility.yul\":841:918   */\n    tag_133:\n        /* \"#utility.yul\":878:885   */\n      0x00\n        /* \"#utility.yul\":907:912   */\n      dup2\n        /* \"#utility.yul\":896:912   */\n      swap1\n      pop\n        /* \"#utility.yul\":841:918   */\n      swap2\n      swap1\n      pop\n      jump\t// out\n        /* \"#utility.yul\":924:1046   */\n    tag_134:\n        /* \"#utility.yul\":997:1021   */\n      tag_207\n        /* \"#utility.yul\":1015:1020   */\n      dup2\n        /* \"#utility.yul\":997:1021   */\n      tag_133\n      jump\t// in\n    tag_207:\n        /* \"#utility.yul\":990:995   */\n      dup2\n        /* \"#utility.yul\":987:1022   */\n      eq\n        /* \"#utility.yul\":977:1040   */\n      tag_208\n      jumpi\n        /* \"#utility.yul\":1036:1037   */\n      0x00\n        /* \"#utility.yul\":1033:1034   */\n      dup1\n        /* \"#utility.yul\":1026:1038   */\n      revert\n        /* \"#utility.yul\":977:1040   */\n    tag_208:\n        /* \"#utility.yul\":924:1046   */\n      pop\n      jump\t// out\n        /* \"#utility.yul\":1052:1191   */\n    tag_135:\n        /* \"#utility.yul\":1098:1103   */\n      0x00\n        /* \"#utility.yul\":1136:1142   */\n      dup2\n        /* \"#utility.yul\":1123:1143   */\n      calldataload\n        /* \"#utility.yul\":1114:1143   */\n      swap1\n      pop\n        /* \"#utility.yul\":1152:1185   */\n      tag_210\n        /* \"#utility.yul\":1179:1184   */\n      dup2\n        /* \"#utility.yul\":1152:1185   */\n      tag_134\n      jump\t// in\n    tag_210:\n        /* \"#utility.yul\":1052:1191   */\n      swap3\n      swap2\n      pop\n      pop\n      jump\t// out\n        /* \"#utility.yul\":1197:1671   */\n    tag_16:\n        /* \"#utility.yul\":1265:1271   */\n      0x00\n        /* \"#utility.yul\":1273:1279   */\n      dup1\n        /* \"#utility.yul\":1322:1324   */\n      0x40\n        /* \"#utility.yul\":1310:1319   */\n      dup4\n        /* \"#utility.yul\":1301:1308   */\n      dup6\n        /* \"#utility.yul\":1297:1320   */\n      sub\n        /* \"#utility.yul\":1293:1325   */\n      slt\n        /* \"#utility.yul\":1290:1409   */\n      iszero\n      tag_212\n      jumpi\n        /* \"#utility.yul\":1328:1407   */\n      tag_213\n      tag_127\n      jump\t// in\n    tag_213:\n        /* \"#utility.yul\":1290:1409   */\n    tag_212:\n        /* \"#utility.yul\":1448:1449   */\n      0x00\n        /* \"#utility.yul\":1473:1526   */\n      tag_214\n        /* \"#utility.yul\":1518:1525   */\n      dup6\n        /* \"#utility.yul\":1509:1515   */\n      dup3\n        /* \"#utility.yul\":1498:1507   */\n      dup7\n        /* \"#utility.yul\":1494:1516   */\n      add\n        /* \"#utility.yul\":1473:1526   */\n      tag_132\n      jump\t// in\n    tag_214:\n        /* \"#utility.yul\":1463:1526   */\n      swap3\n      pop\n        /* \"#utility.yul\":1419:1536   */\n      pop\n        /* \"#utility.yul\":1575:1577   */\n      0x20\n        /* \"#utility.yul\":1601:1654   */\n      tag_215\n        /* \"#utility.yul\":1646:1653   */\n      dup6\n        /* \"#utility.yul\":1637:1643   */\n      dup3\n        /* \"#utility.yul\":1626:1635   */\n      dup7\n        /* \"#utility.yul\":1622:1644   */\n      add\n        /* \"#utility.yul\":1601:1654   */\n      tag_135\n      jump\t// in\n    tag_215:\n        /* \"#utility.yul\":1591:1654   */\n      swap2\n      pop\n        /* \"#utility.yul\":1546:1664   */\n      pop\n        /* \"#utility.yul\":1197:1671   */\n      swap3\n      pop\n      swap3\n      swap1\n      pop\n      jump\t// out\n        /* \"#utility.yul\":1677:1795   */\n    tag_136:\n        /* \"#utility.yul\":1764:1788   */\n      tag_217\n        /* \"#utility.yul\":1782:1787   */\n      dup2\n        /* \"#utility.yul\":1764:1788   */\n      tag_133\n      jump\t// in\n    tag_217:\n        /* \"#utility.yul\":1759:1762   */\n      dup3\n        /* \"#utility.yul\":1752:1789   */\n      mstore\n        /* \"#utility.yul\":1677:1795   */\n      pop\n      pop\n      jump\t// out\n        /* \"#utility.yul\":1801:1919   */\n    tag_137:\n        /* \"#utility.yul\":1888:1912   */\n      tag_219\n        /* \"#utility.yul\":1906:1911   */\n      dup2\n        /* \"#utility.yul\":1888:1912   */\n      tag_130\n      jump\t// in\n    tag_219:\n        /* \"#utility.yul\":1883:1886   */\n      dup3\n        /* \"#utility.yul\":1876:1913   */\n      mstore\n        /* \"#utility.yul\":1801:1919   */\n      pop\n      pop\n      jump\t// out\n        /* \"#utility.yul\":1925:2024   */\n    tag_138:\n        /* \"#utility.yul\":1977:1983   */\n      0x00\n        /* \"#utility.yul\":2011:2016   */\n      dup2\n        /* \"#utility.yul\":2005:2017   */\n      mload\n        /* \"#utility.yul\":1995:2017   */\n      swap1\n      pop\n        /* \"#utility.yul\":1925:2024   */\n      swap2\n      swap1\n      pop\n      jump\t// out\n        /* \"#utility.yul\":2030:2199   */\n    tag_139:\n        /* \"#utility.yul\":2114:2125   */\n      0x00\n        /* \"#utility.yul\":2148:2154   */\n      dup3\n        /* \"#utility.yul\":2143:2146   */\n      dup3\n        /* \"#utility.yul\":2136:2155   */\n      mstore\n        /* \"#utility.yul\":2188:2192   */\n      0x20\n        /* \"#utility.yul\":2183:2186   */\n      dup3\n        /* \"#utility.yul\":2179:2193   */\n      add\n        /* \"#utility.yul\":2164:2193   */\n      swap1\n      pop\n        /* \"#utility.yul\":2030:2199   */\n      swap3\n      swap2\n      pop\n      pop\n      jump\t// out\n        /* \"#utility.yul\":2205:2451   */\n    tag_140:\n        /* \"#utility.yul\":2286:2287   */\n      0x00\n        /* \"#utility.yul\":2296:2409   */\n    tag_223:\n        /* \"#utility.yul\":2310:2316   */\n      dup4\n        /* \"#utility.yul\":2307:2308   */\n      dup2\n        /* \"#utility.yul\":2304:2317   */\n      lt\n        /* \"#utility.yul\":2296:2409   */\n      iszero\n      tag_225\n      jumpi\n        /* \"#utility.yul\":2395:2396   */\n      dup1\n        /* \"#utility.yul\":2390:2393   */\n      dup3\n        /* \"#utility.yul\":2386:2397   */\n      add\n        /* \"#utility.yul\":2380:2398   */\n      mload\n        /* \"#utility.yul\":2376:2377   */\n      dup2\n        /* \"#utility.yul\":2371:2374   */\n      dup5\n        /* \"#utility.yul\":2367:2378   */\n      add\n        /* \"#utility.yul\":2360:2399   */\n      mstore\n        /* \"#utility.yul\":2332:2334   */\n      0x20\n        /* \"#utility.yul\":2329:2330   */\n      dup2\n        /* \"#utility.yul\":2325:2335   */\n      add\n        /* \"#utility.yul\":2320:2335   */\n      swap1\n      pop\n        /* \"#utility.yul\":2296:2409   */\n      jump(tag_223)\n    tag_225:\n        /* \"#utility.yul\":2443:2444   */\n      0x00\n        /* \"#utility.yul\":2434:2440   */\n      dup5\n        /* \"#utility.yul\":2429:2432   */\n      dup5\n        /* \"#utility.yul\":2425:2441   */\n      add\n        /* \"#utility.yul\":2418:2445   */\n      mstore\n        /* \"#utility.yul\":2267:2451   */\n      pop\n        /* \"#utility.yul\":2205:2451   */\n      pop\n      pop\n      pop\n      jump\t// out\n        /* \"#utility.yul\":2457:2559   */\n    tag_141:\n        /* \"#utility.yul\":2498:2504   */\n      0x00\n        /* \"#utility.yul\":2549:2551   */\n      0x1f\n        /* \"#utility.yul\":2545:2552   */\n      not\n        /* \"#utility.yul\":2540:2542   */\n      0x1f\n        /* \"#utility.yul\":2533:2538   */\n      dup4\n        /* \"#utility.yul\":2529:2543   */\n      add\n        /* \"#utility.yul\":2525:2553   */\n      and\n        /* \"#utility.yul\":2515:2553   */\n      swap1\n      pop\n        /* \"#utility.yul\":2457:2559   */\n      swap2\n      swap1\n      pop\n      jump\t// out\n        /* \"#utility.yul\":2565:2942   */\n    tag_142:\n        /* \"#utility.yul\":2653:2656   */\n      0x00\n        /* \"#utility.yul\":2681:2720   */\n      tag_228\n        /* \"#utility.yul\":2714:2719   */\n      dup3\n        /* \"#utility.yul\":2681:2720   */\n      tag_138\n      jump\t// in\n    tag_228:\n        /* \"#utility.yul\":2736:2807   */\n      tag_229\n        /* \"#utility.yul\":2800:2806   */\n      dup2\n        /* \"#utility.yul\":2795:2798   */\n      dup6\n        /* \"#utility.yul\":2736:2807   */\n      tag_139\n      jump\t// in\n    tag_229:\n        /* \"#utility.yul\":2729:2807   */\n      swap4\n      pop\n        /* \"#utility.yul\":2816:2881   */\n      tag_230\n        /* \"#utility.yul\":2874:2880   */\n      dup2\n        /* \"#utility.yul\":2869:2872   */\n      dup6\n        /* \"#utility.yul\":2862:2866   */\n      0x20\n        /* \"#utility.yul\":2855:2860   */\n      dup7\n        /* \"#utility.yul\":2851:2867   */\n      add\n        /* \"#utility.yul\":2816:2881   */\n      tag_140\n      jump\t// in\n    tag_230:\n        /* \"#utility.yul\":2906:2935   */\n      tag_231\n        /* \"#utility.yul\":2928:2934   */\n      dup2\n        /* \"#utility.yul\":2906:2935   */\n      tag_141\n      jump\t// in\n    tag_231:\n        /* \"#utility.yul\":2901:2904   */\n      dup5\n        /* \"#utility.yul\":2897:2936   */\n      add\n        /* \"#utility.yul\":2890:2936   */\n      swap2\n      pop\n        /* \"#utility.yul\":2657:2942   */\n      pop\n        /* \"#utility.yul\":2565:2942   */\n      swap3\n      swap2\n      pop\n      pop\n      jump\t// out\n        /* \"#utility.yul\":2948:3703   */\n    tag_19:\n        /* \"#utility.yul\":3173:3177   */\n      0x00\n        /* \"#utility.yul\":3211:3214   */\n      0xa0\n        /* \"#utility.yul\":3200:3209   */\n      dup3\n        /* \"#utility.yul\":3196:3215   */\n      add\n        /* \"#utility.yul\":3188:3215   */\n      swap1\n      pop\n        /* \"#utility.yul\":3225:3296   */\n      tag_233\n        /* \"#utility.yul\":3293:3294   */\n      0x00\n        /* \"#utility.yul\":3282:3291   */\n      dup4\n        /* \"#utility.yul\":3278:3295   */\n      add\n        /* \"#utility.yul\":3269:3275   */\n      dup9\n        /* \"#utility.yul\":3225:3296   */\n      tag_136\n      jump\t// in\n    tag_233:\n        /* \"#utility.yul\":3306:3378   */\n      tag_234\n        /* \"#utility.yul\":3374:3376   */\n      0x20\n        /* \"#utility.yul\":3363:3372   */\n      dup4\n        /* \"#utility.yul\":3359:3377   */\n      add\n        /* \"#utility.yul\":3350:3356   */\n      dup8\n        /* \"#utility.yul\":3306:3378   */\n      tag_137\n      jump\t// in\n    tag_234:\n        /* \"#utility.yul\":3425:3434   */\n      dup2\n        /* \"#utility.yul\":3419:3423   */\n      dup2\n        /* \"#utility.yul\":3415:3435   */\n      sub\n        /* \"#utility.yul\":3410:3412   */\n      0x40\n        /* \"#utility.yul\":3399:3408   */\n      dup4\n        /* \"#utility.yul\":3395:3413   */\n      add\n        /* \"#utility.yul\":3388:3436   */\n      mstore\n        /* \"#utility.yul\":3453:3531   */\n      tag_235\n        /* \"#utility.yul\":3526:3530   */\n      dup2\n        /* \"#utility.yul\":3517:3523   */\n      dup7\n        /* \"#utility.yul\":3453:3531   */\n      tag_142\n      jump\t// in\n    tag_235:\n        /* \"#utility.yul\":3445:3531   */\n      swap1\n      pop\n        /* \"#utility.yul\":3541:3613   */\n      tag_236\n        /* \"#utility.yul\":3609:3611   */\n      0x60\n        /* \"#utility.yul\":3598:3607   */\n      dup4\n        /* \"#utility.yul\":3594:3612   */\n      add\n        /* \"#utility.yul\":3585:3591   */\n      dup6\n        /* \"#utility.yul\":3541:3613   */\n      tag_136\n      jump\t// in\n    tag_236:\n        /* \"#utility.yul\":3623:3696   */\n      tag_237\n        /* \"#utility.yul\":3691:3694   */\n      0x80\n        /* \"#utility.yul\":3680:3689   */\n      dup4\n        /* \"#utility.yul\":3676:3695   */\n      add\n        /* \"#utility.yul\":3667:3673   */\n      dup5\n        /* \"#utility.yul\":3623:3696   */\n      tag_136\n      jump\t// in\n    tag_237:\n        /* \"#utility.yul\":2948:3703   */\n      swap7\n      swap6\n      pop\n      pop\n      pop\n      pop\n      pop\n      pop\n      jump\t// out\n        /* \"#utility.yul\":3709:4038   */\n    tag_22:\n        /* \"#utility.yul\":3768:3774   */\n      0x00\n        /* \"#utility.yul\":3817:3819   */\n      0x20\n        /* \"#utility.yul\":3805:3814   */\n      dup3\n        /* \"#utility.yul\":3796:3803   */\n      dup5\n        /* \"#utility.yul\":3792:3815   */\n      sub\n        /* \"#utility.yul\":3788:3820   */\n      slt\n        /* \"#utility.yul\":3785:3904   */\n      iszero\n      tag_239\n      jumpi\n        /* \"#utility.yul\":3823:3902   */\n      tag_240\n      tag_127\n      jump\t// in\n    tag_240:\n        /* \"#utility.yul\":3785:3904   */\n    tag_239:\n        /* \"#utility.yul\":3943:3944   */\n      0x00\n        /* \"#utility.yul\":3968:4021   */\n      tag_241\n        /* \"#utility.yul\":4013:4020   */\n      dup5\n        /* \"#utility.yul\":4004:4010   */\n      dup3\n        /* \"#utility.yul\":3993:4002   */\n      dup6\n        /* \"#utility.yul\":3989:4011   */\n      add\n        /* \"#utility.yul\":3968:4021   */\n      tag_132\n      jump\t// in\n    tag_241:\n        /* \"#utility.yul\":3958:4021   */\n      swap2\n      pop\n        /* \"#utility.yul\":3914:4031   */\n      pop\n        /* \"#utility.yul\":3709:4038   */\n      swap3\n      swap2\n      pop\n      pop\n      jump\t// out\n        /* \"#utility.yul\":4044:4179   */\n    tag_143:\n        /* \"#utility.yul\":4132:4138   */\n      0x00\n        /* \"#utility.yul\":4166:4171   */\n      dup2\n        /* \"#utility.yul\":4160:4172   */\n      mload\n        /* \"#utility.yul\":4150:4172   */\n      swap1\n      pop\n        /* \"#utility.yul\":4044:4179   */\n      swap2\n      swap1\n      pop\n      jump\t// out\n        /* \"#utility.yul\":4185:4390   */\n    tag_144:\n        /* \"#utility.yul\":4305:4316   */\n      0x00\n        /* \"#utility.yul\":4339:4345   */\n      dup3\n        /* \"#utility.yul\":4334:4337   */\n      dup3\n        /* \"#utility.yul\":4327:4346   */\n      mstore\n        /* \"#utility.yul\":4379:4383   */\n      0x20\n        /* \"#utility.yul\":4374:4377   */\n      dup3\n        /* \"#utility.yul\":4370:4384   */\n      add\n        /* \"#utility.yul\":4355:4384   */\n      swap1\n      pop\n        /* \"#utility.yul\":4185:4390   */\n      swap3\n      swap2\n      pop\n      pop\n      jump\t// out\n        /* \"#utility.yul\":4396:4549   */\n    tag_145:\n        /* \"#utility.yul\":4484:4488   */\n      0x00\n        /* \"#utility.yul\":4507:4510   */\n      dup2\n        /* \"#utility.yul\":4499:4510   */\n      swap1\n      pop\n        /* \"#utility.yul\":4537:4541   */\n      0x20\n        /* \"#utility.yul\":4532:4535   */\n      dup3\n        /* \"#utility.yul\":4528:4542   */\n      add\n        /* \"#utility.yul\":4520:4542   */\n      swap1\n      pop\n        /* \"#utility.yul\":4396:4549   */\n      swap2\n      swap1\n      pop\n      jump\t// out\n        /* \"#utility.yul\":4555:4663   */\n    tag_146:\n        /* \"#utility.yul\":4632:4656   */\n      tag_246\n        /* \"#utility.yul\":4650:4655   */\n      dup2\n        /* \"#utility.yul\":4632:4656   */\n      tag_133\n      jump\t// in\n    tag_246:\n        /* \"#utility.yul\":4627:4630   */\n      dup3\n        /* \"#utility.yul\":4620:4657   */\n      mstore\n        /* \"#utility.yul\":4555:4663   */\n      pop\n      pop\n      jump\t// out\n        /* \"#utility.yul\":4669:4777   */\n    tag_147:\n        /* \"#utility.yul\":4746:4770   */\n      tag_248\n        /* \"#utility.yul\":4764:4769   */\n      dup2\n        /* \"#utility.yul\":4746:4770   */\n      tag_130\n      jump\t// in\n    tag_248:\n        /* \"#utility.yul\":4741:4744   */\n      dup3\n        /* \"#utility.yul\":4734:4771   */\n      mstore\n        /* \"#utility.yul\":4669:4777   */\n      pop\n      pop\n      jump\t// out\n        /* \"#utility.yul\":4783:4942   */\n    tag_148:\n        /* \"#utility.yul\":4857:4868   */\n      0x00\n        /* \"#utility.yul\":4891:4897   */\n      dup3\n        /* \"#utility.yul\":4886:4889   */\n      dup3\n        /* \"#utility.yul\":4879:4898   */\n      mstore\n        /* \"#utility.yul\":4931:4935   */\n      0x20\n        /* \"#utility.yul\":4926:4929   */\n      dup3\n        /* \"#utility.yul\":4922:4936   */\n      add\n        /* \"#utility.yul\":4907:4936   */\n      swap1\n      pop\n        /* \"#utility.yul\":4783:4942   */\n      swap3\n      swap2\n      pop\n      pop\n      jump\t// out\n        /* \"#utility.yul\":4948:5305   */\n    tag_149:\n        /* \"#utility.yul\":5026:5029   */\n      0x00\n        /* \"#utility.yul\":5054:5093   */\n      tag_251\n        /* \"#utility.yul\":5087:5092   */\n      dup3\n        /* \"#utility.yul\":5054:5093   */\n      tag_138\n      jump\t// in\n    tag_251:\n        /* \"#utility.yul\":5109:5170   */\n      tag_252\n        /* \"#utility.yul\":5163:5169   */\n      dup2\n        /* \"#utility.yul\":5158:5161   */\n      dup6\n        /* \"#utility.yul\":5109:5170   */\n      tag_148\n      jump\t// in\n    tag_252:\n        /* \"#utility.yul\":5102:5170   */\n      swap4\n      pop\n        /* \"#utility.yul\":5179:5244   */\n      tag_253\n        /* \"#utility.yul\":5237:5243   */\n      dup2\n        /* \"#utility.yul\":5232:5235   */\n      dup6\n        /* \"#utility.yul\":5225:5229   */\n      0x20\n        /* \"#utility.yul\":5218:5223   */\n      dup7\n        /* \"#utility.yul\":5214:5230   */\n      add\n        /* \"#utility.yul\":5179:5244   */\n      tag_140\n      jump\t// in\n    tag_253:\n        /* \"#utility.yul\":5269:5298   */\n      tag_254\n        /* \"#utility.yul\":5291:5297   */\n      dup2\n        /* \"#utility.yul\":5269:5298   */\n      tag_141\n      jump\t// in\n    tag_254:\n        /* \"#utility.yul\":5264:5267   */\n      dup5\n        /* \"#utility.yul\":5260:5299   */\n      add\n        /* \"#utility.yul\":5253:5299   */\n      swap2\n      pop\n        /* \"#utility.yul\":5030:5305   */\n      pop\n        /* \"#utility.yul\":4948:5305   */\n      swap3\n      swap2\n      pop\n      pop\n      jump\t// out\n        /* \"#utility.yul\":5373:6498   */\n    tag_150:\n        /* \"#utility.yul\":5474:5477   */\n      0x00\n        /* \"#utility.yul\":5510:5514   */\n      0xa0\n        /* \"#utility.yul\":5505:5508   */\n      dup4\n        /* \"#utility.yul\":5501:5515   */\n      add\n        /* \"#utility.yul\":5595:5599   */\n      0x00\n        /* \"#utility.yul\":5588:5593   */\n      dup4\n        /* \"#utility.yul\":5584:5600   */\n      add\n        /* \"#utility.yul\":5578:5601   */\n      mload\n        /* \"#utility.yul\":5614:5677   */\n      tag_256\n        /* \"#utility.yul\":5671:5675   */\n      0x00\n        /* \"#utility.yul\":5666:5669   */\n      dup7\n        /* \"#utility.yul\":5662:5676   */\n      add\n        /* \"#utility.yul\":5648:5660   */\n      dup3\n        /* \"#utility.yul\":5614:5677   */\n      tag_146\n      jump\t// in\n    tag_256:\n        /* \"#utility.yul\":5525:5687   */\n      pop\n        /* \"#utility.yul\":5771:5775   */\n      0x20\n        /* \"#utility.yul\":5764:5769   */\n      dup4\n        /* \"#utility.yul\":5760:5776   */\n      add\n        /* \"#utility.yul\":5754:5777   */\n      mload\n        /* \"#utility.yul\":5790:5853   */\n      tag_257\n        /* \"#utility.yul\":5847:5851   */\n      0x20\n        /* \"#utility.yul\":5842:5845   */\n      dup7\n        /* \"#utility.yul\":5838:5852   */\n      add\n        /* \"#utility.yul\":5824:5836   */\n      dup3\n        /* \"#utility.yul\":5790:5853   */\n      tag_147\n      jump\t// in\n    tag_257:\n        /* \"#utility.yul\":5697:5863   */\n      pop\n        /* \"#utility.yul\":5948:5952   */\n      0x40\n        /* \"#utility.yul\":5941:5946   */\n      dup4\n        /* \"#utility.yul\":5937:5953   */\n      add\n        /* \"#utility.yul\":5931:5954   */\n      mload\n        /* \"#utility.yul\":6001:6004   */\n      dup5\n        /* \"#utility.yul\":5995:5999   */\n      dup3\n        /* \"#utility.yul\":5991:6005   */\n      sub\n        /* \"#utility.yul\":5984:5988   */\n      0x40\n        /* \"#utility.yul\":5979:5982   */\n      dup7\n        /* \"#utility.yul\":5975:5989   */\n      add\n        /* \"#utility.yul\":5968:6006   */\n      mstore\n        /* \"#utility.yul\":6027:6100   */\n      tag_258\n        /* \"#utility.yul\":6095:6099   */\n      dup3\n        /* \"#utility.yul\":6081:6093   */\n      dup3\n        /* \"#utility.yul\":6027:6100   */\n      tag_149\n      jump\t// in\n    tag_258:\n        /* \"#utility.yul\":6019:6100   */\n      swap2\n      pop\n        /* \"#utility.yul\":5873:6111   */\n      pop\n        /* \"#utility.yul\":6198:6202   */\n      0x60\n        /* \"#utility.yul\":6191:6196   */\n      dup4\n        /* \"#utility.yul\":6187:6203   */\n      add\n        /* \"#utility.yul\":6181:6204   */\n      mload\n        /* \"#utility.yul\":6217:6280   */\n      tag_259\n        /* \"#utility.yul\":6274:6278   */\n      0x60\n        /* \"#utility.yul\":6269:6272   */\n      dup7\n        /* \"#utility.yul\":6265:6279   */\n      add\n        /* \"#utility.yul\":6251:6263   */\n      dup3\n        /* \"#utility.yul\":6217:6280   */\n      tag_146\n      jump\t// in\n    tag_259:\n        /* \"#utility.yul\":6121:6290   */\n      pop\n        /* \"#utility.yul\":6379:6383   */\n      0x80\n        /* \"#utility.yul\":6372:6377   */\n      dup4\n        /* \"#utility.yul\":6368:6384   */\n      add\n        /* \"#utility.yul\":6362:6385   */\n      mload\n        /* \"#utility.yul\":6398:6461   */\n      tag_260\n        /* \"#utility.yul\":6455:6459   */\n      0x80\n        /* \"#utility.yul\":6450:6453   */\n      dup7\n        /* \"#utility.yul\":6446:6460   */\n      add\n        /* \"#utility.yul\":6432:6444   */\n      dup3\n        /* \"#utility.yul\":6398:6461   */\n      tag_146\n      jump\t// in\n    tag_260:\n        /* \"#utility.yul\":6300:6471   */\n      pop\n        /* \"#utility.yul\":6488:6492   */\n      dup1\n        /* \"#utility.yul\":6481:6492   */\n      swap2\n      pop\n        /* \"#utility.yul\":5479:6498   */\n      pop\n        /* \"#utility.yul\":5373:6498   */\n      swap3\n      swap2\n      pop\n      pop\n      jump\t// out\n        /* \"#utility.yul\":6504:6744   */\n    tag_151:\n        /* \"#utility.yul\":6615:6625   */\n      0x00\n        /* \"#utility.yul\":6650:6738   */\n      tag_262\n        /* \"#utility.yul\":6734:6737   */\n      dup4\n        /* \"#utility.yul\":6726:6732   */\n      dup4\n        /* \"#utility.yul\":6650:6738   */\n      tag_150\n      jump\t// in\n    tag_262:\n        /* \"#utility.yul\":6636:6738   */\n      swap1\n      pop\n        /* \"#utility.yul\":6504:6744   */\n      swap3\n      swap2\n      pop\n      pop\n      jump\t// out\n        /* \"#utility.yul\":6750:6884   */\n    tag_152:\n        /* \"#utility.yul\":6841:6845   */\n      0x00\n        /* \"#utility.yul\":6873:6877   */\n      0x20\n        /* \"#utility.yul\":6868:6871   */\n      dup3\n        /* \"#utility.yul\":6864:6878   */\n      add\n        /* \"#utility.yul\":6856:6878   */\n      swap1\n      pop\n        /* \"#utility.yul\":6750:6884   */\n      swap2\n      swap1\n      pop\n      jump\t// out\n        /* \"#utility.yul\":6956:8035   */\n    tag_153:\n        /* \"#utility.yul\":7117:7120   */\n      0x00\n        /* \"#utility.yul\":7146:7221   */\n      tag_265\n        /* \"#utility.yul\":7215:7220   */\n      dup3\n        /* \"#utility.yul\":7146:7221   */\n      tag_143\n      jump\t// in\n    tag_265:\n        /* \"#utility.yul\":7237:7344   */\n      tag_266\n        /* \"#utility.yul\":7337:7343   */\n      dup2\n        /* \"#utility.yul\":7332:7335   */\n      dup6\n        /* \"#utility.yul\":7237:7344   */\n      tag_144\n      jump\t// in\n    tag_266:\n        /* \"#utility.yul\":7230:7344   */\n      swap4\n      pop\n        /* \"#utility.yul\":7370:7373   */\n      dup4\n        /* \"#utility.yul\":7415:7419   */\n      0x20\n        /* \"#utility.yul\":7407:7413   */\n      dup3\n        /* \"#utility.yul\":7403:7420   */\n      mul\n        /* \"#utility.yul\":7398:7401   */\n      dup6\n        /* \"#utility.yul\":7394:7421   */\n      add\n        /* \"#utility.yul\":7445:7522   */\n      tag_267\n        /* \"#utility.yul\":7516:7521   */\n      dup6\n        /* \"#utility.yul\":7445:7522   */\n      tag_145\n      jump\t// in\n    tag_267:\n        /* \"#utility.yul\":7545:7552   */\n      dup1\n        /* \"#utility.yul\":7576:7577   */\n      0x00\n        /* \"#utility.yul\":7561:7990   */\n    tag_268:\n        /* \"#utility.yul\":7586:7592   */\n      dup6\n        /* \"#utility.yul\":7583:7584   */\n      dup2\n        /* \"#utility.yul\":7580:7593   */\n      lt\n        /* \"#utility.yul\":7561:7990   */\n      iszero\n      tag_270\n      jumpi\n        /* \"#utility.yul\":7657:7666   */\n      dup5\n        /* \"#utility.yul\":7651:7655   */\n      dup5\n        /* \"#utility.yul\":7647:7667   */\n      sub\n        /* \"#utility.yul\":7642:7645   */\n      dup10\n        /* \"#utility.yul\":7635:7668   */\n      mstore\n        /* \"#utility.yul\":7708:7714   */\n      dup2\n        /* \"#utility.yul\":7702:7715   */\n      mload\n        /* \"#utility.yul\":7736:7842   */\n      tag_271\n        /* \"#utility.yul\":7837:7841   */\n      dup6\n        /* \"#utility.yul\":7822:7835   */\n      dup3\n        /* \"#utility.yul\":7736:7842   */\n      tag_151\n      jump\t// in\n    tag_271:\n        /* \"#utility.yul\":7728:7842   */\n      swap5\n      pop\n        /* \"#utility.yul\":7865:7946   */\n      tag_272\n        /* \"#utility.yul\":7939:7945   */\n      dup4\n        /* \"#utility.yul\":7865:7946   */\n      tag_152\n      jump\t// in\n    tag_272:\n        /* \"#utility.yul\":7855:7946   */\n      swap3\n      pop\n        /* \"#utility.yul\":7975:7979   */\n      0x20\n        /* \"#utility.yul\":7970:7973   */\n      dup11\n        /* \"#utility.yul\":7966:7980   */\n      add\n        /* \"#utility.yul\":7959:7980   */\n      swap10\n      pop\n        /* \"#utility.yul\":7621:7990   */\n      pop\n        /* \"#utility.yul\":7608:7609   */\n      0x01\n        /* \"#utility.yul\":7605:7606   */\n      dup2\n        /* \"#utility.yul\":7601:7610   */\n      add\n        /* \"#utility.yul\":7596:7610   */\n      swap1\n      pop\n        /* \"#utility.yul\":7561:7990   */\n      jump(tag_268)\n    tag_270:\n        /* \"#utility.yul\":7565:7579   */\n      pop\n        /* \"#utility.yul\":8006:8010   */\n      dup3\n        /* \"#utility.yul\":7999:8010   */\n      swap8\n      pop\n        /* \"#utility.yul\":8026:8029   */\n      dup8\n        /* \"#utility.yul\":8019:8029   */\n      swap6\n      pop\n        /* \"#utility.yul\":7122:8035   */\n      pop\n      pop\n      pop\n      pop\n      pop\n        /* \"#utility.yul\":6956:8035   */\n      swap3\n      swap2\n      pop\n      pop\n      jump\t// out\n        /* \"#utility.yul\":8041:8498   */\n    tag_25:\n        /* \"#utility.yul\":8226:8230   */\n      0x00\n        /* \"#utility.yul\":8264:8266   */\n      0x20\n        /* \"#utility.yul\":8253:8262   */\n      dup3\n        /* \"#utility.yul\":8249:8267   */\n      add\n        /* \"#utility.yul\":8241:8267   */\n      swap1\n      pop\n        /* \"#utility.yul\":8313:8322   */\n      dup2\n        /* \"#utility.yul\":8307:8311   */\n      dup2\n        /* \"#utility.yul\":8303:8323   */\n      sub\n        /* \"#utility.yul\":8299:8300   */\n      0x00\n        /* \"#utility.yul\":8288:8297   */\n      dup4\n        /* \"#utility.yul\":8284:8301   */\n      add\n        /* \"#utility.yul\":8277:8324   */\n      mstore\n        /* \"#utility.yul\":8341:8491   */\n      tag_274\n        /* \"#utility.yul\":8486:8490   */\n      dup2\n        /* \"#utility.yul\":8477:8483   */\n      dup5\n        /* \"#utility.yul\":8341:8491   */\n      tag_153\n      jump\t// in\n    tag_274:\n        /* \"#utility.yul\":8333:8491   */\n      swap1\n      pop\n        /* \"#utility.yul\":8041:8498   */\n      swap3\n      swap2\n      pop\n      pop\n      jump\t// out\n        /* \"#utility.yul\":8566:9701   */\n    tag_154:\n        /* \"#utility.yul\":8677:8680   */\n      0x00\n        /* \"#utility.yul\":8713:8717   */\n      0xa0\n        /* \"#utility.yul\":8708:8711   */\n      dup4\n        /* \"#utility.yul\":8704:8718   */\n      add\n        /* \"#utility.yul\":8798:8802   */\n      0x00\n        /* \"#utility.yul\":8791:8796   */\n      dup4\n        /* \"#utility.yul\":8787:8803   */\n      add\n        /* \"#utility.yul\":8781:8804   */\n      mload\n        /* \"#utility.yul\":8817:8880   */\n      tag_276\n        /* \"#utility.yul\":8874:8878   */\n      0x00\n        /* \"#utility.yul\":8869:8872   */\n      dup7\n        /* \"#utility.yul\":8865:8879   */\n      add\n        /* \"#utility.yul\":8851:8863   */\n      dup3\n        /* \"#utility.yul\":8817:8880   */\n      tag_146\n      jump\t// in\n    tag_276:\n        /* \"#utility.yul\":8728:8890   */\n      pop\n        /* \"#utility.yul\":8974:8978   */\n      0x20\n        /* \"#utility.yul\":8967:8972   */\n      dup4\n        /* \"#utility.yul\":8963:8979   */\n      add\n        /* \"#utility.yul\":8957:8980   */\n      mload\n        /* \"#utility.yul\":8993:9056   */\n      tag_277\n        /* \"#utility.yul\":9050:9054   */\n      0x20\n        /* \"#utility.yul\":9045:9048   */\n      dup7\n        /* \"#utility.yul\":9041:9055   */\n      add\n        /* \"#utility.yul\":9027:9039   */\n      dup3\n        /* \"#utility.yul\":8993:9056   */\n      tag_147\n      jump\t// in\n    tag_277:\n        /* \"#utility.yul\":8900:9066   */\n      pop\n        /* \"#utility.yul\":9151:9155   */\n      0x40\n        /* \"#utility.yul\":9144:9149   */\n      dup4\n        /* \"#utility.yul\":9140:9156   */\n      add\n        /* \"#utility.yul\":9134:9157   */\n      mload\n        /* \"#utility.yul\":9204:9207   */\n      dup5\n        /* \"#utility.yul\":9198:9202   */\n      dup3\n        /* \"#utility.yul\":9194:9208   */\n      sub\n        /* \"#utility.yul\":9187:9191   */\n      0x40\n        /* \"#utility.yul\":9182:9185   */\n      dup7\n        /* \"#utility.yul\":9178:9192   */\n      add\n        /* \"#utility.yul\":9171:9209   */\n      mstore\n        /* \"#utility.yul\":9230:9303   */\n      tag_278\n        /* \"#utility.yul\":9298:9302   */\n      dup3\n        /* \"#utility.yul\":9284:9296   */\n      dup3\n        /* \"#utility.yul\":9230:9303   */\n      tag_149\n      jump\t// in\n    tag_278:\n        /* \"#utility.yul\":9222:9303   */\n      swap2\n      pop\n        /* \"#utility.yul\":9076:9314   */\n      pop\n        /* \"#utility.yul\":9401:9405   */\n      0x60\n        /* \"#utility.yul\":9394:9399   */\n      dup4\n        /* \"#utility.yul\":9390:9406   */\n      add\n        /* \"#utility.yul\":9384:9407   */\n      mload\n        /* \"#utility.yul\":9420:9483   */\n      tag_279\n        /* \"#utility.yul\":9477:9481   */\n      0x60\n        /* \"#utility.yul\":9472:9475   */\n      dup7\n        /* \"#utility.yul\":9468:9482   */\n      add\n        /* \"#utility.yul\":9454:9466   */\n      dup3\n        /* \"#utility.yul\":9420:9483   */\n      tag_146\n      jump\t// in\n    tag_279:\n        /* \"#utility.yul\":9324:9493   */\n      pop\n        /* \"#utility.yul\":9582:9586   */\n      0x80\n        /* \"#utility.yul\":9575:9580   */\n      dup4\n        /* \"#utility.yul\":9571:9587   */\n      add\n        /* \"#utility.yul\":9565:9588   */\n      mload\n        /* \"#utility.yul\":9601:9664   */\n      tag_280\n        /* \"#utility.yul\":9658:9662   */\n      0x80\n        /* \"#utility.yul\":9653:9656   */\n      dup7\n        /* \"#utility.yul\":9649:9663   */\n      add\n        /* \"#utility.yul\":9635:9647   */\n      dup3\n        /* \"#utility.yul\":9601:9664   */\n      tag_146\n      jump\t// in\n    tag_280:\n        /* \"#utility.yul\":9503:9674   */\n      pop\n        /* \"#utility.yul\":9691:9695   */\n      dup1\n        /* \"#utility.yul\":9684:9695   */\n      swap2\n      pop\n        /* \"#utility.yul\":8682:9701   */\n      pop\n        /* \"#utility.yul\":8566:9701   */\n      swap3\n      swap2\n      pop\n      pop\n      jump\t// out\n        /* \"#utility.yul\":9707:10064   */\n    tag_30:\n        /* \"#utility.yul\":9842:9846   */\n      0x00\n        /* \"#utility.yul\":9880:9882   */\n      0x20\n        /* \"#utility.yul\":9869:9878   */\n      dup3\n        /* \"#utility.yul\":9865:9883   */\n      add\n        /* \"#utility.yul\":9857:9883   */\n      swap1\n      pop\n        /* \"#utility.yul\":9929:9938   */\n      dup2\n        /* \"#utility.yul\":9923:9927   */\n      dup2\n        /* \"#utility.yul\":9919:9939   */\n      sub\n        /* \"#utility.yul\":9915:9916   */\n      0x00\n        /* \"#utility.yul\":9904:9913   */\n      dup4\n        /* \"#utility.yul\":9900:9917   */\n      add\n        /* \"#utility.yul\":9893:9940   */\n      mstore\n        /* \"#utility.yul\":9957:10057   */\n      tag_282\n        /* \"#utility.yul\":10052:10056   */\n      dup2\n        /* \"#utility.yul\":10043:10049   */\n      dup5\n        /* \"#utility.yul\":9957:10057   */\n      tag_154\n      jump\t// in\n    tag_282:\n        /* \"#utility.yul\":9949:10057   */\n      swap1\n      pop\n        /* \"#utility.yul\":9707:10064   */\n      swap3\n      swap2\n      pop\n      pop\n      jump\t// out\n        /* \"#utility.yul\":10070:10159   */\n    tag_155:\n        /* \"#utility.yul\":10106:10113   */\n      0x00\n        /* \"#utility.yul\":10146:10152   */\n      0xffff\n        /* \"#utility.yul\":10139:10144   */\n      dup3\n        /* \"#utility.yul\":10135:10153   */\n      and\n        /* \"#utility.yul\":10124:10153   */\n      swap1\n      pop\n        /* \"#utility.yul\":10070:10159   */\n      swap2\n      swap1\n      pop\n      jump\t// out\n        /* \"#utility.yul\":10165:10285   */\n    tag_156:\n        /* \"#utility.yul\":10237:10260   */\n      tag_285\n        /* \"#utility.yul\":10254:10259   */\n      dup2\n        /* \"#utility.yul\":10237:10260   */\n      tag_155\n      jump\t// in\n    tag_285:\n        /* \"#utility.yul\":10230:10235   */\n      dup2\n        /* \"#utility.yul\":10227:10261   */\n      eq\n        /* \"#utility.yul\":10217:10279   */\n      tag_286\n      jumpi\n        /* \"#utility.yul\":10275:10276   */\n      0x00\n        /* \"#utility.yul\":10272:10273   */\n      dup1\n        /* \"#utility.yul\":10265:10277   */\n      revert\n        /* \"#utility.yul\":10217:10279   */\n    tag_286:\n        /* \"#utility.yul\":10165:10285   */\n      pop\n      jump\t// out\n        /* \"#utility.yul\":10291:10428   */\n    tag_157:\n        /* \"#utility.yul\":10336:10341   */\n      0x00\n        /* \"#utility.yul\":10374:10380   */\n      dup2\n        /* \"#utility.yul\":10361:10381   */\n      calldataload\n        /* \"#utility.yul\":10352:10381   */\n      swap1\n      pop\n        /* \"#utility.yul\":10390:10422   */\n      tag_288\n        /* \"#utility.yul\":10416:10421   */\n      dup2\n        /* \"#utility.yul\":10390:10422   */\n      tag_156\n      jump\t// in\n    tag_288:\n        /* \"#utility.yul\":10291:10428   */\n      swap3\n      swap2\n      pop\n      pop\n      jump\t// out\n        /* \"#utility.yul\":10434:10761   */\n    tag_33:\n        /* \"#utility.yul\":10492:10498   */\n      0x00\n        /* \"#utility.yul\":10541:10543   */\n      0x20\n        /* \"#utility.yul\":10529:10538   */\n      dup3\n        /* \"#utility.yul\":10520:10527   */\n      dup5\n        /* \"#utility.yul\":10516:10539   */\n      sub\n        /* \"#utility.yul\":10512:10544   */\n      slt\n        /* \"#utility.yul\":10509:10628   */\n      iszero\n      tag_290\n      jumpi\n        /* \"#utility.yul\":10547:10626   */\n      tag_291\n      tag_127\n      jump\t// in\n    tag_291:\n        /* \"#utility.yul\":10509:10628   */\n    tag_290:\n        /* \"#utility.yul\":10667:10668   */\n      0x00\n        /* \"#utility.yul\":10692:10744   */\n      tag_292\n        /* \"#utility.yul\":10736:10743   */\n      dup5\n        /* \"#utility.yul\":10727:10733   */\n      dup3\n        /* \"#utility.yul\":10716:10725   */\n      dup6\n        /* \"#utility.yul\":10712:10734   */\n      add\n        /* \"#utility.yul\":10692:10744   */\n      tag_157\n      jump\t// in\n    tag_292:\n        /* \"#utility.yul\":10682:10744   */\n      swap2\n      pop\n        /* \"#utility.yul\":10638:10754   */\n      pop\n        /* \"#utility.yul\":10434:10761   */\n      swap3\n      swap2\n      pop\n      pop\n      jump\t// out\n        /* \"#utility.yul\":10767:10882   */\n    tag_158:\n        /* \"#utility.yul\":10852:10875   */\n      tag_294\n        /* \"#utility.yul\":10869:10874   */\n      dup2\n        /* \"#utility.yul\":10852:10875   */\n      tag_155\n      jump\t// in\n    tag_294:\n        /* \"#utility.yul\":10847:10850   */\n      dup3\n        /* \"#utility.yul\":10840:10876   */\n      mstore\n        /* \"#utility.yul\":10767:10882   */\n      pop\n      pop\n      jump\t// out\n        /* \"#utility.yul\":10888:11106   */\n    tag_38:\n        /* \"#utility.yul\":10979:10983   */\n      0x00\n        /* \"#utility.yul\":11017:11019   */\n      0x20\n        /* \"#utility.yul\":11006:11015   */\n      dup3\n        /* \"#utility.yul\":11002:11020   */\n      add\n        /* \"#utility.yul\":10994:11020   */\n      swap1\n      pop\n        /* \"#utility.yul\":11030:11099   */\n      tag_296\n        /* \"#utility.yul\":11096:11097   */\n      0x00\n        /* \"#utility.yul\":11085:11094   */\n      dup4\n        /* \"#utility.yul\":11081:11098   */\n      add\n        /* \"#utility.yul\":11072:11078   */\n      dup5\n        /* \"#utility.yul\":11030:11099   */\n      tag_158\n      jump\t// in\n    tag_296:\n        /* \"#utility.yul\":10888:11106   */\n      swap3\n      swap2\n      pop\n      pop\n      jump\t// out\n        /* \"#utility.yul\":11112:11229   */\n    tag_159:\n        /* \"#utility.yul\":11221:11222   */\n      0x00\n        /* \"#utility.yul\":11218:11219   */\n      dup1\n        /* \"#utility.yul\":11211:11223   */\n      revert\n        /* \"#utility.yul\":11235:11352   */\n    tag_160:\n        /* \"#utility.yul\":11344:11345   */\n      0x00\n        /* \"#utility.yul\":11341:11342   */\n      dup1\n        /* \"#utility.yul\":11334:11346   */\n      revert\n        /* \"#utility.yul\":11358:11538   */\n    tag_161:\n        /* \"#utility.yul\":11406:11483   */\n      0x4e487b7100000000000000000000000000000000000000000000000000000000\n        /* \"#utility.yul\":11403:11404   */\n      0x00\n        /* \"#utility.yul\":11396:11484   */\n      mstore\n        /* \"#utility.yul\":11503:11507   */\n      0x41\n        /* \"#utility.yul\":11500:11501   */\n      0x04\n        /* \"#utility.yul\":11493:11508   */\n      mstore\n        /* \"#utility.yul\":11527:11531   */\n      0x24\n        /* \"#utility.yul\":11524:11525   */\n      0x00\n        /* \"#utility.yul\":11517:11532   */\n      revert\n        /* \"#utility.yul\":11544:11825   */\n    tag_162:\n        /* \"#utility.yul\":11627:11654   */\n      tag_301\n        /* \"#utility.yul\":11649:11653   */\n      dup3\n        /* \"#utility.yul\":11627:11654   */\n      tag_141\n      jump\t// in\n    tag_301:\n        /* \"#utility.yul\":11619:11625   */\n      dup2\n        /* \"#utility.yul\":11615:11655   */\n      add\n        /* \"#utility.yul\":11757:11763   */\n      dup2\n        /* \"#utility.yul\":11745:11755   */\n      dup2\n        /* \"#utility.yul\":11742:11764   */\n      lt\n        /* \"#utility.yul\":11721:11739   */\n      0xffffffffffffffff\n        /* \"#utility.yul\":11709:11719   */\n      dup3\n        /* \"#utility.yul\":11706:11740   */\n      gt\n        /* \"#utility.yul\":11703:11765   */\n      or\n        /* \"#utility.yul\":11700:11788   */\n      iszero\n      tag_302\n      jumpi\n        /* \"#utility.yul\":11768:11786   */\n      tag_303\n      tag_161\n      jump\t// in\n    tag_303:\n        /* \"#utility.yul\":11700:11788   */\n    tag_302:\n        /* \"#utility.yul\":11808:11818   */\n      dup1\n        /* \"#utility.yul\":11804:11806   */\n      0x40\n        /* \"#utility.yul\":11797:11819   */\n      mstore\n        /* \"#utility.yul\":11587:11825   */\n      pop\n        /* \"#utility.yul\":11544:11825   */\n      pop\n      pop\n      jump\t// out\n        /* \"#utility.yul\":11831:11960   */\n    tag_163:\n        /* \"#utility.yul\":11865:11871   */\n      0x00\n        /* \"#utility.yul\":11892:11912   */\n      tag_305\n      tag_126\n      jump\t// in\n    tag_305:\n        /* \"#utility.yul\":11882:11912   */\n      swap1\n      pop\n        /* \"#utility.yul\":11921:11954   */\n      tag_306\n        /* \"#utility.yul\":11949:11953   */\n      dup3\n        /* \"#utility.yul\":11941:11947   */\n      dup3\n        /* \"#utility.yul\":11921:11954   */\n      tag_162\n      jump\t// in\n    tag_306:\n        /* \"#utility.yul\":11831:11960   */\n      swap2\n      swap1\n      pop\n      jump\t// out\n        /* \"#utility.yul\":11966:12274   */\n    tag_164:\n        /* \"#utility.yul\":12028:12032   */\n      0x00\n        /* \"#utility.yul\":12118:12136   */\n      0xffffffffffffffff\n        /* \"#utility.yul\":12110:12116   */\n      dup3\n        /* \"#utility.yul\":12107:12137   */\n      gt\n        /* \"#utility.yul\":12104:12160   */\n      iszero\n      tag_308\n      jumpi\n        /* \"#utility.yul\":12140:12158   */\n      tag_309\n      tag_161\n      jump\t// in\n    tag_309:\n        /* \"#utility.yul\":12104:12160   */\n    tag_308:\n        /* \"#utility.yul\":12178:12207   */\n      tag_310\n        /* \"#utility.yul\":12200:12206   */\n      dup3\n        /* \"#utility.yul\":12178:12207   */\n      tag_141\n      jump\t// in\n    tag_310:\n        /* \"#utility.yul\":12170:12207   */\n      swap1\n      pop\n        /* \"#utility.yul\":12262:12266   */\n      0x20\n        /* \"#utility.yul\":12256:12260   */\n      dup2\n        /* \"#utility.yul\":12252:12267   */\n      add\n        /* \"#utility.yul\":12244:12267   */\n      swap1\n      pop\n        /* \"#utility.yul\":11966:12274   */\n      swap2\n      swap1\n      pop\n      jump\t// out\n        /* \"#utility.yul\":12280:12426   */\n    tag_165:\n        /* \"#utility.yul\":12377:12383   */\n      dup3\n        /* \"#utility.yul\":12372:12375   */\n      dup2\n        /* \"#utility.yul\":12367:12370   */\n      dup4\n        /* \"#utility.yul\":12354:12384   */\n      calldatacopy\n        /* \"#utility.yul\":12418:12419   */\n      0x00\n        /* \"#utility.yul\":12409:12415   */\n      dup4\n        /* \"#utility.yul\":12404:12407   */\n      dup4\n        /* \"#utility.yul\":12400:12416   */\n      add\n        /* \"#utility.yul\":12393:12420   */\n      mstore\n        /* \"#utility.yul\":12280:12426   */\n      pop\n      pop\n      pop\n      jump\t// out\n        /* \"#utility.yul\":12432:12857   */\n    tag_166:\n        /* \"#utility.yul\":12510:12515   */\n      0x00\n        /* \"#utility.yul\":12535:12601   */\n      tag_313\n        /* \"#utility.yul\":12551:12600   */\n      tag_314\n        /* \"#utility.yul\":12593:12599   */\n      dup5\n        /* \"#utility.yul\":12551:12600   */\n      tag_164\n      jump\t// in\n    tag_314:\n        /* \"#utility.yul\":12535:12601   */\n      tag_163\n      jump\t// in\n    tag_313:\n        /* \"#utility.yul\":12526:12601   */\n      swap1\n      pop\n        /* \"#utility.yul\":12624:12630   */\n      dup3\n        /* \"#utility.yul\":12617:12622   */\n      dup2\n        /* \"#utility.yul\":12610:12631   */\n      mstore\n        /* \"#utility.yul\":12662:12666   */\n      0x20\n        /* \"#utility.yul\":12655:12660   */\n      dup2\n        /* \"#utility.yul\":12651:12667   */\n      add\n        /* \"#utility.yul\":12700:12703   */\n      dup5\n        /* \"#utility.yul\":12691:12697   */\n      dup5\n        /* \"#utility.yul\":12686:12689   */\n      dup5\n        /* \"#utility.yul\":12682:12698   */\n      add\n        /* \"#utility.yul\":12679:12704   */\n      gt\n        /* \"#utility.yul\":12676:12788   */\n      iszero\n      tag_315\n      jumpi\n        /* \"#utility.yul\":12707:12786   */\n      tag_316\n      tag_160\n      jump\t// in\n    tag_316:\n        /* \"#utility.yul\":12676:12788   */\n    tag_315:\n        /* \"#utility.yul\":12797:12851   */\n      tag_317\n        /* \"#utility.yul\":12844:12850   */\n      dup5\n        /* \"#utility.yul\":12839:12842   */\n      dup3\n        /* \"#utility.yul\":12834:12837   */\n      dup6\n        /* \"#utility.yul\":12797:12851   */\n      tag_165\n      jump\t// in\n    tag_317:\n        /* \"#utility.yul\":12516:12857   */\n      pop\n        /* \"#utility.yul\":12432:12857   */\n      swap4\n      swap3\n      pop\n      pop\n      pop\n      jump\t// out\n        /* \"#utility.yul\":12877:13217   */\n    tag_167:\n        /* \"#utility.yul\":12933:12938   */\n      0x00\n        /* \"#utility.yul\":12982:12985   */\n      dup3\n        /* \"#utility.yul\":12975:12979   */\n      0x1f\n        /* \"#utility.yul\":12967:12973   */\n      dup4\n        /* \"#utility.yul\":12963:12980   */\n      add\n        /* \"#utility.yul\":12959:12986   */\n      slt\n        /* \"#utility.yul\":12949:13071   */\n      tag_319\n      jumpi\n        /* \"#utility.yul\":12990:13069   */\n      tag_320\n      tag_159\n      jump\t// in\n    tag_320:\n        /* \"#utility.yul\":12949:13071   */\n    tag_319:\n        /* \"#utility.yul\":13107:13113   */\n      dup2\n        /* \"#utility.yul\":13094:13114   */\n      calldataload\n        /* \"#utility.yul\":13132:13211   */\n      tag_321\n        /* \"#utility.yul\":13207:13210   */\n      dup5\n        /* \"#utility.yul\":13199:13205   */\n      dup3\n        /* \"#utility.yul\":13192:13196   */\n      0x20\n        /* \"#utility.yul\":13184:13190   */\n      dup7\n        /* \"#utility.yul\":13180:13197   */\n      add\n        /* \"#utility.yul\":13132:13211   */\n      tag_166\n      jump\t// in\n    tag_321:\n        /* \"#utility.yul\":13123:13211   */\n      swap2\n      pop\n        /* \"#utility.yul\":12939:13217   */\n      pop\n        /* \"#utility.yul\":12877:13217   */\n      swap3\n      swap2\n      pop\n      pop\n      jump\t// out\n        /* \"#utility.yul\":13223:13732   */\n    tag_44:\n        /* \"#utility.yul\":13292:13298   */\n      0x00\n        /* \"#utility.yul\":13341:13343   */\n      0x20\n        /* \"#utility.yul\":13329:13338   */\n      dup3\n        /* \"#utility.yul\":13320:13327   */\n      dup5\n        /* \"#utility.yul\":13316:13339   */\n      sub\n        /* \"#utility.yul\":13312:13344   */\n      slt\n        /* \"#utility.yul\":13309:13428   */\n      iszero\n      tag_323\n      jumpi\n        /* \"#utility.yul\":13347:13426   */\n      tag_324\n      tag_127\n      jump\t// in\n    tag_324:\n        /* \"#utility.yul\":13309:13428   */\n    tag_323:\n        /* \"#utility.yul\":13495:13496   */\n      0x00\n        /* \"#utility.yul\":13484:13493   */\n      dup3\n        /* \"#utility.yul\":13480:13497   */\n      add\n        /* \"#utility.yul\":13467:13498   */\n      calldataload\n        /* \"#utility.yul\":13525:13543   */\n      0xffffffffffffffff\n        /* \"#utility.yul\":13517:13523   */\n      dup2\n        /* \"#utility.yul\":13514:13544   */\n      gt\n        /* \"#utility.yul\":13511:13628   */\n      iszero\n      tag_325\n      jumpi\n        /* \"#utility.yul\":13547:13626   */\n      tag_326\n      tag_128\n      jump\t// in\n    tag_326:\n        /* \"#utility.yul\":13511:13628   */\n    tag_325:\n        /* \"#utility.yul\":13652:13715   */\n      tag_327\n        /* \"#utility.yul\":13707:13714   */\n      dup5\n        /* \"#utility.yul\":13698:13704   */\n      dup3\n        /* \"#utility.yul\":13687:13696   */\n      dup6\n        /* \"#utility.yul\":13683:13705   */\n      add\n        /* \"#utility.yul\":13652:13715   */\n      tag_167\n      jump\t// in\n    tag_327:\n        /* \"#utility.yul\":13642:13715   */\n      swap2\n      pop\n        /* \"#utility.yul\":13438:13725   */\n      pop\n        /* \"#utility.yul\":13223:13732   */\n      swap3\n      swap2\n      pop\n      pop\n      jump\t// out\n        /* \"#utility.yul\":13738:13960   */\n    tag_49:\n        /* \"#utility.yul\":13831:13835   */\n      0x00\n        /* \"#utility.yul\":13869:13871   */\n      0x20\n        /* \"#utility.yul\":13858:13867   */\n      dup3\n        /* \"#utility.yul\":13854:13872   */\n      add\n        /* \"#utility.yul\":13846:13872   */\n      swap1\n      pop\n        /* \"#utility.yul\":13882:13953   */\n      tag_329\n        /* \"#utility.yul\":13950:13951   */\n      0x00\n        /* \"#utility.yul\":13939:13948   */\n      dup4\n        /* \"#utility.yul\":13935:13952   */\n      add\n        /* \"#utility.yul\":13926:13932   */\n      dup5\n        /* \"#utility.yul\":13882:13953   */\n      tag_137\n      jump\t// in\n    tag_329:\n        /* \"#utility.yul\":13738:13960   */\n      swap3\n      swap2\n      pop\n      pop\n      jump\t// out\n        /* \"#utility.yul\":13966:14295   */\n    tag_55:\n        /* \"#utility.yul\":14025:14031   */\n      0x00\n        /* \"#utility.yul\":14074:14076   */\n      0x20\n        /* \"#utility.yul\":14062:14071   */\n      dup3\n        /* \"#utility.yul\":14053:14060   */\n      dup5\n        /* \"#utility.yul\":14049:14072   */\n      sub\n        /* \"#utility.yul\":14045:14077   */\n      slt\n        /* \"#utility.yul\":14042:14161   */\n      iszero\n      tag_331\n      jumpi\n        /* \"#utility.yul\":14080:14159   */\n      tag_332\n      tag_127\n      jump\t// in\n    tag_332:\n        /* \"#utility.yul\":14042:14161   */\n    tag_331:\n        /* \"#utility.yul\":14200:14201   */\n      0x00\n        /* \"#utility.yul\":14225:14278   */\n      tag_333\n        /* \"#utility.yul\":14270:14277   */\n      dup5\n        /* \"#utility.yul\":14261:14267   */\n      dup3\n        /* \"#utility.yul\":14250:14259   */\n      dup6\n        /* \"#utility.yul\":14246:14268   */\n      add\n        /* \"#utility.yul\":14225:14278   */\n      tag_135\n      jump\t// in\n    tag_333:\n        /* \"#utility.yul\":14215:14278   */\n      swap2\n      pop\n        /* \"#utility.yul\":14171:14288   */\n      pop\n        /* \"#utility.yul\":13966:14295   */\n      swap3\n      swap2\n      pop\n      pop\n      jump\t// out\n        /* \"#utility.yul\":14301:14481   */\n    tag_168:\n        /* \"#utility.yul\":14349:14426   */\n      0x4e487b7100000000000000000000000000000000000000000000000000000000\n        /* \"#utility.yul\":14346:14347   */\n      0x00\n        /* \"#utility.yul\":14339:14427   */\n      mstore\n        /* \"#utility.yul\":14446:14450   */\n      0x22\n        /* \"#utility.yul\":14443:14444   */\n      0x04\n        /* \"#utility.yul\":14436:14451   */\n      mstore\n        /* \"#utility.yul\":14470:14474   */\n      0x24\n        /* \"#utility.yul\":14467:14468   */\n      0x00\n        /* \"#utility.yul\":14460:14475   */\n      revert\n        /* \"#utility.yul\":14487:14807   */\n    tag_61:\n        /* \"#utility.yul\":14531:14537   */\n      0x00\n        /* \"#utility.yul\":14568:14569   */\n      0x02\n        /* \"#utility.yul\":14562:14566   */\n      dup3\n        /* \"#utility.yul\":14558:14570   */\n      div\n        /* \"#utility.yul\":14548:14570   */\n      swap1\n      pop\n        /* \"#utility.yul\":14615:14616   */\n      0x01\n        /* \"#utility.yul\":14609:14613   */\n      dup3\n        /* \"#utility.yul\":14605:14617   */\n      and\n        /* \"#utility.yul\":14636:14654   */\n      dup1\n        /* \"#utility.yul\":14626:14707   */\n      tag_336\n      jumpi\n        /* \"#utility.yul\":14692:14696   */\n      0x7f\n        /* \"#utility.yul\":14684:14690   */\n      dup3\n        /* \"#utility.yul\":14680:14697   */\n      and\n        /* \"#utility.yul\":14670:14697   */\n      swap2\n      pop\n        /* \"#utility.yul\":14626:14707   */\n    tag_336:\n        /* \"#utility.yul\":14754:14756   */\n      0x20\n        /* \"#utility.yul\":14746:14752   */\n      dup3\n        /* \"#utility.yul\":14743:14757   */\n      lt\n        /* \"#utility.yul\":14723:14741   */\n      dup2\n        /* \"#utility.yul\":14720:14758   */\n      sub\n        /* \"#utility.yul\":14717:14801   */\n      tag_337\n      jumpi\n        /* \"#utility.yul\":14773:14791   */\n      tag_338\n      tag_168\n      jump\t// in\n    tag_338:\n        /* \"#utility.yul\":14717:14801   */\n    tag_337:\n        /* \"#utility.yul\":14538:14807   */\n      pop\n        /* \"#utility.yul\":14487:14807   */\n      swap2\n      swap1\n      pop\n      jump\t// out\n        /* \"#utility.yul\":14813:14993   */\n    tag_81:\n        /* \"#utility.yul\":14861:14938   */\n      0x4e487b7100000000000000000000000000000000000000000000000000000000\n        /* \"#utility.yul\":14858:14859   */\n      0x00\n        /* \"#utility.yul\":14851:14939   */\n      mstore\n        /* \"#utility.yul\":14958:14962   */\n      0x32\n        /* \"#utility.yul\":14955:14956   */\n      0x04\n        /* \"#utility.yul\":14948:14963   */\n      mstore\n        /* \"#utility.yul\":14982:14986   */\n      0x24\n        /* \"#utility.yul\":14979:14980   */\n      0x00\n        /* \"#utility.yul\":14972:14987   */\n      revert\n        /* \"#utility.yul\":14999:15222   */\n    tag_169:\n        /* \"#utility.yul\":15139:15173   */\n      0x546869732061646472657373206973206e6f7420616c6c6f77656420746f2063\n        /* \"#utility.yul\":15135:15136   */\n      0x00\n        /* \"#utility.yul\":15127:15133   */\n      dup3\n        /* \"#utility.yul\":15123:15137   */\n      add\n        /* \"#utility.yul\":15116:15174   */\n      mstore\n        /* \"#utility.yul\":15208:15214   */\n      0x616c6c2e00000000000000000000000000000000000000000000000000000000\n        /* \"#utility.yul\":15203:15205   */\n      0x20\n        /* \"#utility.yul\":15195:15201   */\n      dup3\n        /* \"#utility.yul\":15191:15206   */\n      add\n        /* \"#utility.yul\":15184:15215   */\n      mstore\n        /* \"#utility.yul\":14999:15222   */\n      pop\n      jump\t// out\n        /* \"#utility.yul\":15228:15594   */\n    tag_170:\n        /* \"#utility.yul\":15370:15373   */\n      0x00\n        /* \"#utility.yul\":15391:15458   */\n      tag_342\n        /* \"#utility.yul\":15455:15457   */\n      0x24\n        /* \"#utility.yul\":15450:15453   */\n      dup4\n        /* \"#utility.yul\":15391:15458   */\n      tag_139\n      jump\t// in\n    tag_342:\n        /* \"#utility.yul\":15384:15458   */\n      swap2\n      pop\n        /* \"#utility.yul\":15467:15560   */\n      tag_343\n        /* \"#utility.yul\":15556:15559   */\n      dup3\n        /* \"#utility.yul\":15467:15560   */\n      tag_169\n      jump\t// in\n    tag_343:\n        /* \"#utility.yul\":15585:15587   */\n      0x40\n        /* \"#utility.yul\":15580:15583   */\n      dup3\n        /* \"#utility.yul\":15576:15588   */\n      add\n        /* \"#utility.yul\":15569:15588   */\n      swap1\n      pop\n        /* \"#utility.yul\":15228:15594   */\n      swap2\n      swap1\n      pop\n      jump\t// out\n        /* \"#utility.yul\":15600:16019   */\n    tag_88:\n        /* \"#utility.yul\":15766:15770   */\n      0x00\n        /* \"#utility.yul\":15804:15806   */\n      0x20\n        /* \"#utility.yul\":15793:15802   */\n      dup3\n        /* \"#utility.yul\":15789:15807   */\n      add\n        /* \"#utility.yul\":15781:15807   */\n      swap1\n      pop\n        /* \"#utility.yul\":15853:15862   */\n      dup2\n        /* \"#utility.yul\":15847:15851   */\n      dup2\n        /* \"#utility.yul\":15843:15863   */\n      sub\n        /* \"#utility.yul\":15839:15840   */\n      0x00\n        /* \"#utility.yul\":15828:15837   */\n      dup4\n        /* \"#utility.yul\":15824:15841   */\n      add\n        /* \"#utility.yul\":15817:15864   */\n      mstore\n        /* \"#utility.yul\":15881:16012   */\n      tag_345\n        /* \"#utility.yul\":16007:16011   */\n      dup2\n        /* \"#utility.yul\":15881:16012   */\n      tag_170\n      jump\t// in\n    tag_345:\n        /* \"#utility.yul\":15873:16012   */\n      swap1\n      pop\n        /* \"#utility.yul\":15600:16019   */\n      swap2\n      swap1\n      pop\n      jump\t// out\n        /* \"#utility.yul\":16025:16259   */\n    tag_171:\n        /* \"#utility.yul\":16165:16199   */\n      0x4e6577206d6178206c656e677468206f66207477656574206e656564206c6f6e\n        /* \"#utility.yul\":16161:16162   */\n      0x00\n        /* \"#utility.yul\":16153:16159   */\n      dup3\n        /* \"#utility.yul\":16149:16163   */\n      add\n        /* \"#utility.yul\":16142:16200   */\n      mstore\n        /* \"#utility.yul\":16234:16251   */\n      0x676572206d696e206c656e6774682e0000000000000000000000000000000000\n        /* \"#utility.yul\":16229:16231   */\n      0x20\n        /* \"#utility.yul\":16221:16227   */\n      dup3\n        /* \"#utility.yul\":16217:16232   */\n      add\n        /* \"#utility.yul\":16210:16252   */\n      mstore\n        /* \"#utility.yul\":16025:16259   */\n      pop\n      jump\t// out\n        /* \"#utility.yul\":16265:16631   */\n    tag_172:\n        /* \"#utility.yul\":16407:16410   */\n      0x00\n        /* \"#utility.yul\":16428:16495   */\n      tag_348\n        /* \"#utility.yul\":16492:16494   */\n      0x2f\n        /* \"#utility.yul\":16487:16490   */\n      dup4\n        /* \"#utility.yul\":16428:16495   */\n      tag_139\n      jump\t// in\n    tag_348:\n        /* \"#utility.yul\":16421:16495   */\n      swap2\n      pop\n        /* \"#utility.yul\":16504:16597   */\n      tag_349\n        /* \"#utility.yul\":16593:16596   */\n      dup3\n        /* \"#utility.yul\":16504:16597   */\n      tag_171\n      jump\t// in\n    tag_349:\n        /* \"#utility.yul\":16622:16624   */\n      0x40\n        /* \"#utility.yul\":16617:16620   */\n      dup3\n        /* \"#utility.yul\":16613:16625   */\n      add\n        /* \"#utility.yul\":16606:16625   */\n      swap1\n      pop\n        /* \"#utility.yul\":16265:16631   */\n      swap2\n      swap1\n      pop\n      jump\t// out\n        /* \"#utility.yul\":16637:17056   */\n    tag_92:\n        /* \"#utility.yul\":16803:16807   */\n      0x00\n        /* \"#utility.yul\":16841:16843   */\n      0x20\n        /* \"#utility.yul\":16830:16839   */\n      dup3\n        /* \"#utility.yul\":16826:16844   */\n      add\n        /* \"#utility.yul\":16818:16844   */\n      swap1\n      pop\n        /* \"#utility.yul\":16890:16899   */\n      dup2\n        /* \"#utility.yul\":16884:16888   */\n      dup2\n        /* \"#utility.yul\":16880:16900   */\n      sub\n        /* \"#utility.yul\":16876:16877   */\n      0x00\n        /* \"#utility.yul\":16865:16874   */\n      dup4\n        /* \"#utility.yul\":16861:16878   */\n      add\n        /* \"#utility.yul\":16854:16901   */\n      mstore\n        /* \"#utility.yul\":16918:17049   */\n      tag_351\n        /* \"#utility.yul\":17044:17048   */\n      dup2\n        /* \"#utility.yul\":16918:17049   */\n      tag_172\n      jump\t// in\n    tag_351:\n        /* \"#utility.yul\":16910:17049   */\n      swap1\n      pop\n        /* \"#utility.yul\":16637:17056   */\n      swap2\n      swap1\n      pop\n      jump\t// out\n        /* \"#utility.yul\":17062:17229   */\n    tag_173:\n        /* \"#utility.yul\":17202:17221   */\n      0x547765657420697320746f2073686f7274000000000000000000000000000000\n        /* \"#utility.yul\":17198:17199   */\n      0x00\n        /* \"#utility.yul\":17190:17196   */\n      dup3\n        /* \"#utility.yul\":17186:17200   */\n      add\n        /* \"#utility.yul\":17179:17222   */\n      mstore\n        /* \"#utility.yul\":17062:17229   */\n      pop\n      jump\t// out\n        /* \"#utility.yul\":17235:17601   */\n    tag_174:\n        /* \"#utility.yul\":17377:17380   */\n      0x00\n        /* \"#utility.yul\":17398:17465   */\n      tag_354\n        /* \"#utility.yul\":17462:17464   */\n      0x11\n        /* \"#utility.yul\":17457:17460   */\n      dup4\n        /* \"#utility.yul\":17398:17465   */\n      tag_139\n      jump\t// in\n    tag_354:\n        /* \"#utility.yul\":17391:17465   */\n      swap2\n      pop\n        /* \"#utility.yul\":17474:17567   */\n      tag_355\n        /* \"#utility.yul\":17563:17566   */\n      dup3\n        /* \"#utility.yul\":17474:17567   */\n      tag_173\n      jump\t// in\n    tag_355:\n        /* \"#utility.yul\":17592:17594   */\n      0x20\n        /* \"#utility.yul\":17587:17590   */\n      dup3\n        /* \"#utility.yul\":17583:17595   */\n      add\n        /* \"#utility.yul\":17576:17595   */\n      swap1\n      pop\n        /* \"#utility.yul\":17235:17601   */\n      swap2\n      swap1\n      pop\n      jump\t// out\n        /* \"#utility.yul\":17607:18026   */\n    tag_97:\n        /* \"#utility.yul\":17773:17777   */\n      0x00\n        /* \"#utility.yul\":17811:17813   */\n      0x20\n        /* \"#utility.yul\":17800:17809   */\n      dup3\n        /* \"#utility.yul\":17796:17814   */\n      add\n        /* \"#utility.yul\":17788:17814   */\n      swap1\n      pop\n        /* \"#utility.yul\":17860:17869   */\n      dup2\n        /* \"#utility.yul\":17854:17858   */\n      dup2\n        /* \"#utility.yul\":17850:17870   */\n      sub\n        /* \"#utility.yul\":17846:17847   */\n      0x00\n        /* \"#utility.yul\":17835:17844   */\n      dup4\n        /* \"#utility.yul\":17831:17848   */\n      add\n        /* \"#utility.yul\":17824:17871   */\n      mstore\n        /* \"#utility.yul\":17888:18019   */\n      tag_357\n        /* \"#utility.yul\":18014:18018   */\n      dup2\n        /* \"#utility.yul\":17888:18019   */\n      tag_174\n      jump\t// in\n    tag_357:\n        /* \"#utility.yul\":17880:18019   */\n      swap1\n      pop\n        /* \"#utility.yul\":17607:18026   */\n      swap2\n      swap1\n      pop\n      jump\t// out\n        /* \"#utility.yul\":18032:18198   */\n    tag_175:\n        /* \"#utility.yul\":18172:18190   */\n      0x547765657420697320746f206c6f6e6700000000000000000000000000000000\n        /* \"#utility.yul\":18168:18169   */\n      0x00\n        /* \"#utility.yul\":18160:18166   */\n      dup3\n        /* \"#utility.yul\":18156:18170   */\n      add\n        /* \"#utility.yul\":18149:18191   */\n      mstore\n        /* \"#utility.yul\":18032:18198   */\n      pop\n      jump\t// out\n        /* \"#utility.yul\":18204:18570   */\n    tag_176:\n        /* \"#utility.yul\":18346:18349   */\n      0x00\n        /* \"#utility.yul\":18367:18434   */\n      tag_360\n        /* \"#utility.yul\":18431:18433   */\n      0x10\n        /* \"#utility.yul\":18426:18429   */\n      dup4\n        /* \"#utility.yul\":18367:18434   */\n      tag_139\n      jump\t// in\n    tag_360:\n        /* \"#utility.yul\":18360:18434   */\n      swap2\n      pop\n        /* \"#utility.yul\":18443:18536   */\n      tag_361\n        /* \"#utility.yul\":18532:18535   */\n      dup3\n        /* \"#utility.yul\":18443:18536   */\n      tag_175\n      jump\t// in\n    tag_361:\n        /* \"#utility.yul\":18561:18563   */\n      0x20\n        /* \"#utility.yul\":18556:18559   */\n      dup3\n        /* \"#utility.yul\":18552:18564   */\n      add\n        /* \"#utility.yul\":18545:18564   */\n      swap1\n      pop\n        /* \"#utility.yul\":18204:18570   */\n      swap2\n      swap1\n      pop\n      jump\t// out\n        /* \"#utility.yul\":18576:18995   */\n    tag_100:\n        /* \"#utility.yul\":18742:18746   */\n      0x00\n        /* \"#utility.yul\":18780:18782   */\n      0x20\n        /* \"#utility.yul\":18769:18778   */\n      dup3\n        /* \"#utility.yul\":18765:18783   */\n      add\n        /* \"#utility.yul\":18757:18783   */\n      swap1\n      pop\n        /* \"#utility.yul\":18829:18838   */\n      dup2\n        /* \"#utility.yul\":18823:18827   */\n      dup2\n        /* \"#utility.yul\":18819:18839   */\n      sub\n        /* \"#utility.yul\":18815:18816   */\n      0x00\n        /* \"#utility.yul\":18804:18813   */\n      dup4\n        /* \"#utility.yul\":18800:18817   */\n      add\n        /* \"#utility.yul\":18793:18840   */\n      mstore\n        /* \"#utility.yul\":18857:18988   */\n      tag_363\n        /* \"#utility.yul\":18983:18987   */\n      dup2\n        /* \"#utility.yul\":18857:18988   */\n      tag_176\n      jump\t// in\n    tag_363:\n        /* \"#utility.yul\":18849:18988   */\n      swap1\n      pop\n        /* \"#utility.yul\":18576:18995   */\n      swap2\n      swap1\n      pop\n      jump\t// out\n        /* \"#utility.yul\":19001:19142   */\n    tag_177:\n        /* \"#utility.yul\":19050:19054   */\n      0x00\n        /* \"#utility.yul\":19073:19076   */\n      dup2\n        /* \"#utility.yul\":19065:19076   */\n      swap1\n      pop\n        /* \"#utility.yul\":19096:19099   */\n      dup2\n        /* \"#utility.yul\":19093:19094   */\n      0x00\n        /* \"#utility.yul\":19086:19100   */\n      mstore\n        /* \"#utility.yul\":19130:19134   */\n      0x20\n        /* \"#utility.yul\":19127:19128   */\n      0x00\n        /* \"#utility.yul\":19117:19135   */\n      keccak256\n        /* \"#utility.yul\":19109:19135   */\n      swap1\n      pop\n        /* \"#utility.yul\":19001:19142   */\n      swap2\n      swap1\n      pop\n      jump\t// out\n        /* \"#utility.yul\":19148:19241   */\n    tag_178:\n        /* \"#utility.yul\":19185:19191   */\n      0x00\n        /* \"#utility.yul\":19232:19234   */\n      0x20\n        /* \"#utility.yul\":19227:19229   */\n      0x1f\n        /* \"#utility.yul\":19220:19225   */\n      dup4\n        /* \"#utility.yul\":19216:19230   */\n      add\n        /* \"#utility.yul\":19212:19235   */\n      div\n        /* \"#utility.yul\":19202:19235   */\n      swap1\n      pop\n        /* \"#utility.yul\":19148:19241   */\n      swap2\n      swap1\n      pop\n      jump\t// out\n        /* \"#utility.yul\":19247:19354   */\n    tag_179:\n        /* \"#utility.yul\":19291:19299   */\n      0x00\n        /* \"#utility.yul\":19341:19346   */\n      dup3\n        /* \"#utility.yul\":19335:19339   */\n      dup3\n        /* \"#utility.yul\":19331:19347   */\n      shl\n        /* \"#utility.yul\":19310:19347   */\n      swap1\n      pop\n        /* \"#utility.yul\":19247:19354   */\n      swap3\n      swap2\n      pop\n      pop\n      jump\t// out\n        /* \"#utility.yul\":19360:19753   */\n    tag_180:\n        /* \"#utility.yul\":19429:19435   */\n      0x00\n        /* \"#utility.yul\":19479:19480   */\n      0x08\n        /* \"#utility.yul\":19467:19477   */\n      dup4\n        /* \"#utility.yul\":19463:19481   */\n      mul\n        /* \"#utility.yul\":19502:19599   */\n      tag_368\n        /* \"#utility.yul\":19532:19598   */\n      0xffffffffffffffffffffffffffffffffffffffffffffffffffffffffffffffff\n        /* \"#utility.yul\":19521:19530   */\n      dup3\n        /* \"#utility.yul\":19502:19599   */\n      tag_179\n      jump\t// in\n    tag_368:\n        /* \"#utility.yul\":19620:19659   */\n      tag_369\n        /* \"#utility.yul\":19650:19658   */\n      dup7\n        /* \"#utility.yul\":19639:19648   */\n      dup4\n        /* \"#utility.yul\":19620:19659   */\n      tag_179\n      jump\t// in\n    tag_369:\n        /* \"#utility.yul\":19608:19659   */\n      swap6\n      pop\n        /* \"#utility.yul\":19692:19696   */\n      dup1\n        /* \"#utility.yul\":19688:19697   */\n      not\n        /* \"#utility.yul\":19681:19686   */\n      dup5\n        /* \"#utility.yul\":19677:19698   */\n      and\n        /* \"#utility.yul\":19668:19698   */\n      swap4\n      pop\n        /* \"#utility.yul\":19741:19745   */\n      dup1\n        /* \"#utility.yul\":19731:19739   */\n      dup7\n        /* \"#utility.yul\":19727:19746   */\n      and\n        /* \"#utility.yul\":19720:19725   */\n      dup5\n        /* \"#utility.yul\":19717:19747   */\n      or\n        /* \"#utility.yul\":19707:19747   */\n      swap3\n      pop\n        /* \"#utility.yul\":19436:19753   */\n      pop\n      pop\n        /* \"#utility.yul\":19360:19753   */\n      swap4\n      swap3\n      pop\n      pop\n      pop\n      jump\t// out\n        /* \"#utility.yul\":19759:19819   */\n    tag_181:\n        /* \"#utility.yul\":19787:19790   */\n      0x00\n        /* \"#utility.yul\":19808:19813   */\n      dup2\n        /* \"#utility.yul\":19801:19813   */\n      swap1\n      pop\n        /* \"#utility.yul\":19759:19819   */\n      swap2\n      swap1\n      pop\n      jump\t// out\n        /* \"#utility.yul\":19825:19967   */\n    tag_182:\n        /* \"#utility.yul\":19875:19884   */\n      0x00\n        /* \"#utility.yul\":19908:19961   */\n      tag_372\n        /* \"#utility.yul\":19926:19960   */\n      tag_373\n        /* \"#utility.yul\":19935:19959   */\n      tag_374\n        /* \"#utility.yul\":19953:19958   */\n      dup5\n        /* \"#utility.yul\":19935:19959   */\n      tag_133\n      jump\t// in\n    tag_374:\n        /* \"#utility.yul\":19926:19960   */\n      tag_181\n      jump\t// in\n    tag_373:\n        /* \"#utility.yul\":19908:19961   */\n      tag_133\n      jump\t// in\n    tag_372:\n        /* \"#utility.yul\":19895:19961   */\n      swap1\n      pop\n        /* \"#utility.yul\":19825:19967   */\n      swap2\n      swap1\n      pop\n      jump\t// out\n        /* \"#utility.yul\":19973:20048   */\n    tag_183:\n        /* \"#utility.yul\":20016:20019   */\n      0x00\n        /* \"#utility.yul\":20037:20042   */\n      dup2\n        /* \"#utility.yul\":20030:20042   */\n      swap1\n      pop\n        /* \"#utility.yul\":19973:20048   */\n      swap2\n      swap1\n      pop\n      jump\t// out\n        /* \"#utility.yul\":20054:20323   */\n    tag_184:\n        /* \"#utility.yul\":20164:20203   */\n      tag_377\n        /* \"#utility.yul\":20195:20202   */\n      dup4\n        /* \"#utility.yul\":20164:20203   */\n      tag_182\n      jump\t// in\n    tag_377:\n        /* \"#utility.yul\":20225:20316   */\n      tag_378\n        /* \"#utility.yul\":20274:20315   */\n      tag_379\n        /* \"#utility.yul\":20298:20314   */\n      dup3\n        /* \"#utility.yul\":20274:20315   */\n      tag_183\n      jump\t// in\n    tag_379:\n        /* \"#utility.yul\":20266:20272   */\n      dup5\n        /* \"#utility.yul\":20259:20263   */\n      dup5\n        /* \"#utility.yul\":20253:20264   */\n      sload\n        /* \"#utility.yul\":20225:20316   */\n      tag_180\n      jump\t// in\n    tag_378:\n        /* \"#utility.yul\":20219:20223   */\n      dup3\n        /* \"#utility.yul\":20212:20317   */\n      sstore\n        /* \"#utility.yul\":20130:20323   */\n      pop\n        /* \"#utility.yul\":20054:20323   */\n      pop\n      pop\n      pop\n      jump\t// out\n        /* \"#utility.yul\":20329:20402   */\n    tag_185:\n        /* \"#utility.yul\":20374:20377   */\n      0x00\n        /* \"#utility.yul\":20329:20402   */\n      swap1\n      jump\t// out\n        /* \"#utility.yul\":20408:20597   */\n    tag_186:\n        /* \"#utility.yul\":20485:20517   */\n      tag_382\n      tag_185\n      jump\t// in\n    tag_382:\n        /* \"#utility.yul\":20526:20591   */\n      tag_383\n        /* \"#utility.yul\":20584:20590   */\n      dup2\n        /* \"#utility.yul\":20576:20582   */\n      dup5\n        /* \"#utility.yul\":20570:20574   */\n      dup5\n        /* \"#utility.yul\":20526:20591   */\n      tag_184\n      jump\t// in\n    tag_383:\n        /* \"#utility.yul\":20461:20597   */\n      pop\n        /* \"#utility.yul\":20408:20597   */\n      pop\n      pop\n      jump\t// out\n        /* \"#utility.yul\":20603:20789   */\n    tag_187:\n        /* \"#utility.yul\":20663:20783   */\n    tag_385:\n        /* \"#utility.yul\":20680:20683   */\n      dup2\n        /* \"#utility.yul\":20673:20678   */\n      dup2\n        /* \"#utility.yul\":20670:20684   */\n      lt\n        /* \"#utility.yul\":20663:20783   */\n      iszero\n      tag_387\n      jumpi\n        /* \"#utility.yul\":20734:20773   */\n      tag_388\n        /* \"#utility.yul\":20771:20772   */\n      0x00\n        /* \"#utility.yul\":20764:20769   */\n      dup3\n        /* \"#utility.yul\":20734:20773   */\n      tag_186\n      jump\t// in\n    tag_388:\n        /* \"#utility.yul\":20707:20708   */\n      0x01\n        /* \"#utility.yul\":20700:20705   */\n      dup2\n        /* \"#utility.yul\":20696:20709   */\n      add\n        /* \"#utility.yul\":20687:20709   */\n      swap1\n      pop\n        /* \"#utility.yul\":20663:20783   */\n      jump(tag_385)\n    tag_387:\n        /* \"#utility.yul\":20603:20789   */\n      pop\n      pop\n      jump\t// out\n        /* \"#utility.yul\":20795:21338   */\n    tag_188:\n        /* \"#utility.yul\":20896:20898   */\n      0x1f\n        /* \"#utility.yul\":20891:20894   */\n      dup3\n        /* \"#utility.yul\":20888:20899   */\n      gt\n        /* \"#utility.yul\":20885:21331   */\n      iszero\n      tag_390\n      jumpi\n        /* \"#utility.yul\":20930:20968   */\n      tag_391\n        /* \"#utility.yul\":20962:20967   */\n      dup2\n        /* \"#utility.yul\":20930:20968   */\n      tag_177\n      jump\t// in\n    tag_391:\n        /* \"#utility.yul\":21014:21043   */\n      tag_392\n        /* \"#utility.yul\":21032:21042   */\n      dup5\n        /* \"#utility.yul\":21014:21043   */\n      tag_178\n      jump\t// in\n    tag_392:\n        /* \"#utility.yul\":21004:21012   */\n      dup2\n        /* \"#utility.yul\":21000:21044   */\n      add\n        /* \"#utility.yul\":21197:21199   */\n      0x20\n        /* \"#utility.yul\":21185:21195   */\n      dup6\n        /* \"#utility.yul\":21182:21200   */\n      lt\n        /* \"#utility.yul\":21179:21228   */\n      iszero\n      tag_393\n      jumpi\n        /* \"#utility.yul\":21218:21226   */\n      dup2\n        /* \"#utility.yul\":21203:21226   */\n      swap1\n      pop\n        /* \"#utility.yul\":21179:21228   */\n    tag_393:\n        /* \"#utility.yul\":21241:21321   */\n      tag_394\n        /* \"#utility.yul\":21297:21319   */\n      tag_395\n        /* \"#utility.yul\":21315:21318   */\n      dup6\n        /* \"#utility.yul\":21297:21319   */\n      tag_178\n      jump\t// in\n    tag_395:\n        /* \"#utility.yul\":21287:21295   */\n      dup4\n        /* \"#utility.yul\":21283:21320   */\n      add\n        /* \"#utility.yul\":21270:21281   */\n      dup3\n        /* \"#utility.yul\":21241:21321   */\n      tag_187\n      jump\t// in\n    tag_394:\n        /* \"#utility.yul\":20900:21331   */\n      pop\n      pop\n        /* \"#utility.yul\":20885:21331   */\n    tag_390:\n        /* \"#utility.yul\":20795:21338   */\n      pop\n      pop\n      pop\n      jump\t// out\n        /* \"#utility.yul\":21344:21461   */\n    tag_189:\n        /* \"#utility.yul\":21398:21406   */\n      0x00\n        /* \"#utility.yul\":21448:21453   */\n      dup3\n        /* \"#utility.yul\":21442:21446   */\n      dup3\n        /* \"#utility.yul\":21438:21454   */\n      shr\n        /* \"#utility.yul\":21417:21454   */\n      swap1\n      pop\n        /* \"#utility.yul\":21344:21461   */\n      swap3\n      swap2\n      pop\n      pop\n      jump\t// out\n        /* \"#utility.yul\":21467:21636   */\n    tag_190:\n        /* \"#utility.yul\":21511:21517   */\n      0x00\n        /* \"#utility.yul\":21544:21595   */\n      tag_398\n        /* \"#utility.yul\":21592:21593   */\n      0x00\n        /* \"#utility.yul\":21588:21594   */\n      not\n        /* \"#utility.yul\":21580:21585   */\n      dup5\n        /* \"#utility.yul\":21577:21578   */\n      0x08\n        /* \"#utility.yul\":21573:21586   */\n      mul\n        /* \"#utility.yul\":21544:21595   */\n      tag_189\n      jump\t// in\n    tag_398:\n        /* \"#utility.yul\":21540:21596   */\n      not\n        /* \"#utility.yul\":21625:21629   */\n      dup1\n        /* \"#utility.yul\":21619:21623   */\n      dup4\n        /* \"#utility.yul\":21615:21630   */\n      and\n        /* \"#utility.yul\":21605:21630   */\n      swap2\n      pop\n        /* \"#utility.yul\":21518:21636   */\n      pop\n        /* \"#utility.yul\":21467:21636   */\n      swap3\n      swap2\n      pop\n      pop\n      jump\t// out\n        /* \"#utility.yul\":21641:21936   */\n    tag_191:\n        /* \"#utility.yul\":21717:21721   */\n      0x00\n        /* \"#utility.yul\":21863:21892   */\n      tag_400\n        /* \"#utility.yul\":21888:21891   */\n      dup4\n        /* \"#utility.yul\":21882:21886   */\n      dup4\n        /* \"#utility.yul\":21863:21892   */\n      tag_190\n      jump\t// in\n    tag_400:\n        /* \"#utility.yul\":21855:21892   */\n      swap2\n      pop\n        /* \"#utility.yul\":21925:21928   */\n      dup3\n        /* \"#utility.yul\":21922:21923   */\n      0x02\n        /* \"#utility.yul\":21918:21929   */\n      mul\n        /* \"#utility.yul\":21912:21916   */\n      dup3\n        /* \"#utility.yul\":21909:21930   */\n      or\n        /* \"#utility.yul\":21901:21930   */\n      swap1\n      pop\n        /* \"#utility.yul\":21641:21936   */\n      swap3\n      swap2\n      pop\n      pop\n      jump\t// out\n        /* \"#utility.yul\":21941:23336   */\n    tag_103:\n        /* \"#utility.yul\":22058:22095   */\n      tag_402\n        /* \"#utility.yul\":22091:22094   */\n      dup3\n        /* \"#utility.yul\":22058:22095   */\n      tag_138\n      jump\t// in\n    tag_402:\n        /* \"#utility.yul\":22160:22178   */\n      0xffffffffffffffff\n        /* \"#utility.yul\":22152:22158   */\n      dup2\n        /* \"#utility.yul\":22149:22179   */\n      gt\n        /* \"#utility.yul\":22146:22202   */\n      iszero\n      tag_403\n      jumpi\n        /* \"#utility.yul\":22182:22200   */\n      tag_404\n      tag_161\n      jump\t// in\n    tag_404:\n        /* \"#utility.yul\":22146:22202   */\n    tag_403:\n        /* \"#utility.yul\":22226:22264   */\n      tag_405\n        /* \"#utility.yul\":22258:22262   */\n      dup3\n        /* \"#utility.yul\":22252:22263   */\n      sload\n        /* \"#utility.yul\":22226:22264   */\n      tag_61\n      jump\t// in\n    tag_405:\n        /* \"#utility.yul\":22311:22378   */\n      tag_406\n        /* \"#utility.yul\":22371:22377   */\n      dup3\n        /* \"#utility.yul\":22363:22369   */\n      dup3\n        /* \"#utility.yul\":22357:22361   */\n      dup6\n        /* \"#utility.yul\":22311:22378   */\n      tag_188\n      jump\t// in\n    tag_406:\n        /* \"#utility.yul\":22405:22406   */\n      0x00\n        /* \"#utility.yul\":22429:22433   */\n      0x20\n        /* \"#utility.yul\":22416:22433   */\n      swap1\n      pop\n        /* \"#utility.yul\":22461:22463   */\n      0x1f\n        /* \"#utility.yul\":22453:22459   */\n      dup4\n        /* \"#utility.yul\":22450:22464   */\n      gt\n        /* \"#utility.yul\":22478:22479   */\n      0x01\n        /* \"#utility.yul\":22473:23091   */\n      dup2\n      eq\n      tag_408\n      jumpi\n        /* \"#utility.yul\":23135:23136   */\n      0x00\n        /* \"#utility.yul\":23152:23158   */\n      dup5\n        /* \"#utility.yul\":23149:23226   */\n      iszero\n      tag_409\n      jumpi\n        /* \"#utility.yul\":23201:23210   */\n      dup3\n        /* \"#utility.yul\":23196:23199   */\n      dup8\n        /* \"#utility.yul\":23192:23211   */\n      add\n        /* \"#utility.yul\":23186:23212   */\n      mload\n        /* \"#utility.yul\":23177:23212   */\n      swap1\n      pop\n        /* \"#utility.yul\":23149:23226   */\n    tag_409:\n        /* \"#utility.yul\":23252:23319   */\n      tag_410\n        /* \"#utility.yul\":23312:23318   */\n      dup6\n        /* \"#utility.yul\":23305:23310   */\n      dup3\n        /* \"#utility.yul\":23252:23319   */\n      tag_191\n      jump\t// in\n    tag_410:\n        /* \"#utility.yul\":23246:23250   */\n      dup7\n        /* \"#utility.yul\":23239:23320   */\n      sstore\n        /* \"#utility.yul\":23108:23330   */\n      pop\n        /* \"#utility.yul\":22443:23330   */\n      jump(tag_407)\n        /* \"#utility.yul\":22473:23091   */\n    tag_408:\n        /* \"#utility.yul\":22525:22529   */\n      0x1f\n        /* \"#utility.yul\":22521:22530   */\n      not\n        /* \"#utility.yul\":22513:22519   */\n      dup5\n        /* \"#utility.yul\":22509:22531   */\n      and\n        /* \"#utility.yul\":22559:22596   */\n      tag_411\n        /* \"#utility.yul\":22591:22595   */\n      dup7\n        /* \"#utility.yul\":22559:22596   */\n      tag_177\n      jump\t// in\n    tag_411:\n        /* \"#utility.yul\":22618:22619   */\n      0x00\n        /* \"#utility.yul\":22632:22840   */\n    tag_412:\n        /* \"#utility.yul\":22646:22653   */\n      dup3\n        /* \"#utility.yul\":22643:22644   */\n      dup2\n        /* \"#utility.yul\":22640:22654   */\n      lt\n        /* \"#utility.yul\":22632:22840   */\n      iszero\n      tag_414\n      jumpi\n        /* \"#utility.yul\":22725:22734   */\n      dup5\n        /* \"#utility.yul\":22720:22723   */\n      dup10\n        /* \"#utility.yul\":22716:22735   */\n      add\n        /* \"#utility.yul\":22710:22736   */\n      mload\n        /* \"#utility.yul\":22702:22708   */\n      dup3\n        /* \"#utility.yul\":22695:22737   */\n      sstore\n        /* \"#utility.yul\":22776:22777   */\n      0x01\n        /* \"#utility.yul\":22768:22774   */\n      dup3\n        /* \"#utility.yul\":22764:22778   */\n      add\n        /* \"#utility.yul\":22754:22778   */\n      swap2\n      pop\n        /* \"#utility.yul\":22823:22825   */\n      0x20\n        /* \"#utility.yul\":22812:22821   */\n      dup6\n        /* \"#utility.yul\":22808:22826   */\n      add\n        /* \"#utility.yul\":22795:22826   */\n      swap5\n      pop\n        /* \"#utility.yul\":22669:22673   */\n      0x20\n        /* \"#utility.yul\":22666:22667   */\n      dup2\n        /* \"#utility.yul\":22662:22674   */\n      add\n        /* \"#utility.yul\":22657:22674   */\n      swap1\n      pop\n        /* \"#utility.yul\":22632:22840   */\n      jump(tag_412)\n    tag_414:\n        /* \"#utility.yul\":22868:22874   */\n      dup7\n        /* \"#utility.yul\":22859:22866   */\n      dup4\n        /* \"#utility.yul\":22856:22875   */\n      lt\n        /* \"#utility.yul\":22853:23032   */\n      iszero\n      tag_415\n      jumpi\n        /* \"#utility.yul\":22926:22935   */\n      dup5\n        /* \"#utility.yul\":22921:22924   */\n      dup10\n        /* \"#utility.yul\":22917:22936   */\n      add\n        /* \"#utility.yul\":22911:22937   */\n      mload\n        /* \"#utility.yul\":22969:23017   */\n      tag_416\n        /* \"#utility.yul\":23011:23015   */\n      0x1f\n        /* \"#utility.yul\":23003:23009   */\n      dup10\n        /* \"#utility.yul\":22999:23016   */\n      and\n        /* \"#utility.yul\":22988:22997   */\n      dup3\n        /* \"#utility.yul\":22969:23017   */\n      tag_190\n      jump\t// in\n    tag_416:\n        /* \"#utility.yul\":22961:22967   */\n      dup4\n        /* \"#utility.yul\":22954:23018   */\n      sstore\n        /* \"#utility.yul\":22876:23032   */\n      pop\n        /* \"#utility.yul\":22853:23032   */\n    tag_415:\n        /* \"#utility.yul\":23078:23079   */\n      0x01\n        /* \"#utility.yul\":23074:23075   */\n      0x02\n        /* \"#utility.yul\":23066:23072   */\n      dup9\n        /* \"#utility.yul\":23062:23076   */\n      mul\n        /* \"#utility.yul\":23058:23080   */\n      add\n        /* \"#utility.yul\":23052:23056   */\n      dup9\n        /* \"#utility.yul\":23045:23081   */\n      sstore\n        /* \"#utility.yul\":22480:23091   */\n      pop\n      pop\n      pop\n        /* \"#utility.yul\":22443:23330   */\n    tag_407:\n      pop\n        /* \"#utility.yul\":22033:23336   */\n      pop\n      pop\n      pop\n        /* \"#utility.yul\":21941:23336   */\n      pop\n      pop\n      jump\t// out\n        /* \"#utility.yul\":23342:23986   */\n    tag_105:\n        /* \"#utility.yul\":23539:23543   */\n      0x00\n        /* \"#utility.yul\":23577:23580   */\n      0x80\n        /* \"#utility.yul\":23566:23575   */\n      dup3\n        /* \"#utility.yul\":23562:23581   */\n      add\n        /* \"#utility.yul\":23554:23581   */\n      swap1\n      pop\n        /* \"#utility.yul\":23591:23662   */\n      tag_418\n        /* \"#utility.yul\":23659:23660   */\n      0x00\n        /* \"#utility.yul\":23648:23657   */\n      dup4\n        /* \"#utility.yul\":23644:23661   */\n      add\n        /* \"#utility.yul\":23635:23641   */\n      dup8\n        /* \"#utility.yul\":23591:23662   */\n      tag_136\n      jump\t// in\n    tag_418:\n        /* \"#utility.yul\":23672:23744   */\n      tag_419\n        /* \"#utility.yul\":23740:23742   */\n      0x20\n        /* \"#utility.yul\":23729:23738   */\n      dup4\n        /* \"#utility.yul\":23725:23743   */\n      add\n        /* \"#utility.yul\":23716:23722   */\n      dup7\n        /* \"#utility.yul\":23672:23744   */\n      tag_137\n      jump\t// in\n    tag_419:\n        /* \"#utility.yul\":23791:23800   */\n      dup2\n        /* \"#utility.yul\":23785:23789   */\n      dup2\n        /* \"#utility.yul\":23781:23801   */\n      sub\n        /* \"#utility.yul\":23776:23778   */\n      0x40\n        /* \"#utility.yul\":23765:23774   */\n      dup4\n        /* \"#utility.yul\":23761:23779   */\n      add\n        /* \"#utility.yul\":23754:23802   */\n      mstore\n        /* \"#utility.yul\":23819:23897   */\n      tag_420\n        /* \"#utility.yul\":23892:23896   */\n      dup2\n        /* \"#utility.yul\":23883:23889   */\n      dup6\n        /* \"#utility.yul\":23819:23897   */\n      tag_142\n      jump\t// in\n    tag_420:\n        /* \"#utility.yul\":23811:23897   */\n      swap1\n      pop\n        /* \"#utility.yul\":23907:23979   */\n      tag_421\n        /* \"#utility.yul\":23975:23977   */\n      0x60\n        /* \"#utility.yul\":23964:23973   */\n      dup4\n        /* \"#utility.yul\":23960:23978   */\n      add\n        /* \"#utility.yul\":23951:23957   */\n      dup5\n        /* \"#utility.yul\":23907:23979   */\n      tag_136\n      jump\t// in\n    tag_421:\n        /* \"#utility.yul\":23342:23986   */\n      swap6\n      swap5\n      pop\n      pop\n      pop\n      pop\n      pop\n      jump\t// out\n        /* \"#utility.yul\":23992:24172   */\n    tag_192:\n        /* \"#utility.yul\":24040:24117   */\n      0x4e487b7100000000000000000000000000000000000000000000000000000000\n        /* \"#utility.yul\":24037:24038   */\n      0x00\n        /* \"#utility.yul\":24030:24118   */\n      mstore\n        /* \"#utility.yul\":24137:24141   */\n      0x11\n        /* \"#utility.yul\":24134:24135   */\n      0x04\n        /* \"#utility.yul\":24127:24142   */\n      mstore\n        /* \"#utility.yul\":24161:24165   */\n      0x24\n        /* \"#utility.yul\":24158:24159   */\n      0x00\n        /* \"#utility.yul\":24151:24166   */\n      revert\n        /* \"#utility.yul\":24178:24411   */\n    tag_117:\n        /* \"#utility.yul\":24217:24220   */\n      0x00\n        /* \"#utility.yul\":24240:24264   */\n      tag_424\n        /* \"#utility.yul\":24258:24263   */\n      dup3\n        /* \"#utility.yul\":24240:24264   */\n      tag_133\n      jump\t// in\n    tag_424:\n        /* \"#utility.yul\":24231:24264   */\n      swap2\n      pop\n        /* \"#utility.yul\":24286:24352   */\n      0xffffffffffffffffffffffffffffffffffffffffffffffffffffffffffffffff\n        /* \"#utility.yul\":24279:24284   */\n      dup3\n        /* \"#utility.yul\":24276:24353   */\n      sub\n        /* \"#utility.yul\":24273:24376   */\n      tag_425\n      jumpi\n        /* \"#utility.yul\":24356:24374   */\n      tag_426\n      tag_192\n      jump\t// in\n    tag_426:\n        /* \"#utility.yul\":24273:24376   */\n    tag_425:\n        /* \"#utility.yul\":24403:24404   */\n      0x01\n        /* \"#utility.yul\":24396:24401   */\n      dup3\n        /* \"#utility.yul\":24392:24405   */\n      add\n        /* \"#utility.yul\":24385:24405   */\n      swap1\n      pop\n        /* \"#utility.yul\":24178:24411   */\n      swap2\n      swap1\n      pop\n      jump\t// out\n\n    auxdata: 0xa264697066735822122000e0108164bb469782147ac658922408e9ee87eb3b070f78d2781306f289f2a564736f6c63430008160033\n}\n",
				"bytecode": {
					"linkReferences": {},
					"object": "6080604052600a5f806101000a81548161ffff021916908361ffff1602179055506101005f60026101000a81548161ffff021916908361ffff160217905550348015610049575f80fd5b50335f60046101000a81548173ffffffffffffffffffffffffffffffffffffffff021916908373ffffffffffffffffffffffffffffffffffffffff16021790555061178e806100975f395ff3fe608060405234801561000f575f80fd5b506004361061009c575f3560e01c80636eb10797116100645780636eb107971461016e5780637c9cd2bc1461018c5780638da5cb5b146101a8578063aefedbc2146101c6578063fbc6fcc1146101e45761009c565b806305a1b4a9146100a057806307cd5a62146100d4578063112f54e3146101045780634545c7be14610134578063472a984414610150575b5f80fd5b6100ba60048036038101906100b59190610bc7565b610214565b6040516100cb959493929190610cad565b60405180910390f35b6100ee60048036038101906100e99190610d05565b610305565b6040516100fb9190610ec4565b60405180910390f35b61011e60048036038101906101199190610bc7565b6104a0565b60405161012b9190610f57565b60405180910390f35b61014e60048036038101906101499190610fae565b610528565b005b610158610631565b6040516101659190610fe8565b60405180910390f35b610176610642565b6040516101839190610fe8565b60405180910390f35b6101a660048036038101906101a1919061112d565b610655565b005b6101b06108af565b6040516101bd9190611174565b60405180910390f35b6101ce6108d4565b6040516101db9190610ec4565b60405180910390f35b6101fe60048036038101906101f9919061118d565b6108e4565b60405161020b9190610f57565b60405180910390f35b6001602052815f5260405f20818154811061022d575f80fd5b905f5260205f2090600502015f9150915050805f015490806001015f9054906101000a900473ffffffffffffffffffffffffffffffffffffffff1690806002018054610278906111e5565b80601f01602080910402602001604051908101604052809291908181526020018280546102a4906111e5565b80156102ef5780601f106102c6576101008083540402835291602001916102ef565b820191905f5260205f20905b8154815290600101906020018083116102d257829003601f168201915b5050505050908060030154908060040154905085565b606060015f8373ffffffffffffffffffffffffffffffffffffffff1673ffffffffffffffffffffffffffffffffffffffff1681526020019081526020015f20805480602002602001604051908101604052809291908181526020015f905b82821015610495578382905f5260205f2090600502016040518060a00160405290815f8201548152602001600182015f9054906101000a900473ffffffffffffffffffffffffffffffffffffffff1673ffffffffffffffffffffffffffffffffffffffff1673ffffffffffffffffffffffffffffffffffffffff1681526020016002820180546103f2906111e5565b80601f016020809104026020016040519081016040528092919081815260200182805461041e906111e5565b80156104695780601f1061044057610100808354040283529160200191610469565b820191905f5260205f20905b81548152906001019060200180831161044c57829003601f168201915b505050505081526020016003820154815260200160048201548152505081526020019060010190610363565b505050509050919050565b6104a8610ae8565b5f6104b284610305565b90505f8184815181106104c8576104c7611215565b5b60200260200101519050806020015173ffffffffffffffffffffffffffffffffffffffff163373ffffffffffffffffffffffffffffffffffffffff161461051c5761051385856108fd565b92505050610522565b80925050505b92915050565b5f60049054906101000a900473ffffffffffffffffffffffffffffffffffffffff168073ffffffffffffffffffffffffffffffffffffffff163373ffffffffffffffffffffffffffffffffffffffff16146105b8576040517f08c379a00000000000000000000000000000000000000000000000000000000081526004016105af906112b2565b60405180910390fd5b815f8054906101000a900461ffff1661ffff168161ffff1611610610576040517f08c379a000000000000000000000000000000000000000000000000000000000815260040161060790611340565b60405180910390fd5b825f60026101000a81548161ffff021916908361ffff160217905550505050565b5f8054906101000a900461ffff1681565b5f60029054906101000a900461ffff1681565b5f8054906101000a900461ffff1661ffff16815110156106aa576040517f08c379a00000000000000000000000000000000000000000000000000000000081526004016106a1906113a8565b60405180910390fd5b5f60029054906101000a900461ffff1661ffff1681511115610701576040517f08c379a00000000000000000000000000000000000000000000000000000000081526004016106f890611410565b60405180910390fd5b5f6040518060a0016040528060015f3373ffffffffffffffffffffffffffffffffffffffff1673ffffffffffffffffffffffffffffffffffffffff1681526020019081526020015f208054905081526020013373ffffffffffffffffffffffffffffffffffffffff1681526020018381526020014281526020015f815250905060015f3373ffffffffffffffffffffffffffffffffffffffff1673ffffffffffffffffffffffffffffffffffffffff1681526020019081526020015f2081908060018154018082558091505060019003905f5260205f2090600502015f909190919091505f820151815f01556020820151816001015f6101000a81548173ffffffffffffffffffffffffffffffffffffffff021916908373ffffffffffffffffffffffffffffffffffffffff160217905550604082015181600201908161084891906115cb565b50606082015181600301556080820151816004015550507f16fd3c13e9d46923e0a8bce11c7b473ec508a72e6c96cd2404b29ce972afc29e815f01518260200151836040015184606001516040516108a3949392919061169a565b60405180910390a15050565b5f60049054906101000a900473ffffffffffffffffffffffffffffffffffffffff1681565b60606108df33610305565b905090565b6108ec610ae8565b6108f633836104a0565b9050919050565b610905610ae8565b60015f8473ffffffffffffffffffffffffffffffffffffffff1673ffffffffffffffffffffffffffffffffffffffff1681526020019081526020015f20828154811061095457610953611215565b5b905f5260205f2090600502016004015f81548092919061097390611711565b919050555060015f8473ffffffffffffffffffffffffffffffffffffffff1673ffffffffffffffffffffffffffffffffffffffff1681526020019081526020015f2082815481106109c7576109c6611215565b5b905f5260205f2090600502016040518060a00160405290815f8201548152602001600182015f9054906101000a900473ffffffffffffffffffffffffffffffffffffffff1673ffffffffffffffffffffffffffffffffffffffff1673ffffffffffffffffffffffffffffffffffffffff168152602001600282018054610a4c906111e5565b80601f0160208091040260200160405190810160405280929190818152602001828054610a78906111e5565b8015610ac35780601f10610a9a57610100808354040283529160200191610ac3565b820191905f5260205f20905b815481529060010190602001808311610aa657829003601f168201915b5050505050815260200160038201548152602001600482015481525050905092915050565b6040518060a001604052805f81526020015f73ffffffffffffffffffffffffffffffffffffffff168152602001606081526020015f81526020015f81525090565b5f604051905090565b5f80fd5b5f80fd5b5f73ffffffffffffffffffffffffffffffffffffffff82169050919050565b5f610b6382610b3a565b9050919050565b610b7381610b59565b8114610b7d575f80fd5b50565b5f81359050610b8e81610b6a565b92915050565b5f819050919050565b610ba681610b94565b8114610bb0575f80fd5b50565b5f81359050610bc181610b9d565b92915050565b5f8060408385031215610bdd57610bdc610b32565b5b5f610bea85828601610b80565b9250506020610bfb85828601610bb3565b9150509250929050565b610c0e81610b94565b82525050565b610c1d81610b59565b82525050565b5f81519050919050565b5f82825260208201905092915050565b5f5b83811015610c5a578082015181840152602081019050610c3f565b5f8484015250505050565b5f601f19601f8301169050919050565b5f610c7f82610c23565b610c898185610c2d565b9350610c99818560208601610c3d565b610ca281610c65565b840191505092915050565b5f60a082019050610cc05f830188610c05565b610ccd6020830187610c14565b8181036040830152610cdf8186610c75565b9050610cee6060830185610c05565b610cfb6080830184610c05565b9695505050505050565b5f60208284031215610d1a57610d19610b32565b5b5f610d2784828501610b80565b91505092915050565b5f81519050919050565b5f82825260208201905092915050565b5f819050602082019050919050565b610d6281610b94565b82525050565b610d7181610b59565b82525050565b5f82825260208201905092915050565b5f610d9182610c23565b610d9b8185610d77565b9350610dab818560208601610c3d565b610db481610c65565b840191505092915050565b5f60a083015f830151610dd45f860182610d59565b506020830151610de76020860182610d68565b5060408301518482036040860152610dff8282610d87565b9150506060830151610e146060860182610d59565b506080830151610e276080860182610d59565b508091505092915050565b5f610e3d8383610dbf565b905092915050565b5f602082019050919050565b5f610e5b82610d30565b610e658185610d3a565b935083602082028501610e7785610d4a565b805f5b85811015610eb25784840389528151610e938582610e32565b9450610e9e83610e45565b925060208a01995050600181019050610e7a565b50829750879550505050505092915050565b5f6020820190508181035f830152610edc8184610e51565b905092915050565b5f60a083015f830151610ef95f860182610d59565b506020830151610f0c6020860182610d68565b5060408301518482036040860152610f248282610d87565b9150506060830151610f396060860182610d59565b506080830151610f4c6080860182610d59565b508091505092915050565b5f6020820190508181035f830152610f6f8184610ee4565b905092915050565b5f61ffff82169050919050565b610f8d81610f77565b8114610f97575f80fd5b50565b5f81359050610fa881610f84565b92915050565b5f60208284031215610fc357610fc2610b32565b5b5f610fd084828501610f9a565b91505092915050565b610fe281610f77565b82525050565b5f602082019050610ffb5f830184610fd9565b92915050565b5f80fd5b5f80fd5b7f4e487b71000000000000000000000000000000000000000000000000000000005f52604160045260245ffd5b61103f82610c65565b810181811067ffffffffffffffff8211171561105e5761105d611009565b5b80604052505050565b5f611070610b29565b905061107c8282611036565b919050565b5f67ffffffffffffffff82111561109b5761109a611009565b5b6110a482610c65565b9050602081019050919050565b828183375f83830152505050565b5f6110d16110cc84611081565b611067565b9050828152602081018484840111156110ed576110ec611005565b5b6110f88482856110b1565b509392505050565b5f82601f83011261111457611113611001565b5b81356111248482602086016110bf565b91505092915050565b5f6020828403121561114257611141610b32565b5b5f82013567ffffffffffffffff81111561115f5761115e610b36565b5b61116b84828501611100565b91505092915050565b5f6020820190506111875f830184610c14565b92915050565b5f602082840312156111a2576111a1610b32565b5b5f6111af84828501610bb3565b91505092915050565b7f4e487b71000000000000000000000000000000000000000000000000000000005f52602260045260245ffd5b5f60028204905060018216806111fc57607f821691505b60208210810361120f5761120e6111b8565b5b50919050565b7f4e487b71000000000000000000000000000000000000000000000000000000005f52603260045260245ffd5b7f546869732061646472657373206973206e6f7420616c6c6f77656420746f20635f8201527f616c6c2e00000000000000000000000000000000000000000000000000000000602082015250565b5f61129c602483610c2d565b91506112a782611242565b604082019050919050565b5f6020820190508181035f8301526112c981611290565b9050919050565b7f4e6577206d6178206c656e677468206f66207477656574206e656564206c6f6e5f8201527f676572206d696e206c656e6774682e0000000000000000000000000000000000602082015250565b5f61132a602f83610c2d565b9150611335826112d0565b604082019050919050565b5f6020820190508181035f8301526113578161131e565b9050919050565b7f547765657420697320746f2073686f72740000000000000000000000000000005f82015250565b5f611392601183610c2d565b915061139d8261135e565b602082019050919050565b5f6020820190508181035f8301526113bf81611386565b9050919050565b7f547765657420697320746f206c6f6e67000000000000000000000000000000005f82015250565b5f6113fa601083610c2d565b9150611405826113c6565b602082019050919050565b5f6020820190508181035f830152611427816113ee565b9050919050565b5f819050815f5260205f209050919050565b5f6020601f8301049050919050565b5f82821b905092915050565b5f6008830261148a7fffffffffffffffffffffffffffffffffffffffffffffffffffffffffffffffff8261144f565b611494868361144f565b95508019841693508086168417925050509392505050565b5f819050919050565b5f6114cf6114ca6114c584610b94565b6114ac565b610b94565b9050919050565b5f819050919050565b6114e8836114b5565b6114fc6114f4826114d6565b84845461145b565b825550505050565b5f90565b611510611504565b61151b8184846114df565b505050565b5b8181101561153e576115335f82611508565b600181019050611521565b5050565b601f821115611583576115548161142e565b61155d84611440565b8101602085101561156c578190505b61158061157885611440565b830182611520565b50505b505050565b5f82821c905092915050565b5f6115a35f1984600802611588565b1980831691505092915050565b5f6115bb8383611594565b9150826002028217905092915050565b6115d482610c23565b67ffffffffffffffff8111156115ed576115ec611009565b5b6115f782546111e5565b611602828285611542565b5f60209050601f831160018114611633575f8415611621578287015190505b61162b85826115b0565b865550611692565b601f1984166116418661142e565b5f5b8281101561166857848901518255600182019150602085019450602081019050611643565b868310156116855784890151611681601f891682611594565b8355505b6001600288020188555050505b505050505050565b5f6080820190506116ad5f830187610c05565b6116ba6020830186610c14565b81810360408301526116cc8185610c75565b90506116db6060830184610c05565b95945050505050565b7f4e487b71000000000000000000000000000000000000000000000000000000005f52601160045260245ffd5b5f61171b82610b94565b91507fffffffffffffffffffffffffffffffffffffffffffffffffffffffffffffffff820361174d5761174c6116e4565b5b60018201905091905056fea264697066735822122000e0108164bb469782147ac658922408e9ee87eb3b070f78d2781306f289f2a564736f6c63430008160033",
					"opcodes": "PUSH1 0x80 PUSH1 0x40 MSTORE PUSH1 0xA PUSH0 DUP1 PUSH2 0x100 EXP DUP2 SLOAD DUP2 PUSH2 0xFFFF MUL NOT AND SWAP1 DUP4 PUSH2 0xFFFF AND MUL OR SWAP1 SSTORE POP PUSH2 0x100 PUSH0 PUSH1 0x2 PUSH2 0x100 EXP DUP2 SLOAD DUP2 PUSH2 0xFFFF MUL NOT AND SWAP1 DUP4 PUSH2 0xFFFF AND MUL OR SWAP1 SSTORE POP CALLVALUE DUP1 ISZERO PUSH2 0x49 JUMPI PUSH0 DUP1 REVERT JUMPDEST POP CALLER PUSH0 PUSH1 0x4 PUSH2 0x100 EXP DUP2 SLOAD DUP2 PUSH20 0xFFFFFFFFFFFFFFFFFFFFFFFFFFFFFFFFFFFFFFFF MUL NOT AND SWAP1 DUP4 PUSH20 0xFFFFFFFFFFFFFFFFFFFFFFFFFFFFFFFFFFFFFFFF AND MUL OR SWAP1 SSTORE POP PUSH2 0x178E DUP1 PUSH2 0x97 PUSH0 CODECOPY PUSH0 RETURN INVALID PUSH1 0x80 PUSH1 0x40 MSTORE CALLVALUE DUP1 ISZERO PUSH2 0xF JUMPI PUSH0 DUP1 REVERT JUMPDEST POP PUSH1 0x4 CALLDATASIZE LT PUSH2 0x9C JUMPI PUSH0 CALLDATALOAD PUSH1 0xE0 SHR DUP1 PUSH4 0x6EB10797 GT PUSH2 0x64 JUMPI DUP1 PUSH4 0x6EB10797 EQ PUSH2 0x16E JUMPI DUP1 PUSH4 0x7C9CD2BC EQ PUSH2 0x18C JUMPI DUP1 PUSH4 0x8DA5CB5B EQ PUSH2 0x1A8 JUMPI DUP1 PUSH4 0xAEFEDBC2 EQ PUSH2 0x1C6 JUMPI DUP1 PUSH4 0xFBC6FCC1 EQ PUSH2 0x1E4 JUMPI PUSH2 0x9C JUMP JUMPDEST DUP1 PUSH4 0x5A1B4A9 EQ PUSH2 0xA0 JUMPI DUP1 PUSH4 0x7CD5A62 EQ PUSH2 0xD4 JUMPI DUP1 PUSH4 0x112F54E3 EQ PUSH2 0x104 JUMPI DUP1 PUSH4 0x4545C7BE EQ PUSH2 0x134 JUMPI DUP1 PUSH4 0x472A9844 EQ PUSH2 0x150 JUMPI JUMPDEST PUSH0 DUP1 REVERT JUMPDEST PUSH2 0xBA PUSH1 0x4 DUP1 CALLDATASIZE SUB DUP2 ADD SWAP1 PUSH2 0xB5 SWAP2 SWAP1 PUSH2 0xBC7 JUMP JUMPDEST PUSH2 0x214 JUMP JUMPDEST PUSH1 0x40 MLOAD PUSH2 0xCB SWAP6 SWAP5 SWAP4 SWAP3 SWAP2 SWAP1 PUSH2 0xCAD JUMP JUMPDEST PUSH1 0x40 MLOAD DUP1 SWAP2 SUB SWAP1 RETURN JUMPDEST PUSH2 0xEE PUSH1 0x4 DUP1 CALLDATASIZE SUB DUP2 ADD SWAP1 PUSH2 0xE9 SWAP2 SWAP1 PUSH2 0xD05 JUMP JUMPDEST PUSH2 0x305 JUMP JUMPDEST PUSH1 0x40 MLOAD PUSH2 0xFB SWAP2 SWAP1 PUSH2 0xEC4 JUMP JUMPDEST PUSH1 0x40 MLOAD DUP1 SWAP2 SUB SWAP1 RETURN JUMPDEST PUSH2 0x11E PUSH1 0x4 DUP1 CALLDATASIZE SUB DUP2 ADD SWAP1 PUSH2 0x119 SWAP2 SWAP1 PUSH2 0xBC7 JUMP JUMPDEST PUSH2 0x4A0 JUMP JUMPDEST PUSH1 0x40 MLOAD PUSH2 0x12B SWAP2 SWAP1 PUSH2 0xF57 JUMP JUMPDEST PUSH1 0x40 MLOAD DUP1 SWAP2 SUB SWAP1 RETURN JUMPDEST PUSH2 0x14E PUSH1 0x4 DUP1 CALLDATASIZE SUB DUP2 ADD SWAP1 PUSH2 0x149 SWAP2 SWAP1 PUSH2 0xFAE JUMP JUMPDEST PUSH2 0x528 JUMP JUMPDEST STOP JUMPDEST PUSH2 0x158 PUSH2 0x631 JUMP JUMPDEST PUSH1 0x40 MLOAD PUSH2 0x165 SWAP2 SWAP1 PUSH2 0xFE8 JUMP JUMPDEST PUSH1 0x40 MLOAD DUP1 SWAP2 SUB SWAP1 RETURN JUMPDEST PUSH2 0x176 PUSH2 0x642 JUMP JUMPDEST PUSH1 0x40 MLOAD PUSH2 0x183 SWAP2 SWAP1 PUSH2 0xFE8 JUMP JUMPDEST PUSH1 0x40 MLOAD DUP1 SWAP2 SUB SWAP1 RETURN JUMPDEST PUSH2 0x1A6 PUSH1 0x4 DUP1 CALLDATASIZE SUB DUP2 ADD SWAP1 PUSH2 0x1A1 SWAP2 SWAP1 PUSH2 0x112D JUMP JUMPDEST PUSH2 0x655 JUMP JUMPDEST STOP JUMPDEST PUSH2 0x1B0 PUSH2 0x8AF JUMP JUMPDEST PUSH1 0x40 MLOAD PUSH2 0x1BD SWAP2 SWAP1 PUSH2 0x1174 JUMP JUMPDEST PUSH1 0x40 MLOAD DUP1 SWAP2 SUB SWAP1 RETURN JUMPDEST PUSH2 0x1CE PUSH2 0x8D4 JUMP JUMPDEST PUSH1 0x40 MLOAD PUSH2 0x1DB SWAP2 SWAP1 PUSH2 0xEC4 JUMP JUMPDEST PUSH1 0x40 MLOAD DUP1 SWAP2 SUB SWAP1 RETURN JUMPDEST PUSH2 0x1FE PUSH1 0x4 DUP1 CALLDATASIZE SUB DUP2 ADD SWAP1 PUSH2 0x1F9 SWAP2 SWAP1 PUSH2 0x118D JUMP JUMPDEST PUSH2 0x8E4 JUMP JUMPDEST PUSH1 0x40 MLOAD PUSH2 0x20B SWAP2 SWAP1 PUSH2 0xF57 JUMP JUMPDEST PUSH1 0x40 MLOAD DUP1 SWAP2 SUB SWAP1 RETURN JUMPDEST PUSH1 0x1 PUSH1 0x20 MSTORE DUP2 PUSH0 MSTORE PUSH1 0x40 PUSH0 KECCAK256 DUP2 DUP2 SLOAD DUP2 LT PUSH2 0x22D JUMPI PUSH0 DUP1 REVERT JUMPDEST SWAP1 PUSH0 MSTORE PUSH1 0x20 PUSH0 KECCAK256 SWAP1 PUSH1 0x5 MUL ADD PUSH0 SWAP2 POP SWAP2 POP POP DUP1 PUSH0 ADD SLOAD SWAP1 DUP1 PUSH1 0x1 ADD PUSH0 SWAP1 SLOAD SWAP1 PUSH2 0x100 EXP SWAP1 DIV PUSH20 0xFFFFFFFFFFFFFFFFFFFFFFFFFFFFFFFFFFFFFFFF AND SWAP1 DUP1 PUSH1 0x2 ADD DUP1 SLOAD PUSH2 0x278 SWAP1 PUSH2 0x11E5 JUMP JUMPDEST DUP1 PUSH1 0x1F ADD PUSH1 0x20 DUP1 SWAP2 DIV MUL PUSH1 0x20 ADD PUSH1 0x40 MLOAD SWAP1 DUP2 ADD PUSH1 0x40 MSTORE DUP1 SWAP3 SWAP2 SWAP1 DUP2 DUP2 MSTORE PUSH1 0x20 ADD DUP3 DUP1 SLOAD PUSH2 0x2A4 SWAP1 PUSH2 0x11E5 JUMP JUMPDEST DUP1 ISZERO PUSH2 0x2EF JUMPI DUP1 PUSH1 0x1F LT PUSH2 0x2C6 JUMPI PUSH2 0x100 DUP1 DUP4 SLOAD DIV MUL DUP4 MSTORE SWAP2 PUSH1 0x20 ADD SWAP2 PUSH2 0x2EF JUMP JUMPDEST DUP3 ADD SWAP2 SWAP1 PUSH0 MSTORE PUSH1 0x20 PUSH0 KECCAK256 SWAP1 JUMPDEST DUP2 SLOAD DUP2 MSTORE SWAP1 PUSH1 0x1 ADD SWAP1 PUSH1 0x20 ADD DUP1 DUP4 GT PUSH2 0x2D2 JUMPI DUP3 SWAP1 SUB PUSH1 0x1F AND DUP3 ADD SWAP2 JUMPDEST POP POP POP POP POP SWAP1 DUP1 PUSH1 0x3 ADD SLOAD SWAP1 DUP1 PUSH1 0x4 ADD SLOAD SWAP1 POP DUP6 JUMP JUMPDEST PUSH1 0x60 PUSH1 0x1 PUSH0 DUP4 PUSH20 0xFFFFFFFFFFFFFFFFFFFFFFFFFFFFFFFFFFFFFFFF AND PUSH20 0xFFFFFFFFFFFFFFFFFFFFFFFFFFFFFFFFFFFFFFFF AND DUP2 MSTORE PUSH1 0x20 ADD SWAP1 DUP2 MSTORE PUSH1 0x20 ADD PUSH0 KECCAK256 DUP1 SLOAD DUP1 PUSH1 0x20 MUL PUSH1 0x20 ADD PUSH1 0x40 MLOAD SWAP1 DUP2 ADD PUSH1 0x40 MSTORE DUP1 SWAP3 SWAP2 SWAP1 DUP2 DUP2 MSTORE PUSH1 0x20 ADD PUSH0 SWAP1 JUMPDEST DUP3 DUP3 LT ISZERO PUSH2 0x495 JUMPI DUP4 DUP3 SWAP1 PUSH0 MSTORE PUSH1 0x20 PUSH0 KECCAK256 SWAP1 PUSH1 0x5 MUL ADD PUSH1 0x40 MLOAD DUP1 PUSH1 0xA0 ADD PUSH1 0x40 MSTORE SWAP1 DUP2 PUSH0 DUP3 ADD SLOAD DUP2 MSTORE PUSH1 0x20 ADD PUSH1 0x1 DUP3 ADD PUSH0 SWAP1 SLOAD SWAP1 PUSH2 0x100 EXP SWAP1 DIV PUSH20 0xFFFFFFFFFFFFFFFFFFFFFFFFFFFFFFFFFFFFFFFF AND PUSH20 0xFFFFFFFFFFFFFFFFFFFFFFFFFFFFFFFFFFFFFFFF AND PUSH20 0xFFFFFFFFFFFFFFFFFFFFFFFFFFFFFFFFFFFFFFFF AND DUP2 MSTORE PUSH1 0x20 ADD PUSH1 0x2 DUP3 ADD DUP1 SLOAD PUSH2 0x3F2 SWAP1 PUSH2 0x11E5 JUMP JUMPDEST DUP1 PUSH1 0x1F ADD PUSH1 0x20 DUP1 SWAP2 DIV MUL PUSH1 0x20 ADD PUSH1 0x40 MLOAD SWAP1 DUP2 ADD PUSH1 0x40 MSTORE DUP1 SWAP3 SWAP2 SWAP1 DUP2 DUP2 MSTORE PUSH1 0x20 ADD DUP3 DUP1 SLOAD PUSH2 0x41E SWAP1 PUSH2 0x11E5 JUMP JUMPDEST DUP1 ISZERO PUSH2 0x469 JUMPI DUP1 PUSH1 0x1F LT PUSH2 0x440 JUMPI PUSH2 0x100 DUP1 DUP4 SLOAD DIV MUL DUP4 MSTORE SWAP2 PUSH1 0x20 ADD SWAP2 PUSH2 0x469 JUMP JUMPDEST DUP3 ADD SWAP2 SWAP1 PUSH0 MSTORE PUSH1 0x20 PUSH0 KECCAK256 SWAP1 JUMPDEST DUP2 SLOAD DUP2 MSTORE SWAP1 PUSH1 0x1 ADD SWAP1 PUSH1 0x20 ADD DUP1 DUP4 GT PUSH2 0x44C JUMPI DUP3 SWAP1 SUB PUSH1 0x1F AND DUP3 ADD SWAP2 JUMPDEST POP POP POP POP POP DUP2 MSTORE PUSH1 0x20 ADD PUSH1 0x3 DUP3 ADD SLOAD DUP2 MSTORE PUSH1 0x20 ADD PUSH1 0x4 DUP3 ADD SLOAD DUP2 MSTORE POP POP DUP2 MSTORE PUSH1 0x20 ADD SWAP1 PUSH1 0x1 ADD SWAP1 PUSH2 0x363 JUMP JUMPDEST POP POP POP POP SWAP1 POP SWAP2 SWAP1 POP JUMP JUMPDEST PUSH2 0x4A8 PUSH2 0xAE8 JUMP JUMPDEST PUSH0 PUSH2 0x4B2 DUP5 PUSH2 0x305 JUMP JUMPDEST SWAP1 POP PUSH0 DUP2 DUP5 DUP2 MLOAD DUP2 LT PUSH2 0x4C8 JUMPI PUSH2 0x4C7 PUSH2 0x1215 JUMP JUMPDEST JUMPDEST PUSH1 0x20 MUL PUSH1 0x20 ADD ADD MLOAD SWAP1 POP DUP1 PUSH1 0x20 ADD MLOAD PUSH20 0xFFFFFFFFFFFFFFFFFFFFFFFFFFFFFFFFFFFFFFFF AND CALLER PUSH20 0xFFFFFFFFFFFFFFFFFFFFFFFFFFFFFFFFFFFFFFFF AND EQ PUSH2 0x51C JUMPI PUSH2 0x513 DUP6 DUP6 PUSH2 0x8FD JUMP JUMPDEST SWAP3 POP POP POP PUSH2 0x522 JUMP JUMPDEST DUP1 SWAP3 POP POP POP JUMPDEST SWAP3 SWAP2 POP POP JUMP JUMPDEST PUSH0 PUSH1 0x4 SWAP1 SLOAD SWAP1 PUSH2 0x100 EXP SWAP1 DIV PUSH20 0xFFFFFFFFFFFFFFFFFFFFFFFFFFFFFFFFFFFFFFFF AND DUP1 PUSH20 0xFFFFFFFFFFFFFFFFFFFFFFFFFFFFFFFFFFFFFFFF AND CALLER PUSH20 0xFFFFFFFFFFFFFFFFFFFFFFFFFFFFFFFFFFFFFFFF AND EQ PUSH2 0x5B8 JUMPI PUSH1 0x40 MLOAD PUSH32 0x8C379A000000000000000000000000000000000000000000000000000000000 DUP2 MSTORE PUSH1 0x4 ADD PUSH2 0x5AF SWAP1 PUSH2 0x12B2 JUMP JUMPDEST PUSH1 0x40 MLOAD DUP1 SWAP2 SUB SWAP1 REVERT JUMPDEST DUP2 PUSH0 DUP1 SLOAD SWAP1 PUSH2 0x100 EXP SWAP1 DIV PUSH2 0xFFFF AND PUSH2 0xFFFF AND DUP2 PUSH2 0xFFFF AND GT PUSH2 0x610 JUMPI PUSH1 0x40 MLOAD PUSH32 0x8C379A000000000000000000000000000000000000000000000000000000000 DUP2 MSTORE PUSH1 0x4 ADD PUSH2 0x607 SWAP1 PUSH2 0x1340 JUMP JUMPDEST PUSH1 0x40 MLOAD DUP1 SWAP2 SUB SWAP1 REVERT JUMPDEST DUP3 PUSH0 PUSH1 0x2 PUSH2 0x100 EXP DUP2 SLOAD DUP2 PUSH2 0xFFFF MUL NOT AND SWAP1 DUP4 PUSH2 0xFFFF AND MUL OR SWAP1 SSTORE POP POP POP POP JUMP JUMPDEST PUSH0 DUP1 SLOAD SWAP1 PUSH2 0x100 EXP SWAP1 DIV PUSH2 0xFFFF AND DUP2 JUMP JUMPDEST PUSH0 PUSH1 0x2 SWAP1 SLOAD SWAP1 PUSH2 0x100 EXP SWAP1 DIV PUSH2 0xFFFF AND DUP2 JUMP JUMPDEST PUSH0 DUP1 SLOAD SWAP1 PUSH2 0x100 EXP SWAP1 DIV PUSH2 0xFFFF AND PUSH2 0xFFFF AND DUP2 MLOAD LT ISZERO PUSH2 0x6AA JUMPI PUSH1 0x40 MLOAD PUSH32 0x8C379A000000000000000000000000000000000000000000000000000000000 DUP2 MSTORE PUSH1 0x4 ADD PUSH2 0x6A1 SWAP1 PUSH2 0x13A8 JUMP JUMPDEST PUSH1 0x40 MLOAD DUP1 SWAP2 SUB SWAP1 REVERT JUMPDEST PUSH0 PUSH1 0x2 SWAP1 SLOAD SWAP1 PUSH2 0x100 EXP SWAP1 DIV PUSH2 0xFFFF AND PUSH2 0xFFFF AND DUP2 MLOAD GT ISZERO PUSH2 0x701 JUMPI PUSH1 0x40 MLOAD PUSH32 0x8C379A000000000000000000000000000000000000000000000000000000000 DUP2 MSTORE PUSH1 0x4 ADD PUSH2 0x6F8 SWAP1 PUSH2 0x1410 JUMP JUMPDEST PUSH1 0x40 MLOAD DUP1 SWAP2 SUB SWAP1 REVERT JUMPDEST PUSH0 PUSH1 0x40 MLOAD DUP1 PUSH1 0xA0 ADD PUSH1 0x40 MSTORE DUP1 PUSH1 0x1 PUSH0 CALLER PUSH20 0xFFFFFFFFFFFFFFFFFFFFFFFFFFFFFFFFFFFFFFFF AND PUSH20 0xFFFFFFFFFFFFFFFFFFFFFFFFFFFFFFFFFFFFFFFF AND DUP2 MSTORE PUSH1 0x20 ADD SWAP1 DUP2 MSTORE PUSH1 0x20 ADD PUSH0 KECCAK256 DUP1 SLOAD SWAP1 POP DUP2 MSTORE PUSH1 0x20 ADD CALLER PUSH20 0xFFFFFFFFFFFFFFFFFFFFFFFFFFFFFFFFFFFFFFFF AND DUP2 MSTORE PUSH1 0x20 ADD DUP4 DUP2 MSTORE PUSH1 0x20 ADD TIMESTAMP DUP2 MSTORE PUSH1 0x20 ADD PUSH0 DUP2 MSTORE POP SWAP1 POP PUSH1 0x1 PUSH0 CALLER PUSH20 0xFFFFFFFFFFFFFFFFFFFFFFFFFFFFFFFFFFFFFFFF AND PUSH20 0xFFFFFFFFFFFFFFFFFFFFFFFFFFFFFFFFFFFFFFFF AND DUP2 MSTORE PUSH1 0x20 ADD SWAP1 DUP2 MSTORE PUSH1 0x20 ADD PUSH0 KECCAK256 DUP2 SWAP1 DUP1 PUSH1 0x1 DUP2 SLOAD ADD DUP1 DUP3 SSTORE DUP1 SWAP2 POP POP PUSH1 0x1 SWAP1 SUB SWAP1 PUSH0 MSTORE PUSH1 0x20 PUSH0 KECCAK256 SWAP1 PUSH1 0x5 MUL ADD PUSH0 SWAP1 SWAP2 SWAP1 SWAP2 SWAP1 SWAP2 POP PUSH0 DUP3 ADD MLOAD DUP2 PUSH0 ADD SSTORE PUSH1 0x20 DUP3 ADD MLOAD DUP2 PUSH1 0x1 ADD PUSH0 PUSH2 0x100 EXP DUP2 SLOAD DUP2 PUSH20 0xFFFFFFFFFFFFFFFFFFFFFFFFFFFFFFFFFFFFFFFF MUL NOT AND SWAP1 DUP4 PUSH20 0xFFFFFFFFFFFFFFFFFFFFFFFFFFFFFFFFFFFFFFFF AND MUL OR SWAP1 SSTORE POP PUSH1 0x40 DUP3 ADD MLOAD DUP2 PUSH1 0x2 ADD SWAP1 DUP2 PUSH2 0x848 SWAP2 SWAP1 PUSH2 0x15CB JUMP JUMPDEST POP PUSH1 0x60 DUP3 ADD MLOAD DUP2 PUSH1 0x3 ADD SSTORE PUSH1 0x80 DUP3 ADD MLOAD DUP2 PUSH1 0x4 ADD SSTORE POP POP PUSH32 0x16FD3C13E9D46923E0A8BCE11C7B473EC508A72E6C96CD2404B29CE972AFC29E DUP2 PUSH0 ADD MLOAD DUP3 PUSH1 0x20 ADD MLOAD DUP4 PUSH1 0x40 ADD MLOAD DUP5 PUSH1 0x60 ADD MLOAD PUSH1 0x40 MLOAD PUSH2 0x8A3 SWAP5 SWAP4 SWAP3 SWAP2 SWAP1 PUSH2 0x169A JUMP JUMPDEST PUSH1 0x40 MLOAD DUP1 SWAP2 SUB SWAP1 LOG1 POP POP JUMP JUMPDEST PUSH0 PUSH1 0x4 SWAP1 SLOAD SWAP1 PUSH2 0x100 EXP SWAP1 DIV PUSH20 0xFFFFFFFFFFFFFFFFFFFFFFFFFFFFFFFFFFFFFFFF AND DUP2 JUMP JUMPDEST PUSH1 0x60 PUSH2 0x8DF CALLER PUSH2 0x305 JUMP JUMPDEST SWAP1 POP SWAP1 JUMP JUMPDEST PUSH2 0x8EC PUSH2 0xAE8 JUMP JUMPDEST PUSH2 0x8F6 CALLER DUP4 PUSH2 0x4A0 JUMP JUMPDEST SWAP1 POP SWAP2 SWAP1 POP JUMP JUMPDEST PUSH2 0x905 PUSH2 0xAE8 JUMP JUMPDEST PUSH1 0x1 PUSH0 DUP5 PUSH20 0xFFFFFFFFFFFFFFFFFFFFFFFFFFFFFFFFFFFFFFFF AND PUSH20 0xFFFFFFFFFFFFFFFFFFFFFFFFFFFFFFFFFFFFFFFF AND DUP2 MSTORE PUSH1 0x20 ADD SWAP1 DUP2 MSTORE PUSH1 0x20 ADD PUSH0 KECCAK256 DUP3 DUP2 SLOAD DUP2 LT PUSH2 0x954 JUMPI PUSH2 0x953 PUSH2 0x1215 JUMP JUMPDEST JUMPDEST SWAP1 PUSH0 MSTORE PUSH1 0x20 PUSH0 KECCAK256 SWAP1 PUSH1 0x5 MUL ADD PUSH1 0x4 ADD PUSH0 DUP2 SLOAD DUP1 SWAP3 SWAP2 SWAP1 PUSH2 0x973 SWAP1 PUSH2 0x1711 JUMP JUMPDEST SWAP2 SWAP1 POP SSTORE POP PUSH1 0x1 PUSH0 DUP5 PUSH20 0xFFFFFFFFFFFFFFFFFFFFFFFFFFFFFFFFFFFFFFFF AND PUSH20 0xFFFFFFFFFFFFFFFFFFFFFFFFFFFFFFFFFFFFFFFF AND DUP2 MSTORE PUSH1 0x20 ADD SWAP1 DUP2 MSTORE PUSH1 0x20 ADD PUSH0 KECCAK256 DUP3 DUP2 SLOAD DUP2 LT PUSH2 0x9C7 JUMPI PUSH2 0x9C6 PUSH2 0x1215 JUMP JUMPDEST JUMPDEST SWAP1 PUSH0 MSTORE PUSH1 0x20 PUSH0 KECCAK256 SWAP1 PUSH1 0x5 MUL ADD PUSH1 0x40 MLOAD DUP1 PUSH1 0xA0 ADD PUSH1 0x40 MSTORE SWAP1 DUP2 PUSH0 DUP3 ADD SLOAD DUP2 MSTORE PUSH1 0x20 ADD PUSH1 0x1 DUP3 ADD PUSH0 SWAP1 SLOAD SWAP1 PUSH2 0x100 EXP SWAP1 DIV PUSH20 0xFFFFFFFFFFFFFFFFFFFFFFFFFFFFFFFFFFFFFFFF AND PUSH20 0xFFFFFFFFFFFFFFFFFFFFFFFFFFFFFFFFFFFFFFFF AND PUSH20 0xFFFFFFFFFFFFFFFFFFFFFFFFFFFFFFFFFFFFFFFF AND DUP2 MSTORE PUSH1 0x20 ADD PUSH1 0x2 DUP3 ADD DUP1 SLOAD PUSH2 0xA4C SWAP1 PUSH2 0x11E5 JUMP JUMPDEST DUP1 PUSH1 0x1F ADD PUSH1 0x20 DUP1 SWAP2 DIV MUL PUSH1 0x20 ADD PUSH1 0x40 MLOAD SWAP1 DUP2 ADD PUSH1 0x40 MSTORE DUP1 SWAP3 SWAP2 SWAP1 DUP2 DUP2 MSTORE PUSH1 0x20 ADD DUP3 DUP1 SLOAD PUSH2 0xA78 SWAP1 PUSH2 0x11E5 JUMP JUMPDEST DUP1 ISZERO PUSH2 0xAC3 JUMPI DUP1 PUSH1 0x1F LT PUSH2 0xA9A JUMPI PUSH2 0x100 DUP1 DUP4 SLOAD DIV MUL DUP4 MSTORE SWAP2 PUSH1 0x20 ADD SWAP2 PUSH2 0xAC3 JUMP JUMPDEST DUP3 ADD SWAP2 SWAP1 PUSH0 MSTORE PUSH1 0x20 PUSH0 KECCAK256 SWAP1 JUMPDEST DUP2 SLOAD DUP2 MSTORE SWAP1 PUSH1 0x1 ADD SWAP1 PUSH1 0x20 ADD DUP1 DUP4 GT PUSH2 0xAA6 JUMPI DUP3 SWAP1 SUB PUSH1 0x1F AND DUP3 ADD SWAP2 JUMPDEST POP POP POP POP POP DUP2 MSTORE PUSH1 0x20 ADD PUSH1 0x3 DUP3 ADD SLOAD DUP2 MSTORE PUSH1 0x20 ADD PUSH1 0x4 DUP3 ADD SLOAD DUP2 MSTORE POP POP SWAP1 POP SWAP3 SWAP2 POP POP JUMP JUMPDEST PUSH1 0x40 MLOAD DUP1 PUSH1 0xA0 ADD PUSH1 0x40 MSTORE DUP1 PUSH0 DUP2 MSTORE PUSH1 0x20 ADD PUSH0 PUSH20 0xFFFFFFFFFFFFFFFFFFFFFFFFFFFFFFFFFFFFFFFF AND DUP2 MSTORE PUSH1 0x20 ADD PUSH1 0x60 DUP2 MSTORE PUSH1 0x20 ADD PUSH0 DUP2 MSTORE PUSH1 0x20 ADD PUSH0 DUP2 MSTORE POP SWAP1 JUMP JUMPDEST PUSH0 PUSH1 0x40 MLOAD SWAP1 POP SWAP1 JUMP JUMPDEST PUSH0 DUP1 REVERT JUMPDEST PUSH0 DUP1 REVERT JUMPDEST PUSH0 PUSH20 0xFFFFFFFFFFFFFFFFFFFFFFFFFFFFFFFFFFFFFFFF DUP3 AND SWAP1 POP SWAP2 SWAP1 POP JUMP JUMPDEST PUSH0 PUSH2 0xB63 DUP3 PUSH2 0xB3A JUMP JUMPDEST SWAP1 POP SWAP2 SWAP1 POP JUMP JUMPDEST PUSH2 0xB73 DUP2 PUSH2 0xB59 JUMP JUMPDEST DUP2 EQ PUSH2 0xB7D JUMPI PUSH0 DUP1 REVERT JUMPDEST POP JUMP JUMPDEST PUSH0 DUP2 CALLDATALOAD SWAP1 POP PUSH2 0xB8E DUP2 PUSH2 0xB6A JUMP JUMPDEST SWAP3 SWAP2 POP POP JUMP JUMPDEST PUSH0 DUP2 SWAP1 POP SWAP2 SWAP1 POP JUMP JUMPDEST PUSH2 0xBA6 DUP2 PUSH2 0xB94 JUMP JUMPDEST DUP2 EQ PUSH2 0xBB0 JUMPI PUSH0 DUP1 REVERT JUMPDEST POP JUMP JUMPDEST PUSH0 DUP2 CALLDATALOAD SWAP1 POP PUSH2 0xBC1 DUP2 PUSH2 0xB9D JUMP JUMPDEST SWAP3 SWAP2 POP POP JUMP JUMPDEST PUSH0 DUP1 PUSH1 0x40 DUP4 DUP6 SUB SLT ISZERO PUSH2 0xBDD JUMPI PUSH2 0xBDC PUSH2 0xB32 JUMP JUMPDEST JUMPDEST PUSH0 PUSH2 0xBEA DUP6 DUP3 DUP7 ADD PUSH2 0xB80 JUMP JUMPDEST SWAP3 POP POP PUSH1 0x20 PUSH2 0xBFB DUP6 DUP3 DUP7 ADD PUSH2 0xBB3 JUMP JUMPDEST SWAP2 POP POP SWAP3 POP SWAP3 SWAP1 POP JUMP JUMPDEST PUSH2 0xC0E DUP2 PUSH2 0xB94 JUMP JUMPDEST DUP3 MSTORE POP POP JUMP JUMPDEST PUSH2 0xC1D DUP2 PUSH2 0xB59 JUMP JUMPDEST DUP3 MSTORE POP POP JUMP JUMPDEST PUSH0 DUP2 MLOAD SWAP1 POP SWAP2 SWAP1 POP JUMP JUMPDEST PUSH0 DUP3 DUP3 MSTORE PUSH1 0x20 DUP3 ADD SWAP1 POP SWAP3 SWAP2 POP POP JUMP JUMPDEST PUSH0 JUMPDEST DUP4 DUP2 LT ISZERO PUSH2 0xC5A JUMPI DUP1 DUP3 ADD MLOAD DUP2 DUP5 ADD MSTORE PUSH1 0x20 DUP2 ADD SWAP1 POP PUSH2 0xC3F JUMP JUMPDEST PUSH0 DUP5 DUP5 ADD MSTORE POP POP POP POP JUMP JUMPDEST PUSH0 PUSH1 0x1F NOT PUSH1 0x1F DUP4 ADD AND SWAP1 POP SWAP2 SWAP1 POP JUMP JUMPDEST PUSH0 PUSH2 0xC7F DUP3 PUSH2 0xC23 JUMP JUMPDEST PUSH2 0xC89 DUP2 DUP6 PUSH2 0xC2D JUMP JUMPDEST SWAP4 POP PUSH2 0xC99 DUP2 DUP6 PUSH1 0x20 DUP7 ADD PUSH2 0xC3D JUMP JUMPDEST PUSH2 0xCA2 DUP2 PUSH2 0xC65 JUMP JUMPDEST DUP5 ADD SWAP2 POP POP SWAP3 SWAP2 POP POP JUMP JUMPDEST PUSH0 PUSH1 0xA0 DUP3 ADD SWAP1 POP PUSH2 0xCC0 PUSH0 DUP4 ADD DUP9 PUSH2 0xC05 JUMP JUMPDEST PUSH2 0xCCD PUSH1 0x20 DUP4 ADD DUP8 PUSH2 0xC14 JUMP JUMPDEST DUP2 DUP2 SUB PUSH1 0x40 DUP4 ADD MSTORE PUSH2 0xCDF DUP2 DUP7 PUSH2 0xC75 JUMP JUMPDEST SWAP1 POP PUSH2 0xCEE PUSH1 0x60 DUP4 ADD DUP6 PUSH2 0xC05 JUMP JUMPDEST PUSH2 0xCFB PUSH1 0x80 DUP4 ADD DUP5 PUSH2 0xC05 JUMP JUMPDEST SWAP7 SWAP6 POP POP POP POP POP POP JUMP JUMPDEST PUSH0 PUSH1 0x20 DUP3 DUP5 SUB SLT ISZERO PUSH2 0xD1A JUMPI PUSH2 0xD19 PUSH2 0xB32 JUMP JUMPDEST JUMPDEST PUSH0 PUSH2 0xD27 DUP5 DUP3 DUP6 ADD PUSH2 0xB80 JUMP JUMPDEST SWAP2 POP POP SWAP3 SWAP2 POP POP JUMP JUMPDEST PUSH0 DUP2 MLOAD SWAP1 POP SWAP2 SWAP1 POP JUMP JUMPDEST PUSH0 DUP3 DUP3 MSTORE PUSH1 0x20 DUP3 ADD SWAP1 POP SWAP3 SWAP2 POP POP JUMP JUMPDEST PUSH0 DUP2 SWAP1 POP PUSH1 0x20 DUP3 ADD SWAP1 POP SWAP2 SWAP1 POP JUMP JUMPDEST PUSH2 0xD62 DUP2 PUSH2 0xB94 JUMP JUMPDEST DUP3 MSTORE POP POP JUMP JUMPDEST PUSH2 0xD71 DUP2 PUSH2 0xB59 JUMP JUMPDEST DUP3 MSTORE POP POP JUMP JUMPDEST PUSH0 DUP3 DUP3 MSTORE PUSH1 0x20 DUP3 ADD SWAP1 POP SWAP3 SWAP2 POP POP JUMP JUMPDEST PUSH0 PUSH2 0xD91 DUP3 PUSH2 0xC23 JUMP JUMPDEST PUSH2 0xD9B DUP2 DUP6 PUSH2 0xD77 JUMP JUMPDEST SWAP4 POP PUSH2 0xDAB DUP2 DUP6 PUSH1 0x20 DUP7 ADD PUSH2 0xC3D JUMP JUMPDEST PUSH2 0xDB4 DUP2 PUSH2 0xC65 JUMP JUMPDEST DUP5 ADD SWAP2 POP POP SWAP3 SWAP2 POP POP JUMP JUMPDEST PUSH0 PUSH1 0xA0 DUP4 ADD PUSH0 DUP4 ADD MLOAD PUSH2 0xDD4 PUSH0 DUP7 ADD DUP3 PUSH2 0xD59 JUMP JUMPDEST POP PUSH1 0x20 DUP4 ADD MLOAD PUSH2 0xDE7 PUSH1 0x20 DUP7 ADD DUP3 PUSH2 0xD68 JUMP JUMPDEST POP PUSH1 0x40 DUP4 ADD MLOAD DUP5 DUP3 SUB PUSH1 0x40 DUP7 ADD MSTORE PUSH2 0xDFF DUP3 DUP3 PUSH2 0xD87 JUMP JUMPDEST SWAP2 POP POP PUSH1 0x60 DUP4 ADD MLOAD PUSH2 0xE14 PUSH1 0x60 DUP7 ADD DUP3 PUSH2 0xD59 JUMP JUMPDEST POP PUSH1 0x80 DUP4 ADD MLOAD PUSH2 0xE27 PUSH1 0x80 DUP7 ADD DUP3 PUSH2 0xD59 JUMP JUMPDEST POP DUP1 SWAP2 POP POP SWAP3 SWAP2 POP POP JUMP JUMPDEST PUSH0 PUSH2 0xE3D DUP4 DUP4 PUSH2 0xDBF JUMP JUMPDEST SWAP1 POP SWAP3 SWAP2 POP POP JUMP JUMPDEST PUSH0 PUSH1 0x20 DUP3 ADD SWAP1 POP SWAP2 SWAP1 POP JUMP JUMPDEST PUSH0 PUSH2 0xE5B DUP3 PUSH2 0xD30 JUMP JUMPDEST PUSH2 0xE65 DUP2 DUP6 PUSH2 0xD3A JUMP JUMPDEST SWAP4 POP DUP4 PUSH1 0x20 DUP3 MUL DUP6 ADD PUSH2 0xE77 DUP6 PUSH2 0xD4A JUMP JUMPDEST DUP1 PUSH0 JUMPDEST DUP6 DUP2 LT ISZERO PUSH2 0xEB2 JUMPI DUP5 DUP5 SUB DUP10 MSTORE DUP2 MLOAD PUSH2 0xE93 DUP6 DUP3 PUSH2 0xE32 JUMP JUMPDEST SWAP5 POP PUSH2 0xE9E DUP4 PUSH2 0xE45 JUMP JUMPDEST SWAP3 POP PUSH1 0x20 DUP11 ADD SWAP10 POP POP PUSH1 0x1 DUP2 ADD SWAP1 POP PUSH2 0xE7A JUMP JUMPDEST POP DUP3 SWAP8 POP DUP8 SWAP6 POP POP POP POP POP POP SWAP3 SWAP2 POP POP JUMP JUMPDEST PUSH0 PUSH1 0x20 DUP3 ADD SWAP1 POP DUP2 DUP2 SUB PUSH0 DUP4 ADD MSTORE PUSH2 0xEDC DUP2 DUP5 PUSH2 0xE51 JUMP JUMPDEST SWAP1 POP SWAP3 SWAP2 POP POP JUMP JUMPDEST PUSH0 PUSH1 0xA0 DUP4 ADD PUSH0 DUP4 ADD MLOAD PUSH2 0xEF9 PUSH0 DUP7 ADD DUP3 PUSH2 0xD59 JUMP JUMPDEST POP PUSH1 0x20 DUP4 ADD MLOAD PUSH2 0xF0C PUSH1 0x20 DUP7 ADD DUP3 PUSH2 0xD68 JUMP JUMPDEST POP PUSH1 0x40 DUP4 ADD MLOAD DUP5 DUP3 SUB PUSH1 0x40 DUP7 ADD MSTORE PUSH2 0xF24 DUP3 DUP3 PUSH2 0xD87 JUMP JUMPDEST SWAP2 POP POP PUSH1 0x60 DUP4 ADD MLOAD PUSH2 0xF39 PUSH1 0x60 DUP7 ADD DUP3 PUSH2 0xD59 JUMP JUMPDEST POP PUSH1 0x80 DUP4 ADD MLOAD PUSH2 0xF4C PUSH1 0x80 DUP7 ADD DUP3 PUSH2 0xD59 JUMP JUMPDEST POP DUP1 SWAP2 POP POP SWAP3 SWAP2 POP POP JUMP JUMPDEST PUSH0 PUSH1 0x20 DUP3 ADD SWAP1 POP DUP2 DUP2 SUB PUSH0 DUP4 ADD MSTORE PUSH2 0xF6F DUP2 DUP5 PUSH2 0xEE4 JUMP JUMPDEST SWAP1 POP SWAP3 SWAP2 POP POP JUMP JUMPDEST PUSH0 PUSH2 0xFFFF DUP3 AND SWAP1 POP SWAP2 SWAP1 POP JUMP JUMPDEST PUSH2 0xF8D DUP2 PUSH2 0xF77 JUMP JUMPDEST DUP2 EQ PUSH2 0xF97 JUMPI PUSH0 DUP1 REVERT JUMPDEST POP JUMP JUMPDEST PUSH0 DUP2 CALLDATALOAD SWAP1 POP PUSH2 0xFA8 DUP2 PUSH2 0xF84 JUMP JUMPDEST SWAP3 SWAP2 POP POP JUMP JUMPDEST PUSH0 PUSH1 0x20 DUP3 DUP5 SUB SLT ISZERO PUSH2 0xFC3 JUMPI PUSH2 0xFC2 PUSH2 0xB32 JUMP JUMPDEST JUMPDEST PUSH0 PUSH2 0xFD0 DUP5 DUP3 DUP6 ADD PUSH2 0xF9A JUMP JUMPDEST SWAP2 POP POP SWAP3 SWAP2 POP POP JUMP JUMPDEST PUSH2 0xFE2 DUP2 PUSH2 0xF77 JUMP JUMPDEST DUP3 MSTORE POP POP JUMP JUMPDEST PUSH0 PUSH1 0x20 DUP3 ADD SWAP1 POP PUSH2 0xFFB PUSH0 DUP4 ADD DUP5 PUSH2 0xFD9 JUMP JUMPDEST SWAP3 SWAP2 POP POP JUMP JUMPDEST PUSH0 DUP1 REVERT JUMPDEST PUSH0 DUP1 REVERT JUMPDEST PUSH32 0x4E487B7100000000000000000000000000000000000000000000000000000000 PUSH0 MSTORE PUSH1 0x41 PUSH1 0x4 MSTORE PUSH1 0x24 PUSH0 REVERT JUMPDEST PUSH2 0x103F DUP3 PUSH2 0xC65 JUMP JUMPDEST DUP2 ADD DUP2 DUP2 LT PUSH8 0xFFFFFFFFFFFFFFFF DUP3 GT OR ISZERO PUSH2 0x105E JUMPI PUSH2 0x105D PUSH2 0x1009 JUMP JUMPDEST JUMPDEST DUP1 PUSH1 0x40 MSTORE POP POP POP JUMP JUMPDEST PUSH0 PUSH2 0x1070 PUSH2 0xB29 JUMP JUMPDEST SWAP1 POP PUSH2 0x107C DUP3 DUP3 PUSH2 0x1036 JUMP JUMPDEST SWAP2 SWAP1 POP JUMP JUMPDEST PUSH0 PUSH8 0xFFFFFFFFFFFFFFFF DUP3 GT ISZERO PUSH2 0x109B JUMPI PUSH2 0x109A PUSH2 0x1009 JUMP JUMPDEST JUMPDEST PUSH2 0x10A4 DUP3 PUSH2 0xC65 JUMP JUMPDEST SWAP1 POP PUSH1 0x20 DUP2 ADD SWAP1 POP SWAP2 SWAP1 POP JUMP JUMPDEST DUP3 DUP2 DUP4 CALLDATACOPY PUSH0 DUP4 DUP4 ADD MSTORE POP POP POP JUMP JUMPDEST PUSH0 PUSH2 0x10D1 PUSH2 0x10CC DUP5 PUSH2 0x1081 JUMP JUMPDEST PUSH2 0x1067 JUMP JUMPDEST SWAP1 POP DUP3 DUP2 MSTORE PUSH1 0x20 DUP2 ADD DUP5 DUP5 DUP5 ADD GT ISZERO PUSH2 0x10ED JUMPI PUSH2 0x10EC PUSH2 0x1005 JUMP JUMPDEST JUMPDEST PUSH2 0x10F8 DUP5 DUP3 DUP6 PUSH2 0x10B1 JUMP JUMPDEST POP SWAP4 SWAP3 POP POP POP JUMP JUMPDEST PUSH0 DUP3 PUSH1 0x1F DUP4 ADD SLT PUSH2 0x1114 JUMPI PUSH2 0x1113 PUSH2 0x1001 JUMP JUMPDEST JUMPDEST DUP2 CALLDATALOAD PUSH2 0x1124 DUP5 DUP3 PUSH1 0x20 DUP7 ADD PUSH2 0x10BF JUMP JUMPDEST SWAP2 POP POP SWAP3 SWAP2 POP POP JUMP JUMPDEST PUSH0 PUSH1 0x20 DUP3 DUP5 SUB SLT ISZERO PUSH2 0x1142 JUMPI PUSH2 0x1141 PUSH2 0xB32 JUMP JUMPDEST JUMPDEST PUSH0 DUP3 ADD CALLDATALOAD PUSH8 0xFFFFFFFFFFFFFFFF DUP2 GT ISZERO PUSH2 0x115F JUMPI PUSH2 0x115E PUSH2 0xB36 JUMP JUMPDEST JUMPDEST PUSH2 0x116B DUP5 DUP3 DUP6 ADD PUSH2 0x1100 JUMP JUMPDEST SWAP2 POP POP SWAP3 SWAP2 POP POP JUMP JUMPDEST PUSH0 PUSH1 0x20 DUP3 ADD SWAP1 POP PUSH2 0x1187 PUSH0 DUP4 ADD DUP5 PUSH2 0xC14 JUMP JUMPDEST SWAP3 SWAP2 POP POP JUMP JUMPDEST PUSH0 PUSH1 0x20 DUP3 DUP5 SUB SLT ISZERO PUSH2 0x11A2 JUMPI PUSH2 0x11A1 PUSH2 0xB32 JUMP JUMPDEST JUMPDEST PUSH0 PUSH2 0x11AF DUP5 DUP3 DUP6 ADD PUSH2 0xBB3 JUMP JUMPDEST SWAP2 POP POP SWAP3 SWAP2 POP POP JUMP JUMPDEST PUSH32 0x4E487B7100000000000000000000000000000000000000000000000000000000 PUSH0 MSTORE PUSH1 0x22 PUSH1 0x4 MSTORE PUSH1 0x24 PUSH0 REVERT JUMPDEST PUSH0 PUSH1 0x2 DUP3 DIV SWAP1 POP PUSH1 0x1 DUP3 AND DUP1 PUSH2 0x11FC JUMPI PUSH1 0x7F DUP3 AND SWAP2 POP JUMPDEST PUSH1 0x20 DUP3 LT DUP2 SUB PUSH2 0x120F JUMPI PUSH2 0x120E PUSH2 0x11B8 JUMP JUMPDEST JUMPDEST POP SWAP2 SWAP1 POP JUMP JUMPDEST PUSH32 0x4E487B7100000000000000000000000000000000000000000000000000000000 PUSH0 MSTORE PUSH1 0x32 PUSH1 0x4 MSTORE PUSH1 0x24 PUSH0 REVERT JUMPDEST PUSH32 0x546869732061646472657373206973206E6F7420616C6C6F77656420746F2063 PUSH0 DUP3 ADD MSTORE PUSH32 0x616C6C2E00000000000000000000000000000000000000000000000000000000 PUSH1 0x20 DUP3 ADD MSTORE POP JUMP JUMPDEST PUSH0 PUSH2 0x129C PUSH1 0x24 DUP4 PUSH2 0xC2D JUMP JUMPDEST SWAP2 POP PUSH2 0x12A7 DUP3 PUSH2 0x1242 JUMP JUMPDEST PUSH1 0x40 DUP3 ADD SWAP1 POP SWAP2 SWAP1 POP JUMP JUMPDEST PUSH0 PUSH1 0x20 DUP3 ADD SWAP1 POP DUP2 DUP2 SUB PUSH0 DUP4 ADD MSTORE PUSH2 0x12C9 DUP2 PUSH2 0x1290 JUMP JUMPDEST SWAP1 POP SWAP2 SWAP1 POP JUMP JUMPDEST PUSH32 0x4E6577206D6178206C656E677468206F66207477656574206E656564206C6F6E PUSH0 DUP3 ADD MSTORE PUSH32 0x676572206D696E206C656E6774682E0000000000000000000000000000000000 PUSH1 0x20 DUP3 ADD MSTORE POP JUMP JUMPDEST PUSH0 PUSH2 0x132A PUSH1 0x2F DUP4 PUSH2 0xC2D JUMP JUMPDEST SWAP2 POP PUSH2 0x1335 DUP3 PUSH2 0x12D0 JUMP JUMPDEST PUSH1 0x40 DUP3 ADD SWAP1 POP SWAP2 SWAP1 POP JUMP JUMPDEST PUSH0 PUSH1 0x20 DUP3 ADD SWAP1 POP DUP2 DUP2 SUB PUSH0 DUP4 ADD MSTORE PUSH2 0x1357 DUP2 PUSH2 0x131E JUMP JUMPDEST SWAP1 POP SWAP2 SWAP1 POP JUMP JUMPDEST PUSH32 0x547765657420697320746F2073686F7274000000000000000000000000000000 PUSH0 DUP3 ADD MSTORE POP JUMP JUMPDEST PUSH0 PUSH2 0x1392 PUSH1 0x11 DUP4 PUSH2 0xC2D JUMP JUMPDEST SWAP2 POP PUSH2 0x139D DUP3 PUSH2 0x135E JUMP JUMPDEST PUSH1 0x20 DUP3 ADD SWAP1 POP SWAP2 SWAP1 POP JUMP JUMPDEST PUSH0 PUSH1 0x20 DUP3 ADD SWAP1 POP DUP2 DUP2 SUB PUSH0 DUP4 ADD MSTORE PUSH2 0x13BF DUP2 PUSH2 0x1386 JUMP JUMPDEST SWAP1 POP SWAP2 SWAP1 POP JUMP JUMPDEST PUSH32 0x547765657420697320746F206C6F6E6700000000000000000000000000000000 PUSH0 DUP3 ADD MSTORE POP JUMP JUMPDEST PUSH0 PUSH2 0x13FA PUSH1 0x10 DUP4 PUSH2 0xC2D JUMP JUMPDEST SWAP2 POP PUSH2 0x1405 DUP3 PUSH2 0x13C6 JUMP JUMPDEST PUSH1 0x20 DUP3 ADD SWAP1 POP SWAP2 SWAP1 POP JUMP JUMPDEST PUSH0 PUSH1 0x20 DUP3 ADD SWAP1 POP DUP2 DUP2 SUB PUSH0 DUP4 ADD MSTORE PUSH2 0x1427 DUP2 PUSH2 0x13EE JUMP JUMPDEST SWAP1 POP SWAP2 SWAP1 POP JUMP JUMPDEST PUSH0 DUP2 SWAP1 POP DUP2 PUSH0 MSTORE PUSH1 0x20 PUSH0 KECCAK256 SWAP1 POP SWAP2 SWAP1 POP JUMP JUMPDEST PUSH0 PUSH1 0x20 PUSH1 0x1F DUP4 ADD DIV SWAP1 POP SWAP2 SWAP1 POP JUMP JUMPDEST PUSH0 DUP3 DUP3 SHL SWAP1 POP SWAP3 SWAP2 POP POP JUMP JUMPDEST PUSH0 PUSH1 0x8 DUP4 MUL PUSH2 0x148A PUSH32 0xFFFFFFFFFFFFFFFFFFFFFFFFFFFFFFFFFFFFFFFFFFFFFFFFFFFFFFFFFFFFFFFF DUP3 PUSH2 0x144F JUMP JUMPDEST PUSH2 0x1494 DUP7 DUP4 PUSH2 0x144F JUMP JUMPDEST SWAP6 POP DUP1 NOT DUP5 AND SWAP4 POP DUP1 DUP7 AND DUP5 OR SWAP3 POP POP POP SWAP4 SWAP3 POP POP POP JUMP JUMPDEST PUSH0 DUP2 SWAP1 POP SWAP2 SWAP1 POP JUMP JUMPDEST PUSH0 PUSH2 0x14CF PUSH2 0x14CA PUSH2 0x14C5 DUP5 PUSH2 0xB94 JUMP JUMPDEST PUSH2 0x14AC JUMP JUMPDEST PUSH2 0xB94 JUMP JUMPDEST SWAP1 POP SWAP2 SWAP1 POP JUMP JUMPDEST PUSH0 DUP2 SWAP1 POP SWAP2 SWAP1 POP JUMP JUMPDEST PUSH2 0x14E8 DUP4 PUSH2 0x14B5 JUMP JUMPDEST PUSH2 0x14FC PUSH2 0x14F4 DUP3 PUSH2 0x14D6 JUMP JUMPDEST DUP5 DUP5 SLOAD PUSH2 0x145B JUMP JUMPDEST DUP3 SSTORE POP POP POP POP JUMP JUMPDEST PUSH0 SWAP1 JUMP JUMPDEST PUSH2 0x1510 PUSH2 0x1504 JUMP JUMPDEST PUSH2 0x151B DUP2 DUP5 DUP5 PUSH2 0x14DF JUMP JUMPDEST POP POP POP JUMP JUMPDEST JUMPDEST DUP2 DUP2 LT ISZERO PUSH2 0x153E JUMPI PUSH2 0x1533 PUSH0 DUP3 PUSH2 0x1508 JUMP JUMPDEST PUSH1 0x1 DUP2 ADD SWAP1 POP PUSH2 0x1521 JUMP JUMPDEST POP POP JUMP JUMPDEST PUSH1 0x1F DUP3 GT ISZERO PUSH2 0x1583 JUMPI PUSH2 0x1554 DUP2 PUSH2 0x142E JUMP JUMPDEST PUSH2 0x155D DUP5 PUSH2 0x1440 JUMP JUMPDEST DUP2 ADD PUSH1 0x20 DUP6 LT ISZERO PUSH2 0x156C JUMPI DUP2 SWAP1 POP JUMPDEST PUSH2 0x1580 PUSH2 0x1578 DUP6 PUSH2 0x1440 JUMP JUMPDEST DUP4 ADD DUP3 PUSH2 0x1520 JUMP JUMPDEST POP POP JUMPDEST POP POP POP JUMP JUMPDEST PUSH0 DUP3 DUP3 SHR SWAP1 POP SWAP3 SWAP2 POP POP JUMP JUMPDEST PUSH0 PUSH2 0x15A3 PUSH0 NOT DUP5 PUSH1 0x8 MUL PUSH2 0x1588 JUMP JUMPDEST NOT DUP1 DUP4 AND SWAP2 POP POP SWAP3 SWAP2 POP POP JUMP JUMPDEST PUSH0 PUSH2 0x15BB DUP4 DUP4 PUSH2 0x1594 JUMP JUMPDEST SWAP2 POP DUP3 PUSH1 0x2 MUL DUP3 OR SWAP1 POP SWAP3 SWAP2 POP POP JUMP JUMPDEST PUSH2 0x15D4 DUP3 PUSH2 0xC23 JUMP JUMPDEST PUSH8 0xFFFFFFFFFFFFFFFF DUP2 GT ISZERO PUSH2 0x15ED JUMPI PUSH2 0x15EC PUSH2 0x1009 JUMP JUMPDEST JUMPDEST PUSH2 0x15F7 DUP3 SLOAD PUSH2 0x11E5 JUMP JUMPDEST PUSH2 0x1602 DUP3 DUP3 DUP6 PUSH2 0x1542 JUMP JUMPDEST PUSH0 PUSH1 0x20 SWAP1 POP PUSH1 0x1F DUP4 GT PUSH1 0x1 DUP2 EQ PUSH2 0x1633 JUMPI PUSH0 DUP5 ISZERO PUSH2 0x1621 JUMPI DUP3 DUP8 ADD MLOAD SWAP1 POP JUMPDEST PUSH2 0x162B DUP6 DUP3 PUSH2 0x15B0 JUMP JUMPDEST DUP7 SSTORE POP PUSH2 0x1692 JUMP JUMPDEST PUSH1 0x1F NOT DUP5 AND PUSH2 0x1641 DUP7 PUSH2 0x142E JUMP JUMPDEST PUSH0 JUMPDEST DUP3 DUP2 LT ISZERO PUSH2 0x1668 JUMPI DUP5 DUP10 ADD MLOAD DUP3 SSTORE PUSH1 0x1 DUP3 ADD SWAP2 POP PUSH1 0x20 DUP6 ADD SWAP5 POP PUSH1 0x20 DUP2 ADD SWAP1 POP PUSH2 0x1643 JUMP JUMPDEST DUP7 DUP4 LT ISZERO PUSH2 0x1685 JUMPI DUP5 DUP10 ADD MLOAD PUSH2 0x1681 PUSH1 0x1F DUP10 AND DUP3 PUSH2 0x1594 JUMP JUMPDEST DUP4 SSTORE POP JUMPDEST PUSH1 0x1 PUSH1 0x2 DUP9 MUL ADD DUP9 SSTORE POP POP POP JUMPDEST POP POP POP POP POP POP JUMP JUMPDEST PUSH0 PUSH1 0x80 DUP3 ADD SWAP1 POP PUSH2 0x16AD PUSH0 DUP4 ADD DUP8 PUSH2 0xC05 JUMP JUMPDEST PUSH2 0x16BA PUSH1 0x20 DUP4 ADD DUP7 PUSH2 0xC14 JUMP JUMPDEST DUP2 DUP2 SUB PUSH1 0x40 DUP4 ADD MSTORE PUSH2 0x16CC DUP2 DUP6 PUSH2 0xC75 JUMP JUMPDEST SWAP1 POP PUSH2 0x16DB PUSH1 0x60 DUP4 ADD DUP5 PUSH2 0xC05 JUMP JUMPDEST SWAP6 SWAP5 POP POP POP POP POP JUMP JUMPDEST PUSH32 0x4E487B7100000000000000000000000000000000000000000000000000000000 PUSH0 MSTORE PUSH1 0x11 PUSH1 0x4 MSTORE PUSH1 0x24 PUSH0 REVERT JUMPDEST PUSH0 PUSH2 0x171B DUP3 PUSH2 0xB94 JUMP JUMPDEST SWAP2 POP PUSH32 0xFFFFFFFFFFFFFFFFFFFFFFFFFFFFFFFFFFFFFFFFFFFFFFFFFFFFFFFFFFFFFFFF DUP3 SUB PUSH2 0x174D JUMPI PUSH2 0x174C PUSH2 0x16E4 JUMP JUMPDEST JUMPDEST PUSH1 0x1 DUP3 ADD SWAP1 POP SWAP2 SWAP1 POP JUMP INVALID LOG2 PUSH5 0x6970667358 0x22 SLT KECCAK256 STOP 0xE0 LT DUP2 PUSH5 0xBB46978214 PUSH27 0xC658922408E9EE87EB3B070F78D2781306F289F2A564736F6C6343 STOP ADDMOD AND STOP CALLER "
				},
				"gasEstimates": {
					"creation": {
						"codeDepositCost": "1206000",
						"executionCost": "74149",
						"totalCost": "1280149"
					},
					"external": {
						"MAX_TWEET_LENGTH()": "2516",
						"MIN_TWEET_LENGTH()": "2552",
						"changeMaxTweetLenth(uint16)": "29186",
						"createTweet(string)": "infinite",
						"getMyTweet(uint256)": "infinite",
						"getMyTweets()": "infinite",
						"getTweet(address,uint256)": "infinite",
						"getTweetsByAddress(address)": "infinite",
						"owner()": "2602",
						"tweets(address,uint256)": "infinite"
					},
					"internal": {
						"incrementAmountViews(address,uint256)": "infinite"
					}
				},
				"methodIdentifiers": {
					"MAX_TWEET_LENGTH()": "6eb10797",
					"MIN_TWEET_LENGTH()": "472a9844",
					"changeMaxTweetLenth(uint16)": "4545c7be",
					"createTweet(string)": "7c9cd2bc",
					"getMyTweet(uint256)": "fbc6fcc1",
					"getMyTweets()": "aefedbc2",
					"getTweet(address,uint256)": "112f54e3",
					"getTweetsByAddress(address)": "07cd5a62",
					"owner()": "8da5cb5b",
					"tweets(address,uint256)": "05a1b4a9"
				}
			},
			"storageLayout": {
				"storage": [
					{
						"astId": 16,
						"contract": "contracts/BasicTwitter.sol:BasicTwitter",
						"label": "MIN_TWEET_LENGTH",
						"offset": 0,
						"slot": "0",
						"type": "t_uint16"
					},
					{
						"astId": 19,
						"contract": "contracts/BasicTwitter.sol:BasicTwitter",
						"label": "MAX_TWEET_LENGTH",
						"offset": 2,
						"slot": "0",
						"type": "t_uint16"
					},
					{
						"astId": 21,
						"contract": "contracts/BasicTwitter.sol:BasicTwitter",
						"label": "owner",
						"offset": 4,
						"slot": "0",
						"type": "t_address"
					},
					{
						"astId": 27,
						"contract": "contracts/BasicTwitter.sol:BasicTwitter",
						"label": "tweets",
						"offset": 0,
						"slot": "1",
						"type": "t_mapping(t_address,t_array(t_struct(Tweet)13_storage)dyn_storage)"
					}
				],
				"types": {
					"t_address": {
						"encoding": "inplace",
						"label": "address",
						"numberOfBytes": "20"
					},
					"t_array(t_struct(Tweet)13_storage)dyn_storage": {
						"base": "t_struct(Tweet)13_storage",
						"encoding": "dynamic_array",
						"label": "struct BasicTwitter.Tweet[]",
						"numberOfBytes": "32"
					},
					"t_mapping(t_address,t_array(t_struct(Tweet)13_storage)dyn_storage)": {
						"encoding": "mapping",
						"key": "t_address",
						"label": "mapping(address => struct BasicTwitter.Tweet[])",
						"numberOfBytes": "32",
						"value": "t_array(t_struct(Tweet)13_storage)dyn_storage"
					},
					"t_string_storage": {
						"encoding": "bytes",
						"label": "string",
						"numberOfBytes": "32"
					},
					"t_struct(Tweet)13_storage": {
						"encoding": "inplace",
						"label": "struct BasicTwitter.Tweet",
						"members": [
							{
								"astId": 4,
								"contract": "contracts/BasicTwitter.sol:BasicTwitter",
								"label": "id",
								"offset": 0,
								"slot": "0",
								"type": "t_uint256"
							},
							{
								"astId": 6,
								"contract": "contracts/BasicTwitter.sol:BasicTwitter",
								"label": "author",
								"offset": 0,
								"slot": "1",
								"type": "t_address"
							},
							{
								"astId": 8,
								"contract": "contracts/BasicTwitter.sol:BasicTwitter",
								"label": "content",
								"offset": 0,
								"slot": "2",
								"type": "t_string_storage"
							},
							{
								"astId": 10,
								"contract": "contracts/BasicTwitter.sol:BasicTwitter",
								"label": "timestamp",
								"offset": 0,
								"slot": "3",
								"type": "t_uint256"
							},
							{
								"astId": 12,
								"contract": "contracts/BasicTwitter.sol:BasicTwitter",
								"label": "amountViews",
								"offset": 0,
								"slot": "4",
								"type": "t_uint256"
							}
						],
						"numberOfBytes": "160"
					},
					"t_uint16": {
						"encoding": "inplace",
						"label": "uint16",
						"numberOfBytes": "2"
					},
					"t_uint256": {
						"encoding": "inplace",
						"label": "uint256",
						"numberOfBytes": "32"
					}
				}
			},
			"userdoc": {
				"kind": "user",
				"methods": {},
				"version": 1
			}
		}
	}
}